{
  "address": "0x56050130926E269091C13EC9A3Da98eF9a325E03",
  "abi": [
    {
      "inputs": [],
      "stateMutability": "nonpayable",
      "type": "constructor"
    },
    {
      "anonymous": false,
      "inputs": [
        {
          "indexed": false,
          "internalType": "address",
          "name": "tokenRecovered",
          "type": "address"
        },
        {
          "indexed": false,
          "internalType": "uint256",
          "name": "amount",
          "type": "uint256"
        }
      ],
      "name": "AdminTokenRecovery",
      "type": "event"
    },
    {
      "anonymous": false,
      "inputs": [
        {
          "indexed": true,
          "internalType": "address",
          "name": "user",
          "type": "address"
        },
        {
          "indexed": false,
          "internalType": "uint256",
          "name": "amount",
          "type": "uint256"
        }
      ],
      "name": "Claim",
      "type": "event"
    },
    {
      "anonymous": false,
      "inputs": [
        {
          "indexed": true,
          "internalType": "address",
          "name": "user",
          "type": "address"
        },
        {
          "indexed": false,
          "internalType": "uint256",
          "name": "amount",
          "type": "uint256"
        }
      ],
      "name": "Deposit",
      "type": "event"
    },
    {
      "anonymous": false,
      "inputs": [
        {
          "indexed": true,
          "internalType": "address",
          "name": "user",
          "type": "address"
        },
        {
          "indexed": false,
          "internalType": "uint256",
          "name": "amount",
          "type": "uint256"
        }
      ],
      "name": "EmergencyWithdraw",
      "type": "event"
    },
    {
      "anonymous": false,
      "inputs": [
        {
          "indexed": false,
          "internalType": "uint256",
          "name": "endBlock",
          "type": "uint256"
        }
      ],
      "name": "NewEndBlock",
      "type": "event"
    },
    {
      "anonymous": false,
      "inputs": [
        {
          "indexed": false,
          "internalType": "uint256",
          "name": "lockUpDuration",
          "type": "uint256"
        }
      ],
      "name": "NewLockUpDuration",
      "type": "event"
    },
    {
      "anonymous": false,
      "inputs": [
        {
          "indexed": false,
          "internalType": "uint256",
          "name": "rewardPerBlock",
          "type": "uint256"
        }
      ],
      "name": "NewRewardPerBlock",
      "type": "event"
    },
    {
      "anonymous": false,
      "inputs": [
        {
          "indexed": false,
          "internalType": "uint256",
          "name": "startBlock",
          "type": "uint256"
        },
        {
          "indexed": false,
          "internalType": "uint256",
          "name": "endBlock",
          "type": "uint256"
        }
      ],
      "name": "NewStartAndEndBlocks",
      "type": "event"
    },
    {
      "anonymous": false,
      "inputs": [
        {
          "indexed": true,
          "internalType": "address",
          "name": "previousOwner",
          "type": "address"
        },
        {
          "indexed": true,
          "internalType": "address",
          "name": "newOwner",
          "type": "address"
        }
      ],
      "name": "OwnershipTransferred",
      "type": "event"
    },
    {
      "anonymous": false,
      "inputs": [
        {
          "indexed": false,
          "internalType": "uint256",
          "name": "blockNumber",
          "type": "uint256"
        }
      ],
      "name": "RewardsStop",
      "type": "event"
    },
    {
      "anonymous": false,
      "inputs": [
        {
          "indexed": true,
          "internalType": "address",
          "name": "user",
          "type": "address"
        },
        {
          "indexed": false,
          "internalType": "uint256",
          "name": "amount",
          "type": "uint256"
        }
      ],
      "name": "Withdraw",
      "type": "event"
    },
    {
      "inputs": [],
      "name": "claim",
      "outputs": [],
      "stateMutability": "nonpayable",
      "type": "function"
    },
    {
      "inputs": [
        {
          "internalType": "uint256",
          "name": "_amount",
          "type": "uint256"
        }
      ],
      "name": "deposit",
      "outputs": [],
      "stateMutability": "nonpayable",
      "type": "function"
    },
    {
      "inputs": [
        {
          "internalType": "uint8",
          "name": "_rewardTokenId",
          "type": "uint8"
        },
        {
          "internalType": "uint256",
          "name": "_amount",
          "type": "uint256"
        }
      ],
      "name": "depositRewardTokenFunds",
      "outputs": [],
      "stateMutability": "nonpayable",
      "type": "function"
    },
    {
      "inputs": [],
      "name": "emergencyWithdraw",
      "outputs": [],
      "stateMutability": "nonpayable",
      "type": "function"
    },
    {
      "inputs": [],
      "name": "endBlock",
      "outputs": [
        {
          "internalType": "uint256",
          "name": "",
          "type": "uint256"
        }
      ],
      "stateMutability": "view",
      "type": "function"
    },
    {
      "inputs": [],
      "name": "feeAddress",
      "outputs": [
        {
          "internalType": "address",
          "name": "",
          "type": "address"
        }
      ],
      "stateMutability": "view",
      "type": "function"
    },
    {
      "inputs": [
        {
          "internalType": "contract IERC20Upgradeable",
          "name": "_stakedToken",
          "type": "address"
        },
        {
          "internalType": "address",
          "name": "_rewardToken1",
          "type": "address"
        },
        {
          "internalType": "address",
          "name": "_rewardToken2",
          "type": "address"
        },
        {
          "internalType": "uint256",
          "name": "_startBlock",
          "type": "uint256"
        },
        {
          "internalType": "uint256",
          "name": "_endBlock",
          "type": "uint256"
        },
        {
          "internalType": "uint256",
          "name": "_lockUpDuration",
          "type": "uint256"
        },
        {
          "internalType": "uint256",
          "name": "_withdrawFee",
          "type": "uint256"
        },
        {
          "internalType": "address",
          "name": "_feeAddress",
          "type": "address"
        },
        {
          "internalType": "uint256",
          "name": "_maxStakeAmount",
          "type": "uint256"
        }
      ],
      "name": "initialize",
      "outputs": [],
      "stateMutability": "nonpayable",
      "type": "function"
    },
    {
      "inputs": [],
      "name": "isInitialized",
      "outputs": [
        {
          "internalType": "bool",
          "name": "",
          "type": "bool"
        }
      ],
      "stateMutability": "view",
      "type": "function"
    },
    {
      "inputs": [],
      "name": "lastUpdateBlock",
      "outputs": [
        {
          "internalType": "uint256",
          "name": "",
          "type": "uint256"
        }
      ],
      "stateMutability": "view",
      "type": "function"
    },
    {
      "inputs": [],
      "name": "lockUpDuration",
      "outputs": [
        {
          "internalType": "uint256",
          "name": "",
          "type": "uint256"
        }
      ],
      "stateMutability": "view",
      "type": "function"
    },
    {
      "inputs": [
        {
          "internalType": "uint8",
          "name": "",
          "type": "uint8"
        }
      ],
      "name": "mapOfAccTokenPerShare",
      "outputs": [
        {
          "internalType": "uint256",
          "name": "",
          "type": "uint256"
        }
      ],
      "stateMutability": "view",
      "type": "function"
    },
    {
      "inputs": [
        {
          "internalType": "uint8",
          "name": "",
          "type": "uint8"
        }
      ],
      "name": "mapOfPrecisionFactor",
      "outputs": [
        {
          "internalType": "uint256",
          "name": "",
          "type": "uint256"
        }
      ],
      "stateMutability": "view",
      "type": "function"
    },
    {
      "inputs": [
        {
          "internalType": "uint8",
          "name": "",
          "type": "uint8"
        }
      ],
      "name": "mapOfRewardPerBlock",
      "outputs": [
        {
          "internalType": "uint256",
          "name": "",
          "type": "uint256"
        }
      ],
      "stateMutability": "view",
      "type": "function"
    },
    {
      "inputs": [
        {
          "internalType": "uint8",
          "name": "",
          "type": "uint8"
        }
      ],
      "name": "mapOfRewardTokenDecimals",
      "outputs": [
        {
          "internalType": "uint8",
          "name": "",
          "type": "uint8"
        }
      ],
      "stateMutability": "view",
      "type": "function"
    },
    {
      "inputs": [
        {
          "internalType": "uint8",
          "name": "",
          "type": "uint8"
        }
      ],
      "name": "mapOfRewardTokens",
      "outputs": [
        {
          "internalType": "address",
          "name": "",
          "type": "address"
        }
      ],
      "stateMutability": "view",
      "type": "function"
    },
    {
      "inputs": [],
      "name": "maxStakeAmount",
      "outputs": [
        {
          "internalType": "uint256",
          "name": "",
          "type": "uint256"
        }
      ],
      "stateMutability": "view",
      "type": "function"
    },
    {
      "inputs": [],
      "name": "owner",
      "outputs": [
        {
          "internalType": "address",
          "name": "",
          "type": "address"
        }
      ],
      "stateMutability": "view",
      "type": "function"
    },
    {
      "inputs": [
        {
          "internalType": "uint8",
          "name": "_rewardTokenId",
          "type": "uint8"
        },
        {
          "internalType": "address",
          "name": "_user",
          "type": "address"
        }
      ],
      "name": "pendingReward",
      "outputs": [
        {
          "internalType": "uint256",
          "name": "",
          "type": "uint256"
        }
      ],
      "stateMutability": "view",
      "type": "function"
    },
    {
      "inputs": [
        {
          "internalType": "uint8",
          "name": "_rewardTokenId",
          "type": "uint8"
        }
      ],
      "name": "poolCalcRewardPerBlock",
      "outputs": [],
      "stateMutability": "nonpayable",
      "type": "function"
    },
    {
      "inputs": [
        {
          "internalType": "uint256",
          "name": "_durationBlocks",
          "type": "uint256"
        }
      ],
      "name": "poolSetDuration",
      "outputs": [],
      "stateMutability": "nonpayable",
      "type": "function"
    },
    {
      "inputs": [
        {
          "internalType": "uint256",
          "name": "_startBlock",
          "type": "uint256"
        }
      ],
      "name": "poolSetStart",
      "outputs": [],
      "stateMutability": "nonpayable",
      "type": "function"
    },
    {
      "inputs": [
        {
          "internalType": "uint256",
          "name": "_startBlock",
          "type": "uint256"
        },
        {
          "internalType": "uint256",
          "name": "_durationBlocks",
          "type": "uint256"
        }
      ],
      "name": "poolSetStartAndDuration",
      "outputs": [],
      "stateMutability": "nonpayable",
      "type": "function"
    },
    {
      "inputs": [
        {
          "internalType": "uint256",
          "name": "_blocks",
          "type": "uint256"
        }
      ],
      "name": "poolStartIn",
      "outputs": [],
      "stateMutability": "nonpayable",
      "type": "function"
    },
    {
      "inputs": [
        {
          "internalType": "address",
          "name": "_tokenAddress",
          "type": "address"
        },
        {
          "internalType": "uint256",
          "name": "_tokenAmount",
          "type": "uint256"
        }
      ],
      "name": "recoverWrongTokens",
      "outputs": [],
      "stateMutability": "nonpayable",
      "type": "function"
    },
    {
      "inputs": [],
      "name": "renounceOwnership",
      "outputs": [],
      "stateMutability": "nonpayable",
      "type": "function"
    },
    {
      "inputs": [
        {
          "internalType": "uint8",
          "name": "_rewardTokenId",
          "type": "uint8"
        }
      ],
      "name": "rewarPerBlockUI",
      "outputs": [
        {
          "internalType": "uint256",
          "name": "",
          "type": "uint256"
        }
      ],
      "stateMutability": "view",
      "type": "function"
    },
    {
      "inputs": [],
      "name": "rewardDuration",
      "outputs": [
        {
          "internalType": "uint256",
          "name": "",
          "type": "uint256"
        }
      ],
      "stateMutability": "view",
      "type": "function"
    },
    {
      "inputs": [
        {
          "internalType": "uint256",
          "name": "_lockUpDuration",
          "type": "uint256"
        }
      ],
      "name": "setLockUpDuration",
      "outputs": [],
      "stateMutability": "nonpayable",
      "type": "function"
    },
    {
      "inputs": [],
      "name": "stakedToken",
      "outputs": [
        {
          "internalType": "contract IERC20Upgradeable",
          "name": "",
          "type": "address"
        }
      ],
      "stateMutability": "view",
      "type": "function"
    },
    {
      "inputs": [],
      "name": "startBlock",
      "outputs": [
        {
          "internalType": "uint256",
          "name": "",
          "type": "uint256"
        }
      ],
      "stateMutability": "view",
      "type": "function"
    },
    {
      "inputs": [],
      "name": "stopReward",
      "outputs": [],
      "stateMutability": "nonpayable",
      "type": "function"
    },
    {
      "inputs": [
        {
          "internalType": "address",
          "name": "newOwner",
          "type": "address"
        }
      ],
      "name": "transferOwnership",
      "outputs": [],
      "stateMutability": "nonpayable",
      "type": "function"
    },
    {
      "inputs": [
        {
          "internalType": "uint8",
          "name": "_rewardTokenId",
          "type": "uint8"
        },
        {
          "internalType": "uint256",
          "name": "_rewardPerBlock",
          "type": "uint256"
        }
      ],
      "name": "updateRewardPerBlock",
      "outputs": [],
      "stateMutability": "nonpayable",
      "type": "function"
    },
    {
      "inputs": [
        {
          "internalType": "uint256",
          "name": "_startBlock",
          "type": "uint256"
        },
        {
          "internalType": "uint256",
          "name": "_bonusEndBlock",
          "type": "uint256"
        }
      ],
      "name": "updateStartAndEndBlocks",
      "outputs": [],
      "stateMutability": "nonpayable",
      "type": "function"
    },
    {
      "inputs": [
        {
          "internalType": "address",
          "name": "",
          "type": "address"
        }
      ],
      "name": "userInfo",
      "outputs": [
        {
          "internalType": "uint256",
          "name": "amount",
          "type": "uint256"
        },
        {
          "internalType": "uint256",
          "name": "rewardDebt1",
          "type": "uint256"
        },
        {
          "internalType": "uint256",
          "name": "rewardDebt2",
          "type": "uint256"
        },
        {
          "internalType": "uint256",
          "name": "firstDeposit",
          "type": "uint256"
        }
      ],
      "stateMutability": "view",
      "type": "function"
    },
    {
      "inputs": [
        {
          "internalType": "uint256",
          "name": "_amount",
          "type": "uint256"
        }
      ],
      "name": "withdraw",
      "outputs": [],
      "stateMutability": "nonpayable",
      "type": "function"
    },
    {
      "inputs": [],
      "name": "withdrawFee",
      "outputs": [
        {
          "internalType": "uint256",
          "name": "",
          "type": "uint256"
        }
      ],
      "stateMutability": "view",
      "type": "function"
    },
    {
      "inputs": [
        {
          "internalType": "uint8",
          "name": "_rewardTokenId",
          "type": "uint8"
        },
        {
          "internalType": "address",
          "name": "_to",
          "type": "address"
        }
      ],
      "name": "withdrawRemains",
      "outputs": [],
      "stateMutability": "nonpayable",
      "type": "function"
    }
  ],
  "transactionHash": "0xa11e95c6d9406361b387c41dd3ca2fbb88270910c374bde1e2dc7056f58ef651",
  "args": [],
  "numDeployments": 1,
  "solcInputHash": "437a4d45ffebc89298110c7a29fd2972",
  "bytecode": "0x60806040523480156200001157600080fd5b50600054610100900460ff166200002f5760005460ff161562000039565b62000039620000de565b620000a15760405162461bcd60e51b815260206004820152602e60248201527f496e697469616c697a61626c653a20636f6e747261637420697320616c72656160448201526d191e481a5b9a5d1a585b1a5e995960921b606482015260840160405180910390fd5b600054610100900460ff16158015620000c4576000805461ffff19166101011790555b8015620000d7576000805461ff00191690555b506200010b565b6000620000f630620000fc60201b62001e1f1760201c565b15905090565b6001600160a01b03163b151590565b612a9f806200011b6000396000f3fe608060405234801561001057600080fd5b50600436106102325760003560e01c806383d1c65b11610130578063bfe5f541116100b8578063e1b2addc1161007c578063e1b2addc14610522578063e941fa7814610535578063ea6eef491461053e578063f2fde38b14610551578063f520e7e51461056457600080fd5b8063bfe5f541146104ce578063c9b5b29d146104e1578063cc7a262e146104f4578063d3a8615c14610507578063db2e21bc1461051a57600080fd5b8063a218141b116100ff578063a218141b1461046c578063af1664d114610475578063b3f02d3814610495578063b6b55f25146104a8578063be615335146104bb57600080fd5b806383d1c65b146104225780638da5cb5b146104355780639513997f146104465780639b4f91931461045957600080fd5b806348cd4cb1116101be57806363664dc71161018257806363664dc7146103d65780636aa662b5146103f6578063715018a6146103ff5780637bfaa40c1461040757806380dc06721461041a57600080fd5b806348cd4cb1146103675780634e71d92d14610370578063522b3401146103785780635d80ca32146103985780635fed9b13146103a157600080fd5b806327e644fe1161020557806327e644fe146102d05780632e1a7d4d14610311578063392e53cd146103245780633f138d4b14610341578063412753581461035457600080fd5b8063083c6323146102375780630f7064eb1461025357806310f8097b146102685780631959a0021461027b575b600080fd5b61024060985481565b6040519081526020015b60405180910390f35b61026661026136600461269d565b61056c565b005b6102666102763660046125dc565b6105ca565b6102b06102893660046124e7565b60a56020526000908152604090208054600182015460028301546003909301549192909184565b60408051948552602085019390935291830152606082015260800161024a565b6102f96102de36600461262d565b60a4602052600090815260409020546001600160a01b031681565b6040516001600160a01b03909116815260200161024a565b61026661031f3660046125dc565b610604565b6097546103319060ff1681565b604051901515815260200161024a565b61026661034f366004612503565b610945565b609e546102f9906001600160a01b031681565b61024060995481565b610266610ac0565b61024061038636600461262d565b60a16020526000908152604090205481565b610240609c5481565b6103c46103af36600461262d565b60a36020526000908152604090205460ff1681565b60405160ff909116815260200161024a565b6102406103e436600461262d565b60a06020526000908152604090205481565b610240609b5481565b610266610cf5565b6102666104153660046125dc565b610d2b565b610266610dd8565b61026661043036600461262d565b610e08565b6033546001600160a01b03166102f9565b61026661045436600461260c565b610eeb565b61026661046736600461269d565b611049565b610240609a5481565b61024061048336600461262d565b60a26020526000908152604090205481565b6102666104a33660046125dc565b6110db565b6102666104b63660046125dc565b611184565b6102406104c9366004612665565b611423565b6102666104dc366004612665565b6115dd565b6102406104ef36600461262d565b611761565b609f546102f9906001600160a01b031681565b61026661051536600461260c565b6117a0565b6102666117dc565b6102666105303660046125dc565b6118dc565b610240609d5481565b61026661054c36600461254e565b61193b565b61026661055f3660046124e7565b611d69565b610240611e01565b6033546001600160a01b0316331461059f5760405162461bcd60e51b815260040161059690612733565b60405180910390fd5b60ff8216600090815260a460205260409020546105c6906001600160a01b03163083611e2e565b5050565b6033546001600160a01b031633146105f45760405162461bcd60e51b815260040161059690612733565b6106016104a34383611e91565b50565b600260655414156106275760405162461bcd60e51b8152600401610596906127b3565b6002606555806106715760405162461bcd60e51b8152602060048201526015602482015274115c9c9bdc8e88125b9d985b1a5908185b5bdd5b9d605a1b6044820152606401610596565b33600090815260a56020526040902080548211156106d15760405162461bcd60e51b815260206004820152601b60248201527f416d6f756e7420746f20776974686472617720746f6f206869676800000000006044820152606401610596565b6106d9611ea4565b60018082015460009182526000805160206129ea8339815191525460a0602052600080516020612a4a83398151915254845461072b939261072592909161071f91612096565b906120a2565b906120ae565b6002808401546000918252600080516020612a0a8339815191525460a0602052600080516020612a2a833981519152548654949550929361077493610725929161071f91612096565b835490915061078390856120ae565b8355609b5460038401548591610798916127ea565b4210156107ea5760006107bc61271061071f609d548561209690919063ffffffff16565b609e54609f549192506107dc916001600160a01b03908116911683611e2e565b6107e6818361292c565b9150505b609f54610801906001600160a01b03163383611e2e565b600384015415610815578360030154610817565b425b6003850155821561085057600160005260a46020526000805160206129ca83398151915254610850906001600160a01b031633856120ba565b811561088457600260005260a46020526000805160206129aa83398151915254610884906001600160a01b031633846120ba565b60016000526000805160206129ea8339815191525460a0602052600080516020612a4a8339815191525485546108bf929161071f9190612096565b60018501556002600052600080516020612a0a8339815191525460a0602052600080516020612a2a8339815191525485546108ff929161071f9190612096565b600285015560405185815233907f884edad9ce6fa2440d8a54cc123490eb96d2768479d49ff9c7366125a94243649060200160405180910390a250506001606555505050565b6033546001600160a01b0316331461096f5760405162461bcd60e51b815260040161059690612733565b609f546001600160a01b03838116911614156109c65760405162461bcd60e51b815260206004820152601660248201527521b0b73737ba1031329039ba30b5b2b2103a37b5b2b760511b6044820152606401610596565b600160005260a46020526000805160206129ca833981519152546001600160a01b03838116911614801590610a205750600260005260a46020526000805160206129aa833981519152546001600160a01b03838116911614155b610a655760405162461bcd60e51b815260206004820152601660248201527521b0b73737ba103132903932bbb0b932103a37b5b2b760511b6044820152606401610596565b610a796001600160a01b0383163383611e2e565b604080516001600160a01b0384168152602081018390527f74545154aac348a3eac92596bd1971957ca94795f4e954ec5f613b55fab7812991015b60405180910390a15050565b60026065541415610ae35760405162461bcd60e51b8152600401610596906127b3565b600260655533600090815260a560205260409020610aff611ea4565b805415610c6d5760018082015460009182526000805160206129ea8339815191525460a0602052600080516020612a4a833981519152548454610b4c939261072592909161071f91612096565b90508015610bb857600160005260a46020526000805160206129ca83398151915254610b82906001600160a01b031633836120ba565b60405181815233907f47cee97cb7acd717b3c0aa1435d004cd5b3c8c57d70dbceb4e4458bbd60e39d49060200160405180910390a25b6002808301546000918252600080516020612a0a8339815191525460a0602052600080516020612a2a833981519152548554610bfe939261072592909161071f91612096565b90508015610c6a57600260005260a46020526000805160206129aa83398151915254610c34906001600160a01b031633836120ba565b60405181815233907f47cee97cb7acd717b3c0aa1435d004cd5b3c8c57d70dbceb4e4458bbd60e39d49060200160405180910390a25b50505b60016000526000805160206129ea8339815191525460a0602052600080516020612a4a833981519152548254610ca8929161071f9190612096565b60018201556002600052600080516020612a0a8339815191525460a0602052600080516020612a2a833981519152548254610ce8929161071f9190612096565b6002909101556001606555565b6033546001600160a01b03163314610d1f5760405162461bcd60e51b815260040161059690612733565b610d296000612171565b565b6033546001600160a01b03163314610d555760405162461bcd60e51b815260040161059690612733565b6099544310610d765760405162461bcd60e51b815260040161059690612709565b609954610d839082611e91565b609855610d906001610e08565b610d9a6002610e08565b7f55baa248360bce74a89304071ca6e882f61d2226c15dde53a4ec1e05af523d92609854604051610dcd91815260200190565b60405180910390a150565b6033546001600160a01b03163314610e025760405162461bcd60e51b815260040161059690612733565b43609855565b6033546001600160a01b03163314610e325760405162461bcd60e51b815260040161059690612733565b60ff8116600090815260a460205260408082205490516370a0823160e01b81523060048201526001600160a01b03909116906370a082319060240160206040518083038186803b158015610e8557600080fd5b505afa158015610e99573d6000803e3d6000fd5b505050506040513d601f19601f82011682018060405250810190610ebd91906125f4565b9050610ed1610eca611e01565b82906120a2565b60ff909216600090815260a1602052604090209190915550565b6033546001600160a01b03163314610f155760405162461bcd60e51b815260040161059690612733565b6099544310610f365760405162461bcd60e51b815260040161059690612709565b808210610f9c5760405162461bcd60e51b815260206004820152602e60248201527f4e6577207374617274426c6f636b206d757374206265206c6f7765722074686160448201526d6e206e657720656e64426c6f636b60901b6064820152608401610596565b8143106110045760405162461bcd60e51b815260206004820152603060248201527f4e6577207374617274426c6f636b206d7573742062652068696768657220746860448201526f616e2063757272656e7420626c6f636b60801b6064820152608401610596565b60998290556098819055609a82905560408051838152602081018390527f7cd0ab87d19036f3dfadadb232c78aa4879dda3f0c994a9d637532410ee2ce069101610ab4565b6033546001600160a01b031633146110735760405162461bcd60e51b815260040161059690612733565b60995443106110945760405162461bcd60e51b815260040161059690612709565b60ff8216600090815260a1602052604090819020829055517f0c4d677eef92893ac7ec52faf8140fc6c851ab4736302b4f3a89dfb20696a0df90610ab49083815260200190565b6033546001600160a01b031633146111055760405162461bcd60e51b815260040161059690612733565b60995443106111265760405162461bcd60e51b815260040161059690612709565b6000611130611e01565b609983905590506111418282611e91565b6098819055609954609a8190556040517f7cd0ab87d19036f3dfadadb232c78aa4879dda3f0c994a9d637532410ee2ce0692610ab4928252602082015260400190565b600260655414156111a75760405162461bcd60e51b8152600401610596906127b3565b600260655533600090815260a560205260409020609c5481546111cb9084906127ea565b11156112125760405162461bcd60e51b815260206004820152601660248201527519195c1bdcda5d0e881b1a5b5a5d081c995858da195960521b6044820152606401610596565b61121a611ea4565b80541561131c5760018082015460009182526000805160206129ea8339815191525460a0602052600080516020612a4a833981519152548454611267939261072592909161071f91612096565b9050801561129d57600160005260a46020526000805160206129ca8339815191525461129d906001600160a01b031633836120ba565b6002808301546000918252600080516020612a0a8339815191525460a0602052600080516020612a2a8339815191525485546112e3939261072592909161071f91612096565b9050801561131957600260005260a46020526000805160206129aa83398151915254611319906001600160a01b031633836120ba565b50505b811561136457805461132e9083611e91565b8155609f54611348906001600160a01b03163330856121c3565b60038101541561135c57806003015461135e565b425b60038201555b60016000526000805160206129ea8339815191525460a0602052600080516020612a4a83398151915254825461139f929161071f9190612096565b60018201556002600052600080516020612a0a8339815191525460a0602052600080516020612a2a8339815191525482546113df929161071f9190612096565b600282015560405182815233907fe1fffcc4923d04b559f4d29a8bfc6cda04eb5b0d3c460751c2402c5c5cc9109c906020015b60405180910390a250506001606555565b6001600160a01b038116600090815260a5602052604081208160ff8516600114611451578160020154611457565b81600101545b609f546040516370a0823160e01b81523060048201529192506000916001600160a01b03909116906370a082319060240160206040518083038186803b1580156114a057600080fd5b505afa1580156114b4573d6000803e3d6000fd5b505050506040513d601f19601f820116820180604052508101906114d891906125f4565b9050609a54431180156114ea57508015155b1561159d5760006114fd609a54436121fb565b60ff8816600090815260a160205260408120549192509061151f908390612096565b60ff8916600090815260a26020526040812054919250906115649061154b90869061071f908690612096565b60ff8b16600090815260a0602052604090205490611e91565b60ff8a16600090815260a2602052604090205487549192506115909187916107259161071f9086612096565b96505050505050506115d7565b60ff8616600090815260a2602090815260408083205460a09092529091205484546115d19285926107259261071f91612096565b93505050505b92915050565b6033546001600160a01b031633146116075760405162461bcd60e51b815260040161059690612733565b60985443116116585760405162461bcd60e51b815260206004820152601c60248201527f4572726f723a20506f6f6c206e6f742066696e697368656420796574000000006044820152606401610596565b60ff8216600090815260a460205260408082205490516370a0823160e01b81523060048201526001600160a01b03909116906370a082319060240160206040518083038186803b1580156116ab57600080fd5b505afa1580156116bf573d6000803e3d6000fd5b505050506040513d601f19601f820116820180604052508101906116e391906125f4565b9050600081116117355760405162461bcd60e51b815260206004820152601960248201527f4572726f723a204e6f2072656d61696e696e672066756e6473000000000000006044820152606401610596565b60ff8316600090815260a4602052604090205461175c906001600160a01b03168383611e2e565b505050565b60ff808216600090815260a3602052604081205490916115d7916117879116600a612865565b60ff8416600090815260a16020526040902054906120a2565b6033546001600160a01b031633146117ca5760405162461bcd60e51b815260040161059690612733565b6117d3826110db565b6105c681610d2b565b600260655414156117ff5760405162461bcd60e51b8152600401610596906127b3565b6002606581905533600090815260a560205260408120805482825560018201839055928101919091559080156118aa57609b54826003015461184191906127ea565b42101561189357600061186561271061071f609d548561209690919063ffffffff16565b609e54609f54919250611885916001600160a01b03908116911683611e2e565b61188f818361292c565b9150505b609f546118aa906001600160a01b03163383611e2e565b60405181815233907f5fafa99d0643513820be26656b45130b01e1c03062e1266bf36f88cbd3bd969590602001611412565b6033546001600160a01b031633146119065760405162461bcd60e51b815260040161059690612733565b609b8190556040518181527fd2a4f919593bfa0565c404bb5e42080750d07eedb9dfa9907c22be9e29c02a9890602001610dcd565b600054610100900460ff166119565760005460ff161561195a565b303b155b6119bd5760405162461bcd60e51b815260206004820152602e60248201527f496e697469616c697a61626c653a20636f6e747261637420697320616c72656160448201526d191e481a5b9a5d1a585b1a5e995960921b6064820152608401610596565b600054610100900460ff161580156119df576000805461ffff19166101011790555b6119e7612235565b609f80546001600160a01b03808d166001600160a01b03199283161790925560a460209081526000805160206129ca83398151915280548d851690841681179091556000805160206129aa83398151915280548d861690851617905560998b905560988a9055609b899055609d889055609e80549488169490931693909317909155609c84905560016000526040805163313ce56760e01b8152905163313ce56792600483810193919291829003018186803b158015611aa657600080fd5b505afa158015611aba573d6000803e3d6000fd5b505050506040513d601f19601f82011682018060405250810190611ade9190612649565b7fc3869149e653ab70ab3abed8edc49ed99ccd0c8cf7ca81486b7adbd034773b10805460ff191660ff92909216919091179055600260005260a460209081526000805160206129aa833981519152546040805163313ce56760e01b815290516001600160a01b039092169263313ce56792600480840193829003018186803b158015611b6957600080fd5b505afa158015611b7d573d6000803e3d6000fd5b505050506040513d601f19601f82011682018060405250810190611ba19190612649565b60a36020527fe262b42e4ca35e2f1e405b90c91327b65c89bdbf5dd51dedc3459002050f6b7b805460ff191660ff92831617905560016000527fc3869149e653ab70ab3abed8edc49ed99ccd0c8cf7ca81486b7adbd034773b1054601e9116108015611c3d5750600260005260a36020527fe262b42e4ca35e2f1e405b90c91327b65c89bdbf5dd51dedc3459002050f6b7b54601e60ff909116105b611c825760405162461bcd60e51b815260206004820152601660248201527504d75737420626520696e666572696f7220746f2033360541b6044820152606401610596565b600160005260a36020527fc3869149e653ab70ab3abed8edc49ed99ccd0c8cf7ca81486b7adbd034773b1054611cbd90601e9060ff166120ae565b611cc890600a612865565b6000805160206129ea83398151915255600260005260a36020527fe262b42e4ca35e2f1e405b90c91327b65c89bdbf5dd51dedc3459002050f6b7b54611d1390601e9060ff166120ae565b611d1e90600a612865565b600260005260a2602052600080516020612a0a83398151915255609954609a556097805460ff191660011790558015611d5d576000805461ff00191690555b50505050505050505050565b6033546001600160a01b03163314611d935760405162461bcd60e51b815260040161059690612733565b6001600160a01b038116611df85760405162461bcd60e51b815260206004820152602660248201527f4f776e61626c653a206e6577206f776e657220697320746865207a65726f206160448201526564647265737360d01b6064820152608401610596565b61060181612171565b6000611e1a6099546098546120ae90919063ffffffff16565b905090565b6001600160a01b03163b151590565b6040516001600160a01b03831660248201526044810182905261175c90849063a9059cbb60e01b906064015b60408051601f198184030181529190526020810180516001600160e01b03166001600160e01b031990931692909217909152612264565b6000611e9d82846127ea565b9392505050565b609a544311611eaf57565b609f546040516370a0823160e01b81523060048201526000916001600160a01b0316906370a082319060240160206040518083038186803b158015611ef357600080fd5b505afa158015611f07573d6000803e3d6000fd5b505050506040513d601f19601f82011682018060405250810190611f2b91906125f4565b905080611f39575043609a55565b6000611f47609a54436121fb565b6001600090815260a16020527ff4875fff8b0cf986238a93aa5a1c4dd6cdbe2f1045b9974e1f43ef715569af665491925090611f84908390612096565b6002600090815260a16020527f56cd10bd7c5a283404157adf2ba847ac6f7bfee0953fbdea6cae6f66ee17d9ce5491925090611fc1908490612096565b600160005260a26020526000805160206129ea8339815191525490915061201390611ff390869061071f908690612096565b600160005260a0602052600080516020612a4a8339815191525490611e91565b600080516020612a4a83398151915255600260005260a2602052600080516020612a0a833981519152546120729061205290869061071f908590612096565b600260005260a0602052600080516020612a2a8339815191525490611e91565b600260005260a0602052600080516020612a2a83398151915255505043609a555050565b6000611e9d828461290d565b6000611e9d8284612802565b6000611e9d828461292c565b6040516370a0823160e01b81523060048201526000906001600160a01b038516906370a082319060240160206040518083038186803b1580156120fc57600080fd5b505afa158015612110573d6000803e3d6000fd5b505050506040513d601f19601f8201168201806040525081019061213491906125f4565b905080821115612157576121526001600160a01b0385168483611e2e565b61216b565b61216b6001600160a01b0385168484611e2e565b50505050565b603380546001600160a01b038381166001600160a01b0319831681179093556040519116919082907f8be0079c531659141344cd1fd0a4f28419497f9722a3daafe3b4186f6b6457e090600090a35050565b6040516001600160a01b038085166024830152831660448201526064810182905261216b9085906323b872dd60e01b90608401611e5a565b600060985482116122175761221082846120ae565b90506115d7565b6098548310612228575060006115d7565b60985461221090846120ae565b600054610100900460ff1661225c5760405162461bcd60e51b815260040161059690612768565b610d29612336565b60006122b9826040518060400160405280602081526020017f5361666545524332303a206c6f772d6c6576656c2063616c6c206661696c6564815250856001600160a01b03166123669092919063ffffffff16565b80519091501561175c57808060200190518101906122d7919061252e565b61175c5760405162461bcd60e51b815260206004820152602a60248201527f5361666545524332303a204552433230206f7065726174696f6e20646964206e6044820152691bdd081cdd58d8d9595960b21b6064820152608401610596565b600054610100900460ff1661235d5760405162461bcd60e51b815260040161059690612768565b610d2933612171565b6060612375848460008561237d565b949350505050565b6060824710156123de5760405162461bcd60e51b815260206004820152602660248201527f416464726573733a20696e73756666696369656e742062616c616e636520666f6044820152651c8818d85b1b60d21b6064820152608401610596565b6001600160a01b0385163b6124355760405162461bcd60e51b815260206004820152601d60248201527f416464726573733a2063616c6c20746f206e6f6e2d636f6e74726163740000006044820152606401610596565b600080866001600160a01b0316858760405161245191906126ba565b60006040518083038185875af1925050503d806000811461248e576040519150601f19603f3d011682016040523d82523d6000602084013e612493565b606091505b50915091506124a38282866124ae565b979650505050505050565b606083156124bd575081611e9d565b8251156124cd5782518084602001fd5b8160405162461bcd60e51b815260040161059691906126d6565b6000602082840312156124f8578081fd5b8135611e9d81612985565b60008060408385031215612515578081fd5b823561252081612985565b946020939093013593505050565b60006020828403121561253f578081fd5b81518015158114611e9d578182fd5b60008060008060008060008060006101208a8c03121561256c578485fd5b893561257781612985565b985060208a013561258781612985565b975060408a013561259781612985565b965060608a0135955060808a0135945060a08a0135935060c08a0135925060e08a01356125c381612985565b809250506101008a013590509295985092959850929598565b6000602082840312156125ed578081fd5b5035919050565b600060208284031215612605578081fd5b5051919050565b6000806040838503121561261e578182fd5b50508035926020909101359150565b60006020828403121561263e578081fd5b8135611e9d8161299a565b60006020828403121561265a578081fd5b8151611e9d8161299a565b60008060408385031215612677578182fd5b82356126828161299a565b9150602083013561269281612985565b809150509250929050565b600080604083850312156126af578182fd5b82356125208161299a565b600082516126cc818460208701612943565b9190910192915050565b60208152600082518060208401526126f5816040850160208701612943565b601f01601f19169190910160400192915050565b60208082526010908201526f141bdbdb081a185cc81cdd185c9d195960821b604082015260600190565b6020808252818101527f4f776e61626c653a2063616c6c6572206973206e6f7420746865206f776e6572604082015260600190565b6020808252602b908201527f496e697469616c697a61626c653a20636f6e7472616374206973206e6f74206960408201526a6e697469616c697a696e6760a81b606082015260800190565b6020808252601f908201527f5265656e7472616e637947756172643a207265656e7472616e742063616c6c00604082015260600190565b600082198211156127fd576127fd61296f565b500190565b60008261281d57634e487b7160e01b81526012600452602481fd5b500490565b600181815b8085111561285d5781600019048211156128435761284361296f565b8085161561285057918102915b93841c9390800290612827565b509250929050565b6000611e9d838360008261287b575060016115d7565b81612888575060006115d7565b816001811461289e57600281146128a8576128c4565b60019150506115d7565b60ff8411156128b9576128b961296f565b50506001821b6115d7565b5060208310610133831016604e8410600b84101617156128e7575081810a6115d7565b6128f18383612822565b80600019048211156129055761290561296f565b029392505050565b60008160001904831182151516156129275761292761296f565b500290565b60008282101561293e5761293e61296f565b500390565b60005b8381101561295e578181015183820152602001612946565b8381111561216b5750506000910152565b634e487b7160e01b600052601160045260246000fd5b6001600160a01b038116811461060157600080fd5b60ff8116811461060157600080fdfe23a5aa70edc02ebf6b3ef7000e0b542350f98d01371c37edf6974a1bc30d32ff3ab5dcf47126747c0704cb686c5b362a3f19c34c1a7f9e61bd557bb2aac5bcac87286cc7b9cf8a377e677776b2644ce858185998d33108f493bdc3c2f07b9836984fb507cc15174c9c2666d8998832bf192b808658c1b8547c17c86e40ea5814003e94880a29ff53e6a8208a04e96e212c12922b7bda6b10d8c1979e9844e6785e4aa62fc514c001129aba2f8cfdadfdbf7b1cca3faf4a1fee3af14b1315f0dda264697066735822122076af3c3a75b0f23845d1a4e211000b742714ed0e1ebf633ef59462963b8dc4c864736f6c63430008040033",
  "devdoc": {
    "kind": "dev",
    "methods": {
      "owner()": {
        "details": "Returns the address of the current owner."
      },
      "recoverWrongTokens(address,uint256)": {
        "details": "This function is only callable by admin.",
        "params": {
          "_tokenAddress": ": the address of the token to withdraw",
          "_tokenAmount": ": the number of tokens to withdraw"
        }
      },
      "renounceOwnership()": {
        "details": "Leaves the contract without owner. It will not be possible to call `onlyOwner` functions anymore. Can only be called by the current owner. NOTE: Renouncing ownership will leave the contract without an owner, thereby removing any functionality that is only available to the owner."
      },
      "transferOwnership(address)": {
        "details": "Transfers ownership of the contract to a new account (`newOwner`). Can only be called by the current owner."
      },
      "updateStartAndEndBlocks(uint256,uint256)": {
        "details": "This function is only callable by owner.",
        "params": {
          "_bonusEndBlock": ": the new end block",
          "_startBlock": ": the new start block"
        }
      }
    },
    "version": 1
  },
  "userdoc": {
    "kind": "user",
    "methods": {
      "recoverWrongTokens(address,uint256)": {
        "notice": "It allows the admin to recover wrong tokens sent to the contract"
      },
      "updateStartAndEndBlocks(uint256,uint256)": {
        "notice": "It allows the admin to update start and end blocks"
      }
    },
    "version": 1
  },
  "storageLayout": {
    "storage": [
      {
        "astId": 130,
        "contract": "contracts/GQGalacticAllianceLimited.sol:GQGalacticAllianceLimited",
        "label": "_initialized",
        "offset": 0,
        "slot": "0",
        "type": "t_bool"
      },
      {
        "astId": 133,
        "contract": "contracts/GQGalacticAllianceLimited.sol:GQGalacticAllianceLimited",
        "label": "_initializing",
        "offset": 1,
        "slot": "0",
        "type": "t_bool"
      },
      {
        "astId": 867,
        "contract": "contracts/GQGalacticAllianceLimited.sol:GQGalacticAllianceLimited",
        "label": "__gap",
        "offset": 0,
        "slot": "1",
        "type": "t_array(t_uint256)50_storage"
      },
      {
        "astId": 10,
        "contract": "contracts/GQGalacticAllianceLimited.sol:GQGalacticAllianceLimited",
        "label": "_owner",
        "offset": 0,
        "slot": "51",
        "type": "t_address"
      },
      {
        "astId": 122,
        "contract": "contracts/GQGalacticAllianceLimited.sol:GQGalacticAllianceLimited",
        "label": "__gap",
        "offset": 0,
        "slot": "52",
        "type": "t_array(t_uint256)49_storage"
      },
      {
        "astId": 211,
        "contract": "contracts/GQGalacticAllianceLimited.sol:GQGalacticAllianceLimited",
        "label": "_status",
        "offset": 0,
        "slot": "101",
        "type": "t_uint256"
      },
      {
        "astId": 255,
        "contract": "contracts/GQGalacticAllianceLimited.sol:GQGalacticAllianceLimited",
        "label": "__gap",
        "offset": 0,
        "slot": "102",
        "type": "t_array(t_uint256)49_storage"
      },
      {
        "astId": 2820,
        "contract": "contracts/GQGalacticAllianceLimited.sol:GQGalacticAllianceLimited",
        "label": "isInitialized",
        "offset": 0,
        "slot": "151",
        "type": "t_bool"
      },
      {
        "astId": 2822,
        "contract": "contracts/GQGalacticAllianceLimited.sol:GQGalacticAllianceLimited",
        "label": "endBlock",
        "offset": 0,
        "slot": "152",
        "type": "t_uint256"
      },
      {
        "astId": 2824,
        "contract": "contracts/GQGalacticAllianceLimited.sol:GQGalacticAllianceLimited",
        "label": "startBlock",
        "offset": 0,
        "slot": "153",
        "type": "t_uint256"
      },
      {
        "astId": 2826,
        "contract": "contracts/GQGalacticAllianceLimited.sol:GQGalacticAllianceLimited",
        "label": "lastUpdateBlock",
        "offset": 0,
        "slot": "154",
        "type": "t_uint256"
      },
      {
        "astId": 2828,
        "contract": "contracts/GQGalacticAllianceLimited.sol:GQGalacticAllianceLimited",
        "label": "lockUpDuration",
        "offset": 0,
        "slot": "155",
        "type": "t_uint256"
      },
      {
        "astId": 2830,
        "contract": "contracts/GQGalacticAllianceLimited.sol:GQGalacticAllianceLimited",
        "label": "maxStakeAmount",
        "offset": 0,
        "slot": "156",
        "type": "t_uint256"
      },
      {
        "astId": 2832,
        "contract": "contracts/GQGalacticAllianceLimited.sol:GQGalacticAllianceLimited",
        "label": "withdrawFee",
        "offset": 0,
        "slot": "157",
        "type": "t_uint256"
      },
      {
        "astId": 2834,
        "contract": "contracts/GQGalacticAllianceLimited.sol:GQGalacticAllianceLimited",
        "label": "feeAddress",
        "offset": 0,
        "slot": "158",
        "type": "t_address"
      },
      {
        "astId": 2837,
        "contract": "contracts/GQGalacticAllianceLimited.sol:GQGalacticAllianceLimited",
        "label": "stakedToken",
        "offset": 0,
        "slot": "159",
        "type": "t_contract(IERC20Upgradeable)334"
      },
      {
        "astId": 2841,
        "contract": "contracts/GQGalacticAllianceLimited.sol:GQGalacticAllianceLimited",
        "label": "mapOfAccTokenPerShare",
        "offset": 0,
        "slot": "160",
        "type": "t_mapping(t_uint8,t_uint256)"
      },
      {
        "astId": 2845,
        "contract": "contracts/GQGalacticAllianceLimited.sol:GQGalacticAllianceLimited",
        "label": "mapOfRewardPerBlock",
        "offset": 0,
        "slot": "161",
        "type": "t_mapping(t_uint8,t_uint256)"
      },
      {
        "astId": 2849,
        "contract": "contracts/GQGalacticAllianceLimited.sol:GQGalacticAllianceLimited",
        "label": "mapOfPrecisionFactor",
        "offset": 0,
        "slot": "162",
        "type": "t_mapping(t_uint8,t_uint256)"
      },
      {
        "astId": 2853,
        "contract": "contracts/GQGalacticAllianceLimited.sol:GQGalacticAllianceLimited",
        "label": "mapOfRewardTokenDecimals",
        "offset": 0,
        "slot": "163",
        "type": "t_mapping(t_uint8,t_uint8)"
      },
      {
        "astId": 2857,
        "contract": "contracts/GQGalacticAllianceLimited.sol:GQGalacticAllianceLimited",
        "label": "mapOfRewardTokens",
        "offset": 0,
        "slot": "164",
        "type": "t_mapping(t_uint8,t_address)"
      },
      {
        "astId": 2862,
        "contract": "contracts/GQGalacticAllianceLimited.sol:GQGalacticAllianceLimited",
        "label": "userInfo",
        "offset": 0,
        "slot": "165",
        "type": "t_mapping(t_address,t_struct(UserInfo)2871_storage)"
      }
    ],
    "types": {
      "t_address": {
        "encoding": "inplace",
        "label": "address",
        "numberOfBytes": "20"
      },
      "t_array(t_uint256)49_storage": {
        "base": "t_uint256",
        "encoding": "inplace",
        "label": "uint256[49]",
        "numberOfBytes": "1568"
      },
      "t_array(t_uint256)50_storage": {
        "base": "t_uint256",
        "encoding": "inplace",
        "label": "uint256[50]",
        "numberOfBytes": "1600"
      },
      "t_bool": {
        "encoding": "inplace",
        "label": "bool",
        "numberOfBytes": "1"
      },
      "t_contract(IERC20Upgradeable)334": {
        "encoding": "inplace",
        "label": "contract IERC20Upgradeable",
        "numberOfBytes": "20"
      },
      "t_mapping(t_address,t_struct(UserInfo)2871_storage)": {
        "encoding": "mapping",
        "key": "t_address",
        "label": "mapping(address => struct GQGalacticAllianceLimited.UserInfo)",
        "numberOfBytes": "32",
        "value": "t_struct(UserInfo)2871_storage"
      },
      "t_mapping(t_uint8,t_address)": {
        "encoding": "mapping",
        "key": "t_uint8",
        "label": "mapping(uint8 => address)",
        "numberOfBytes": "32",
        "value": "t_address"
      },
      "t_mapping(t_uint8,t_uint256)": {
        "encoding": "mapping",
        "key": "t_uint8",
        "label": "mapping(uint8 => uint256)",
        "numberOfBytes": "32",
        "value": "t_uint256"
      },
      "t_mapping(t_uint8,t_uint8)": {
        "encoding": "mapping",
        "key": "t_uint8",
        "label": "mapping(uint8 => uint8)",
        "numberOfBytes": "32",
        "value": "t_uint8"
      },
      "t_struct(UserInfo)2871_storage": {
        "encoding": "inplace",
        "label": "struct GQGalacticAllianceLimited.UserInfo",
        "members": [
          {
            "astId": 2864,
            "contract": "contracts/GQGalacticAllianceLimited.sol:GQGalacticAllianceLimited",
            "label": "amount",
            "offset": 0,
            "slot": "0",
            "type": "t_uint256"
          },
          {
            "astId": 2866,
            "contract": "contracts/GQGalacticAllianceLimited.sol:GQGalacticAllianceLimited",
            "label": "rewardDebt1",
            "offset": 0,
            "slot": "1",
            "type": "t_uint256"
          },
          {
            "astId": 2868,
            "contract": "contracts/GQGalacticAllianceLimited.sol:GQGalacticAllianceLimited",
            "label": "rewardDebt2",
            "offset": 0,
            "slot": "2",
            "type": "t_uint256"
          },
          {
            "astId": 2870,
            "contract": "contracts/GQGalacticAllianceLimited.sol:GQGalacticAllianceLimited",
            "label": "firstDeposit",
            "offset": 0,
            "slot": "3",
            "type": "t_uint256"
          }
        ],
        "numberOfBytes": "128"
      },
      "t_uint256": {
        "encoding": "inplace",
        "label": "uint256",
        "numberOfBytes": "32"
      },
      "t_uint8": {
        "encoding": "inplace",
        "label": "uint8",
        "numberOfBytes": "1"
      }
    }
  }
}