{
  "address": "0xAE7fF377de873034273fdEED8EE87Cc227503c41",
  "abi": [
    {
      "inputs": [
        {
          "internalType": "contract IERC20",
          "name": "_stakedToken",
          "type": "address"
        },
        {
          "internalType": "contract IERC20",
          "name": "_rewardToken",
          "type": "address"
        },
        {
          "internalType": "uint256",
          "name": "_startBlock",
          "type": "uint256"
        },
        {
          "internalType": "uint256",
          "name": "_endBlock",
          "type": "uint256"
        },
        {
          "internalType": "uint256",
          "name": "_lockUpDuration",
          "type": "uint256"
        },
        {
          "internalType": "uint256",
          "name": "_withdrawFee",
          "type": "uint256"
        },
        {
          "internalType": "address",
          "name": "_feeAddress",
          "type": "address"
        }
      ],
      "stateMutability": "nonpayable",
      "type": "constructor"
    },
    {
      "anonymous": false,
      "inputs": [
        {
          "indexed": false,
          "internalType": "address",
          "name": "tokenRecovered",
          "type": "address"
        },
        {
          "indexed": false,
          "internalType": "uint256",
          "name": "amount",
          "type": "uint256"
        }
      ],
      "name": "AdminTokenRecovery",
      "type": "event"
    },
    {
      "anonymous": false,
      "inputs": [
        {
          "indexed": true,
          "internalType": "address",
          "name": "user",
          "type": "address"
        },
        {
          "indexed": false,
          "internalType": "uint256",
          "name": "amount",
          "type": "uint256"
        }
      ],
      "name": "Claim",
      "type": "event"
    },
    {
      "anonymous": false,
      "inputs": [
        {
          "indexed": true,
          "internalType": "address",
          "name": "user",
          "type": "address"
        },
        {
          "indexed": false,
          "internalType": "uint256",
          "name": "amount",
          "type": "uint256"
        }
      ],
      "name": "Deposit",
      "type": "event"
    },
    {
      "anonymous": false,
      "inputs": [
        {
          "indexed": true,
          "internalType": "address",
          "name": "user",
          "type": "address"
        },
        {
          "indexed": false,
          "internalType": "uint256",
          "name": "amount",
          "type": "uint256"
        }
      ],
      "name": "EmergencyWithdraw",
      "type": "event"
    },
    {
      "anonymous": false,
      "inputs": [
        {
          "indexed": false,
          "internalType": "uint256",
          "name": "endBlock",
          "type": "uint256"
        }
      ],
      "name": "NewEndBlock",
      "type": "event"
    },
    {
      "anonymous": false,
      "inputs": [
        {
          "indexed": false,
          "internalType": "uint256",
          "name": "lockUpDuration",
          "type": "uint256"
        }
      ],
      "name": "NewLockUpDuration",
      "type": "event"
    },
    {
      "anonymous": false,
      "inputs": [
        {
          "indexed": false,
          "internalType": "uint256",
          "name": "rewardPerBlock",
          "type": "uint256"
        }
      ],
      "name": "NewRewardPerBlock",
      "type": "event"
    },
    {
      "anonymous": false,
      "inputs": [
        {
          "indexed": false,
          "internalType": "uint256",
          "name": "startBlock",
          "type": "uint256"
        },
        {
          "indexed": false,
          "internalType": "uint256",
          "name": "endBlock",
          "type": "uint256"
        }
      ],
      "name": "NewStartAndEndBlocks",
      "type": "event"
    },
    {
      "anonymous": false,
      "inputs": [
        {
          "indexed": true,
          "internalType": "address",
          "name": "previousOwner",
          "type": "address"
        },
        {
          "indexed": true,
          "internalType": "address",
          "name": "newOwner",
          "type": "address"
        }
      ],
      "name": "OwnershipTransferred",
      "type": "event"
    },
    {
      "anonymous": false,
      "inputs": [
        {
          "indexed": false,
          "internalType": "uint256",
          "name": "blockNumber",
          "type": "uint256"
        }
      ],
      "name": "RewardsStop",
      "type": "event"
    },
    {
      "anonymous": false,
      "inputs": [
        {
          "indexed": true,
          "internalType": "address",
          "name": "user",
          "type": "address"
        },
        {
          "indexed": false,
          "internalType": "uint256",
          "name": "amount",
          "type": "uint256"
        }
      ],
      "name": "Withdraw",
      "type": "event"
    },
    {
      "inputs": [],
      "name": "PRECISION_FACTOR",
      "outputs": [
        {
          "internalType": "uint256",
          "name": "",
          "type": "uint256"
        }
      ],
      "stateMutability": "view",
      "type": "function"
    },
    {
      "inputs": [],
      "name": "accTokenPerShare",
      "outputs": [
        {
          "internalType": "uint256",
          "name": "",
          "type": "uint256"
        }
      ],
      "stateMutability": "view",
      "type": "function"
    },
    {
      "inputs": [],
      "name": "claim",
      "outputs": [],
      "stateMutability": "nonpayable",
      "type": "function"
    },
    {
      "inputs": [
        {
          "internalType": "uint256",
          "name": "_amount",
          "type": "uint256"
        }
      ],
      "name": "deposit",
      "outputs": [],
      "stateMutability": "nonpayable",
      "type": "function"
    },
    {
      "inputs": [
        {
          "internalType": "uint256",
          "name": "_amount",
          "type": "uint256"
        }
      ],
      "name": "depositRewardFunds",
      "outputs": [],
      "stateMutability": "nonpayable",
      "type": "function"
    },
    {
      "inputs": [],
      "name": "emergencyWithdraw",
      "outputs": [],
      "stateMutability": "nonpayable",
      "type": "function"
    },
    {
      "inputs": [],
      "name": "endBlock",
      "outputs": [
        {
          "internalType": "uint256",
          "name": "",
          "type": "uint256"
        }
      ],
      "stateMutability": "view",
      "type": "function"
    },
    {
      "inputs": [],
      "name": "feeAddress",
      "outputs": [
        {
          "internalType": "address",
          "name": "",
          "type": "address"
        }
      ],
      "stateMutability": "view",
      "type": "function"
    },
    {
      "inputs": [],
      "name": "lastUpdateBlock",
      "outputs": [
        {
          "internalType": "uint256",
          "name": "",
          "type": "uint256"
        }
      ],
      "stateMutability": "view",
      "type": "function"
    },
    {
      "inputs": [],
      "name": "lockUpDuration",
      "outputs": [
        {
          "internalType": "uint256",
          "name": "",
          "type": "uint256"
        }
      ],
      "stateMutability": "view",
      "type": "function"
    },
    {
      "inputs": [],
      "name": "owner",
      "outputs": [
        {
          "internalType": "address",
          "name": "",
          "type": "address"
        }
      ],
      "stateMutability": "view",
      "type": "function"
    },
    {
      "inputs": [
        {
          "internalType": "address",
          "name": "_user",
          "type": "address"
        }
      ],
      "name": "pendingReward",
      "outputs": [
        {
          "internalType": "uint256",
          "name": "",
          "type": "uint256"
        }
      ],
      "stateMutability": "view",
      "type": "function"
    },
    {
      "inputs": [],
      "name": "poolCalcRewardPerBlock",
      "outputs": [],
      "stateMutability": "nonpayable",
      "type": "function"
    },
    {
      "inputs": [
        {
          "internalType": "uint256",
          "name": "_durationBlocks",
          "type": "uint256"
        }
      ],
      "name": "poolSetDuration",
      "outputs": [],
      "stateMutability": "nonpayable",
      "type": "function"
    },
    {
      "inputs": [
        {
          "internalType": "uint256",
          "name": "_startBlock",
          "type": "uint256"
        }
      ],
      "name": "poolSetStart",
      "outputs": [],
      "stateMutability": "nonpayable",
      "type": "function"
    },
    {
      "inputs": [
        {
          "internalType": "uint256",
          "name": "_startBlock",
          "type": "uint256"
        },
        {
          "internalType": "uint256",
          "name": "_durationBlocks",
          "type": "uint256"
        }
      ],
      "name": "poolSetStartAndDuration",
      "outputs": [],
      "stateMutability": "nonpayable",
      "type": "function"
    },
    {
      "inputs": [
        {
          "internalType": "uint256",
          "name": "_blocks",
          "type": "uint256"
        }
      ],
      "name": "poolStartIn",
      "outputs": [],
      "stateMutability": "nonpayable",
      "type": "function"
    },
    {
      "inputs": [
        {
          "internalType": "address",
          "name": "_tokenAddress",
          "type": "address"
        },
        {
          "internalType": "uint256",
          "name": "_tokenAmount",
          "type": "uint256"
        }
      ],
      "name": "recoverWrongTokens",
      "outputs": [],
      "stateMutability": "nonpayable",
      "type": "function"
    },
    {
      "inputs": [],
      "name": "renounceOwnership",
      "outputs": [],
      "stateMutability": "nonpayable",
      "type": "function"
    },
    {
      "inputs": [],
      "name": "rewardDuration",
      "outputs": [
        {
          "internalType": "uint256",
          "name": "",
          "type": "uint256"
        }
      ],
      "stateMutability": "view",
      "type": "function"
    },
    {
      "inputs": [],
      "name": "rewardPerBlock",
      "outputs": [
        {
          "internalType": "uint256",
          "name": "",
          "type": "uint256"
        }
      ],
      "stateMutability": "view",
      "type": "function"
    },
    {
      "inputs": [],
      "name": "rewardPerBlockUI",
      "outputs": [
        {
          "internalType": "uint256",
          "name": "",
          "type": "uint256"
        }
      ],
      "stateMutability": "view",
      "type": "function"
    },
    {
      "inputs": [],
      "name": "rewardToken",
      "outputs": [
        {
          "internalType": "contract IERC20",
          "name": "",
          "type": "address"
        }
      ],
      "stateMutability": "view",
      "type": "function"
    },
    {
      "inputs": [],
      "name": "rewardTokenDecimals",
      "outputs": [
        {
          "internalType": "uint8",
          "name": "",
          "type": "uint8"
        }
      ],
      "stateMutability": "view",
      "type": "function"
    },
    {
      "inputs": [
        {
          "internalType": "uint256",
          "name": "_lockUpDuration",
          "type": "uint256"
        }
      ],
      "name": "setLockUpDuration",
      "outputs": [],
      "stateMutability": "nonpayable",
      "type": "function"
    },
    {
      "inputs": [],
      "name": "stakedToken",
      "outputs": [
        {
          "internalType": "contract IERC20",
          "name": "",
          "type": "address"
        }
      ],
      "stateMutability": "view",
      "type": "function"
    },
    {
      "inputs": [],
      "name": "startBlock",
      "outputs": [
        {
          "internalType": "uint256",
          "name": "",
          "type": "uint256"
        }
      ],
      "stateMutability": "view",
      "type": "function"
    },
    {
      "inputs": [],
      "name": "stopReward",
      "outputs": [],
      "stateMutability": "nonpayable",
      "type": "function"
    },
    {
      "inputs": [
        {
          "internalType": "address",
          "name": "newOwner",
          "type": "address"
        }
      ],
      "name": "transferOwnership",
      "outputs": [],
      "stateMutability": "nonpayable",
      "type": "function"
    },
    {
      "inputs": [
        {
          "internalType": "uint256",
          "name": "_rewardPerBlock",
          "type": "uint256"
        }
      ],
      "name": "updateRewardPerBlock",
      "outputs": [],
      "stateMutability": "nonpayable",
      "type": "function"
    },
    {
      "inputs": [
        {
          "internalType": "uint256",
          "name": "_startBlock",
          "type": "uint256"
        },
        {
          "internalType": "uint256",
          "name": "_bonusEndBlock",
          "type": "uint256"
        }
      ],
      "name": "updateStartAndEndBlocks",
      "outputs": [],
      "stateMutability": "nonpayable",
      "type": "function"
    },
    {
      "inputs": [
        {
          "internalType": "address",
          "name": "",
          "type": "address"
        }
      ],
      "name": "userInfo",
      "outputs": [
        {
          "internalType": "uint256",
          "name": "amount",
          "type": "uint256"
        },
        {
          "internalType": "uint256",
          "name": "rewardDebt",
          "type": "uint256"
        },
        {
          "internalType": "uint256",
          "name": "firstDeposit",
          "type": "uint256"
        }
      ],
      "stateMutability": "view",
      "type": "function"
    },
    {
      "inputs": [
        {
          "internalType": "uint256",
          "name": "_amount",
          "type": "uint256"
        }
      ],
      "name": "withdraw",
      "outputs": [],
      "stateMutability": "nonpayable",
      "type": "function"
    },
    {
      "inputs": [],
      "name": "withdrawFee",
      "outputs": [
        {
          "internalType": "uint256",
          "name": "",
          "type": "uint256"
        }
      ],
      "stateMutability": "view",
      "type": "function"
    },
    {
      "inputs": [
        {
          "internalType": "address",
          "name": "_to",
          "type": "address"
        }
      ],
      "name": "withdrawRemains",
      "outputs": [],
      "stateMutability": "nonpayable",
      "type": "function"
    }
  ],
  "transactionHash": "0x60913f44ca0960f69b5545f792b4d2fd8deae7511839ce20dc464499be1a79b5",
  "args": [
    "0xF700D4c708C2be1463E355F337603183D20E0808",
    "0x9900e80255De6AB680C5b6A0517E3B64dB21a91e",
    24325450,
    29509450,
    0,
    0,
    "0xaaf6b6f4c3a20cae39a25fbcd9617822cd8bf1c7"
  ],
  "numDeployments": 1,
  "solcInputHash": "3abdffcef7a20b204db899fbe6803b6f",
  "bytecode": "0x60806040523480156200001157600080fd5b50604051620020c9380380620020c9833981016040819052620000349162000221565b6200003f33620001ba565b60018055600c80546001600160a01b03808a166001600160a01b031992831617909255600b80548984169216821790556004878155600387905560078690556008859055600a805493851661010002610100600160a81b0319909416939093179092556040805163313ce56760e01b81529051919263313ce567928282019260209290829003018186803b158015620000d757600080fd5b505afa158015620000ec573d6000803e3d6000fd5b505050506040513d601f19601f820116820180604052508101906200011291906200029c565b600a805460ff191660ff929092169182179055601e81106200017a5760405162461bcd60e51b815260206004820152601660248201527f4d75737420626520696e666572696f7220746f20333000000000000000000000604482015260640160405180910390fd5b6200019581601e6200020a60201b620013d71790919060201c565b620001a290600a6200030f565b60095550506004546005555062000414945050505050565b600080546001600160a01b038381166001600160a01b0319831681178455604051919092169283917f8be0079c531659141344cd1fd0a4f28419497f9722a3daafe3b4186f6b6457e09190a35050565b6000620002188284620003cb565b90505b92915050565b600080600080600080600060e0888a0312156200023c578283fd5b87516200024981620003fb565b60208901519097506200025c81620003fb565b8096505060408801519450606088015193506080880151925060a0880151915060c08801516200028c81620003fb565b8091505092959891949750929550565b600060208284031215620002ae578081fd5b815160ff81168114620002bf578182fd5b9392505050565b600181815b8085111562000307578160001904821115620002eb57620002eb620003e5565b80851615620002f957918102915b93841c9390800290620002cb565b509250929050565b600062000218838360008262000328575060016200021b565b8162000337575060006200021b565b81600181146200035057600281146200035b576200037b565b60019150506200021b565b60ff8411156200036f576200036f620003e5565b50506001821b6200021b565b5060208310610133831016604e8410600b8410161715620003a0575081810a6200021b565b620003ac8383620002c6565b8060001904821115620003c357620003c3620003e5565b029392505050565b600082821015620003e057620003e0620003e5565b500390565b634e487b7160e01b600052601160045260246000fd5b6001600160a01b03811681146200041157600080fd5b50565b611ca580620004246000396000f3fe608060405234801561001057600080fd5b50600436106102115760003560e01c80638f66291511610125578063d3a8615c116100ad578063ea9041e41161007c578063ea9041e414610431578063f2fde38b14610444578063f40f0f5214610457578063f520e7e51461046a578063f7c618c11461047257600080fd5b8063d3a8615c146103fa578063db2e21bc1461040d578063e1b2addc14610415578063e941fa781461042857600080fd5b8063a2ba0bc7116100f4578063a2ba0bc7146103b0578063b3f02d38146103b8578063b6b55f25146103cb578063cc7a262e146103de578063ccd34cd5146103f157600080fd5b80638f6629151461036c5780639513997f146103755780639bdcecd114610388578063a218141b146103a757600080fd5b80634e71d92d116101a8578063715018a611610177578063715018a61461032f5780637bfaa40c1461033757806380dc06721461034a5780638ae39cac146103525780638da5cb5b1461035b57600080fd5b80634e71d92d14610303578063576e093b1461030b5780635bb06ead1461031e5780636aa662b51461032657600080fd5b80632e1a7d4d116101e45780632e1a7d4d146102a45780633f138d4b146102b757806341275358146102ca57806348cd4cb1146102fa57600080fd5b806301f8a97614610216578063083c63231461022b57806310f8097b146102475780631959a0021461025a575b600080fd5b61022961022436600461199e565b610485565b005b61023460035481565b6040519081526020015b60405180910390f35b61022961025536600461199e565b610515565b61028961026836600461193b565b600d6020526000908152604090208054600182015460029092015490919083565b6040805193845260208401929092529082015260600161023e565b6102296102b236600461199e565b61054f565b6102296102c5366004611955565b610771565b600a546102e29061010090046001600160a01b031681565b6040516001600160a01b03909116815260200161023e565b61023460045481565b6102296108a4565b61022961031936600461193b565b61097e565b610234610ae2565b61023460075481565b610229610b0a565b61022961034536600461199e565b610b40565b610229610bd6565b61023460065481565b6000546001600160a01b03166102e2565b61023460025481565b6102296103833660046119ce565b610c06565b600a546103959060ff1681565b60405160ff909116815260200161023e565b61023460055481565b610229610d64565b6102296103c636600461199e565b610e24565b6102296103d936600461199e565b610ecd565b600c546102e2906001600160a01b031681565b61023460095481565b6102296104083660046119ce565b610ff2565b61022961102e565b61022961042336600461199e565b61112c565b61023460085481565b61022961043f36600461199e565b61118b565b61022961045236600461193b565b6111cc565b61023461046536600461193b565b611264565b6102346113be565b600b546102e2906001600160a01b031681565b6000546001600160a01b031633146104b85760405162461bcd60e51b81526004016104af90611a68565b60405180910390fd5b60045443106104d95760405162461bcd60e51b81526004016104af90611a3e565b60068190556040518181527f0c4d677eef92893ac7ec52faf8140fc6c851ab4736302b4f3a89dfb20696a0df906020015b60405180910390a150565b6000546001600160a01b0316331461053f5760405162461bcd60e51b81526004016104af90611a68565b61054c6103c643836113ec565b50565b600260015414156105725760405162461bcd60e51b81526004016104af90611a9d565b6002600155806105bc5760405162461bcd60e51b8152602060048201526015602482015274115c9c9bdc8e88125b9d985b1a5908185b5bdd5b9d605a1b60448201526064016104af565b336000908152600d60205260409020805482111561061c5760405162461bcd60e51b815260206004820152601b60248201527f416d6f756e7420746f20776974686472617720746f6f2068696768000000000060448201526064016104af565b6106246113f8565b6000610659826001015461065360095461064d60025487600001546114de90919063ffffffff16565b906114ea565b906113d7565b825490915061066890846113d7565b82556007546002830154849161067d91611ad4565b4210156106d45760006106a161271061064d600854856114de90919063ffffffff16565b600a54600c549192506106c6916001600160a01b0390811691610100900416836114f6565b6106d08183611c16565b9150505b600c546106eb906001600160a01b031633836114f6565b6002830154156106ff578260020154610701565b425b6002840155811561071657610716338361155e565b600954600254845461072d929161064d91906114de565b600184015560405184815233907f884edad9ce6fa2440d8a54cc123490eb96d2768479d49ff9c7366125a94243649060200160405180910390a25050600180555050565b6000546001600160a01b0316331461079b5760405162461bcd60e51b81526004016104af90611a68565b600c546001600160a01b03838116911614156107f25760405162461bcd60e51b815260206004820152601660248201527521b0b73737ba1031329039ba30b5b2b2103a37b5b2b760511b60448201526064016104af565b600b546001600160a01b03838116911614156108495760405162461bcd60e51b815260206004820152601660248201527521b0b73737ba103132903932bbb0b932103a37b5b2b760511b60448201526064016104af565b61085d6001600160a01b03831633836114f6565b604080516001600160a01b0384168152602081018390527f74545154aac348a3eac92596bd1971957ca94795f4e954ec5f613b55fab7812991015b60405180910390a15050565b600260015414156108c75760405162461bcd60e51b81526004016104af90611a9d565b6002600155336000908152600d602052604090206108e36113f8565b80541561095d576000610913826001015461065360095461064d60025487600001546114de90919063ffffffff16565b9050801561095b57610925338261155e565b60405181815233907f47cee97cb7acd717b3c0aa1435d004cd5b3c8c57d70dbceb4e4458bbd60e39d49060200160405180910390a25b505b6009546002548254610974929161064d91906114de565b6001918201558055565b6000546001600160a01b031633146109a85760405162461bcd60e51b81526004016104af90611a68565b60035443116109f95760405162461bcd60e51b815260206004820152601c60248201527f4572726f723a20506f6f6c206e6f742066696e6973686564207965740000000060448201526064016104af565b600b546040516370a0823160e01b81523060048201526000916001600160a01b0316906370a082319060240160206040518083038186803b158015610a3d57600080fd5b505afa158015610a51573d6000803e3d6000fd5b505050506040513d601f19601f82011682018060405250810190610a7591906119b6565b905060008111610ac75760405162461bcd60e51b815260206004820152601960248201527f4572726f723a204e6f2072656d61696e696e672066756e64730000000000000060448201526064016104af565b600b54610ade906001600160a01b031683836114f6565b5050565b600a8054600091610b0591610afc9160ff90911690611b4f565b600654906114ea565b905090565b6000546001600160a01b03163314610b345760405162461bcd60e51b81526004016104af90611a68565b610b3e6000611612565b565b6000546001600160a01b03163314610b6a5760405162461bcd60e51b81526004016104af90611a68565b6004544310610b8b5760405162461bcd60e51b81526004016104af90611a3e565b600454610b9890826113ec565b600355610ba3610d64565b7f55baa248360bce74a89304071ca6e882f61d2226c15dde53a4ec1e05af523d9260035460405161050a91815260200190565b6000546001600160a01b03163314610c005760405162461bcd60e51b81526004016104af90611a68565b43600355565b6000546001600160a01b03163314610c305760405162461bcd60e51b81526004016104af90611a68565b6004544310610c515760405162461bcd60e51b81526004016104af90611a3e565b808210610cb75760405162461bcd60e51b815260206004820152602e60248201527f4e6577207374617274426c6f636b206d757374206265206c6f7765722074686160448201526d6e206e657720656e64426c6f636b60901b60648201526084016104af565b814310610d1f5760405162461bcd60e51b815260206004820152603060248201527f4e6577207374617274426c6f636b206d7573742062652068696768657220746860448201526f616e2063757272656e7420626c6f636b60801b60648201526084016104af565b60048290556003819055600582905560408051838152602081018390527f7cd0ab87d19036f3dfadadb232c78aa4879dda3f0c994a9d637532410ee2ce069101610898565b6000546001600160a01b03163314610d8e5760405162461bcd60e51b81526004016104af90611a68565b600b546040516370a0823160e01b81523060048201526000916001600160a01b0316906370a082319060240160206040518083038186803b158015610dd257600080fd5b505afa158015610de6573d6000803e3d6000fd5b505050506040513d601f19601f82011682018060405250810190610e0a91906119b6565b9050610e1e610e176113be565b82906114ea565b60065550565b6000546001600160a01b03163314610e4e5760405162461bcd60e51b81526004016104af90611a68565b6004544310610e6f5760405162461bcd60e51b81526004016104af90611a3e565b6000610e796113be565b60048390559050610e8a82826113ec565b600381905560045460058190556040517f7cd0ab87d19036f3dfadadb232c78aa4879dda3f0c994a9d637532410ee2ce0692610898928252602082015260400190565b60026001541415610ef05760405162461bcd60e51b81526004016104af90611a9d565b6002600155336000908152600d60205260409020610f0c6113f8565b805415610f50576000610f3c826001015461065360095461064d60025487600001546114de90919063ffffffff16565b90508015610f4e57610f4e338261155e565b505b8115610f98578054610f6290836113ec565b8155600c54610f7c906001600160a01b0316333085611662565b600281015415610f90578060020154610f92565b425b60028201555b6009546002548254610faf929161064d91906114de565b600182015560405182815233907fe1fffcc4923d04b559f4d29a8bfc6cda04eb5b0d3c460751c2402c5c5cc9109c906020015b60405180910390a2505060018055565b6000546001600160a01b0316331461101c5760405162461bcd60e51b81526004016104af90611a68565b61102582610e24565b610ade81610b40565b600260015414156110515760405162461bcd60e51b81526004016104af90611a9d565b60026001908155336000908152600d602052604081208054828255928101919091559080156110fa57600754826002015461108c9190611ad4565b4210156110e35760006110b061271061064d600854856114de90919063ffffffff16565b600a54600c549192506110d5916001600160a01b0390811691610100900416836114f6565b6110df8183611c16565b9150505b600c546110fa906001600160a01b031633836114f6565b60405181815233907f5fafa99d0643513820be26656b45130b01e1c03062e1266bf36f88cbd3bd969590602001610fe2565b6000546001600160a01b031633146111565760405162461bcd60e51b81526004016104af90611a68565b60078190556040518181527fd2a4f919593bfa0565c404bb5e42080750d07eedb9dfa9907c22be9e29c02a989060200161050a565b6000546001600160a01b031633146111b55760405162461bcd60e51b81526004016104af90611a68565b600b5461054c906001600160a01b031630836114f6565b6000546001600160a01b031633146111f65760405162461bcd60e51b81526004016104af90611a68565b6001600160a01b03811661125b5760405162461bcd60e51b815260206004820152602660248201527f4f776e61626c653a206e6577206f776e657220697320746865207a65726f206160448201526564647265737360d01b60648201526084016104af565b61054c81611612565b6001600160a01b038181166000908152600d6020526040808220600c5491516370a0823160e01b8152306004820152929390928492909116906370a082319060240160206040518083038186803b1580156112be57600080fd5b505afa1580156112d2573d6000803e3d6000fd5b505050506040513d601f19601f820116820180604052508101906112f691906119b6565b90506005544311801561130857508015155b1561138f57600061131b600554436116a0565b90506000611334600654836114de90919063ffffffff16565b9050600061135d6113548561064d600954866114de90919063ffffffff16565b600254906113ec565b9050611384856001015461065360095461064d858a600001546114de90919063ffffffff16565b979650505050505050565b6113b6826001015461065360095461064d60025487600001546114de90919063ffffffff16565b949350505050565b6000610b056004546003546113d790919063ffffffff16565b60006113e38284611c16565b90505b92915050565b60006113e38284611ad4565b600554431161140357565b600c546040516370a0823160e01b81523060048201526000916001600160a01b0316906370a082319060240160206040518083038186803b15801561144757600080fd5b505afa15801561145b573d6000803e3d6000fd5b505050506040513d601f19601f8201168201806040525081019061147f91906119b6565b90508061148d575043600555565b600061149b600554436116a0565b905060006114b4600654836114de90919063ffffffff16565b90506114d26113548461064d600954856114de90919063ffffffff16565b60025550504360055550565b60006113e38284611bf7565b60006113e38284611aec565b6040516001600160a01b03831660248201526044810182905261155990849063a9059cbb60e01b906064015b60408051601f198184030181529190526020810180516001600160e01b03166001600160e01b0319909316929092179091526116da565b505050565b600b546040516370a0823160e01b81523060048201526000916001600160a01b0316906370a082319060240160206040518083038186803b1580156115a257600080fd5b505afa1580156115b6573d6000803e3d6000fd5b505050506040513d601f19601f820116820180604052508101906115da91906119b6565b9050808211156115fb57600b54611559906001600160a01b031684836114f6565b600b54611559906001600160a01b031684846114f6565b600080546001600160a01b038381166001600160a01b0319831681178455604051919092169283917f8be0079c531659141344cd1fd0a4f28419497f9722a3daafe3b4186f6b6457e09190a35050565b6040516001600160a01b038085166024830152831660448201526064810182905261169a9085906323b872dd60e01b90608401611522565b50505050565b600060035482116116bc576116b582846113d7565b90506113e6565b60035483106116cd575060006113e6565b6003546116b590846113d7565b600061172f826040518060400160405280602081526020017f5361666545524332303a206c6f772d6c6576656c2063616c6c206661696c6564815250856001600160a01b03166117ac9092919063ffffffff16565b805190915015611559578080602001905181019061174d919061197e565b6115595760405162461bcd60e51b815260206004820152602a60248201527f5361666545524332303a204552433230206f7065726174696f6e20646964206e6044820152691bdd081cdd58d8d9595960b21b60648201526084016104af565b60606117bb84846000856117c5565b90505b9392505050565b6060824710156118265760405162461bcd60e51b815260206004820152602660248201527f416464726573733a20696e73756666696369656e742062616c616e636520666f6044820152651c8818d85b1b60d21b60648201526084016104af565b6001600160a01b0385163b61187d5760405162461bcd60e51b815260206004820152601d60248201527f416464726573733a2063616c6c20746f206e6f6e2d636f6e747261637400000060448201526064016104af565b600080866001600160a01b0316858760405161189991906119ef565b60006040518083038185875af1925050503d80600081146118d6576040519150601f19603f3d011682016040523d82523d6000602084013e6118db565b606091505b5091509150611384828286606083156118f55750816117be565b8251156119055782518084602001fd5b8160405162461bcd60e51b81526004016104af9190611a0b565b80356001600160a01b038116811461193657600080fd5b919050565b60006020828403121561194c578081fd5b6113e38261191f565b60008060408385031215611967578081fd5b6119708361191f565b946020939093013593505050565b60006020828403121561198f578081fd5b815180151581146117be578182fd5b6000602082840312156119af578081fd5b5035919050565b6000602082840312156119c7578081fd5b5051919050565b600080604083850312156119e0578182fd5b50508035926020909101359150565b60008251611a01818460208701611c2d565b9190910192915050565b6020815260008251806020840152611a2a816040850160208701611c2d565b601f01601f19169190910160400192915050565b60208082526010908201526f141bdbdb081a185cc81cdd185c9d195960821b604082015260600190565b6020808252818101527f4f776e61626c653a2063616c6c6572206973206e6f7420746865206f776e6572604082015260600190565b6020808252601f908201527f5265656e7472616e637947756172643a207265656e7472616e742063616c6c00604082015260600190565b60008219821115611ae757611ae7611c59565b500190565b600082611b0757634e487b7160e01b81526012600452602481fd5b500490565b600181815b80851115611b47578160001904821115611b2d57611b2d611c59565b80851615611b3a57918102915b93841c9390800290611b11565b509250929050565b60006113e38383600082611b65575060016113e6565b81611b72575060006113e6565b8160018114611b885760028114611b9257611bae565b60019150506113e6565b60ff841115611ba357611ba3611c59565b50506001821b6113e6565b5060208310610133831016604e8410600b8410161715611bd1575081810a6113e6565b611bdb8383611b0c565b8060001904821115611bef57611bef611c59565b029392505050565b6000816000190483118215151615611c1157611c11611c59565b500290565b600082821015611c2857611c28611c59565b500390565b60005b83811015611c48578181015183820152602001611c30565b8381111561169a5750506000910152565b634e487b7160e01b600052601160045260246000fdfea2646970667358221220fff37e4bf7a020544315cb77f58aa6f39e4ccb3be540089ddbd99fa3c6c8e16364736f6c63430008040033",
  "devdoc": {
    "kind": "dev",
    "methods": {
      "owner()": {
        "details": "Returns the address of the current owner."
      },
      "recoverWrongTokens(address,uint256)": {
        "details": "This function is only callable by admin.",
        "params": {
          "_tokenAddress": ": the address of the token to withdraw",
          "_tokenAmount": ": the number of tokens to withdraw"
        }
      },
      "renounceOwnership()": {
        "details": "Leaves the contract without owner. It will not be possible to call `onlyOwner` functions anymore. Can only be called by the current owner. NOTE: Renouncing ownership will leave the contract without an owner, thereby removing any functionality that is only available to the owner."
      },
      "transferOwnership(address)": {
        "details": "Transfers ownership of the contract to a new account (`newOwner`). Can only be called by the current owner."
      },
      "updateStartAndEndBlocks(uint256,uint256)": {
        "details": "This function is only callable by owner.",
        "params": {
          "_bonusEndBlock": ": the new end block",
          "_startBlock": ": the new start block"
        }
      }
    },
    "version": 1
  },
  "userdoc": {
    "kind": "user",
    "methods": {
      "recoverWrongTokens(address,uint256)": {
        "notice": "It allows the admin to recover wrong tokens sent to the contract"
      },
      "updateStartAndEndBlocks(uint256,uint256)": {
        "notice": "It allows the admin to update start and end blocks"
      }
    },
    "version": 1
  },
  "storageLayout": {
    "storage": [
      {
        "astId": 389,
        "contract": "contracts/GQGalacticReserve.sol:GQGalacticReserve",
        "label": "_owner",
        "offset": 0,
        "slot": "0",
        "type": "t_address"
      },
      {
        "astId": 497,
        "contract": "contracts/GQGalacticReserve.sol:GQGalacticReserve",
        "label": "_status",
        "offset": 0,
        "slot": "1",
        "type": "t_uint256"
      },
      {
        "astId": 2374,
        "contract": "contracts/GQGalacticReserve.sol:GQGalacticReserve",
        "label": "accTokenPerShare",
        "offset": 0,
        "slot": "2",
        "type": "t_uint256"
      },
      {
        "astId": 2376,
        "contract": "contracts/GQGalacticReserve.sol:GQGalacticReserve",
        "label": "endBlock",
        "offset": 0,
        "slot": "3",
        "type": "t_uint256"
      },
      {
        "astId": 2378,
        "contract": "contracts/GQGalacticReserve.sol:GQGalacticReserve",
        "label": "startBlock",
        "offset": 0,
        "slot": "4",
        "type": "t_uint256"
      },
      {
        "astId": 2380,
        "contract": "contracts/GQGalacticReserve.sol:GQGalacticReserve",
        "label": "lastUpdateBlock",
        "offset": 0,
        "slot": "5",
        "type": "t_uint256"
      },
      {
        "astId": 2382,
        "contract": "contracts/GQGalacticReserve.sol:GQGalacticReserve",
        "label": "rewardPerBlock",
        "offset": 0,
        "slot": "6",
        "type": "t_uint256"
      },
      {
        "astId": 2384,
        "contract": "contracts/GQGalacticReserve.sol:GQGalacticReserve",
        "label": "lockUpDuration",
        "offset": 0,
        "slot": "7",
        "type": "t_uint256"
      },
      {
        "astId": 2386,
        "contract": "contracts/GQGalacticReserve.sol:GQGalacticReserve",
        "label": "withdrawFee",
        "offset": 0,
        "slot": "8",
        "type": "t_uint256"
      },
      {
        "astId": 2388,
        "contract": "contracts/GQGalacticReserve.sol:GQGalacticReserve",
        "label": "PRECISION_FACTOR",
        "offset": 0,
        "slot": "9",
        "type": "t_uint256"
      },
      {
        "astId": 2390,
        "contract": "contracts/GQGalacticReserve.sol:GQGalacticReserve",
        "label": "rewardTokenDecimals",
        "offset": 0,
        "slot": "10",
        "type": "t_uint8"
      },
      {
        "astId": 2392,
        "contract": "contracts/GQGalacticReserve.sol:GQGalacticReserve",
        "label": "feeAddress",
        "offset": 1,
        "slot": "10",
        "type": "t_address"
      },
      {
        "astId": 2395,
        "contract": "contracts/GQGalacticReserve.sol:GQGalacticReserve",
        "label": "rewardToken",
        "offset": 0,
        "slot": "11",
        "type": "t_contract(IERC20)1192"
      },
      {
        "astId": 2398,
        "contract": "contracts/GQGalacticReserve.sol:GQGalacticReserve",
        "label": "stakedToken",
        "offset": 0,
        "slot": "12",
        "type": "t_contract(IERC20)1192"
      },
      {
        "astId": 2403,
        "contract": "contracts/GQGalacticReserve.sol:GQGalacticReserve",
        "label": "userInfo",
        "offset": 0,
        "slot": "13",
        "type": "t_mapping(t_address,t_struct(UserInfo)2410_storage)"
      }
    ],
    "types": {
      "t_address": {
        "encoding": "inplace",
        "label": "address",
        "numberOfBytes": "20"
      },
      "t_contract(IERC20)1192": {
        "encoding": "inplace",
        "label": "contract IERC20",
        "numberOfBytes": "20"
      },
      "t_mapping(t_address,t_struct(UserInfo)2410_storage)": {
        "encoding": "mapping",
        "key": "t_address",
        "label": "mapping(address => struct GQGalacticReserve.UserInfo)",
        "numberOfBytes": "32",
        "value": "t_struct(UserInfo)2410_storage"
      },
      "t_struct(UserInfo)2410_storage": {
        "encoding": "inplace",
        "label": "struct GQGalacticReserve.UserInfo",
        "members": [
          {
            "astId": 2405,
            "contract": "contracts/GQGalacticReserve.sol:GQGalacticReserve",
            "label": "amount",
            "offset": 0,
            "slot": "0",
            "type": "t_uint256"
          },
          {
            "astId": 2407,
            "contract": "contracts/GQGalacticReserve.sol:GQGalacticReserve",
            "label": "rewardDebt",
            "offset": 0,
            "slot": "1",
            "type": "t_uint256"
          },
          {
            "astId": 2409,
            "contract": "contracts/GQGalacticReserve.sol:GQGalacticReserve",
            "label": "firstDeposit",
            "offset": 0,
            "slot": "2",
            "type": "t_uint256"
          }
        ],
        "numberOfBytes": "96"
      },
      "t_uint256": {
        "encoding": "inplace",
        "label": "uint256",
        "numberOfBytes": "32"
      },
      "t_uint8": {
        "encoding": "inplace",
        "label": "uint8",
        "numberOfBytes": "1"
      }
    }
  }
}