{
  "address": "0x7fb7bF8fA1d111fb5774BF317Cd8f5B2b9F11e64",
  "abi": [
    {
      "inputs": [],
      "stateMutability": "nonpayable",
      "type": "constructor"
    },
    {
      "anonymous": false,
      "inputs": [
        {
          "indexed": false,
          "internalType": "address",
          "name": "tokenRecovered",
          "type": "address"
        },
        {
          "indexed": false,
          "internalType": "uint256",
          "name": "amount",
          "type": "uint256"
        }
      ],
      "name": "AdminTokenRecovery",
      "type": "event"
    },
    {
      "anonymous": false,
      "inputs": [
        {
          "indexed": true,
          "internalType": "address",
          "name": "user",
          "type": "address"
        },
        {
          "indexed": false,
          "internalType": "uint256",
          "name": "amount",
          "type": "uint256"
        }
      ],
      "name": "Claim",
      "type": "event"
    },
    {
      "anonymous": false,
      "inputs": [
        {
          "indexed": true,
          "internalType": "address",
          "name": "user",
          "type": "address"
        },
        {
          "indexed": false,
          "internalType": "uint256",
          "name": "amount",
          "type": "uint256"
        }
      ],
      "name": "Deposit",
      "type": "event"
    },
    {
      "anonymous": false,
      "inputs": [
        {
          "indexed": true,
          "internalType": "address",
          "name": "user",
          "type": "address"
        },
        {
          "indexed": false,
          "internalType": "uint256",
          "name": "amount",
          "type": "uint256"
        }
      ],
      "name": "EmergencyWithdraw",
      "type": "event"
    },
    {
      "anonymous": false,
      "inputs": [
        {
          "indexed": false,
          "internalType": "uint256",
          "name": "endBlock",
          "type": "uint256"
        }
      ],
      "name": "NewEndBlock",
      "type": "event"
    },
    {
      "anonymous": false,
      "inputs": [
        {
          "indexed": false,
          "internalType": "uint256",
          "name": "lockUpDuration",
          "type": "uint256"
        }
      ],
      "name": "NewLockUpDuration",
      "type": "event"
    },
    {
      "anonymous": false,
      "inputs": [
        {
          "indexed": false,
          "internalType": "uint256",
          "name": "rewardPerBlock",
          "type": "uint256"
        }
      ],
      "name": "NewRewardPerBlock",
      "type": "event"
    },
    {
      "anonymous": false,
      "inputs": [
        {
          "indexed": false,
          "internalType": "uint256",
          "name": "startBlock",
          "type": "uint256"
        },
        {
          "indexed": false,
          "internalType": "uint256",
          "name": "endBlock",
          "type": "uint256"
        }
      ],
      "name": "NewStartAndEndBlocks",
      "type": "event"
    },
    {
      "anonymous": false,
      "inputs": [
        {
          "indexed": true,
          "internalType": "address",
          "name": "previousOwner",
          "type": "address"
        },
        {
          "indexed": true,
          "internalType": "address",
          "name": "newOwner",
          "type": "address"
        }
      ],
      "name": "OwnershipTransferred",
      "type": "event"
    },
    {
      "anonymous": false,
      "inputs": [
        {
          "indexed": false,
          "internalType": "uint256",
          "name": "blockNumber",
          "type": "uint256"
        }
      ],
      "name": "RewardsStop",
      "type": "event"
    },
    {
      "anonymous": false,
      "inputs": [
        {
          "indexed": true,
          "internalType": "address",
          "name": "user",
          "type": "address"
        },
        {
          "indexed": false,
          "internalType": "uint256",
          "name": "amount",
          "type": "uint256"
        }
      ],
      "name": "Withdraw",
      "type": "event"
    },
    {
      "inputs": [],
      "name": "claim",
      "outputs": [],
      "stateMutability": "nonpayable",
      "type": "function"
    },
    {
      "inputs": [
        {
          "internalType": "uint256",
          "name": "_amount",
          "type": "uint256"
        }
      ],
      "name": "deposit",
      "outputs": [],
      "stateMutability": "nonpayable",
      "type": "function"
    },
    {
      "inputs": [
        {
          "internalType": "uint8",
          "name": "_rewardTokenId",
          "type": "uint8"
        },
        {
          "internalType": "uint256",
          "name": "_amount",
          "type": "uint256"
        }
      ],
      "name": "depositRewardTokenFunds",
      "outputs": [],
      "stateMutability": "nonpayable",
      "type": "function"
    },
    {
      "inputs": [],
      "name": "emergencyWithdraw",
      "outputs": [],
      "stateMutability": "nonpayable",
      "type": "function"
    },
    {
      "inputs": [],
      "name": "endBlock",
      "outputs": [
        {
          "internalType": "uint256",
          "name": "",
          "type": "uint256"
        }
      ],
      "stateMutability": "view",
      "type": "function"
    },
    {
      "inputs": [],
      "name": "feeAddress",
      "outputs": [
        {
          "internalType": "address",
          "name": "",
          "type": "address"
        }
      ],
      "stateMutability": "view",
      "type": "function"
    },
    {
      "inputs": [
        {
          "internalType": "contract IERC20Upgradeable",
          "name": "_stakedToken",
          "type": "address"
        },
        {
          "internalType": "address",
          "name": "_rewardToken1",
          "type": "address"
        },
        {
          "internalType": "address",
          "name": "_rewardToken2",
          "type": "address"
        },
        {
          "internalType": "uint256",
          "name": "_startBlock",
          "type": "uint256"
        },
        {
          "internalType": "uint256",
          "name": "_endBlock",
          "type": "uint256"
        },
        {
          "internalType": "uint256",
          "name": "_lockUpDuration",
          "type": "uint256"
        },
        {
          "internalType": "uint256",
          "name": "_withdrawFee",
          "type": "uint256"
        },
        {
          "internalType": "address",
          "name": "_feeAddress",
          "type": "address"
        }
      ],
      "name": "initialize",
      "outputs": [],
      "stateMutability": "nonpayable",
      "type": "function"
    },
    {
      "inputs": [],
      "name": "isInitialized",
      "outputs": [
        {
          "internalType": "bool",
          "name": "",
          "type": "bool"
        }
      ],
      "stateMutability": "view",
      "type": "function"
    },
    {
      "inputs": [],
      "name": "lastUpdateBlock",
      "outputs": [
        {
          "internalType": "uint256",
          "name": "",
          "type": "uint256"
        }
      ],
      "stateMutability": "view",
      "type": "function"
    },
    {
      "inputs": [],
      "name": "lockUpDuration",
      "outputs": [
        {
          "internalType": "uint256",
          "name": "",
          "type": "uint256"
        }
      ],
      "stateMutability": "view",
      "type": "function"
    },
    {
      "inputs": [
        {
          "internalType": "uint8",
          "name": "",
          "type": "uint8"
        }
      ],
      "name": "mapOfAccTokenPerShare",
      "outputs": [
        {
          "internalType": "uint256",
          "name": "",
          "type": "uint256"
        }
      ],
      "stateMutability": "view",
      "type": "function"
    },
    {
      "inputs": [
        {
          "internalType": "uint8",
          "name": "",
          "type": "uint8"
        }
      ],
      "name": "mapOfPrecisionFactor",
      "outputs": [
        {
          "internalType": "uint256",
          "name": "",
          "type": "uint256"
        }
      ],
      "stateMutability": "view",
      "type": "function"
    },
    {
      "inputs": [
        {
          "internalType": "uint8",
          "name": "",
          "type": "uint8"
        }
      ],
      "name": "mapOfRewardPerBlock",
      "outputs": [
        {
          "internalType": "uint256",
          "name": "",
          "type": "uint256"
        }
      ],
      "stateMutability": "view",
      "type": "function"
    },
    {
      "inputs": [
        {
          "internalType": "uint8",
          "name": "",
          "type": "uint8"
        }
      ],
      "name": "mapOfRewardTokenDecimals",
      "outputs": [
        {
          "internalType": "uint8",
          "name": "",
          "type": "uint8"
        }
      ],
      "stateMutability": "view",
      "type": "function"
    },
    {
      "inputs": [
        {
          "internalType": "uint8",
          "name": "",
          "type": "uint8"
        }
      ],
      "name": "mapOfRewardTokens",
      "outputs": [
        {
          "internalType": "address",
          "name": "",
          "type": "address"
        }
      ],
      "stateMutability": "view",
      "type": "function"
    },
    {
      "inputs": [],
      "name": "owner",
      "outputs": [
        {
          "internalType": "address",
          "name": "",
          "type": "address"
        }
      ],
      "stateMutability": "view",
      "type": "function"
    },
    {
      "inputs": [
        {
          "internalType": "uint8",
          "name": "_rewardTokenId",
          "type": "uint8"
        },
        {
          "internalType": "address",
          "name": "_user",
          "type": "address"
        }
      ],
      "name": "pendingReward",
      "outputs": [
        {
          "internalType": "uint256",
          "name": "",
          "type": "uint256"
        }
      ],
      "stateMutability": "view",
      "type": "function"
    },
    {
      "inputs": [
        {
          "internalType": "uint8",
          "name": "_rewardTokenId",
          "type": "uint8"
        }
      ],
      "name": "poolCalcRewardPerBlock",
      "outputs": [],
      "stateMutability": "nonpayable",
      "type": "function"
    },
    {
      "inputs": [
        {
          "internalType": "uint256",
          "name": "_durationBlocks",
          "type": "uint256"
        }
      ],
      "name": "poolSetDuration",
      "outputs": [],
      "stateMutability": "nonpayable",
      "type": "function"
    },
    {
      "inputs": [
        {
          "internalType": "uint256",
          "name": "_startBlock",
          "type": "uint256"
        }
      ],
      "name": "poolSetStart",
      "outputs": [],
      "stateMutability": "nonpayable",
      "type": "function"
    },
    {
      "inputs": [
        {
          "internalType": "uint256",
          "name": "_startBlock",
          "type": "uint256"
        },
        {
          "internalType": "uint256",
          "name": "_durationBlocks",
          "type": "uint256"
        }
      ],
      "name": "poolSetStartAndDuration",
      "outputs": [],
      "stateMutability": "nonpayable",
      "type": "function"
    },
    {
      "inputs": [
        {
          "internalType": "uint256",
          "name": "_blocks",
          "type": "uint256"
        }
      ],
      "name": "poolStartIn",
      "outputs": [],
      "stateMutability": "nonpayable",
      "type": "function"
    },
    {
      "inputs": [
        {
          "internalType": "address",
          "name": "_tokenAddress",
          "type": "address"
        },
        {
          "internalType": "uint256",
          "name": "_tokenAmount",
          "type": "uint256"
        }
      ],
      "name": "recoverWrongTokens",
      "outputs": [],
      "stateMutability": "nonpayable",
      "type": "function"
    },
    {
      "inputs": [],
      "name": "renounceOwnership",
      "outputs": [],
      "stateMutability": "nonpayable",
      "type": "function"
    },
    {
      "inputs": [
        {
          "internalType": "uint8",
          "name": "_rewardTokenId",
          "type": "uint8"
        }
      ],
      "name": "rewarPerBlockUI",
      "outputs": [
        {
          "internalType": "uint256",
          "name": "",
          "type": "uint256"
        }
      ],
      "stateMutability": "view",
      "type": "function"
    },
    {
      "inputs": [],
      "name": "rewardDuration",
      "outputs": [
        {
          "internalType": "uint256",
          "name": "",
          "type": "uint256"
        }
      ],
      "stateMutability": "view",
      "type": "function"
    },
    {
      "inputs": [
        {
          "internalType": "uint256",
          "name": "_lockUpDuration",
          "type": "uint256"
        }
      ],
      "name": "setLockUpDuration",
      "outputs": [],
      "stateMutability": "nonpayable",
      "type": "function"
    },
    {
      "inputs": [],
      "name": "stakedToken",
      "outputs": [
        {
          "internalType": "contract IERC20Upgradeable",
          "name": "",
          "type": "address"
        }
      ],
      "stateMutability": "view",
      "type": "function"
    },
    {
      "inputs": [],
      "name": "startBlock",
      "outputs": [
        {
          "internalType": "uint256",
          "name": "",
          "type": "uint256"
        }
      ],
      "stateMutability": "view",
      "type": "function"
    },
    {
      "inputs": [],
      "name": "stopReward",
      "outputs": [],
      "stateMutability": "nonpayable",
      "type": "function"
    },
    {
      "inputs": [
        {
          "internalType": "address",
          "name": "newOwner",
          "type": "address"
        }
      ],
      "name": "transferOwnership",
      "outputs": [],
      "stateMutability": "nonpayable",
      "type": "function"
    },
    {
      "inputs": [
        {
          "internalType": "uint8",
          "name": "_rewardTokenId",
          "type": "uint8"
        },
        {
          "internalType": "uint256",
          "name": "_rewardPerBlock",
          "type": "uint256"
        }
      ],
      "name": "updateRewardPerBlock",
      "outputs": [],
      "stateMutability": "nonpayable",
      "type": "function"
    },
    {
      "inputs": [
        {
          "internalType": "uint256",
          "name": "_startBlock",
          "type": "uint256"
        },
        {
          "internalType": "uint256",
          "name": "_bonusEndBlock",
          "type": "uint256"
        }
      ],
      "name": "updateStartAndEndBlocks",
      "outputs": [],
      "stateMutability": "nonpayable",
      "type": "function"
    },
    {
      "inputs": [
        {
          "internalType": "address",
          "name": "",
          "type": "address"
        }
      ],
      "name": "userInfo",
      "outputs": [
        {
          "internalType": "uint256",
          "name": "amount",
          "type": "uint256"
        },
        {
          "internalType": "uint256",
          "name": "rewardDebt1",
          "type": "uint256"
        },
        {
          "internalType": "uint256",
          "name": "rewardDebt2",
          "type": "uint256"
        },
        {
          "internalType": "uint256",
          "name": "firstDeposit",
          "type": "uint256"
        }
      ],
      "stateMutability": "view",
      "type": "function"
    },
    {
      "inputs": [
        {
          "internalType": "uint256",
          "name": "_amount",
          "type": "uint256"
        }
      ],
      "name": "withdraw",
      "outputs": [],
      "stateMutability": "nonpayable",
      "type": "function"
    },
    {
      "inputs": [],
      "name": "withdrawFee",
      "outputs": [
        {
          "internalType": "uint256",
          "name": "",
          "type": "uint256"
        }
      ],
      "stateMutability": "view",
      "type": "function"
    },
    {
      "inputs": [
        {
          "internalType": "uint8",
          "name": "_rewardTokenId",
          "type": "uint8"
        },
        {
          "internalType": "address",
          "name": "_to",
          "type": "address"
        }
      ],
      "name": "withdrawRemains",
      "outputs": [],
      "stateMutability": "nonpayable",
      "type": "function"
    }
  ],
  "transactionHash": "0x9ae8014baf48b7efbcc119bcae1ef6468e3eca9ea3728c6b9195166fb6f1e08f",
  "args": [],
  "numDeployments": 1,
  "solcInputHash": "6b73438ab430f8ef073790133e4329e9",
  "bytecode": "0x60806040523480156200001157600080fd5b50600054610100900460ff166200002f5760005460ff161562000039565b62000039620000de565b620000a15760405162461bcd60e51b815260206004820152602e60248201527f496e697469616c697a61626c653a20636f6e747261637420697320616c72656160448201526d191e481a5b9a5d1a585b1a5e995960921b606482015260840160405180910390fd5b600054610100900460ff16158015620000c4576000805461ffff19166101011790555b8015620000d7576000805461ff00191690555b506200010b565b6000620000f630620000fc60201b62001dae1760201c565b15905090565b6001600160a01b03163b151590565b612a23806200011b6000396000f3fe608060405234801561001057600080fd5b50600436106102275760003560e01c806380dc067211610130578063be615335116100b8578063db2e21bc1161007c578063db2e21bc14610519578063e1b2addc14610521578063e941fa7814610534578063f2fde38b1461053d578063f520e7e51461055057600080fd5b8063be615335146104ba578063bfe5f541146104cd578063c9b5b29d146104e0578063cc7a262e146104f3578063d3a8615c1461050657600080fd5b80639b4f9193116100ff5780639b4f919314610458578063a218141b1461046b578063af1664d114610474578063b3f02d3814610494578063b6b55f25146104a757600080fd5b806380dc06721461041957806383d1c65b146104215780638da5cb5b146104345780639513997f1461044557600080fd5b806341275358116101b35780635fed9b13116101825780635fed9b13146103a057806363664dc7146103d55780636aa662b5146103f5578063715018a6146103fe5780637bfaa40c1461040657600080fd5b8063412753581461035c57806348cd4cb11461036f5780634e71d92d14610378578063522b34011461038057600080fd5b806327e644fe116101fa57806327e644fe146102c55780632bf033ad146103065780632e1a7d4d14610319578063392e53cd1461032c5780633f138d4b1461034957600080fd5b8063083c63231461022c5780630f7064eb1461024857806310f8097b1461025d5780631959a00214610270575b600080fd5b61023560985481565b6040519081526020015b60405180910390f35b61025b610256366004612621565b610558565b005b61025b61026b366004612560565b6105b6565b6102a561027e366004612475565b60a46020526000908152604090208054600182015460028301546003909301549192909184565b60408051948552602085019390935291830152606082015260800161023f565b6102ee6102d33660046125b1565b60a3602052600090815260409020546001600160a01b031681565b6040516001600160a01b03909116815260200161023f565b61025b6103143660046124dc565b6105f0565b61025b610327366004612560565b610a18565b6097546103399060ff1681565b604051901515815260200161023f565b61025b610357366004612491565b610d59565b609d546102ee906001600160a01b031681565b61023560995481565b61025b610ed4565b61023561038e3660046125b1565b60a06020526000908152604090205481565b6103c36103ae3660046125b1565b60a26020526000908152604090205460ff1681565b60405160ff909116815260200161023f565b6102356103e33660046125b1565b609f6020526000908152604090205481565b610235609b5481565b61025b611109565b61025b610414366004612560565b61113f565b61025b6111ec565b61025b61042f3660046125b1565b61121c565b6033546001600160a01b03166102ee565b61025b610453366004612590565b6112ff565b61025b610466366004612621565b61145d565b610235609a5481565b6102356104823660046125b1565b60a16020526000908152604090205481565b61025b6104a2366004612560565b6114ef565b61025b6104b5366004612560565b611598565b6102356104c83660046125e9565b6117e0565b61025b6104db3660046125e9565b61199a565b6102356104ee3660046125b1565b611b1e565b609e546102ee906001600160a01b031681565b61025b610514366004612590565b611b5d565b61025b611b99565b61025b61052f366004612560565b611c99565b610235609c5481565b61025b61054b366004612475565b611cf8565b610235611d90565b6033546001600160a01b0316331461058b5760405162461bcd60e51b8152600401610582906126b7565b60405180910390fd5b60ff8216600090815260a360205260409020546105b2906001600160a01b03163083611dbd565b5050565b6033546001600160a01b031633146105e05760405162461bcd60e51b8152600401610582906126b7565b6105ed6104a24383611e20565b50565b600054610100900460ff1661060b5760005460ff161561060f565b303b155b6106725760405162461bcd60e51b815260206004820152602e60248201527f496e697469616c697a61626c653a20636f6e747261637420697320616c72656160448201526d191e481a5b9a5d1a585b1a5e995960921b6064820152608401610582565b600054610100900460ff16158015610694576000805461ffff19166101011790555b61069c611e33565b609e80546001600160a01b03808c166001600160a01b03199283161790925560a3602090815260008051602061298e83398151915280548c8516908416811790915560008051602061292e83398151915280548c861690851617905560998a90556098899055609b889055609c879055609d8054948716949093169390931790915560016000526040805163313ce56760e01b8152905163313ce56792600480840193919291829003018186803b15801561075657600080fd5b505afa15801561076a573d6000803e3d6000fd5b505050506040513d601f19601f8201168201806040525081019061078e91906125cd565b7f87286cc7b9cf8a377e677776b2644ce858185998d33108f493bdc3c2f07b9836805460ff191660ff92909216919091179055600260005260a3602090815260008051602061292e833981519152546040805163313ce56760e01b815290516001600160a01b039092169263313ce56792600480840193829003018186803b15801561081957600080fd5b505afa15801561082d573d6000803e3d6000fd5b505050506040513d601f19601f8201168201806040525081019061085191906125cd565b60a26020527f984fb507cc15174c9c2666d8998832bf192b808658c1b8547c17c86e40ea5814805460ff191660ff92831617905560016000527f87286cc7b9cf8a377e677776b2644ce858185998d33108f493bdc3c2f07b983654601e91161080156108ed5750600260005260a26020527f984fb507cc15174c9c2666d8998832bf192b808658c1b8547c17c86e40ea581454601e60ff909116105b6109325760405162461bcd60e51b815260206004820152601660248201527504d75737420626520696e666572696f7220746f2033360541b6044820152606401610582565b600160005260a26020527f87286cc7b9cf8a377e677776b2644ce858185998d33108f493bdc3c2f07b98365461096d90601e9060ff16611e62565b61097890600a6127e9565b60008051602061296e83398151915255600260005260a26020527f984fb507cc15174c9c2666d8998832bf192b808658c1b8547c17c86e40ea5814546109c390601e9060ff16611e62565b6109ce90600a6127e9565b600260005260a16020526000805160206129ce83398151915255609954609a556097805460ff191660011790558015610a0d576000805461ff00191690555b505050505050505050565b60026065541415610a3b5760405162461bcd60e51b815260040161058290612737565b600260655580610a855760405162461bcd60e51b8152602060048201526015602482015274115c9c9bdc8e88125b9d985b1a5908185b5bdd5b9d605a1b6044820152606401610582565b33600090815260a4602052604090208054821115610ae55760405162461bcd60e51b815260206004820152601b60248201527f416d6f756e7420746f20776974686472617720746f6f206869676800000000006044820152606401610582565b610aed611e6e565b600180820154600091825260008051602061296e83398151915254609f60205260008051602061294e833981519152548454610b3f9392610b39929091610b339161205f565b9061206b565b90611e62565b60028084015460009182526000805160206129ce83398151915254609f6020526000805160206129ae8339815191525486549495509293610b8893610b399291610b339161205f565b8354909150610b979085611e62565b8355609b5460038401548591610bac9161276e565b421015610bfe576000610bd0612710610b33609c548561205f90919063ffffffff16565b609d54609e54919250610bf0916001600160a01b03908116911683611dbd565b610bfa81836128b0565b9150505b609e54610c15906001600160a01b03163383611dbd565b600384015415610c29578360030154610c2b565b425b60038501558215610c6457600160005260a360205260008051602061298e83398151915254610c64906001600160a01b03163385612077565b8115610c9857600260005260a360205260008051602061292e83398151915254610c98906001600160a01b03163384612077565b600160005260008051602061296e83398151915254609f60205260008051602061294e833981519152548554610cd39291610b33919061205f565b600185015560026000526000805160206129ce83398151915254609f6020526000805160206129ae833981519152548554610d139291610b33919061205f565b600285015560405185815233907f884edad9ce6fa2440d8a54cc123490eb96d2768479d49ff9c7366125a94243649060200160405180910390a250506001606555505050565b6033546001600160a01b03163314610d835760405162461bcd60e51b8152600401610582906126b7565b609e546001600160a01b0383811691161415610dda5760405162461bcd60e51b815260206004820152601660248201527521b0b73737ba1031329039ba30b5b2b2103a37b5b2b760511b6044820152606401610582565b600160005260a360205260008051602061298e833981519152546001600160a01b03838116911614801590610e345750600260005260a360205260008051602061292e833981519152546001600160a01b03838116911614155b610e795760405162461bcd60e51b815260206004820152601660248201527521b0b73737ba103132903932bbb0b932103a37b5b2b760511b6044820152606401610582565b610e8d6001600160a01b0383163383611dbd565b604080516001600160a01b0384168152602081018390527f74545154aac348a3eac92596bd1971957ca94795f4e954ec5f613b55fab7812991015b60405180910390a15050565b60026065541415610ef75760405162461bcd60e51b815260040161058290612737565b600260655533600090815260a460205260409020610f13611e6e565b80541561108157600180820154600091825260008051602061296e83398151915254609f60205260008051602061294e833981519152548454610f609392610b39929091610b339161205f565b90508015610fcc57600160005260a360205260008051602061298e83398151915254610f96906001600160a01b03163383612077565b60405181815233907f47cee97cb7acd717b3c0aa1435d004cd5b3c8c57d70dbceb4e4458bbd60e39d49060200160405180910390a25b60028083015460009182526000805160206129ce83398151915254609f6020526000805160206129ae8339815191525485546110129392610b39929091610b339161205f565b9050801561107e57600260005260a360205260008051602061292e83398151915254611048906001600160a01b03163383612077565b60405181815233907f47cee97cb7acd717b3c0aa1435d004cd5b3c8c57d70dbceb4e4458bbd60e39d49060200160405180910390a25b50505b600160005260008051602061296e83398151915254609f60205260008051602061294e8339815191525482546110bc9291610b33919061205f565b600182015560026000526000805160206129ce83398151915254609f6020526000805160206129ae8339815191525482546110fc9291610b33919061205f565b6002909101556001606555565b6033546001600160a01b031633146111335760405162461bcd60e51b8152600401610582906126b7565b61113d600061212e565b565b6033546001600160a01b031633146111695760405162461bcd60e51b8152600401610582906126b7565b609954431061118a5760405162461bcd60e51b81526004016105829061268d565b6099546111979082611e20565b6098556111a4600161121c565b6111ae600261121c565b7f55baa248360bce74a89304071ca6e882f61d2226c15dde53a4ec1e05af523d926098546040516111e191815260200190565b60405180910390a150565b6033546001600160a01b031633146112165760405162461bcd60e51b8152600401610582906126b7565b43609855565b6033546001600160a01b031633146112465760405162461bcd60e51b8152600401610582906126b7565b60ff8116600090815260a360205260408082205490516370a0823160e01b81523060048201526001600160a01b03909116906370a082319060240160206040518083038186803b15801561129957600080fd5b505afa1580156112ad573d6000803e3d6000fd5b505050506040513d601f19601f820116820180604052508101906112d19190612578565b90506112e56112de611d90565b829061206b565b60ff909216600090815260a0602052604090209190915550565b6033546001600160a01b031633146113295760405162461bcd60e51b8152600401610582906126b7565b609954431061134a5760405162461bcd60e51b81526004016105829061268d565b8082106113b05760405162461bcd60e51b815260206004820152602e60248201527f4e6577207374617274426c6f636b206d757374206265206c6f7765722074686160448201526d6e206e657720656e64426c6f636b60901b6064820152608401610582565b8143106114185760405162461bcd60e51b815260206004820152603060248201527f4e6577207374617274426c6f636b206d7573742062652068696768657220746860448201526f616e2063757272656e7420626c6f636b60801b6064820152608401610582565b60998290556098819055609a82905560408051838152602081018390527f7cd0ab87d19036f3dfadadb232c78aa4879dda3f0c994a9d637532410ee2ce069101610ec8565b6033546001600160a01b031633146114875760405162461bcd60e51b8152600401610582906126b7565b60995443106114a85760405162461bcd60e51b81526004016105829061268d565b60ff8216600090815260a0602052604090819020829055517f0c4d677eef92893ac7ec52faf8140fc6c851ab4736302b4f3a89dfb20696a0df90610ec89083815260200190565b6033546001600160a01b031633146115195760405162461bcd60e51b8152600401610582906126b7565b609954431061153a5760405162461bcd60e51b81526004016105829061268d565b6000611544611d90565b609983905590506115558282611e20565b6098819055609954609a8190556040517f7cd0ab87d19036f3dfadadb232c78aa4879dda3f0c994a9d637532410ee2ce0692610ec8928252602082015260400190565b600260655414156115bb5760405162461bcd60e51b815260040161058290612737565b600260655533600090815260a4602052604090206115d7611e6e565b8054156116d957600180820154600091825260008051602061296e83398151915254609f60205260008051602061294e8339815191525484546116249392610b39929091610b339161205f565b9050801561165a57600160005260a360205260008051602061298e8339815191525461165a906001600160a01b03163383612077565b60028083015460009182526000805160206129ce83398151915254609f6020526000805160206129ae8339815191525485546116a09392610b39929091610b339161205f565b905080156116d657600260005260a360205260008051602061292e833981519152546116d6906001600160a01b03163383612077565b50505b81156117215780546116eb9083611e20565b8155609e54611705906001600160a01b0316333085612180565b60038101541561171957806003015461171b565b425b60038201555b600160005260008051602061296e83398151915254609f60205260008051602061294e83398151915254825461175c9291610b33919061205f565b600182015560026000526000805160206129ce83398151915254609f6020526000805160206129ae83398151915254825461179c9291610b33919061205f565b600282015560405182815233907fe1fffcc4923d04b559f4d29a8bfc6cda04eb5b0d3c460751c2402c5c5cc9109c906020015b60405180910390a250506001606555565b6001600160a01b038116600090815260a4602052604081208160ff851660011461180e578160020154611814565b81600101545b609e546040516370a0823160e01b81523060048201529192506000916001600160a01b03909116906370a082319060240160206040518083038186803b15801561185d57600080fd5b505afa158015611871573d6000803e3d6000fd5b505050506040513d601f19601f820116820180604052508101906118959190612578565b9050609a54431180156118a757508015155b1561195a5760006118ba609a54436121b8565b60ff8816600090815260a06020526040812054919250906118dc90839061205f565b60ff8916600090815260a160205260408120549192509061192190611908908690610b3390869061205f565b60ff8b166000908152609f602052604090205490611e20565b60ff8a16600090815260a16020526040902054875491925061194d918791610b3991610b33908661205f565b9650505050505050611994565b60ff8616600090815260a16020908152604080832054609f90925290912054845461198e928592610b3992610b339161205f565b93505050505b92915050565b6033546001600160a01b031633146119c45760405162461bcd60e51b8152600401610582906126b7565b6098544311611a155760405162461bcd60e51b815260206004820152601c60248201527f4572726f723a20506f6f6c206e6f742066696e697368656420796574000000006044820152606401610582565b60ff8216600090815260a360205260408082205490516370a0823160e01b81523060048201526001600160a01b03909116906370a082319060240160206040518083038186803b158015611a6857600080fd5b505afa158015611a7c573d6000803e3d6000fd5b505050506040513d601f19601f82011682018060405250810190611aa09190612578565b905060008111611af25760405162461bcd60e51b815260206004820152601960248201527f4572726f723a204e6f2072656d61696e696e672066756e6473000000000000006044820152606401610582565b60ff8316600090815260a36020526040902054611b19906001600160a01b03168383611dbd565b505050565b60ff808216600090815260a26020526040812054909161199491611b449116600a6127e9565b60ff8416600090815260a060205260409020549061206b565b6033546001600160a01b03163314611b875760405162461bcd60e51b8152600401610582906126b7565b611b90826114ef565b6105b28161113f565b60026065541415611bbc5760405162461bcd60e51b815260040161058290612737565b6002606581905533600090815260a46020526040812080548282556001820183905592810191909155908015611c6757609b548260030154611bfe919061276e565b421015611c50576000611c22612710610b33609c548561205f90919063ffffffff16565b609d54609e54919250611c42916001600160a01b03908116911683611dbd565b611c4c81836128b0565b9150505b609e54611c67906001600160a01b03163383611dbd565b60405181815233907f5fafa99d0643513820be26656b45130b01e1c03062e1266bf36f88cbd3bd9695906020016117cf565b6033546001600160a01b03163314611cc35760405162461bcd60e51b8152600401610582906126b7565b609b8190556040518181527fd2a4f919593bfa0565c404bb5e42080750d07eedb9dfa9907c22be9e29c02a98906020016111e1565b6033546001600160a01b03163314611d225760405162461bcd60e51b8152600401610582906126b7565b6001600160a01b038116611d875760405162461bcd60e51b815260206004820152602660248201527f4f776e61626c653a206e6577206f776e657220697320746865207a65726f206160448201526564647265737360d01b6064820152608401610582565b6105ed8161212e565b6000611da9609954609854611e6290919063ffffffff16565b905090565b6001600160a01b03163b151590565b6040516001600160a01b038316602482015260448101829052611b1990849063a9059cbb60e01b906064015b60408051601f198184030181529190526020810180516001600160e01b03166001600160e01b0319909316929092179091526121f2565b6000611e2c828461276e565b9392505050565b600054610100900460ff16611e5a5760405162461bcd60e51b8152600401610582906126ec565b61113d6122c4565b6000611e2c82846128b0565b609a544311611e7957565b609e546040516370a0823160e01b81523060048201526000916001600160a01b0316906370a082319060240160206040518083038186803b158015611ebd57600080fd5b505afa158015611ed1573d6000803e3d6000fd5b505050506040513d601f19601f82011682018060405250810190611ef59190612578565b905080611f03575043609a55565b6000611f11609a54436121b8565b6001600090815260a06020527f5e4aa62fc514c001129aba2f8cfdadfdbf7b1cca3faf4a1fee3af14b1315f0dd5491925090611f4e90839061205f565b6002600090815260a06020527e3e94880a29ff53e6a8208a04e96e212c12922b7bda6b10d8c1979e9844e6785491925090611f8a90849061205f565b600160005260a160205260008051602061296e83398151915254909150611fdc90611fbc908690610b3390869061205f565b6001600052609f60205260008051602061294e8339815191525490611e20565b60008051602061294e83398151915255600260005260a16020526000805160206129ce8339815191525461203b9061201b908690610b3390859061205f565b6002600052609f6020526000805160206129ae8339815191525490611e20565b6002600052609f6020526000805160206129ae83398151915255505043609a555050565b6000611e2c8284612891565b6000611e2c8284612786565b6040516370a0823160e01b81523060048201526000906001600160a01b038516906370a082319060240160206040518083038186803b1580156120b957600080fd5b505afa1580156120cd573d6000803e3d6000fd5b505050506040513d601f19601f820116820180604052508101906120f19190612578565b9050808211156121145761210f6001600160a01b0385168483611dbd565b612128565b6121286001600160a01b0385168484611dbd565b50505050565b603380546001600160a01b038381166001600160a01b0319831681179093556040519116919082907f8be0079c531659141344cd1fd0a4f28419497f9722a3daafe3b4186f6b6457e090600090a35050565b6040516001600160a01b03808516602483015283166044820152606481018290526121289085906323b872dd60e01b90608401611de9565b600060985482116121d4576121cd8284611e62565b9050611994565b60985483106121e557506000611994565b6098546121cd9084611e62565b6000612247826040518060400160405280602081526020017f5361666545524332303a206c6f772d6c6576656c2063616c6c206661696c6564815250856001600160a01b03166122f49092919063ffffffff16565b805190915015611b19578080602001905181019061226591906124bc565b611b195760405162461bcd60e51b815260206004820152602a60248201527f5361666545524332303a204552433230206f7065726174696f6e20646964206e6044820152691bdd081cdd58d8d9595960b21b6064820152608401610582565b600054610100900460ff166122eb5760405162461bcd60e51b8152600401610582906126ec565b61113d3361212e565b6060612303848460008561230b565b949350505050565b60608247101561236c5760405162461bcd60e51b815260206004820152602660248201527f416464726573733a20696e73756666696369656e742062616c616e636520666f6044820152651c8818d85b1b60d21b6064820152608401610582565b6001600160a01b0385163b6123c35760405162461bcd60e51b815260206004820152601d60248201527f416464726573733a2063616c6c20746f206e6f6e2d636f6e74726163740000006044820152606401610582565b600080866001600160a01b031685876040516123df919061263e565b60006040518083038185875af1925050503d806000811461241c576040519150601f19603f3d011682016040523d82523d6000602084013e612421565b606091505b509150915061243182828661243c565b979650505050505050565b6060831561244b575081611e2c565b82511561245b5782518084602001fd5b8160405162461bcd60e51b8152600401610582919061265a565b600060208284031215612486578081fd5b8135611e2c81612909565b600080604083850312156124a3578081fd5b82356124ae81612909565b946020939093013593505050565b6000602082840312156124cd578081fd5b81518015158114611e2c578182fd5b600080600080600080600080610100898b0312156124f8578384fd5b883561250381612909565b9750602089013561251381612909565b9650604089013561252381612909565b9550606089013594506080890135935060a0890135925060c0890135915060e089013561254f81612909565b809150509295985092959890939650565b600060208284031215612571578081fd5b5035919050565b600060208284031215612589578081fd5b5051919050565b600080604083850312156125a2578182fd5b50508035926020909101359150565b6000602082840312156125c2578081fd5b8135611e2c8161291e565b6000602082840312156125de578081fd5b8151611e2c8161291e565b600080604083850312156125fb578182fd5b82356126068161291e565b9150602083013561261681612909565b809150509250929050565b60008060408385031215612633578182fd5b82356124ae8161291e565b600082516126508184602087016128c7565b9190910192915050565b60208152600082518060208401526126798160408501602087016128c7565b601f01601f19169190910160400192915050565b60208082526010908201526f141bdbdb081a185cc81cdd185c9d195960821b604082015260600190565b6020808252818101527f4f776e61626c653a2063616c6c6572206973206e6f7420746865206f776e6572604082015260600190565b6020808252602b908201527f496e697469616c697a61626c653a20636f6e7472616374206973206e6f74206960408201526a6e697469616c697a696e6760a81b606082015260800190565b6020808252601f908201527f5265656e7472616e637947756172643a207265656e7472616e742063616c6c00604082015260600190565b60008219821115612781576127816128f3565b500190565b6000826127a157634e487b7160e01b81526012600452602481fd5b500490565b600181815b808511156127e15781600019048211156127c7576127c76128f3565b808516156127d457918102915b93841c93908002906127ab565b509250929050565b6000611e2c83836000826127ff57506001611994565b8161280c57506000611994565b8160018114612822576002811461282c57612848565b6001915050611994565b60ff84111561283d5761283d6128f3565b50506001821b611994565b5060208310610133831016604e8410600b841016171561286b575081810a611994565b61287583836127a6565b8060001904821115612889576128896128f3565b029392505050565b60008160001904831182151516156128ab576128ab6128f3565b500290565b6000828210156128c2576128c26128f3565b500390565b60005b838110156128e25781810151838201526020016128ca565b838111156121285750506000910152565b634e487b7160e01b600052601160045260246000fd5b6001600160a01b03811681146105ed57600080fd5b60ff811681146105ed57600080fdfee262b42e4ca35e2f1e405b90c91327b65c89bdbf5dd51dedc3459002050f6b7bd8ebc4b3e3fc84fb7267bc9651f22e5107e8b4ddef6b7d4ac503c1ca7368470bf4875fff8b0cf986238a93aa5a1c4dd6cdbe2f1045b9974e1f43ef715569af66c3869149e653ab70ab3abed8edc49ed99ccd0c8cf7ca81486b7adbd034773b1095684aba87c7afc0cb0825ce802e59a0c43a91e65441705f8ec2d377a306a58756cd10bd7c5a283404157adf2ba847ac6f7bfee0953fbdea6cae6f66ee17d9cea2646970667358221220b87b4eb29749f19d66778e6a3a04a013243af072d2a5e4757d534a59b01eabe564736f6c63430008040033",
  "devdoc": {
    "kind": "dev",
    "methods": {
      "owner()": {
        "details": "Returns the address of the current owner."
      },
      "recoverWrongTokens(address,uint256)": {
        "details": "This function is only callable by admin.",
        "params": {
          "_tokenAddress": ": the address of the token to withdraw",
          "_tokenAmount": ": the number of tokens to withdraw"
        }
      },
      "renounceOwnership()": {
        "details": "Leaves the contract without owner. It will not be possible to call `onlyOwner` functions anymore. Can only be called by the current owner. NOTE: Renouncing ownership will leave the contract without an owner, thereby removing any functionality that is only available to the owner."
      },
      "transferOwnership(address)": {
        "details": "Transfers ownership of the contract to a new account (`newOwner`). Can only be called by the current owner."
      },
      "updateStartAndEndBlocks(uint256,uint256)": {
        "details": "This function is only callable by owner.",
        "params": {
          "_bonusEndBlock": ": the new end block",
          "_startBlock": ": the new start block"
        }
      }
    },
    "version": 1
  },
  "userdoc": {
    "kind": "user",
    "methods": {
      "recoverWrongTokens(address,uint256)": {
        "notice": "It allows the admin to recover wrong tokens sent to the contract"
      },
      "updateStartAndEndBlocks(uint256,uint256)": {
        "notice": "It allows the admin to update start and end blocks"
      }
    },
    "version": 1
  },
  "storageLayout": {
    "storage": [
      {
        "astId": 130,
        "contract": "contracts/GQGalacticAlliance.sol:GQGalacticAlliance",
        "label": "_initialized",
        "offset": 0,
        "slot": "0",
        "type": "t_bool"
      },
      {
        "astId": 133,
        "contract": "contracts/GQGalacticAlliance.sol:GQGalacticAlliance",
        "label": "_initializing",
        "offset": 1,
        "slot": "0",
        "type": "t_bool"
      },
      {
        "astId": 867,
        "contract": "contracts/GQGalacticAlliance.sol:GQGalacticAlliance",
        "label": "__gap",
        "offset": 0,
        "slot": "1",
        "type": "t_array(t_uint256)50_storage"
      },
      {
        "astId": 10,
        "contract": "contracts/GQGalacticAlliance.sol:GQGalacticAlliance",
        "label": "_owner",
        "offset": 0,
        "slot": "51",
        "type": "t_address"
      },
      {
        "astId": 122,
        "contract": "contracts/GQGalacticAlliance.sol:GQGalacticAlliance",
        "label": "__gap",
        "offset": 0,
        "slot": "52",
        "type": "t_array(t_uint256)49_storage"
      },
      {
        "astId": 211,
        "contract": "contracts/GQGalacticAlliance.sol:GQGalacticAlliance",
        "label": "_status",
        "offset": 0,
        "slot": "101",
        "type": "t_uint256"
      },
      {
        "astId": 255,
        "contract": "contracts/GQGalacticAlliance.sol:GQGalacticAlliance",
        "label": "__gap",
        "offset": 0,
        "slot": "102",
        "type": "t_array(t_uint256)49_storage"
      },
      {
        "astId": 1210,
        "contract": "contracts/GQGalacticAlliance.sol:GQGalacticAlliance",
        "label": "isInitialized",
        "offset": 0,
        "slot": "151",
        "type": "t_bool"
      },
      {
        "astId": 1212,
        "contract": "contracts/GQGalacticAlliance.sol:GQGalacticAlliance",
        "label": "endBlock",
        "offset": 0,
        "slot": "152",
        "type": "t_uint256"
      },
      {
        "astId": 1214,
        "contract": "contracts/GQGalacticAlliance.sol:GQGalacticAlliance",
        "label": "startBlock",
        "offset": 0,
        "slot": "153",
        "type": "t_uint256"
      },
      {
        "astId": 1216,
        "contract": "contracts/GQGalacticAlliance.sol:GQGalacticAlliance",
        "label": "lastUpdateBlock",
        "offset": 0,
        "slot": "154",
        "type": "t_uint256"
      },
      {
        "astId": 1218,
        "contract": "contracts/GQGalacticAlliance.sol:GQGalacticAlliance",
        "label": "lockUpDuration",
        "offset": 0,
        "slot": "155",
        "type": "t_uint256"
      },
      {
        "astId": 1220,
        "contract": "contracts/GQGalacticAlliance.sol:GQGalacticAlliance",
        "label": "withdrawFee",
        "offset": 0,
        "slot": "156",
        "type": "t_uint256"
      },
      {
        "astId": 1222,
        "contract": "contracts/GQGalacticAlliance.sol:GQGalacticAlliance",
        "label": "feeAddress",
        "offset": 0,
        "slot": "157",
        "type": "t_address"
      },
      {
        "astId": 1225,
        "contract": "contracts/GQGalacticAlliance.sol:GQGalacticAlliance",
        "label": "stakedToken",
        "offset": 0,
        "slot": "158",
        "type": "t_contract(IERC20Upgradeable)334"
      },
      {
        "astId": 1229,
        "contract": "contracts/GQGalacticAlliance.sol:GQGalacticAlliance",
        "label": "mapOfAccTokenPerShare",
        "offset": 0,
        "slot": "159",
        "type": "t_mapping(t_uint8,t_uint256)"
      },
      {
        "astId": 1233,
        "contract": "contracts/GQGalacticAlliance.sol:GQGalacticAlliance",
        "label": "mapOfRewardPerBlock",
        "offset": 0,
        "slot": "160",
        "type": "t_mapping(t_uint8,t_uint256)"
      },
      {
        "astId": 1237,
        "contract": "contracts/GQGalacticAlliance.sol:GQGalacticAlliance",
        "label": "mapOfPrecisionFactor",
        "offset": 0,
        "slot": "161",
        "type": "t_mapping(t_uint8,t_uint256)"
      },
      {
        "astId": 1241,
        "contract": "contracts/GQGalacticAlliance.sol:GQGalacticAlliance",
        "label": "mapOfRewardTokenDecimals",
        "offset": 0,
        "slot": "162",
        "type": "t_mapping(t_uint8,t_uint8)"
      },
      {
        "astId": 1245,
        "contract": "contracts/GQGalacticAlliance.sol:GQGalacticAlliance",
        "label": "mapOfRewardTokens",
        "offset": 0,
        "slot": "163",
        "type": "t_mapping(t_uint8,t_address)"
      },
      {
        "astId": 1250,
        "contract": "contracts/GQGalacticAlliance.sol:GQGalacticAlliance",
        "label": "userInfo",
        "offset": 0,
        "slot": "164",
        "type": "t_mapping(t_address,t_struct(UserInfo)1259_storage)"
      }
    ],
    "types": {
      "t_address": {
        "encoding": "inplace",
        "label": "address",
        "numberOfBytes": "20"
      },
      "t_array(t_uint256)49_storage": {
        "base": "t_uint256",
        "encoding": "inplace",
        "label": "uint256[49]",
        "numberOfBytes": "1568"
      },
      "t_array(t_uint256)50_storage": {
        "base": "t_uint256",
        "encoding": "inplace",
        "label": "uint256[50]",
        "numberOfBytes": "1600"
      },
      "t_bool": {
        "encoding": "inplace",
        "label": "bool",
        "numberOfBytes": "1"
      },
      "t_contract(IERC20Upgradeable)334": {
        "encoding": "inplace",
        "label": "contract IERC20Upgradeable",
        "numberOfBytes": "20"
      },
      "t_mapping(t_address,t_struct(UserInfo)1259_storage)": {
        "encoding": "mapping",
        "key": "t_address",
        "label": "mapping(address => struct GQGalacticAlliance.UserInfo)",
        "numberOfBytes": "32",
        "value": "t_struct(UserInfo)1259_storage"
      },
      "t_mapping(t_uint8,t_address)": {
        "encoding": "mapping",
        "key": "t_uint8",
        "label": "mapping(uint8 => address)",
        "numberOfBytes": "32",
        "value": "t_address"
      },
      "t_mapping(t_uint8,t_uint256)": {
        "encoding": "mapping",
        "key": "t_uint8",
        "label": "mapping(uint8 => uint256)",
        "numberOfBytes": "32",
        "value": "t_uint256"
      },
      "t_mapping(t_uint8,t_uint8)": {
        "encoding": "mapping",
        "key": "t_uint8",
        "label": "mapping(uint8 => uint8)",
        "numberOfBytes": "32",
        "value": "t_uint8"
      },
      "t_struct(UserInfo)1259_storage": {
        "encoding": "inplace",
        "label": "struct GQGalacticAlliance.UserInfo",
        "members": [
          {
            "astId": 1252,
            "contract": "contracts/GQGalacticAlliance.sol:GQGalacticAlliance",
            "label": "amount",
            "offset": 0,
            "slot": "0",
            "type": "t_uint256"
          },
          {
            "astId": 1254,
            "contract": "contracts/GQGalacticAlliance.sol:GQGalacticAlliance",
            "label": "rewardDebt1",
            "offset": 0,
            "slot": "1",
            "type": "t_uint256"
          },
          {
            "astId": 1256,
            "contract": "contracts/GQGalacticAlliance.sol:GQGalacticAlliance",
            "label": "rewardDebt2",
            "offset": 0,
            "slot": "2",
            "type": "t_uint256"
          },
          {
            "astId": 1258,
            "contract": "contracts/GQGalacticAlliance.sol:GQGalacticAlliance",
            "label": "firstDeposit",
            "offset": 0,
            "slot": "3",
            "type": "t_uint256"
          }
        ],
        "numberOfBytes": "128"
      },
      "t_uint256": {
        "encoding": "inplace",
        "label": "uint256",
        "numberOfBytes": "32"
      },
      "t_uint8": {
        "encoding": "inplace",
        "label": "uint8",
        "numberOfBytes": "1"
      }
    }
  }
}