{
  "address": "0xdF5C4C1b98a4d045573aB2005D77E87dAA58c853",
  "abi": [
    {
      "anonymous": false,
      "inputs": [
        {
          "indexed": false,
          "internalType": "address",
          "name": "tokenRecovered",
          "type": "address"
        },
        {
          "indexed": false,
          "internalType": "uint256",
          "name": "amount",
          "type": "uint256"
        }
      ],
      "name": "AdminTokenRecovery",
      "type": "event"
    },
    {
      "anonymous": false,
      "inputs": [
        {
          "indexed": true,
          "internalType": "address",
          "name": "user",
          "type": "address"
        },
        {
          "indexed": false,
          "internalType": "uint256",
          "name": "amount",
          "type": "uint256"
        }
      ],
      "name": "Claim",
      "type": "event"
    },
    {
      "anonymous": false,
      "inputs": [
        {
          "indexed": true,
          "internalType": "address",
          "name": "user",
          "type": "address"
        },
        {
          "indexed": false,
          "internalType": "uint256",
          "name": "amount",
          "type": "uint256"
        }
      ],
      "name": "Deposit",
      "type": "event"
    },
    {
      "anonymous": false,
      "inputs": [
        {
          "indexed": true,
          "internalType": "address",
          "name": "user",
          "type": "address"
        },
        {
          "indexed": false,
          "internalType": "uint256",
          "name": "amount",
          "type": "uint256"
        }
      ],
      "name": "EmergencyWithdraw",
      "type": "event"
    },
    {
      "anonymous": false,
      "inputs": [
        {
          "indexed": false,
          "internalType": "uint256",
          "name": "poolLimitPerUser",
          "type": "uint256"
        }
      ],
      "name": "NewPoolLimit",
      "type": "event"
    },
    {
      "anonymous": false,
      "inputs": [
        {
          "indexed": false,
          "internalType": "uint256",
          "name": "rewardPerBlock",
          "type": "uint256"
        }
      ],
      "name": "NewRewardPerBlock",
      "type": "event"
    },
    {
      "anonymous": false,
      "inputs": [
        {
          "indexed": false,
          "internalType": "uint256",
          "name": "startBlock",
          "type": "uint256"
        },
        {
          "indexed": false,
          "internalType": "uint256",
          "name": "endBlock",
          "type": "uint256"
        }
      ],
      "name": "NewStartAndEndBlocks",
      "type": "event"
    },
    {
      "anonymous": false,
      "inputs": [
        {
          "indexed": true,
          "internalType": "address",
          "name": "previousOwner",
          "type": "address"
        },
        {
          "indexed": true,
          "internalType": "address",
          "name": "newOwner",
          "type": "address"
        }
      ],
      "name": "OwnershipTransferred",
      "type": "event"
    },
    {
      "anonymous": false,
      "inputs": [
        {
          "indexed": false,
          "internalType": "uint256",
          "name": "blockNumber",
          "type": "uint256"
        }
      ],
      "name": "RewardsStop",
      "type": "event"
    },
    {
      "anonymous": false,
      "inputs": [
        {
          "indexed": true,
          "internalType": "address",
          "name": "user",
          "type": "address"
        },
        {
          "indexed": false,
          "internalType": "uint256",
          "name": "amount",
          "type": "uint256"
        }
      ],
      "name": "Withdraw",
      "type": "event"
    },
    {
      "inputs": [],
      "name": "PRECISION_FACTOR",
      "outputs": [
        {
          "internalType": "uint256",
          "name": "",
          "type": "uint256"
        }
      ],
      "stateMutability": "view",
      "type": "function"
    },
    {
      "inputs": [],
      "name": "PRECISION_FACTOR_STAKED",
      "outputs": [
        {
          "internalType": "uint256",
          "name": "",
          "type": "uint256"
        }
      ],
      "stateMutability": "view",
      "type": "function"
    },
    {
      "inputs": [],
      "name": "accTokenPerShare",
      "outputs": [
        {
          "internalType": "uint256",
          "name": "",
          "type": "uint256"
        }
      ],
      "stateMutability": "view",
      "type": "function"
    },
    {
      "inputs": [],
      "name": "claim",
      "outputs": [],
      "stateMutability": "nonpayable",
      "type": "function"
    },
    {
      "inputs": [
        {
          "internalType": "uint256",
          "name": "_amount",
          "type": "uint256"
        }
      ],
      "name": "deposit",
      "outputs": [],
      "stateMutability": "nonpayable",
      "type": "function"
    },
    {
      "inputs": [
        {
          "internalType": "uint256",
          "name": "_amount",
          "type": "uint256"
        }
      ],
      "name": "depositRewardFunds",
      "outputs": [],
      "stateMutability": "nonpayable",
      "type": "function"
    },
    {
      "inputs": [],
      "name": "emergencyWithdraw",
      "outputs": [],
      "stateMutability": "nonpayable",
      "type": "function"
    },
    {
      "inputs": [],
      "name": "endBlock",
      "outputs": [
        {
          "internalType": "uint256",
          "name": "",
          "type": "uint256"
        }
      ],
      "stateMutability": "view",
      "type": "function"
    },
    {
      "inputs": [],
      "name": "hasDepositMin",
      "outputs": [
        {
          "internalType": "bool",
          "name": "",
          "type": "bool"
        }
      ],
      "stateMutability": "view",
      "type": "function"
    },
    {
      "inputs": [],
      "name": "hasUserLimit",
      "outputs": [
        {
          "internalType": "bool",
          "name": "",
          "type": "bool"
        }
      ],
      "stateMutability": "view",
      "type": "function"
    },
    {
      "inputs": [
        {
          "internalType": "contract IERC20",
          "name": "_stakedToken",
          "type": "address"
        },
        {
          "internalType": "contract IERC20",
          "name": "_rewardToken",
          "type": "address"
        },
        {
          "internalType": "uint256",
          "name": "_rewardPerBlock",
          "type": "uint256"
        },
        {
          "internalType": "uint256",
          "name": "_startBlock",
          "type": "uint256"
        },
        {
          "internalType": "uint256",
          "name": "_endBlock",
          "type": "uint256"
        },
        {
          "internalType": "uint256",
          "name": "_poolLimitPerUser",
          "type": "uint256"
        },
        {
          "internalType": "uint256",
          "name": "_minimumDeposit",
          "type": "uint256"
        }
      ],
      "name": "initialize",
      "outputs": [],
      "stateMutability": "nonpayable",
      "type": "function"
    },
    {
      "inputs": [],
      "name": "isInitialized",
      "outputs": [
        {
          "internalType": "bool",
          "name": "",
          "type": "bool"
        }
      ],
      "stateMutability": "view",
      "type": "function"
    },
    {
      "inputs": [],
      "name": "lastUpdateBlock",
      "outputs": [
        {
          "internalType": "uint256",
          "name": "",
          "type": "uint256"
        }
      ],
      "stateMutability": "view",
      "type": "function"
    },
    {
      "inputs": [],
      "name": "minimumDeposit",
      "outputs": [
        {
          "internalType": "uint256",
          "name": "",
          "type": "uint256"
        }
      ],
      "stateMutability": "view",
      "type": "function"
    },
    {
      "inputs": [],
      "name": "owner",
      "outputs": [
        {
          "internalType": "address",
          "name": "",
          "type": "address"
        }
      ],
      "stateMutability": "view",
      "type": "function"
    },
    {
      "inputs": [
        {
          "internalType": "address",
          "name": "_user",
          "type": "address"
        }
      ],
      "name": "pendingReward",
      "outputs": [
        {
          "internalType": "uint256",
          "name": "",
          "type": "uint256"
        }
      ],
      "stateMutability": "view",
      "type": "function"
    },
    {
      "inputs": [],
      "name": "poolCalcRewardPerBlock",
      "outputs": [],
      "stateMutability": "nonpayable",
      "type": "function"
    },
    {
      "inputs": [],
      "name": "poolLimitPerUser",
      "outputs": [
        {
          "internalType": "uint256",
          "name": "",
          "type": "uint256"
        }
      ],
      "stateMutability": "view",
      "type": "function"
    },
    {
      "inputs": [
        {
          "internalType": "uint256",
          "name": "_durationBlocks",
          "type": "uint256"
        }
      ],
      "name": "poolSetDuration",
      "outputs": [],
      "stateMutability": "nonpayable",
      "type": "function"
    },
    {
      "inputs": [
        {
          "internalType": "uint256",
          "name": "_maxTxAmount",
          "type": "uint256"
        }
      ],
      "name": "poolSetRewardMaxTxAmount",
      "outputs": [],
      "stateMutability": "nonpayable",
      "type": "function"
    },
    {
      "inputs": [
        {
          "internalType": "uint256",
          "name": "_startBlock",
          "type": "uint256"
        }
      ],
      "name": "poolSetStart",
      "outputs": [],
      "stateMutability": "nonpayable",
      "type": "function"
    },
    {
      "inputs": [
        {
          "internalType": "uint256",
          "name": "_startBlock",
          "type": "uint256"
        },
        {
          "internalType": "uint256",
          "name": "_durationBlocks",
          "type": "uint256"
        }
      ],
      "name": "poolSetStartAndDuration",
      "outputs": [],
      "stateMutability": "nonpayable",
      "type": "function"
    },
    {
      "inputs": [
        {
          "internalType": "uint256",
          "name": "_blocks",
          "type": "uint256"
        }
      ],
      "name": "poolStartIn",
      "outputs": [],
      "stateMutability": "nonpayable",
      "type": "function"
    },
    {
      "inputs": [
        {
          "internalType": "address",
          "name": "_tokenAddress",
          "type": "address"
        },
        {
          "internalType": "uint256",
          "name": "_tokenAmount",
          "type": "uint256"
        }
      ],
      "name": "recoverWrongTokens",
      "outputs": [],
      "stateMutability": "nonpayable",
      "type": "function"
    },
    {
      "inputs": [],
      "name": "renounceOwnership",
      "outputs": [],
      "stateMutability": "nonpayable",
      "type": "function"
    },
    {
      "inputs": [],
      "name": "rewardDuration",
      "outputs": [
        {
          "internalType": "uint256",
          "name": "",
          "type": "uint256"
        }
      ],
      "stateMutability": "view",
      "type": "function"
    },
    {
      "inputs": [],
      "name": "rewardMaxTxAmount",
      "outputs": [
        {
          "internalType": "uint256",
          "name": "",
          "type": "uint256"
        }
      ],
      "stateMutability": "view",
      "type": "function"
    },
    {
      "inputs": [],
      "name": "rewardPerBlock",
      "outputs": [
        {
          "internalType": "uint256",
          "name": "",
          "type": "uint256"
        }
      ],
      "stateMutability": "view",
      "type": "function"
    },
    {
      "inputs": [],
      "name": "rewardPerBlockUI",
      "outputs": [
        {
          "internalType": "uint256",
          "name": "",
          "type": "uint256"
        }
      ],
      "stateMutability": "view",
      "type": "function"
    },
    {
      "inputs": [],
      "name": "rewardToken",
      "outputs": [
        {
          "internalType": "contract IERC20",
          "name": "",
          "type": "address"
        }
      ],
      "stateMutability": "view",
      "type": "function"
    },
    {
      "inputs": [],
      "name": "rewardTokenDecimals",
      "outputs": [
        {
          "internalType": "uint8",
          "name": "",
          "type": "uint8"
        }
      ],
      "stateMutability": "view",
      "type": "function"
    },
    {
      "inputs": [
        {
          "internalType": "uint256",
          "name": "_minimumDeposit",
          "type": "uint256"
        }
      ],
      "name": "setMinimumDeposit",
      "outputs": [],
      "stateMutability": "nonpayable",
      "type": "function"
    },
    {
      "inputs": [],
      "name": "stakedToken",
      "outputs": [
        {
          "internalType": "contract IERC20",
          "name": "",
          "type": "address"
        }
      ],
      "stateMutability": "view",
      "type": "function"
    },
    {
      "inputs": [],
      "name": "startBlock",
      "outputs": [
        {
          "internalType": "uint256",
          "name": "",
          "type": "uint256"
        }
      ],
      "stateMutability": "view",
      "type": "function"
    },
    {
      "inputs": [],
      "name": "stopReward",
      "outputs": [],
      "stateMutability": "nonpayable",
      "type": "function"
    },
    {
      "inputs": [],
      "name": "totalStaked",
      "outputs": [
        {
          "internalType": "uint256",
          "name": "",
          "type": "uint256"
        }
      ],
      "stateMutability": "view",
      "type": "function"
    },
    {
      "inputs": [
        {
          "internalType": "address",
          "name": "newOwner",
          "type": "address"
        }
      ],
      "name": "transferOwnership",
      "outputs": [],
      "stateMutability": "nonpayable",
      "type": "function"
    },
    {
      "inputs": [
        {
          "internalType": "bool",
          "name": "_hasUserLimit",
          "type": "bool"
        },
        {
          "internalType": "uint256",
          "name": "_poolLimitPerUser",
          "type": "uint256"
        }
      ],
      "name": "updatePoolLimitPerUser",
      "outputs": [],
      "stateMutability": "nonpayable",
      "type": "function"
    },
    {
      "inputs": [
        {
          "internalType": "uint256",
          "name": "_rewardPerBlock",
          "type": "uint256"
        }
      ],
      "name": "updateRewardPerBlock",
      "outputs": [],
      "stateMutability": "nonpayable",
      "type": "function"
    },
    {
      "inputs": [
        {
          "internalType": "uint256",
          "name": "_startBlock",
          "type": "uint256"
        },
        {
          "internalType": "uint256",
          "name": "_bonusEndBlock",
          "type": "uint256"
        }
      ],
      "name": "updateStartAndEndBlocks",
      "outputs": [],
      "stateMutability": "nonpayable",
      "type": "function"
    },
    {
      "inputs": [
        {
          "internalType": "address",
          "name": "",
          "type": "address"
        }
      ],
      "name": "userInfo",
      "outputs": [
        {
          "internalType": "uint256",
          "name": "amount",
          "type": "uint256"
        },
        {
          "internalType": "uint256",
          "name": "rewardDebt",
          "type": "uint256"
        }
      ],
      "stateMutability": "view",
      "type": "function"
    },
    {
      "inputs": [
        {
          "internalType": "uint256",
          "name": "_amount",
          "type": "uint256"
        }
      ],
      "name": "withdraw",
      "outputs": [],
      "stateMutability": "nonpayable",
      "type": "function"
    },
    {
      "inputs": [
        {
          "internalType": "address",
          "name": "_to",
          "type": "address"
        }
      ],
      "name": "withdrawRemains",
      "outputs": [],
      "stateMutability": "nonpayable",
      "type": "function"
    }
  ],
  "transactionHash": "0x963236e5e0d2a81d7976224a9ed7ad3a37361f1178452cdfe594e4eb692781c7",
  "args": [],
  "numDeployments": 1,
  "solcInputHash": "1a3daf91b457633c1667e3dbe2f6c352",
  "bytecode": "0x60806040526000600b5534801561001557600080fd5b5061001f33610028565b60018055610078565b600080546001600160a01b038381166001600160a01b0319831681178455604051919092169283917f8be0079c531659141344cd1fd0a4f28419497f9722a3daafe3b4186f6b6457e09190a35050565b611f59806100876000396000f3fe608060405234801561001057600080fd5b50600436106102695760003560e01c80638f66291511610151578063d3a8615c116100c3578063edbf4ac211610087578063edbf4ac2146104dc578063f2fde38b146104ef578063f3e4dd3014610502578063f40f0f5214610515578063f520e7e514610528578063f7c618c11461053057600080fd5b8063d3a8615c14610492578063db2e21bc146104a5578063e3df7270146104ad578063e78ec42e146104b6578063ea9041e4146104c957600080fd5b8063a218141b11610115578063a218141b1461043f578063a2ba0bc714610448578063b3f02d3814610450578063b6b55f2514610463578063cc7a262e14610476578063ccd34cd51461048957600080fd5b80638f662915146103e457806392e8990e146103ed5780639513997f146103fa5780639bdcecd11461040d578063a0b409051461042c57600080fd5b806350a0621d116101ea578063715018a6116101ae578063715018a61461038a5780637bfaa40c1461039257806380dc0672146103a5578063817b1cd2146103ad5780638ae39cac146103b65780638da5cb5b146103bf57600080fd5b806350a0621d14610354578063576e093b1461035d5780635bb06ead14610370578063636bfbab1461037857806366fe9f8a1461038157600080fd5b80632e1a7d4d116102315780632e1a7d4d14610310578063392e53cd146103235780633f138d4b1461033057806348cd4cb1146103435780634e71d92d1461034c57600080fd5b806301f8a9761461026e5780630545469414610283578063083c6323146102aa57806310f8097b146102c15780631959a002146102d4575b600080fd5b61028161027c366004611c0e565b610543565b005b60025461029590610100900460ff1681565b60405190151581526020015b60405180910390f35b6102b360065481565b6040519081526020016102a1565b6102816102cf366004611c0e565b6105d2565b6102fb6102e2366004611b2d565b6012602052600090815260409020805460019091015482565b604080519283526020830191909152016102a1565b61028161031e366004611c0e565b61060c565b6004546102959060ff1681565b61028161033e366004611b49565b610778565b6102b360075481565b6102816108ab565b6102b3600b5481565b61028161036b366004611b2d565b610984565b6102b3610b38565b6102b360035481565b6102b360095481565b610281610b5e565b6102816103a0366004611c0e565b610b94565b610281610bf7565b6102b3600d5481565b6102b3600a5481565b6000546001600160a01b03165b6040516001600160a01b0390911681526020016102a1565b6102b360055481565b6002546102959060ff1681565b610281610408366004611c3e565b610c27565b600c5461041a9060ff1681565b60405160ff90911681526020016102a1565b61028161043a366004611b90565b610d85565b6102b360085481565b610281610e97565b61028161045e366004611c0e565b610f62565b610281610471366004611c0e565b610fd5565b6011546103cc906001600160a01b031681565b6102b3600e5481565b6102816104a0366004611c3e565b6111c6565b610281611202565b6102b3600f5481565b6102816104c4366004611c0e565b6112aa565b6102816104d7366004611c0e565b6112d9565b6102816104ea366004611bad565b61131a565b6102816104fd366004611b2d565b6114ee565b610281610510366004611c0e565b611586565b6102b3610523366004611b2d565b6115b5565b6102b3611696565b6010546103cc906001600160a01b031681565b6000546001600160a01b031633146105765760405162461bcd60e51b815260040161056d90611cf9565b60405180910390fd5b60075443106105975760405162461bcd60e51b815260040161056d90611ccf565b600a8190556040518181527f0c4d677eef92893ac7ec52faf8140fc6c851ab4736302b4f3a89dfb20696a0df9060200160405180910390a150565b6000546001600160a01b031633146105fc5760405162461bcd60e51b815260040161056d90611cf9565b61060961045e43836116af565b50565b6002600154141561062f5760405162461bcd60e51b815260040161056d90611d2e565b600260015533600090815260126020526040902080548211156106945760405162461bcd60e51b815260206004820152601b60248201527f416d6f756e7420746f20776974686472617720746f6f20686967680000000000604482015260640161056d565b61069c6116c4565b60006106d182600101546106cb600e546106c5600554876000015461172f90919063ffffffff16565b9061173b565b90611747565b9050821561070f5781546106e59084611747565b82556011546106fe906001600160a01b03163385611753565b600d5461070b9084611747565b600d555b801561071e5761071e816117bb565b600e54600554835461073592916106c5919061172f565b600183015560405183815233907f884edad9ce6fa2440d8a54cc123490eb96d2768479d49ff9c7366125a94243649060200160405180910390a250506001805550565b6000546001600160a01b031633146107a25760405162461bcd60e51b815260040161056d90611cf9565b6011546001600160a01b03838116911614156107f95760405162461bcd60e51b815260206004820152601660248201527521b0b73737ba1031329039ba30b5b2b2103a37b5b2b760511b604482015260640161056d565b6010546001600160a01b03838116911614156108505760405162461bcd60e51b815260206004820152601660248201527521b0b73737ba103132903932bbb0b932103a37b5b2b760511b604482015260640161056d565b6108646001600160a01b0383163383611753565b604080516001600160a01b0384168152602081018390527f74545154aac348a3eac92596bd1971957ca94795f4e954ec5f613b55fab7812991015b60405180910390a15050565b600260015414156108ce5760405162461bcd60e51b815260040161056d90611d2e565b60026001553360009081526012602052604090206108ea6116c4565b80541561096357600061091a82600101546106cb600e546106c5600554876000015461172f90919063ffffffff16565b905080156109615761092b816117bb565b60405181815233907f47cee97cb7acd717b3c0aa1435d004cd5b3c8c57d70dbceb4e4458bbd60e39d49060200160405180910390a25b505b600e54600554825461097a92916106c5919061172f565b6001918201558055565b6000546001600160a01b031633146109ae5760405162461bcd60e51b815260040161056d90611cf9565b60065443116109ff5760405162461bcd60e51b815260206004820152601c60248201527f4572726f723a20506f6f6c206e6f742066696e69736865642079657400000000604482015260640161056d565b600d5415610a4f5760405162461bcd60e51b815260206004820181905260248201527f4572726f723a20536f6d656f6e6520686173207374616b656420746f6b656e73604482015260640161056d565b6010546040516370a0823160e01b81523060048201526000916001600160a01b0316906370a082319060240160206040518083038186803b158015610a9357600080fd5b505afa158015610aa7573d6000803e3d6000fd5b505050506040513d601f19601f82011682018060405250810190610acb9190611c26565b905060008111610b1d5760405162461bcd60e51b815260206004820152601960248201527f4572726f723a204e6f2072656d61696e696e672066756e647300000000000000604482015260640161056d565b601054610b34906001600160a01b03168383611753565b5050565b600c54600090610b5990610b509060ff16600a611de0565b600a549061173b565b905090565b6000546001600160a01b03163314610b885760405162461bcd60e51b815260040161056d90611cf9565b610b926000611820565b565b6000546001600160a01b03163314610bbe5760405162461bcd60e51b815260040161056d90611cf9565b6007544310610bdf5760405162461bcd60e51b815260040161056d90611ccf565b600754610bec90826116af565b600655610609610e97565b6000546001600160a01b03163314610c215760405162461bcd60e51b815260040161056d90611cf9565b43600655565b6000546001600160a01b03163314610c515760405162461bcd60e51b815260040161056d90611cf9565b6007544310610c725760405162461bcd60e51b815260040161056d90611ccf565b808210610cd85760405162461bcd60e51b815260206004820152602e60248201527f4e6577207374617274426c6f636b206d757374206265206c6f7765722074686160448201526d6e206e657720656e64426c6f636b60901b606482015260840161056d565b814310610d405760405162461bcd60e51b815260206004820152603060248201527f4e6577207374617274426c6f636b206d7573742062652068696768657220746860448201526f616e2063757272656e7420626c6f636b60801b606482015260840161056d565b60078290556006819055600882905560408051838152602081018390527f7cd0ab87d19036f3dfadadb232c78aa4879dda3f0c994a9d637532410ee2ce06910161089f565b6000546001600160a01b03163314610daf5760405162461bcd60e51b815260040161056d90611cf9565b60025460ff16610def5760405162461bcd60e51b815260206004820152600b60248201526a135d5cdd081899481cd95d60aa1b604482015260640161056d565b8115610e50576009548111610e465760405162461bcd60e51b815260206004820152601860248201527f4e6577206c696d6974206d757374206265206869676865720000000000000000604482015260640161056d565b6009819055610e64565b6002805460ff191683151517905560006009555b7f241f67ee5f41b7a5cabf911367329be7215900f602ebfc47f89dce2a6bcd847c60095460405161089f91815260200190565b6000546001600160a01b03163314610ec15760405162461bcd60e51b815260040161056d90611cf9565b600d546010546040516370a0823160e01b8152306004820152600092610f489290916001600160a01b03909116906370a082319060240160206040518083038186803b158015610f1057600080fd5b505afa158015610f24573d6000803e3d6000fd5b505050506040513d601f19601f820116820180604052508101906106cb9190611c26565b9050610f5c610f55611696565b829061173b565b600a5550565b6000546001600160a01b03163314610f8c5760405162461bcd60e51b815260040161056d90611cf9565b6007544310610fad5760405162461bcd60e51b815260040161056d90611ccf565b6000610fb7611696565b60078390559050610fc882826116af565b6006555050600754600855565b60026001541415610ff85760405162461bcd60e51b815260040161056d90611d2e565b60026001819055336000908152601260205260409020905460ff16156110765760095481546110289084906116af565b11156110765760405162461bcd60e51b815260206004820152601760248201527f5573657220616d6f756e742061626f7665206c696d6974000000000000000000604482015260640161056d565b600254610100900460ff16156110e4576003548210156110e45760405162461bcd60e51b8152602060048201526024808201527f4465706f73697420616d6f756e74206e6f7420726561636820746865206d696e604482015263696d756d60e01b606482015260840161056d565b6110ec6116c4565b80541561112f57600061111c82600101546106cb600e546106c5600554876000015461172f90919063ffffffff16565b9050801561112d5761112d816117bb565b505b811561116c57805461114190836116af565b815560115461115b906001600160a01b0316333085611870565b600d5461116890836116af565b600d555b600e54600554825461118392916106c5919061172f565b600182015560405182815233907fe1fffcc4923d04b559f4d29a8bfc6cda04eb5b0d3c460751c2402c5c5cc9109c906020015b60405180910390a2505060018055565b6000546001600160a01b031633146111f05760405162461bcd60e51b815260040161056d90611cf9565b6111f982610f62565b610b3481610b94565b600260015414156112255760405162461bcd60e51b815260040161056d90611d2e565b6002600190815533600090815260126020526040812080548282559281019190915590801561127657601154611265906001600160a01b03163383611753565b600d546112729082611747565b600d555b815460405190815233907f5fafa99d0643513820be26656b45130b01e1c03062e1266bf36f88cbd3bd9695906020016111b6565b6000546001600160a01b031633146112d45760405162461bcd60e51b815260040161056d90611cf9565b600355565b6000546001600160a01b031633146113035760405162461bcd60e51b815260040161056d90611cf9565b601054610609906001600160a01b03163083611753565b60045460ff16156113635760405162461bcd60e51b8152602060048201526013602482015272105b1c9958591e481a5b9a5d1a585b1a5e9959606a1b604482015260640161056d565b6004805460ff19166001179055601180546001600160a01b03808a166001600160a01b0319928316179092556010805492891692909116919091179055600a8590556007849055600683905581156113c8576002805460ff1916600117905560098290555b80156113e3576002805461ff00191661010017905560038190555b601060009054906101000a90046001600160a01b03166001600160a01b031663313ce5676040518163ffffffff1660e01b815260040160206040518083038186803b15801561143157600080fd5b505afa158015611445573d6000803e3d6000fd5b505050506040513d601f19601f820116820180604052508101906114699190611c5f565b600c805460ff191660ff929092169182179055601e81106114c55760405162461bcd60e51b815260206004820152601660248201527504d75737420626520696e666572696f7220746f2033360541b604482015260640161056d565b6114d0601e82611747565b6114db90600a611de0565b600e555050600754600855505050505050565b6000546001600160a01b031633146115185760405162461bcd60e51b815260040161056d90611cf9565b6001600160a01b03811661157d5760405162461bcd60e51b815260206004820152602660248201527f4f776e61626c653a206e6577206f776e657220697320746865207a65726f206160448201526564647265737360d01b606482015260840161056d565b61060981611820565b6000546001600160a01b031633146115b05760405162461bcd60e51b815260040161056d90611cf9565b600b55565b6001600160a01b0381166000908152601260205260408120600d54600854431180156115e057508015155b156116675760006115f3600854436118ae565b9050600061160c600a548361172f90919063ffffffff16565b9050600061163561162c856106c5600e548661172f90919063ffffffff16565b600554906116af565b905061165c85600101546106cb600e546106c5858a6000015461172f90919063ffffffff16565b979650505050505050565b61168e82600101546106cb600e546106c5600554876000015461172f90919063ffffffff16565b949350505050565b6000610b5960075460065461174790919063ffffffff16565b60006116bb8284611d65565b90505b92915050565b60085443116116cf57565b600d54806116de575043600855565b60006116ec600854436118ae565b90506000611705600a548361172f90919063ffffffff16565b905061172361162c846106c5600e548561172f90919063ffffffff16565b60055550504360085550565b60006116bb8284611e88565b60006116bb8284611d7d565b60006116bb8284611ea7565b6040516001600160a01b0383166024820152604481018290526117b690849063a9059cbb60e01b906064015b60408051601f198184030181529190526020810180516001600160e01b03166001600160e01b0319909316929092179091526118e8565b505050565b600b546117d957601054610609906001600160a01b03163383611753565b8015610609576000600b5482116117f057816117f4565b600b545b90506118008282611747565b60105490925061181a906001600160a01b03163383611753565b506117d9565b600080546001600160a01b038381166001600160a01b0319831681178455604051919092169283917f8be0079c531659141344cd1fd0a4f28419497f9722a3daafe3b4186f6b6457e09190a35050565b6040516001600160a01b03808516602483015283166044820152606481018290526118a89085906323b872dd60e01b9060840161177f565b50505050565b600060065482116118ca576118c38284611747565b90506116be565b60065483106118db575060006116be565b6006546118c39084611747565b600061193d826040518060400160405280602081526020017f5361666545524332303a206c6f772d6c6576656c2063616c6c206661696c6564815250856001600160a01b03166119ba9092919063ffffffff16565b8051909150156117b6578080602001905181019061195b9190611b74565b6117b65760405162461bcd60e51b815260206004820152602a60248201527f5361666545524332303a204552433230206f7065726174696f6e20646964206e6044820152691bdd081cdd58d8d9595960b21b606482015260840161056d565b60606119c984846000856119d3565b90505b9392505050565b606082471015611a345760405162461bcd60e51b815260206004820152602660248201527f416464726573733a20696e73756666696369656e742062616c616e636520666f6044820152651c8818d85b1b60d21b606482015260840161056d565b6001600160a01b0385163b611a8b5760405162461bcd60e51b815260206004820152601d60248201527f416464726573733a2063616c6c20746f206e6f6e2d636f6e7472616374000000604482015260640161056d565b600080866001600160a01b03168587604051611aa79190611c80565b60006040518083038185875af1925050503d8060008114611ae4576040519150601f19603f3d011682016040523d82523d6000602084013e611ae9565b606091505b509150915061165c82828660608315611b035750816119cc565b825115611b135782518084602001fd5b8160405162461bcd60e51b815260040161056d9190611c9c565b600060208284031215611b3e578081fd5b81356119cc81611f00565b60008060408385031215611b5b578081fd5b8235611b6681611f00565b946020939093013593505050565b600060208284031215611b85578081fd5b81516119cc81611f15565b60008060408385031215611ba2578182fd5b8235611b6681611f15565b600080600080600080600060e0888a031215611bc7578283fd5b8735611bd281611f00565b96506020880135611be281611f00565b96999698505050506040850135946060810135946080820135945060a0820135935060c0909101359150565b600060208284031215611c1f578081fd5b5035919050565b600060208284031215611c37578081fd5b5051919050565b60008060408385031215611c50578182fd5b50508035926020909101359150565b600060208284031215611c70578081fd5b815160ff811681146119cc578182fd5b60008251611c92818460208701611ebe565b9190910192915050565b6020815260008251806020840152611cbb816040850160208701611ebe565b601f01601f19169190910160400192915050565b60208082526010908201526f141bdbdb081a185cc81cdd185c9d195960821b604082015260600190565b6020808252818101527f4f776e61626c653a2063616c6c6572206973206e6f7420746865206f776e6572604082015260600190565b6020808252601f908201527f5265656e7472616e637947756172643a207265656e7472616e742063616c6c00604082015260600190565b60008219821115611d7857611d78611eea565b500190565b600082611d9857634e487b7160e01b81526012600452602481fd5b500490565b600181815b80851115611dd8578160001904821115611dbe57611dbe611eea565b80851615611dcb57918102915b93841c9390800290611da2565b509250929050565b60006116bb8383600082611df6575060016116be565b81611e03575060006116be565b8160018114611e195760028114611e2357611e3f565b60019150506116be565b60ff841115611e3457611e34611eea565b50506001821b6116be565b5060208310610133831016604e8410600b8410161715611e62575081810a6116be565b611e6c8383611d9d565b8060001904821115611e8057611e80611eea565b029392505050565b6000816000190483118215151615611ea257611ea2611eea565b500290565b600082821015611eb957611eb9611eea565b500390565b60005b83811015611ed9578181015183820152602001611ec1565b838111156118a85750506000910152565b634e487b7160e01b600052601160045260246000fd5b6001600160a01b038116811461060957600080fd5b801515811461060957600080fdfea2646970667358221220c01f73740ec5785f18d391f8d57c7a93654e3cde3362f6e8edde30dd91c8aebe64736f6c63430008040033",
  "devdoc": {
    "kind": "dev",
    "methods": {
      "owner()": {
        "details": "Returns the address of the current owner."
      },
      "recoverWrongTokens(address,uint256)": {
        "details": "This function is only callable by admin.",
        "params": {
          "_tokenAddress": ": the address of the token to withdraw",
          "_tokenAmount": ": the number of tokens to withdraw"
        }
      },
      "renounceOwnership()": {
        "details": "Leaves the contract without owner. It will not be possible to call `onlyOwner` functions anymore. Can only be called by the current owner. NOTE: Renouncing ownership will leave the contract without an owner, thereby removing any functionality that is only available to the owner."
      },
      "transferOwnership(address)": {
        "details": "Transfers ownership of the contract to a new account (`newOwner`). Can only be called by the current owner."
      },
      "updateStartAndEndBlocks(uint256,uint256)": {
        "details": "This function is only callable by owner.",
        "params": {
          "_bonusEndBlock": ": the new end block",
          "_startBlock": ": the new start block"
        }
      }
    },
    "version": 1
  },
  "userdoc": {
    "kind": "user",
    "methods": {
      "recoverWrongTokens(address,uint256)": {
        "notice": "It allows the admin to recover wrong tokens sent to the contract"
      },
      "updateStartAndEndBlocks(uint256,uint256)": {
        "notice": "It allows the admin to update start and end blocks"
      }
    },
    "version": 1
  },
  "storageLayout": {
    "storage": [
      {
        "astId": 389,
        "contract": "contracts/GQStake.sol:GQStake",
        "label": "_owner",
        "offset": 0,
        "slot": "0",
        "type": "t_address"
      },
      {
        "astId": 497,
        "contract": "contracts/GQStake.sol:GQStake",
        "label": "_status",
        "offset": 0,
        "slot": "1",
        "type": "t_uint256"
      },
      {
        "astId": 3593,
        "contract": "contracts/GQStake.sol:GQStake",
        "label": "hasUserLimit",
        "offset": 0,
        "slot": "2",
        "type": "t_bool"
      },
      {
        "astId": 3595,
        "contract": "contracts/GQStake.sol:GQStake",
        "label": "hasDepositMin",
        "offset": 1,
        "slot": "2",
        "type": "t_bool"
      },
      {
        "astId": 3597,
        "contract": "contracts/GQStake.sol:GQStake",
        "label": "minimumDeposit",
        "offset": 0,
        "slot": "3",
        "type": "t_uint256"
      },
      {
        "astId": 3599,
        "contract": "contracts/GQStake.sol:GQStake",
        "label": "isInitialized",
        "offset": 0,
        "slot": "4",
        "type": "t_bool"
      },
      {
        "astId": 3601,
        "contract": "contracts/GQStake.sol:GQStake",
        "label": "accTokenPerShare",
        "offset": 0,
        "slot": "5",
        "type": "t_uint256"
      },
      {
        "astId": 3603,
        "contract": "contracts/GQStake.sol:GQStake",
        "label": "endBlock",
        "offset": 0,
        "slot": "6",
        "type": "t_uint256"
      },
      {
        "astId": 3605,
        "contract": "contracts/GQStake.sol:GQStake",
        "label": "startBlock",
        "offset": 0,
        "slot": "7",
        "type": "t_uint256"
      },
      {
        "astId": 3607,
        "contract": "contracts/GQStake.sol:GQStake",
        "label": "lastUpdateBlock",
        "offset": 0,
        "slot": "8",
        "type": "t_uint256"
      },
      {
        "astId": 3609,
        "contract": "contracts/GQStake.sol:GQStake",
        "label": "poolLimitPerUser",
        "offset": 0,
        "slot": "9",
        "type": "t_uint256"
      },
      {
        "astId": 3611,
        "contract": "contracts/GQStake.sol:GQStake",
        "label": "rewardPerBlock",
        "offset": 0,
        "slot": "10",
        "type": "t_uint256"
      },
      {
        "astId": 3614,
        "contract": "contracts/GQStake.sol:GQStake",
        "label": "rewardMaxTxAmount",
        "offset": 0,
        "slot": "11",
        "type": "t_uint256"
      },
      {
        "astId": 3616,
        "contract": "contracts/GQStake.sol:GQStake",
        "label": "rewardTokenDecimals",
        "offset": 0,
        "slot": "12",
        "type": "t_uint8"
      },
      {
        "astId": 3618,
        "contract": "contracts/GQStake.sol:GQStake",
        "label": "totalStaked",
        "offset": 0,
        "slot": "13",
        "type": "t_uint256"
      },
      {
        "astId": 3620,
        "contract": "contracts/GQStake.sol:GQStake",
        "label": "PRECISION_FACTOR",
        "offset": 0,
        "slot": "14",
        "type": "t_uint256"
      },
      {
        "astId": 3622,
        "contract": "contracts/GQStake.sol:GQStake",
        "label": "PRECISION_FACTOR_STAKED",
        "offset": 0,
        "slot": "15",
        "type": "t_uint256"
      },
      {
        "astId": 3625,
        "contract": "contracts/GQStake.sol:GQStake",
        "label": "rewardToken",
        "offset": 0,
        "slot": "16",
        "type": "t_contract(IERC20)1192"
      },
      {
        "astId": 3628,
        "contract": "contracts/GQStake.sol:GQStake",
        "label": "stakedToken",
        "offset": 0,
        "slot": "17",
        "type": "t_contract(IERC20)1192"
      },
      {
        "astId": 3633,
        "contract": "contracts/GQStake.sol:GQStake",
        "label": "userInfo",
        "offset": 0,
        "slot": "18",
        "type": "t_mapping(t_address,t_struct(UserInfo)3638_storage)"
      }
    ],
    "types": {
      "t_address": {
        "encoding": "inplace",
        "label": "address",
        "numberOfBytes": "20"
      },
      "t_bool": {
        "encoding": "inplace",
        "label": "bool",
        "numberOfBytes": "1"
      },
      "t_contract(IERC20)1192": {
        "encoding": "inplace",
        "label": "contract IERC20",
        "numberOfBytes": "20"
      },
      "t_mapping(t_address,t_struct(UserInfo)3638_storage)": {
        "encoding": "mapping",
        "key": "t_address",
        "label": "mapping(address => struct GQStake.UserInfo)",
        "numberOfBytes": "32",
        "value": "t_struct(UserInfo)3638_storage"
      },
      "t_struct(UserInfo)3638_storage": {
        "encoding": "inplace",
        "label": "struct GQStake.UserInfo",
        "members": [
          {
            "astId": 3635,
            "contract": "contracts/GQStake.sol:GQStake",
            "label": "amount",
            "offset": 0,
            "slot": "0",
            "type": "t_uint256"
          },
          {
            "astId": 3637,
            "contract": "contracts/GQStake.sol:GQStake",
            "label": "rewardDebt",
            "offset": 0,
            "slot": "1",
            "type": "t_uint256"
          }
        ],
        "numberOfBytes": "64"
      },
      "t_uint256": {
        "encoding": "inplace",
        "label": "uint256",
        "numberOfBytes": "32"
      },
      "t_uint8": {
        "encoding": "inplace",
        "label": "uint8",
        "numberOfBytes": "1"
      }
    }
  }
}