{
  "address": "0xb973c9BC8102ca0fAa0e2AB47feA4b49dC34be21",
  "abi": [
    {
      "inputs": [],
      "stateMutability": "nonpayable",
      "type": "constructor"
    },
    {
      "anonymous": false,
      "inputs": [
        {
          "indexed": true,
          "internalType": "address",
          "name": "user",
          "type": "address"
        },
        {
          "indexed": true,
          "internalType": "uint256",
          "name": "pid",
          "type": "uint256"
        },
        {
          "indexed": false,
          "internalType": "uint256",
          "name": "amount",
          "type": "uint256"
        }
      ],
      "name": "Deposit",
      "type": "event"
    },
    {
      "anonymous": false,
      "inputs": [
        {
          "indexed": true,
          "internalType": "address",
          "name": "user",
          "type": "address"
        },
        {
          "indexed": true,
          "internalType": "uint256",
          "name": "pid",
          "type": "uint256"
        },
        {
          "indexed": false,
          "internalType": "uint256",
          "name": "amount",
          "type": "uint256"
        }
      ],
      "name": "EmergencyWithdraw",
      "type": "event"
    },
    {
      "anonymous": false,
      "inputs": [
        {
          "indexed": true,
          "internalType": "address",
          "name": "previousOwner",
          "type": "address"
        },
        {
          "indexed": true,
          "internalType": "address",
          "name": "newOwner",
          "type": "address"
        }
      ],
      "name": "OwnershipTransferred",
      "type": "event"
    },
    {
      "anonymous": false,
      "inputs": [
        {
          "indexed": true,
          "internalType": "address",
          "name": "user",
          "type": "address"
        },
        {
          "indexed": true,
          "internalType": "uint256",
          "name": "pid",
          "type": "uint256"
        },
        {
          "indexed": false,
          "internalType": "uint256",
          "name": "amount",
          "type": "uint256"
        }
      ],
      "name": "Withdraw",
      "type": "event"
    },
    {
      "inputs": [
        {
          "internalType": "uint256",
          "name": "_allocPoint",
          "type": "uint256"
        },
        {
          "internalType": "contract IERC20Upgradeable",
          "name": "_lpToken",
          "type": "address"
        }
      ],
      "name": "add",
      "outputs": [],
      "stateMutability": "nonpayable",
      "type": "function"
    },
    {
      "inputs": [
        {
          "internalType": "address",
          "name": "",
          "type": "address"
        }
      ],
      "name": "addedPools",
      "outputs": [
        {
          "internalType": "bool",
          "name": "",
          "type": "bool"
        }
      ],
      "stateMutability": "view",
      "type": "function"
    },
    {
      "inputs": [
        {
          "internalType": "uint256",
          "name": "_pid",
          "type": "uint256"
        },
        {
          "internalType": "uint256",
          "name": "_amount",
          "type": "uint256"
        }
      ],
      "name": "deposit",
      "outputs": [],
      "stateMutability": "nonpayable",
      "type": "function"
    },
    {
      "inputs": [
        {
          "internalType": "uint256",
          "name": "_pid",
          "type": "uint256"
        }
      ],
      "name": "emergencyWithdraw",
      "outputs": [],
      "stateMutability": "nonpayable",
      "type": "function"
    },
    {
      "inputs": [
        {
          "internalType": "uint256",
          "name": "_from",
          "type": "uint256"
        },
        {
          "internalType": "uint256",
          "name": "_to",
          "type": "uint256"
        }
      ],
      "name": "getMultiplier",
      "outputs": [
        {
          "internalType": "uint256",
          "name": "",
          "type": "uint256"
        }
      ],
      "stateMutability": "view",
      "type": "function"
    },
    {
      "inputs": [
        {
          "internalType": "contract IResource",
          "name": "_resource",
          "type": "address"
        },
        {
          "internalType": "uint256",
          "name": "_resourcePerBlock",
          "type": "uint256"
        },
        {
          "internalType": "uint256",
          "name": "_startBlock",
          "type": "uint256"
        }
      ],
      "name": "initialize",
      "outputs": [],
      "stateMutability": "nonpayable",
      "type": "function"
    },
    {
      "inputs": [],
      "name": "massUpdatePools",
      "outputs": [],
      "stateMutability": "nonpayable",
      "type": "function"
    },
    {
      "inputs": [],
      "name": "owner",
      "outputs": [
        {
          "internalType": "address",
          "name": "",
          "type": "address"
        }
      ],
      "stateMutability": "view",
      "type": "function"
    },
    {
      "inputs": [
        {
          "internalType": "uint256",
          "name": "_pid",
          "type": "uint256"
        },
        {
          "internalType": "address",
          "name": "_user",
          "type": "address"
        }
      ],
      "name": "pendingResource",
      "outputs": [
        {
          "internalType": "uint256",
          "name": "",
          "type": "uint256"
        }
      ],
      "stateMutability": "view",
      "type": "function"
    },
    {
      "inputs": [
        {
          "internalType": "uint256",
          "name": "",
          "type": "uint256"
        }
      ],
      "name": "poolInfo",
      "outputs": [
        {
          "internalType": "contract IERC20Upgradeable",
          "name": "lpToken",
          "type": "address"
        },
        {
          "internalType": "uint256",
          "name": "allocPoint",
          "type": "uint256"
        },
        {
          "internalType": "uint256",
          "name": "lastRewardBlock",
          "type": "uint256"
        },
        {
          "internalType": "uint256",
          "name": "accResourcePerShare",
          "type": "uint256"
        }
      ],
      "stateMutability": "view",
      "type": "function"
    },
    {
      "inputs": [],
      "name": "poolLength",
      "outputs": [
        {
          "internalType": "uint256",
          "name": "",
          "type": "uint256"
        }
      ],
      "stateMutability": "view",
      "type": "function"
    },
    {
      "inputs": [
        {
          "internalType": "address",
          "name": "",
          "type": "address"
        }
      ],
      "name": "positionPoolsByLP",
      "outputs": [
        {
          "internalType": "uint256",
          "name": "",
          "type": "uint256"
        }
      ],
      "stateMutability": "view",
      "type": "function"
    },
    {
      "inputs": [],
      "name": "renounceOwnership",
      "outputs": [],
      "stateMutability": "nonpayable",
      "type": "function"
    },
    {
      "inputs": [],
      "name": "resource",
      "outputs": [
        {
          "internalType": "contract IResource",
          "name": "",
          "type": "address"
        }
      ],
      "stateMutability": "view",
      "type": "function"
    },
    {
      "inputs": [],
      "name": "resourcePerBlock",
      "outputs": [
        {
          "internalType": "uint256",
          "name": "",
          "type": "uint256"
        }
      ],
      "stateMutability": "view",
      "type": "function"
    },
    {
      "inputs": [
        {
          "internalType": "uint256",
          "name": "_pid",
          "type": "uint256"
        },
        {
          "internalType": "uint256",
          "name": "_allocPoint",
          "type": "uint256"
        }
      ],
      "name": "set",
      "outputs": [],
      "stateMutability": "nonpayable",
      "type": "function"
    },
    {
      "inputs": [],
      "name": "startBlock",
      "outputs": [
        {
          "internalType": "uint256",
          "name": "",
          "type": "uint256"
        }
      ],
      "stateMutability": "view",
      "type": "function"
    },
    {
      "inputs": [],
      "name": "totalAllocPoint",
      "outputs": [
        {
          "internalType": "uint256",
          "name": "",
          "type": "uint256"
        }
      ],
      "stateMutability": "view",
      "type": "function"
    },
    {
      "inputs": [
        {
          "internalType": "address",
          "name": "newOwner",
          "type": "address"
        }
      ],
      "name": "transferOwnership",
      "outputs": [],
      "stateMutability": "nonpayable",
      "type": "function"
    },
    {
      "inputs": [
        {
          "internalType": "uint256",
          "name": "_newBonusMultiplier",
          "type": "uint256"
        }
      ],
      "name": "updateBonusMultiplier",
      "outputs": [],
      "stateMutability": "nonpayable",
      "type": "function"
    },
    {
      "inputs": [
        {
          "internalType": "uint256",
          "name": "_pid",
          "type": "uint256"
        }
      ],
      "name": "updatePool",
      "outputs": [],
      "stateMutability": "nonpayable",
      "type": "function"
    },
    {
      "inputs": [
        {
          "internalType": "uint256",
          "name": "",
          "type": "uint256"
        },
        {
          "internalType": "address",
          "name": "",
          "type": "address"
        }
      ],
      "name": "userInfo",
      "outputs": [
        {
          "internalType": "uint256",
          "name": "amount",
          "type": "uint256"
        },
        {
          "internalType": "uint256",
          "name": "rewardDebt",
          "type": "uint256"
        }
      ],
      "stateMutability": "view",
      "type": "function"
    },
    {
      "inputs": [
        {
          "internalType": "uint256",
          "name": "_pid",
          "type": "uint256"
        },
        {
          "internalType": "uint256",
          "name": "_amount",
          "type": "uint256"
        }
      ],
      "name": "withdraw",
      "outputs": [],
      "stateMutability": "nonpayable",
      "type": "function"
    }
  ],
  "transactionHash": "0x61c726ea74017aca436450f10d7d0fe3d0810edcc6de93824180a69ef3d5244b",
  "args": [],
  "numDeployments": 1,
  "solcInputHash": "e3233e2b1813aedfb5177fea74d0b57f",
  "bytecode": "0x608060405260016099556000609e553480156200001b57600080fd5b50600054610100900460ff16620000395760005460ff161562000043565b62000043620000e8565b620000ab5760405162461bcd60e51b815260206004820152602e60248201527f496e697469616c697a61626c653a20636f6e747261637420697320616c72656160448201526d191e481a5b9a5d1a585b1a5e995960921b606482015260840160405180910390fd5b600054610100900460ff16158015620000ce576000805461ffff19166101011790555b8015620000e1576000805461ff00191690555b5062000115565b600062000100306200010660201b6200106c1760201c565b15905090565b6001600160a01b03163b151590565b6117c480620001256000396000f3fe608060405234801561001057600080fd5b506004361061014d5760003560e01c8063630b5ba1116100c357806393f1a40b1161007c57806393f1a40b146102d1578063af2e0ada14610318578063b5e69b1714610321578063e2bbb15814610334578063f2fde38b14610347578063fb51e4361461035a57600080fd5b8063630b5ba114610257578063715018a61461025f57806375ca3da4146102675780637a1ac61e1461029a5780638da5cb5b146102ad5780638dbb1e3a146102be57600080fd5b80633a63d886116101155780633a63d886146101d7578063441a3e701461020257806348cd4cb11461021557806351eb05a61461021e5780635312ea8e146102315780635ddab18e1461024457600080fd5b8063081e3eda146101525780631526fe271461016957806317caf6f1146101a65780631ab06ee5146101af5780632b8bbbe8146101c4575b600080fd5b609a545b6040519081526020015b60405180910390f35b61017c61017736600461155f565b61037a565b604080516001600160a01b0390951685526020850193909352918301526060820152608001610160565b610156609e5481565b6101c26101bd3660046115be565b6103be565b005b6101c26101d236600461158f565b61048b565b6097546101ea906001600160a01b031681565b6040516001600160a01b039091168152602001610160565b6101c26102103660046115be565b610677565b610156609f5481565b6101c261022c36600461155f565b610897565b6101c261023f36600461155f565b610a47565b61015661025236600461158f565b610af7565b6101c2610c71565b6101c2610c9c565b61028a6102753660046114ef565b609c6020526000908152604090205460ff1681565b6040519015158152602001610160565b6101c26102a836600461152b565b610cd2565b6033546001600160a01b03166101ea565b6101566102cc3660046115be565b610dbb565b6103036102df36600461158f565b609b6020908152600092835260408084209091529082529020805460019091015482565b60408051928352602083019190915201610160565b61015660985481565b6101c261032f36600461155f565b610dd6565b6101c26103423660046115be565b610e05565b6101c26103553660046114ef565b610fd1565b6101566103683660046114ef565b609d6020526000908152604090205481565b609a818154811061038a57600080fd5b600091825260209091206004909102018054600182015460028301546003909301546001600160a01b039092169350919084565b6033546001600160a01b031633146103f15760405162461bcd60e51b81526004016103e89061162e565b60405180910390fd5b6103f9610c71565b61044a81610444609a858154811061042157634e487b7160e01b600052603260045260246000fd5b906000526020600020906004020160010154609e5461107b90919063ffffffff16565b90611087565b609e8190555080609a838154811061047257634e487b7160e01b600052603260045260246000fd5b9060005260206000209060040201600101819055505050565b6033546001600160a01b031633146104b55760405162461bcd60e51b81526004016103e89061162e565b6104bd610c71565b6001600160a01b0381166000908152609c602052604090205460ff161561051c5760405162461bcd60e51b81526020600482015260136024820152721859190e88111d5c1b1a58d85d19481c1bdbdb606a1b60448201526064016103e8565b6000609f54431161052f57609f54610531565b435b609e549091506105419084611087565b609e55604080516080810182526001600160a01b038481168083526020808401888152848601878152600060608701818152609a80546001808201835582855299517f44da158ba27f9252712a74ff6a55c5d531f69609f1f6e7f17c4443a8e2089be4600490920291820180546001600160a01b03191691909a161790985593517f44da158ba27f9252712a74ff6a55c5d531f69609f1f6e7f17c4443a8e2089be588015591517f44da158ba27f9252712a74ff6a55c5d531f69609f1f6e7f17c4443a8e2089be687015590517f44da158ba27f9252712a74ff6a55c5d531f69609f1f6e7f17c4443a8e2089be790950194909455918352609c9052929020805460ff19168217905590546106569190611705565b6001600160a01b039092166000908152609d60205260409020919091555050565b600260655414156106ca5760405162461bcd60e51b815260206004820152601f60248201527f5265656e7472616e637947756172643a207265656e7472616e742063616c6c0060448201526064016103e8565b6002606555609a5482106107195760405162461bcd60e51b815260206004820152601660248201527577697468647261773a20706f6f6c206578697374733f60501b60448201526064016103e8565b6000609a838154811061073c57634e487b7160e01b600052603260045260246000fd5b60009182526020808320868452609b8252604080852033865290925292208054600490920290920192508311156107b55760405162461bcd60e51b815260206004820152601960248201527f77697468647261773a206e6f7420676f6f6420616d6f756e740000000000000060448201526064016103e8565b6107be84610897565b60006107f882600101546107f264e8d4a510006107ec8760030154876000015461109390919063ffffffff16565b9061109f565b9061107b565b9050801561080a5761080a33826110ab565b831561083457815461081c908561107b565b82558254610834906001600160a01b03163386611160565b6003830154825461084f9164e8d4a51000916107ec91611093565b6001830155604051848152859033907ff279e6a1f5e320cca91135676d9cb6e44ca8a08c0b88342bcdb1144f6511b5689060200160405180910390a350506001606555505050565b6000609a82815481106108ba57634e487b7160e01b600052603260045260246000fd5b90600052602060002090600402019050806002015443116108d9575050565b80546040516370a0823160e01b81523060048201526000916001600160a01b0316906370a082319060240160206040518083038186803b15801561091c57600080fd5b505afa158015610930573d6000803e3d6000fd5b505050506040513d601f19601f820116820180604052508101906109549190611577565b90508061096657504360029091015550565b6000610976836002015443610dbb565b905060006109a3609e546107ec866001015461099d6098548761109390919063ffffffff16565b90611093565b6097546040516340c10f1960e01b8152306004820152602481018390529192506001600160a01b0316906340c10f1990604401600060405180830381600087803b1580156109f057600080fd5b505af1158015610a04573d6000803e3d6000fd5b50505050610a32610a27846107ec64e8d4a510008561109390919063ffffffff16565b600386015490611087565b60038501555050436002909201919091555050565b6000609a8281548110610a6a57634e487b7160e01b600052603260045260246000fd5b60009182526020808320858452609b82526040808520338087529352909320805460049093029093018054909450610aaf926001600160a01b03919091169190611160565b8054604051908152839033907fbb757047c2b5f3974fe26b7c10f732e7bce710b0952a71082702781e62ae05959060200160405180910390a360008082556001909101555050565b600080609a8481548110610b1b57634e487b7160e01b600052603260045260246000fd5b60009182526020808320878452609b825260408085206001600160a01b038981168752935280852060049485029092016003810154815492516370a0823160e01b8152309681019690965290965091949193919216906370a082319060240160206040518083038186803b158015610b9257600080fd5b505afa158015610ba6573d6000803e3d6000fd5b505050506040513d601f19601f82011682018060405250810190610bca9190611577565b9050836002015443118015610bde57508015155b15610c3e576000610bf3856002015443610dbb565b90506000610c1a609e546107ec886001015461099d6098548761109390919063ffffffff16565b9050610c39610c32846107ec8464e8d4a51000611093565b8590611087565b935050505b610c6683600101546107f264e8d4a510006107ec86886000015461109390919063ffffffff16565b979650505050505050565b609a5460005b81811015610c9857610c8881610897565b610c9181611748565b9050610c77565b5050565b6033546001600160a01b03163314610cc65760405162461bcd60e51b81526004016103e89061162e565b610cd060006111c3565b565b600054610100900460ff16610ced5760005460ff1615610cf1565b303b155b610d545760405162461bcd60e51b815260206004820152602e60248201527f496e697469616c697a61626c653a20636f6e747261637420697320616c72656160448201526d191e481a5b9a5d1a585b1a5e995960921b60648201526084016103e8565b600054610100900460ff16158015610d76576000805461ffff19166101011790555b610d7e611215565b609780546001600160a01b0319166001600160a01b0386161790556098839055609f8290558015610db5576000805461ff00191690555b50505050565b609954600090610dcf9061099d848661107b565b9392505050565b6033546001600160a01b03163314610e005760405162461bcd60e51b81526004016103e89061162e565b609955565b60026065541415610e585760405162461bcd60e51b815260206004820152601f60248201527f5265656e7472616e637947756172643a207265656e7472616e742063616c6c0060448201526064016103e8565b6002606555609a548210610ea65760405162461bcd60e51b81526020600482015260156024820152746465706f7369743a20706f6f6c206578697374733f60581b60448201526064016103e8565b6000609a8381548110610ec957634e487b7160e01b600052603260045260246000fd5b60009182526020808320868452609b82526040808520338652909252922060049091029091019150610efa84610897565b805415610f43576000610f2f82600101546107f264e8d4a510006107ec8760030154876000015461109390919063ffffffff16565b90508015610f4157610f4133826110ab565b505b8215610f6f578154610f60906001600160a01b0316333086611244565b8054610f6c9084611087565b81555b60038201548154610f8a9164e8d4a51000916107ec91611093565b6001820155604051838152849033907f90890809c654f11d6e72a28fa60149770a0d11ec6c92319d6ceb2bb0a4ea1a159060200160405180910390a3505060016065555050565b6033546001600160a01b03163314610ffb5760405162461bcd60e51b81526004016103e89061162e565b6001600160a01b0381166110605760405162461bcd60e51b815260206004820152602660248201527f4f776e61626c653a206e6577206f776e657220697320746865207a65726f206160448201526564647265737360d01b60648201526084016103e8565b611069816111c3565b50565b6001600160a01b03163b151590565b6000610dcf8284611705565b6000610dcf82846116ae565b6000610dcf82846116e6565b6000610dcf82846116c6565b6097546040516370a0823160e01b81523060048201526000916001600160a01b0316906370a082319060240160206040518083038186803b1580156110ef57600080fd5b505afa158015611103573d6000803e3d6000fd5b505050506040513d601f19601f820116820180604052508101906111279190611577565b90508082111561114d57609754611148906001600160a01b03168483611160565b505050565b609754611148906001600160a01b031684845b6040516001600160a01b03831660248201526044810182905261114890849063a9059cbb60e01b906064015b60408051601f198184030181529190526020810180516001600160e01b03166001600160e01b03199093169290921790915261127c565b603380546001600160a01b038381166001600160a01b0319831681179093556040519116919082907f8be0079c531659141344cd1fd0a4f28419497f9722a3daafe3b4186f6b6457e090600090a35050565b600054610100900460ff1661123c5760405162461bcd60e51b81526004016103e890611663565b610cd061134e565b6040516001600160a01b0380851660248301528316604482015260648101829052610db59085906323b872dd60e01b9060840161118c565b60006112d1826040518060400160405280602081526020017f5361666545524332303a206c6f772d6c6576656c2063616c6c206661696c6564815250856001600160a01b031661137e9092919063ffffffff16565b80519091501561114857808060200190518101906112ef919061150b565b6111485760405162461bcd60e51b815260206004820152602a60248201527f5361666545524332303a204552433230206f7065726174696f6e20646964206e6044820152691bdd081cdd58d8d9595960b21b60648201526084016103e8565b600054610100900460ff166113755760405162461bcd60e51b81526004016103e890611663565b610cd0336111c3565b606061138d8484600085611395565b949350505050565b6060824710156113f65760405162461bcd60e51b815260206004820152602660248201527f416464726573733a20696e73756666696369656e742062616c616e636520666f6044820152651c8818d85b1b60d21b60648201526084016103e8565b6001600160a01b0385163b61144d5760405162461bcd60e51b815260206004820152601d60248201527f416464726573733a2063616c6c20746f206e6f6e2d636f6e747261637400000060448201526064016103e8565b600080866001600160a01b0316858760405161146991906115df565b60006040518083038185875af1925050503d80600081146114a6576040519150601f19603f3d011682016040523d82523d6000602084013e6114ab565b606091505b5091509150610c66828286606083156114c5575081610dcf565b8251156114d55782518084602001fd5b8160405162461bcd60e51b81526004016103e891906115fb565b600060208284031215611500578081fd5b8135610dcf81611779565b60006020828403121561151c578081fd5b81518015158114610dcf578182fd5b60008060006060848603121561153f578182fd5b833561154a81611779565b95602085013595506040909401359392505050565b600060208284031215611570578081fd5b5035919050565b600060208284031215611588578081fd5b5051919050565b600080604083850312156115a1578182fd5b8235915060208301356115b381611779565b809150509250929050565b600080604083850312156115d0578182fd5b50508035926020909101359150565b600082516115f181846020870161171c565b9190910192915050565b602081526000825180602084015261161a81604085016020870161171c565b601f01601f19169190910160400192915050565b6020808252818101527f4f776e61626c653a2063616c6c6572206973206e6f7420746865206f776e6572604082015260600190565b6020808252602b908201527f496e697469616c697a61626c653a20636f6e7472616374206973206e6f74206960408201526a6e697469616c697a696e6760a81b606082015260800190565b600082198211156116c1576116c1611763565b500190565b6000826116e157634e487b7160e01b81526012600452602481fd5b500490565b600081600019048311821515161561170057611700611763565b500290565b60008282101561171757611717611763565b500390565b60005b8381101561173757818101518382015260200161171f565b83811115610db55750506000910152565b600060001982141561175c5761175c611763565b5060010190565b634e487b7160e01b600052601160045260246000fd5b6001600160a01b038116811461106957600080fdfea264697066735822122057ad69c12dcae556bf5374460b29832762b71468972e769c93f0585a65aa934b64736f6c63430008040033",
  "devdoc": {
    "kind": "dev",
    "methods": {
      "add(uint256,address)": {
        "details": "Duplicate LP tokens not allowed",
        "params": {
          "_allocPoint": "allocation points assigned to this new pool",
          "_lpToken": "the lp token added to the pool"
        }
      },
      "deposit(uint256,uint256)": {
        "params": {
          "_amount": "The amount to deposit",
          "_pid": "The pool identifier where user deposit LP tokens"
        }
      },
      "emergencyWithdraw(uint256)": {
        "params": {
          "_pid": "The pool identifier where user withdraws"
        }
      },
      "getMultiplier(uint256,uint256)": {
        "params": {
          "_from": "From block",
          "_to": "To block"
        },
        "returns": {
          "_0": "Multiplier value"
        }
      },
      "initialize(address,uint256,uint256)": {
        "params": {
          "_resource": "Token to reward users",
          "_resourcePerBlock": "Number of tokens to reward per block",
          "_startBlock": "Block number to start reward"
        }
      },
      "owner()": {
        "details": "Returns the address of the current owner."
      },
      "pendingResource(uint256,address)": {
        "params": {
          "_pid": "Identifier of the pool in which we consult the pending rewards",
          "_user": "User that consult the rewards "
        }
      },
      "poolLength()": {
        "returns": {
          "_0": "poolInfo length"
        }
      },
      "renounceOwnership()": {
        "details": "Leaves the contract without owner. It will not be possible to call `onlyOwner` functions anymore. Can only be called by the current owner. NOTE: Renouncing ownership will leave the contract without an owner, thereby removing any functionality that is only available to the owner."
      },
      "set(uint256,uint256)": {
        "params": {
          "_allocPoint": "The new alloc point quantity",
          "_pid": "The pool identifier"
        }
      },
      "transferOwnership(address)": {
        "details": "Transfers ownership of the contract to a new account (`newOwner`). Can only be called by the current owner."
      },
      "updateBonusMultiplier(uint256)": {
        "params": {
          "_newBonusMultiplier": "the new bonus multiplier"
        }
      },
      "updatePool(uint256)": {
        "params": {
          "_pid": "The pool identifier to update"
        }
      },
      "withdraw(uint256,uint256)": {
        "params": {
          "_amount": "The amount to withdraw",
          "_pid": "The pool identifier where user withdraw LP tokens"
        }
      }
    },
    "version": 1
  },
  "userdoc": {
    "kind": "user",
    "methods": {
      "add(uint256,address)": {
        "notice": "Add a new LP token to the pool."
      },
      "constructor": {
        "notice": "Constructor of the contract"
      },
      "deposit(uint256,uint256)": {
        "notice": "Deposit LP tokens to the contract to receive rewards"
      },
      "emergencyWithdraw(uint256)": {
        "notice": "Withdraw without caring about rewards. EMERGENCY ONLY."
      },
      "getMultiplier(uint256,uint256)": {
        "notice": "Return reward multiplier over the given _from to _to block"
      },
      "initialize(address,uint256,uint256)": {
        "notice": "Initialize function for the proxy contract"
      },
      "massUpdatePools()": {
        "notice": "Update reward variables for all pools"
      },
      "pendingResource(uint256,address)": {
        "notice": "Function to see pending tokens"
      },
      "poolLength()": {
        "notice": "Gets the length for the pool info array"
      },
      "set(uint256,uint256)": {
        "notice": "Update alloc points for the given pool"
      },
      "updateBonusMultiplier(uint256)": {
        "notice": "Updates bonus multiplier"
      },
      "updatePool(uint256)": {
        "notice": "Update reward variables"
      },
      "withdraw(uint256,uint256)": {
        "notice": "Withdraw LP tokens from the contract"
      }
    },
    "version": 1
  },
  "storageLayout": {
    "storage": [
      {
        "astId": 130,
        "contract": "contracts/GalacticFarming.sol:GalacticFarming",
        "label": "_initialized",
        "offset": 0,
        "slot": "0",
        "type": "t_bool"
      },
      {
        "astId": 133,
        "contract": "contracts/GalacticFarming.sol:GalacticFarming",
        "label": "_initializing",
        "offset": 1,
        "slot": "0",
        "type": "t_bool"
      },
      {
        "astId": 867,
        "contract": "contracts/GalacticFarming.sol:GalacticFarming",
        "label": "__gap",
        "offset": 0,
        "slot": "1",
        "type": "t_array(t_uint256)50_storage"
      },
      {
        "astId": 10,
        "contract": "contracts/GalacticFarming.sol:GalacticFarming",
        "label": "_owner",
        "offset": 0,
        "slot": "51",
        "type": "t_address"
      },
      {
        "astId": 122,
        "contract": "contracts/GalacticFarming.sol:GalacticFarming",
        "label": "__gap",
        "offset": 0,
        "slot": "52",
        "type": "t_array(t_uint256)49_storage"
      },
      {
        "astId": 211,
        "contract": "contracts/GalacticFarming.sol:GalacticFarming",
        "label": "_status",
        "offset": 0,
        "slot": "101",
        "type": "t_uint256"
      },
      {
        "astId": 255,
        "contract": "contracts/GalacticFarming.sol:GalacticFarming",
        "label": "__gap",
        "offset": 0,
        "slot": "102",
        "type": "t_array(t_uint256)49_storage"
      },
      {
        "astId": 2835,
        "contract": "contracts/GalacticFarming.sol:GalacticFarming",
        "label": "resource",
        "offset": 0,
        "slot": "151",
        "type": "t_contract(IResource)3668"
      },
      {
        "astId": 2837,
        "contract": "contracts/GalacticFarming.sol:GalacticFarming",
        "label": "resourcePerBlock",
        "offset": 0,
        "slot": "152",
        "type": "t_uint256"
      },
      {
        "astId": 2840,
        "contract": "contracts/GalacticFarming.sol:GalacticFarming",
        "label": "BONUS_MULTIPLIER",
        "offset": 0,
        "slot": "153",
        "type": "t_uint256"
      },
      {
        "astId": 2844,
        "contract": "contracts/GalacticFarming.sol:GalacticFarming",
        "label": "poolInfo",
        "offset": 0,
        "slot": "154",
        "type": "t_array(t_struct(PoolInfo)2832_storage)dyn_storage"
      },
      {
        "astId": 2851,
        "contract": "contracts/GalacticFarming.sol:GalacticFarming",
        "label": "userInfo",
        "offset": 0,
        "slot": "155",
        "type": "t_mapping(t_uint256,t_mapping(t_address,t_struct(UserInfo)2822_storage))"
      },
      {
        "astId": 2855,
        "contract": "contracts/GalacticFarming.sol:GalacticFarming",
        "label": "addedPools",
        "offset": 0,
        "slot": "156",
        "type": "t_mapping(t_address,t_bool)"
      },
      {
        "astId": 2859,
        "contract": "contracts/GalacticFarming.sol:GalacticFarming",
        "label": "positionPoolsByLP",
        "offset": 0,
        "slot": "157",
        "type": "t_mapping(t_address,t_uint256)"
      },
      {
        "astId": 2862,
        "contract": "contracts/GalacticFarming.sol:GalacticFarming",
        "label": "totalAllocPoint",
        "offset": 0,
        "slot": "158",
        "type": "t_uint256"
      },
      {
        "astId": 2864,
        "contract": "contracts/GalacticFarming.sol:GalacticFarming",
        "label": "startBlock",
        "offset": 0,
        "slot": "159",
        "type": "t_uint256"
      }
    ],
    "types": {
      "t_address": {
        "encoding": "inplace",
        "label": "address",
        "numberOfBytes": "20"
      },
      "t_array(t_struct(PoolInfo)2832_storage)dyn_storage": {
        "base": "t_struct(PoolInfo)2832_storage",
        "encoding": "dynamic_array",
        "label": "struct GalacticFarming.PoolInfo[]",
        "numberOfBytes": "32"
      },
      "t_array(t_uint256)49_storage": {
        "base": "t_uint256",
        "encoding": "inplace",
        "label": "uint256[49]",
        "numberOfBytes": "1568"
      },
      "t_array(t_uint256)50_storage": {
        "base": "t_uint256",
        "encoding": "inplace",
        "label": "uint256[50]",
        "numberOfBytes": "1600"
      },
      "t_bool": {
        "encoding": "inplace",
        "label": "bool",
        "numberOfBytes": "1"
      },
      "t_contract(IERC20Upgradeable)334": {
        "encoding": "inplace",
        "label": "contract IERC20Upgradeable",
        "numberOfBytes": "20"
      },
      "t_contract(IResource)3668": {
        "encoding": "inplace",
        "label": "contract IResource",
        "numberOfBytes": "20"
      },
      "t_mapping(t_address,t_bool)": {
        "encoding": "mapping",
        "key": "t_address",
        "label": "mapping(address => bool)",
        "numberOfBytes": "32",
        "value": "t_bool"
      },
      "t_mapping(t_address,t_struct(UserInfo)2822_storage)": {
        "encoding": "mapping",
        "key": "t_address",
        "label": "mapping(address => struct GalacticFarming.UserInfo)",
        "numberOfBytes": "32",
        "value": "t_struct(UserInfo)2822_storage"
      },
      "t_mapping(t_address,t_uint256)": {
        "encoding": "mapping",
        "key": "t_address",
        "label": "mapping(address => uint256)",
        "numberOfBytes": "32",
        "value": "t_uint256"
      },
      "t_mapping(t_uint256,t_mapping(t_address,t_struct(UserInfo)2822_storage))": {
        "encoding": "mapping",
        "key": "t_uint256",
        "label": "mapping(uint256 => mapping(address => struct GalacticFarming.UserInfo))",
        "numberOfBytes": "32",
        "value": "t_mapping(t_address,t_struct(UserInfo)2822_storage)"
      },
      "t_struct(PoolInfo)2832_storage": {
        "encoding": "inplace",
        "label": "struct GalacticFarming.PoolInfo",
        "members": [
          {
            "astId": 2825,
            "contract": "contracts/GalacticFarming.sol:GalacticFarming",
            "label": "lpToken",
            "offset": 0,
            "slot": "0",
            "type": "t_contract(IERC20Upgradeable)334"
          },
          {
            "astId": 2827,
            "contract": "contracts/GalacticFarming.sol:GalacticFarming",
            "label": "allocPoint",
            "offset": 0,
            "slot": "1",
            "type": "t_uint256"
          },
          {
            "astId": 2829,
            "contract": "contracts/GalacticFarming.sol:GalacticFarming",
            "label": "lastRewardBlock",
            "offset": 0,
            "slot": "2",
            "type": "t_uint256"
          },
          {
            "astId": 2831,
            "contract": "contracts/GalacticFarming.sol:GalacticFarming",
            "label": "accResourcePerShare",
            "offset": 0,
            "slot": "3",
            "type": "t_uint256"
          }
        ],
        "numberOfBytes": "128"
      },
      "t_struct(UserInfo)2822_storage": {
        "encoding": "inplace",
        "label": "struct GalacticFarming.UserInfo",
        "members": [
          {
            "astId": 2819,
            "contract": "contracts/GalacticFarming.sol:GalacticFarming",
            "label": "amount",
            "offset": 0,
            "slot": "0",
            "type": "t_uint256"
          },
          {
            "astId": 2821,
            "contract": "contracts/GalacticFarming.sol:GalacticFarming",
            "label": "rewardDebt",
            "offset": 0,
            "slot": "1",
            "type": "t_uint256"
          }
        ],
        "numberOfBytes": "64"
      },
      "t_uint256": {
        "encoding": "inplace",
        "label": "uint256",
        "numberOfBytes": "32"
      }
    }
  }
}