{
  "address": "0x70C6B13A1A966B00fe79E697180099ca776f5E5D",
  "abi": [
    {
      "anonymous": false,
      "inputs": [
        {
          "indexed": false,
          "internalType": "address",
          "name": "tokenRecovered",
          "type": "address"
        },
        {
          "indexed": false,
          "internalType": "uint256",
          "name": "amount",
          "type": "uint256"
        }
      ],
      "name": "AdminTokenRecovery",
      "type": "event"
    },
    {
      "anonymous": false,
      "inputs": [
        {
          "indexed": true,
          "internalType": "address",
          "name": "user",
          "type": "address"
        },
        {
          "indexed": false,
          "internalType": "uint256",
          "name": "amount",
          "type": "uint256"
        }
      ],
      "name": "Claim",
      "type": "event"
    },
    {
      "anonymous": false,
      "inputs": [
        {
          "indexed": true,
          "internalType": "address",
          "name": "user",
          "type": "address"
        },
        {
          "indexed": false,
          "internalType": "uint256",
          "name": "amount",
          "type": "uint256"
        }
      ],
      "name": "Deposit",
      "type": "event"
    },
    {
      "anonymous": false,
      "inputs": [
        {
          "indexed": true,
          "internalType": "address",
          "name": "user",
          "type": "address"
        },
        {
          "indexed": false,
          "internalType": "uint256",
          "name": "amount",
          "type": "uint256"
        }
      ],
      "name": "EmergencyWithdraw",
      "type": "event"
    },
    {
      "anonymous": false,
      "inputs": [
        {
          "indexed": false,
          "internalType": "uint256",
          "name": "poolLimitPerUser",
          "type": "uint256"
        }
      ],
      "name": "NewPoolLimit",
      "type": "event"
    },
    {
      "anonymous": false,
      "inputs": [
        {
          "indexed": false,
          "internalType": "uint256",
          "name": "rewardPerBlock",
          "type": "uint256"
        }
      ],
      "name": "NewRewardPerBlock",
      "type": "event"
    },
    {
      "anonymous": false,
      "inputs": [
        {
          "indexed": false,
          "internalType": "uint256",
          "name": "startBlock",
          "type": "uint256"
        },
        {
          "indexed": false,
          "internalType": "uint256",
          "name": "endBlock",
          "type": "uint256"
        }
      ],
      "name": "NewStartAndEndBlocks",
      "type": "event"
    },
    {
      "anonymous": false,
      "inputs": [
        {
          "indexed": true,
          "internalType": "address",
          "name": "previousOwner",
          "type": "address"
        },
        {
          "indexed": true,
          "internalType": "address",
          "name": "newOwner",
          "type": "address"
        }
      ],
      "name": "OwnershipTransferred",
      "type": "event"
    },
    {
      "anonymous": false,
      "inputs": [
        {
          "indexed": false,
          "internalType": "uint256",
          "name": "blockNumber",
          "type": "uint256"
        }
      ],
      "name": "RewardsStop",
      "type": "event"
    },
    {
      "anonymous": false,
      "inputs": [
        {
          "indexed": true,
          "internalType": "address",
          "name": "user",
          "type": "address"
        },
        {
          "indexed": false,
          "internalType": "uint256",
          "name": "amount",
          "type": "uint256"
        }
      ],
      "name": "Withdraw",
      "type": "event"
    },
    {
      "inputs": [],
      "name": "PRECISION_FACTOR",
      "outputs": [
        {
          "internalType": "uint256",
          "name": "",
          "type": "uint256"
        }
      ],
      "stateMutability": "view",
      "type": "function"
    },
    {
      "inputs": [],
      "name": "PRECISION_FACTOR_STAKED",
      "outputs": [
        {
          "internalType": "uint256",
          "name": "",
          "type": "uint256"
        }
      ],
      "stateMutability": "view",
      "type": "function"
    },
    {
      "inputs": [],
      "name": "accTokenPerShare",
      "outputs": [
        {
          "internalType": "uint256",
          "name": "",
          "type": "uint256"
        }
      ],
      "stateMutability": "view",
      "type": "function"
    },
    {
      "inputs": [],
      "name": "claim",
      "outputs": [],
      "stateMutability": "nonpayable",
      "type": "function"
    },
    {
      "inputs": [
        {
          "internalType": "uint256",
          "name": "_amount",
          "type": "uint256"
        }
      ],
      "name": "deposit",
      "outputs": [],
      "stateMutability": "nonpayable",
      "type": "function"
    },
    {
      "inputs": [
        {
          "internalType": "uint256",
          "name": "_amount",
          "type": "uint256"
        }
      ],
      "name": "depositRewardFunds",
      "outputs": [],
      "stateMutability": "nonpayable",
      "type": "function"
    },
    {
      "inputs": [
        {
          "internalType": "uint256",
          "name": "_amount",
          "type": "uint256"
        }
      ],
      "name": "emergencyRewardWithdraw",
      "outputs": [],
      "stateMutability": "nonpayable",
      "type": "function"
    },
    {
      "inputs": [],
      "name": "emergencyWithdraw",
      "outputs": [],
      "stateMutability": "nonpayable",
      "type": "function"
    },
    {
      "inputs": [],
      "name": "endBlock",
      "outputs": [
        {
          "internalType": "uint256",
          "name": "",
          "type": "uint256"
        }
      ],
      "stateMutability": "view",
      "type": "function"
    },
    {
      "inputs": [],
      "name": "hasDepositMin",
      "outputs": [
        {
          "internalType": "bool",
          "name": "",
          "type": "bool"
        }
      ],
      "stateMutability": "view",
      "type": "function"
    },
    {
      "inputs": [],
      "name": "hasUserLimit",
      "outputs": [
        {
          "internalType": "bool",
          "name": "",
          "type": "bool"
        }
      ],
      "stateMutability": "view",
      "type": "function"
    },
    {
      "inputs": [
        {
          "internalType": "contract IERC20",
          "name": "_stakedToken",
          "type": "address"
        },
        {
          "internalType": "contract IERC20",
          "name": "_rewardToken",
          "type": "address"
        },
        {
          "internalType": "uint256",
          "name": "_rewardPerBlock",
          "type": "uint256"
        },
        {
          "internalType": "uint256",
          "name": "_startBlock",
          "type": "uint256"
        },
        {
          "internalType": "uint256",
          "name": "_endBlock",
          "type": "uint256"
        },
        {
          "internalType": "uint256",
          "name": "_poolLimitPerUser",
          "type": "uint256"
        },
        {
          "internalType": "uint256",
          "name": "_minimumDeposit",
          "type": "uint256"
        }
      ],
      "name": "initialize",
      "outputs": [],
      "stateMutability": "nonpayable",
      "type": "function"
    },
    {
      "inputs": [],
      "name": "isInitialized",
      "outputs": [
        {
          "internalType": "bool",
          "name": "",
          "type": "bool"
        }
      ],
      "stateMutability": "view",
      "type": "function"
    },
    {
      "inputs": [],
      "name": "lastUpdateBlock",
      "outputs": [
        {
          "internalType": "uint256",
          "name": "",
          "type": "uint256"
        }
      ],
      "stateMutability": "view",
      "type": "function"
    },
    {
      "inputs": [],
      "name": "minimumDeposit",
      "outputs": [
        {
          "internalType": "uint256",
          "name": "",
          "type": "uint256"
        }
      ],
      "stateMutability": "view",
      "type": "function"
    },
    {
      "inputs": [],
      "name": "owner",
      "outputs": [
        {
          "internalType": "address",
          "name": "",
          "type": "address"
        }
      ],
      "stateMutability": "view",
      "type": "function"
    },
    {
      "inputs": [
        {
          "internalType": "address",
          "name": "_user",
          "type": "address"
        }
      ],
      "name": "pendingReward",
      "outputs": [
        {
          "internalType": "uint256",
          "name": "",
          "type": "uint256"
        }
      ],
      "stateMutability": "view",
      "type": "function"
    },
    {
      "inputs": [],
      "name": "poolCalcRewardPerBlock",
      "outputs": [],
      "stateMutability": "nonpayable",
      "type": "function"
    },
    {
      "inputs": [],
      "name": "poolLimitPerUser",
      "outputs": [
        {
          "internalType": "uint256",
          "name": "",
          "type": "uint256"
        }
      ],
      "stateMutability": "view",
      "type": "function"
    },
    {
      "inputs": [
        {
          "internalType": "uint256",
          "name": "_durationBlocks",
          "type": "uint256"
        }
      ],
      "name": "poolSetDuration",
      "outputs": [],
      "stateMutability": "nonpayable",
      "type": "function"
    },
    {
      "inputs": [
        {
          "internalType": "uint256",
          "name": "_maxTxAmount",
          "type": "uint256"
        }
      ],
      "name": "poolSetRewardMaxTxAmount",
      "outputs": [],
      "stateMutability": "nonpayable",
      "type": "function"
    },
    {
      "inputs": [
        {
          "internalType": "uint256",
          "name": "_startBlock",
          "type": "uint256"
        }
      ],
      "name": "poolSetStart",
      "outputs": [],
      "stateMutability": "nonpayable",
      "type": "function"
    },
    {
      "inputs": [
        {
          "internalType": "uint256",
          "name": "_startBlock",
          "type": "uint256"
        },
        {
          "internalType": "uint256",
          "name": "_durationBlocks",
          "type": "uint256"
        }
      ],
      "name": "poolSetStartAndDuration",
      "outputs": [],
      "stateMutability": "nonpayable",
      "type": "function"
    },
    {
      "inputs": [
        {
          "internalType": "uint256",
          "name": "_blocks",
          "type": "uint256"
        }
      ],
      "name": "poolStartIn",
      "outputs": [],
      "stateMutability": "nonpayable",
      "type": "function"
    },
    {
      "inputs": [
        {
          "internalType": "address",
          "name": "_tokenAddress",
          "type": "address"
        },
        {
          "internalType": "uint256",
          "name": "_tokenAmount",
          "type": "uint256"
        }
      ],
      "name": "recoverWrongTokens",
      "outputs": [],
      "stateMutability": "nonpayable",
      "type": "function"
    },
    {
      "inputs": [],
      "name": "renounceOwnership",
      "outputs": [],
      "stateMutability": "nonpayable",
      "type": "function"
    },
    {
      "inputs": [],
      "name": "rewardDuration",
      "outputs": [
        {
          "internalType": "uint256",
          "name": "",
          "type": "uint256"
        }
      ],
      "stateMutability": "view",
      "type": "function"
    },
    {
      "inputs": [],
      "name": "rewardMaxTxAmount",
      "outputs": [
        {
          "internalType": "uint256",
          "name": "",
          "type": "uint256"
        }
      ],
      "stateMutability": "view",
      "type": "function"
    },
    {
      "inputs": [],
      "name": "rewardPerBlock",
      "outputs": [
        {
          "internalType": "uint256",
          "name": "",
          "type": "uint256"
        }
      ],
      "stateMutability": "view",
      "type": "function"
    },
    {
      "inputs": [],
      "name": "rewardPerBlockUI",
      "outputs": [
        {
          "internalType": "uint256",
          "name": "",
          "type": "uint256"
        }
      ],
      "stateMutability": "view",
      "type": "function"
    },
    {
      "inputs": [],
      "name": "rewardToken",
      "outputs": [
        {
          "internalType": "contract IERC20",
          "name": "",
          "type": "address"
        }
      ],
      "stateMutability": "view",
      "type": "function"
    },
    {
      "inputs": [],
      "name": "rewardTokenDecimals",
      "outputs": [
        {
          "internalType": "uint8",
          "name": "",
          "type": "uint8"
        }
      ],
      "stateMutability": "view",
      "type": "function"
    },
    {
      "inputs": [
        {
          "internalType": "uint256",
          "name": "_minimumDeposit",
          "type": "uint256"
        }
      ],
      "name": "setMinimumDeposit",
      "outputs": [],
      "stateMutability": "nonpayable",
      "type": "function"
    },
    {
      "inputs": [],
      "name": "stakedToken",
      "outputs": [
        {
          "internalType": "contract IERC20",
          "name": "",
          "type": "address"
        }
      ],
      "stateMutability": "view",
      "type": "function"
    },
    {
      "inputs": [],
      "name": "startBlock",
      "outputs": [
        {
          "internalType": "uint256",
          "name": "",
          "type": "uint256"
        }
      ],
      "stateMutability": "view",
      "type": "function"
    },
    {
      "inputs": [],
      "name": "stopReward",
      "outputs": [],
      "stateMutability": "nonpayable",
      "type": "function"
    },
    {
      "inputs": [],
      "name": "totalStaked",
      "outputs": [
        {
          "internalType": "uint256",
          "name": "",
          "type": "uint256"
        }
      ],
      "stateMutability": "view",
      "type": "function"
    },
    {
      "inputs": [
        {
          "internalType": "address",
          "name": "newOwner",
          "type": "address"
        }
      ],
      "name": "transferOwnership",
      "outputs": [],
      "stateMutability": "nonpayable",
      "type": "function"
    },
    {
      "inputs": [
        {
          "internalType": "bool",
          "name": "_hasUserLimit",
          "type": "bool"
        },
        {
          "internalType": "uint256",
          "name": "_poolLimitPerUser",
          "type": "uint256"
        }
      ],
      "name": "updatePoolLimitPerUser",
      "outputs": [],
      "stateMutability": "nonpayable",
      "type": "function"
    },
    {
      "inputs": [
        {
          "internalType": "uint256",
          "name": "_rewardPerBlock",
          "type": "uint256"
        }
      ],
      "name": "updateRewardPerBlock",
      "outputs": [],
      "stateMutability": "nonpayable",
      "type": "function"
    },
    {
      "inputs": [
        {
          "internalType": "uint256",
          "name": "_startBlock",
          "type": "uint256"
        },
        {
          "internalType": "uint256",
          "name": "_bonusEndBlock",
          "type": "uint256"
        }
      ],
      "name": "updateStartAndEndBlocks",
      "outputs": [],
      "stateMutability": "nonpayable",
      "type": "function"
    },
    {
      "inputs": [
        {
          "internalType": "address",
          "name": "",
          "type": "address"
        }
      ],
      "name": "userInfo",
      "outputs": [
        {
          "internalType": "uint256",
          "name": "amount",
          "type": "uint256"
        },
        {
          "internalType": "uint256",
          "name": "rewardDebt",
          "type": "uint256"
        }
      ],
      "stateMutability": "view",
      "type": "function"
    },
    {
      "inputs": [
        {
          "internalType": "uint256",
          "name": "_amount",
          "type": "uint256"
        }
      ],
      "name": "withdraw",
      "outputs": [],
      "stateMutability": "nonpayable",
      "type": "function"
    },
    {
      "inputs": [
        {
          "internalType": "address",
          "name": "_to",
          "type": "address"
        }
      ],
      "name": "withdrawRemains",
      "outputs": [],
      "stateMutability": "nonpayable",
      "type": "function"
    }
  ],
  "transactionHash": "0xd228dc3ee049bfab72f4860af12920690208b9cc32a06743a24430cd3c537810",
  "args": [],
  "numDeployments": 1,
  "solcInputHash": "19d08bcb728ec8ac548e320f2f04b30a",
  "bytecode": "0x60806040526000600b5534801561001557600080fd5b5061001f33610028565b60018055610078565b600080546001600160a01b038381166001600160a01b0319831681178455604051919092169283917f8be0079c531659141344cd1fd0a4f28419497f9722a3daafe3b4186f6b6457e09190a35050565b611fb8806100876000396000f3fe608060405234801561001057600080fd5b50600436106102745760003560e01c80638f66291511610151578063d3a8615c116100c3578063edbf4ac211610087578063edbf4ac2146104fa578063f2fde38b1461050d578063f3e4dd3014610520578063f40f0f5214610533578063f520e7e514610546578063f7c618c11461054e57600080fd5b8063d3a8615c146104b0578063db2e21bc146104c3578063e3df7270146104cb578063e78ec42e146104d4578063ea9041e4146104e757600080fd5b8063a218141b11610115578063a218141b1461045d578063a2ba0bc714610466578063b3f02d381461046e578063b6b55f2514610481578063cc7a262e14610494578063ccd34cd5146104a757600080fd5b80638f6629151461040257806392e8990e1461040b5780639513997f146104185780639bdcecd11461042b578063a0b409051461044a57600080fd5b806350a0621d116101ea578063715018a6116101ae578063715018a6146103a85780637bfaa40c146103b057806380dc0672146103c3578063817b1cd2146103cb5780638ae39cac146103d45780638da5cb5b146103dd57600080fd5b806350a0621d14610372578063576e093b1461037b5780635bb06ead1461038e578063636bfbab1461039657806366fe9f8a1461039f57600080fd5b80632e1a7d4d1161023c5780632e1a7d4d1461031b5780633279beab1461032e578063392e53cd146103415780633f138d4b1461034e57806348cd4cb1146103615780634e71d92d1461036a57600080fd5b806301f8a97614610279578063054546941461028e578063083c6323146102b557806310f8097b146102cc5780631959a002146102df575b600080fd5b61028c610287366004611c6d565b610561565b005b6002546102a090610100900460ff1681565b60405190151581526020015b60405180910390f35b6102be60065481565b6040519081526020016102ac565b61028c6102da366004611c6d565b6105f0565b6103066102ed366004611b8c565b6012602052600090815260409020805460019091015482565b604080519283526020830191909152016102ac565b61028c610329366004611c6d565b61062a565b61028c61033c366004611c6d565b610796565b6004546102a09060ff1681565b61028c61035c366004611ba8565b6107d7565b6102be60075481565b61028c61090a565b6102be600b5481565b61028c610389366004611b8c565b6109e3565b6102be610b97565b6102be60035481565b6102be60095481565b61028c610bbd565b61028c6103be366004611c6d565b610bf3565b61028c610c56565b6102be600d5481565b6102be600a5481565b6000546001600160a01b03165b6040516001600160a01b0390911681526020016102ac565b6102be60055481565b6002546102a09060ff1681565b61028c610426366004611c9d565b610c86565b600c546104389060ff1681565b60405160ff90911681526020016102ac565b61028c610458366004611bef565b610de4565b6102be60085481565b61028c610ef6565b61028c61047c366004611c6d565b610fc1565b61028c61048f366004611c6d565b611034565b6011546103ea906001600160a01b031681565b6102be600e5481565b61028c6104be366004611c9d565b611225565b61028c611261565b6102be600f5481565b61028c6104e2366004611c6d565b611309565b61028c6104f5366004611c6d565b611338565b61028c610508366004611c0c565b611379565b61028c61051b366004611b8c565b61154d565b61028c61052e366004611c6d565b6115e5565b6102be610541366004611b8c565b611614565b6102be6116f5565b6010546103ea906001600160a01b031681565b6000546001600160a01b031633146105945760405162461bcd60e51b815260040161058b90611d58565b60405180910390fd5b60075443106105b55760405162461bcd60e51b815260040161058b90611d2e565b600a8190556040518181527f0c4d677eef92893ac7ec52faf8140fc6c851ab4736302b4f3a89dfb20696a0df9060200160405180910390a150565b6000546001600160a01b0316331461061a5760405162461bcd60e51b815260040161058b90611d58565b61062761047c438361170e565b50565b6002600154141561064d5760405162461bcd60e51b815260040161058b90611d8d565b600260015533600090815260126020526040902080548211156106b25760405162461bcd60e51b815260206004820152601b60248201527f416d6f756e7420746f20776974686472617720746f6f20686967680000000000604482015260640161058b565b6106ba611723565b60006106ef82600101546106e9600e546106e3600554876000015461178e90919063ffffffff16565b9061179a565b906117a6565b9050821561072d57815461070390846117a6565b825560115461071c906001600160a01b031633856117b2565b600d5461072990846117a6565b600d555b801561073c5761073c8161181a565b600e54600554835461075392916106e3919061178e565b600183015560405183815233907f884edad9ce6fa2440d8a54cc123490eb96d2768479d49ff9c7366125a94243649060200160405180910390a250506001805550565b6000546001600160a01b031633146107c05760405162461bcd60e51b815260040161058b90611d58565b601054610627906001600160a01b031633836117b2565b6000546001600160a01b031633146108015760405162461bcd60e51b815260040161058b90611d58565b6011546001600160a01b03838116911614156108585760405162461bcd60e51b815260206004820152601660248201527521b0b73737ba1031329039ba30b5b2b2103a37b5b2b760511b604482015260640161058b565b6010546001600160a01b03838116911614156108af5760405162461bcd60e51b815260206004820152601660248201527521b0b73737ba103132903932bbb0b932103a37b5b2b760511b604482015260640161058b565b6108c36001600160a01b03831633836117b2565b604080516001600160a01b0384168152602081018390527f74545154aac348a3eac92596bd1971957ca94795f4e954ec5f613b55fab7812991015b60405180910390a15050565b6002600154141561092d5760405162461bcd60e51b815260040161058b90611d8d565b6002600155336000908152601260205260409020610949611723565b8054156109c257600061097982600101546106e9600e546106e3600554876000015461178e90919063ffffffff16565b905080156109c05761098a8161181a565b60405181815233907f47cee97cb7acd717b3c0aa1435d004cd5b3c8c57d70dbceb4e4458bbd60e39d49060200160405180910390a25b505b600e5460055482546109d992916106e3919061178e565b6001918201558055565b6000546001600160a01b03163314610a0d5760405162461bcd60e51b815260040161058b90611d58565b6006544311610a5e5760405162461bcd60e51b815260206004820152601c60248201527f4572726f723a20506f6f6c206e6f742066696e69736865642079657400000000604482015260640161058b565b600d5415610aae5760405162461bcd60e51b815260206004820181905260248201527f4572726f723a20536f6d656f6e6520686173207374616b656420746f6b656e73604482015260640161058b565b6010546040516370a0823160e01b81523060048201526000916001600160a01b0316906370a082319060240160206040518083038186803b158015610af257600080fd5b505afa158015610b06573d6000803e3d6000fd5b505050506040513d601f19601f82011682018060405250810190610b2a9190611c85565b905060008111610b7c5760405162461bcd60e51b815260206004820152601960248201527f4572726f723a204e6f2072656d61696e696e672066756e647300000000000000604482015260640161058b565b601054610b93906001600160a01b031683836117b2565b5050565b600c54600090610bb890610baf9060ff16600a611e3f565b600a549061179a565b905090565b6000546001600160a01b03163314610be75760405162461bcd60e51b815260040161058b90611d58565b610bf1600061187f565b565b6000546001600160a01b03163314610c1d5760405162461bcd60e51b815260040161058b90611d58565b6007544310610c3e5760405162461bcd60e51b815260040161058b90611d2e565b600754610c4b908261170e565b600655610627610ef6565b6000546001600160a01b03163314610c805760405162461bcd60e51b815260040161058b90611d58565b43600655565b6000546001600160a01b03163314610cb05760405162461bcd60e51b815260040161058b90611d58565b6007544310610cd15760405162461bcd60e51b815260040161058b90611d2e565b808210610d375760405162461bcd60e51b815260206004820152602e60248201527f4e6577207374617274426c6f636b206d757374206265206c6f7765722074686160448201526d6e206e657720656e64426c6f636b60901b606482015260840161058b565b814310610d9f5760405162461bcd60e51b815260206004820152603060248201527f4e6577207374617274426c6f636b206d7573742062652068696768657220746860448201526f616e2063757272656e7420626c6f636b60801b606482015260840161058b565b60078290556006819055600882905560408051838152602081018390527f7cd0ab87d19036f3dfadadb232c78aa4879dda3f0c994a9d637532410ee2ce0691016108fe565b6000546001600160a01b03163314610e0e5760405162461bcd60e51b815260040161058b90611d58565b60025460ff16610e4e5760405162461bcd60e51b815260206004820152600b60248201526a135d5cdd081899481cd95d60aa1b604482015260640161058b565b8115610eaf576009548111610ea55760405162461bcd60e51b815260206004820152601860248201527f4e6577206c696d6974206d757374206265206869676865720000000000000000604482015260640161058b565b6009819055610ec3565b6002805460ff191683151517905560006009555b7f241f67ee5f41b7a5cabf911367329be7215900f602ebfc47f89dce2a6bcd847c6009546040516108fe91815260200190565b6000546001600160a01b03163314610f205760405162461bcd60e51b815260040161058b90611d58565b600d546010546040516370a0823160e01b8152306004820152600092610fa79290916001600160a01b03909116906370a082319060240160206040518083038186803b158015610f6f57600080fd5b505afa158015610f83573d6000803e3d6000fd5b505050506040513d601f19601f820116820180604052508101906106e99190611c85565b9050610fbb610fb46116f5565b829061179a565b600a5550565b6000546001600160a01b03163314610feb5760405162461bcd60e51b815260040161058b90611d58565b600754431061100c5760405162461bcd60e51b815260040161058b90611d2e565b60006110166116f5565b60078390559050611027828261170e565b6006555050600754600855565b600260015414156110575760405162461bcd60e51b815260040161058b90611d8d565b60026001819055336000908152601260205260409020905460ff16156110d557600954815461108790849061170e565b11156110d55760405162461bcd60e51b815260206004820152601760248201527f5573657220616d6f756e742061626f7665206c696d6974000000000000000000604482015260640161058b565b600254610100900460ff1615611143576003548210156111435760405162461bcd60e51b8152602060048201526024808201527f4465706f73697420616d6f756e74206e6f7420726561636820746865206d696e604482015263696d756d60e01b606482015260840161058b565b61114b611723565b80541561118e57600061117b82600101546106e9600e546106e3600554876000015461178e90919063ffffffff16565b9050801561118c5761118c8161181a565b505b81156111cb5780546111a0908361170e565b81556011546111ba906001600160a01b03163330856118cf565b600d546111c7908361170e565b600d555b600e5460055482546111e292916106e3919061178e565b600182015560405182815233907fe1fffcc4923d04b559f4d29a8bfc6cda04eb5b0d3c460751c2402c5c5cc9109c906020015b60405180910390a2505060018055565b6000546001600160a01b0316331461124f5760405162461bcd60e51b815260040161058b90611d58565b61125882610fc1565b610b9381610bf3565b600260015414156112845760405162461bcd60e51b815260040161058b90611d8d565b600260019081553360009081526012602052604081208054828255928101919091559080156112d5576011546112c4906001600160a01b031633836117b2565b600d546112d190826117a6565b600d555b815460405190815233907f5fafa99d0643513820be26656b45130b01e1c03062e1266bf36f88cbd3bd969590602001611215565b6000546001600160a01b031633146113335760405162461bcd60e51b815260040161058b90611d58565b600355565b6000546001600160a01b031633146113625760405162461bcd60e51b815260040161058b90611d58565b601054610627906001600160a01b031630836117b2565b60045460ff16156113c25760405162461bcd60e51b8152602060048201526013602482015272105b1c9958591e481a5b9a5d1a585b1a5e9959606a1b604482015260640161058b565b6004805460ff19166001179055601180546001600160a01b03808a166001600160a01b0319928316179092556010805492891692909116919091179055600a859055600784905560068390558115611427576002805460ff1916600117905560098290555b8015611442576002805461ff00191661010017905560038190555b601060009054906101000a90046001600160a01b03166001600160a01b031663313ce5676040518163ffffffff1660e01b815260040160206040518083038186803b15801561149057600080fd5b505afa1580156114a4573d6000803e3d6000fd5b505050506040513d601f19601f820116820180604052508101906114c89190611cbe565b600c805460ff191660ff929092169182179055601e81106115245760405162461bcd60e51b815260206004820152601660248201527504d75737420626520696e666572696f7220746f2033360541b604482015260640161058b565b61152f601e826117a6565b61153a90600a611e3f565b600e555050600754600855505050505050565b6000546001600160a01b031633146115775760405162461bcd60e51b815260040161058b90611d58565b6001600160a01b0381166115dc5760405162461bcd60e51b815260206004820152602660248201527f4f776e61626c653a206e6577206f776e657220697320746865207a65726f206160448201526564647265737360d01b606482015260840161058b565b6106278161187f565b6000546001600160a01b0316331461160f5760405162461bcd60e51b815260040161058b90611d58565b600b55565b6001600160a01b0381166000908152601260205260408120600d546008544311801561163f57508015155b156116c65760006116526008544361190d565b9050600061166b600a548361178e90919063ffffffff16565b9050600061169461168b856106e3600e548661178e90919063ffffffff16565b6005549061170e565b90506116bb85600101546106e9600e546106e3858a6000015461178e90919063ffffffff16565b979650505050505050565b6116ed82600101546106e9600e546106e3600554876000015461178e90919063ffffffff16565b949350505050565b6000610bb86007546006546117a690919063ffffffff16565b600061171a8284611dc4565b90505b92915050565b600854431161172e57565b600d548061173d575043600855565b600061174b6008544361190d565b90506000611764600a548361178e90919063ffffffff16565b905061178261168b846106e3600e548561178e90919063ffffffff16565b60055550504360085550565b600061171a8284611ee7565b600061171a8284611ddc565b600061171a8284611f06565b6040516001600160a01b03831660248201526044810182905261181590849063a9059cbb60e01b906064015b60408051601f198184030181529190526020810180516001600160e01b03166001600160e01b031990931692909217909152611947565b505050565b600b5461183857601054610627906001600160a01b031633836117b2565b8015610627576000600b54821161184f5781611853565b600b545b905061185f82826117a6565b601054909250611879906001600160a01b031633836117b2565b50611838565b600080546001600160a01b038381166001600160a01b0319831681178455604051919092169283917f8be0079c531659141344cd1fd0a4f28419497f9722a3daafe3b4186f6b6457e09190a35050565b6040516001600160a01b03808516602483015283166044820152606481018290526119079085906323b872dd60e01b906084016117de565b50505050565b600060065482116119295761192282846117a6565b905061171d565b600654831061193a5750600061171d565b60065461192290846117a6565b600061199c826040518060400160405280602081526020017f5361666545524332303a206c6f772d6c6576656c2063616c6c206661696c6564815250856001600160a01b0316611a199092919063ffffffff16565b80519091501561181557808060200190518101906119ba9190611bd3565b6118155760405162461bcd60e51b815260206004820152602a60248201527f5361666545524332303a204552433230206f7065726174696f6e20646964206e6044820152691bdd081cdd58d8d9595960b21b606482015260840161058b565b6060611a288484600085611a32565b90505b9392505050565b606082471015611a935760405162461bcd60e51b815260206004820152602660248201527f416464726573733a20696e73756666696369656e742062616c616e636520666f6044820152651c8818d85b1b60d21b606482015260840161058b565b6001600160a01b0385163b611aea5760405162461bcd60e51b815260206004820152601d60248201527f416464726573733a2063616c6c20746f206e6f6e2d636f6e7472616374000000604482015260640161058b565b600080866001600160a01b03168587604051611b069190611cdf565b60006040518083038185875af1925050503d8060008114611b43576040519150601f19603f3d011682016040523d82523d6000602084013e611b48565b606091505b50915091506116bb82828660608315611b62575081611a2b565b825115611b725782518084602001fd5b8160405162461bcd60e51b815260040161058b9190611cfb565b600060208284031215611b9d578081fd5b8135611a2b81611f5f565b60008060408385031215611bba578081fd5b8235611bc581611f5f565b946020939093013593505050565b600060208284031215611be4578081fd5b8151611a2b81611f74565b60008060408385031215611c01578182fd5b8235611bc581611f74565b600080600080600080600060e0888a031215611c26578283fd5b8735611c3181611f5f565b96506020880135611c4181611f5f565b96999698505050506040850135946060810135946080820135945060a0820135935060c0909101359150565b600060208284031215611c7e578081fd5b5035919050565b600060208284031215611c96578081fd5b5051919050565b60008060408385031215611caf578182fd5b50508035926020909101359150565b600060208284031215611ccf578081fd5b815160ff81168114611a2b578182fd5b60008251611cf1818460208701611f1d565b9190910192915050565b6020815260008251806020840152611d1a816040850160208701611f1d565b601f01601f19169190910160400192915050565b60208082526010908201526f141bdbdb081a185cc81cdd185c9d195960821b604082015260600190565b6020808252818101527f4f776e61626c653a2063616c6c6572206973206e6f7420746865206f776e6572604082015260600190565b6020808252601f908201527f5265656e7472616e637947756172643a207265656e7472616e742063616c6c00604082015260600190565b60008219821115611dd757611dd7611f49565b500190565b600082611df757634e487b7160e01b81526012600452602481fd5b500490565b600181815b80851115611e37578160001904821115611e1d57611e1d611f49565b80851615611e2a57918102915b93841c9390800290611e01565b509250929050565b600061171a8383600082611e555750600161171d565b81611e625750600061171d565b8160018114611e785760028114611e8257611e9e565b600191505061171d565b60ff841115611e9357611e93611f49565b50506001821b61171d565b5060208310610133831016604e8410600b8410161715611ec1575081810a61171d565b611ecb8383611dfc565b8060001904821115611edf57611edf611f49565b029392505050565b6000816000190483118215151615611f0157611f01611f49565b500290565b600082821015611f1857611f18611f49565b500390565b60005b83811015611f38578181015183820152602001611f20565b838111156119075750506000910152565b634e487b7160e01b600052601160045260246000fd5b6001600160a01b038116811461062757600080fd5b801515811461062757600080fdfea264697066735822122039f818990f2d06f24903835d7a3399ac465c05cbf578dae487f28171b60f05ec64736f6c63430008040033",
  "devdoc": {
    "kind": "dev",
    "methods": {
      "owner()": {
        "details": "Returns the address of the current owner."
      },
      "recoverWrongTokens(address,uint256)": {
        "details": "This function is only callable by admin.",
        "params": {
          "_tokenAddress": ": the address of the token to withdraw",
          "_tokenAmount": ": the number of tokens to withdraw"
        }
      },
      "renounceOwnership()": {
        "details": "Leaves the contract without owner. It will not be possible to call `onlyOwner` functions anymore. Can only be called by the current owner. NOTE: Renouncing ownership will leave the contract without an owner, thereby removing any functionality that is only available to the owner."
      },
      "transferOwnership(address)": {
        "details": "Transfers ownership of the contract to a new account (`newOwner`). Can only be called by the current owner."
      },
      "updateStartAndEndBlocks(uint256,uint256)": {
        "details": "This function is only callable by owner.",
        "params": {
          "_bonusEndBlock": ": the new end block",
          "_startBlock": ": the new start block"
        }
      }
    },
    "version": 1
  },
  "userdoc": {
    "kind": "user",
    "methods": {
      "recoverWrongTokens(address,uint256)": {
        "notice": "It allows the admin to recover wrong tokens sent to the contract"
      },
      "updateStartAndEndBlocks(uint256,uint256)": {
        "notice": "It allows the admin to update start and end blocks"
      }
    },
    "version": 1
  },
  "storageLayout": {
    "storage": [
      {
        "astId": 389,
        "contract": "contracts/GQStake.sol:GQStake",
        "label": "_owner",
        "offset": 0,
        "slot": "0",
        "type": "t_address"
      },
      {
        "astId": 497,
        "contract": "contracts/GQStake.sol:GQStake",
        "label": "_status",
        "offset": 0,
        "slot": "1",
        "type": "t_uint256"
      },
      {
        "astId": 3593,
        "contract": "contracts/GQStake.sol:GQStake",
        "label": "hasUserLimit",
        "offset": 0,
        "slot": "2",
        "type": "t_bool"
      },
      {
        "astId": 3595,
        "contract": "contracts/GQStake.sol:GQStake",
        "label": "hasDepositMin",
        "offset": 1,
        "slot": "2",
        "type": "t_bool"
      },
      {
        "astId": 3597,
        "contract": "contracts/GQStake.sol:GQStake",
        "label": "minimumDeposit",
        "offset": 0,
        "slot": "3",
        "type": "t_uint256"
      },
      {
        "astId": 3599,
        "contract": "contracts/GQStake.sol:GQStake",
        "label": "isInitialized",
        "offset": 0,
        "slot": "4",
        "type": "t_bool"
      },
      {
        "astId": 3601,
        "contract": "contracts/GQStake.sol:GQStake",
        "label": "accTokenPerShare",
        "offset": 0,
        "slot": "5",
        "type": "t_uint256"
      },
      {
        "astId": 3603,
        "contract": "contracts/GQStake.sol:GQStake",
        "label": "endBlock",
        "offset": 0,
        "slot": "6",
        "type": "t_uint256"
      },
      {
        "astId": 3605,
        "contract": "contracts/GQStake.sol:GQStake",
        "label": "startBlock",
        "offset": 0,
        "slot": "7",
        "type": "t_uint256"
      },
      {
        "astId": 3607,
        "contract": "contracts/GQStake.sol:GQStake",
        "label": "lastUpdateBlock",
        "offset": 0,
        "slot": "8",
        "type": "t_uint256"
      },
      {
        "astId": 3609,
        "contract": "contracts/GQStake.sol:GQStake",
        "label": "poolLimitPerUser",
        "offset": 0,
        "slot": "9",
        "type": "t_uint256"
      },
      {
        "astId": 3611,
        "contract": "contracts/GQStake.sol:GQStake",
        "label": "rewardPerBlock",
        "offset": 0,
        "slot": "10",
        "type": "t_uint256"
      },
      {
        "astId": 3614,
        "contract": "contracts/GQStake.sol:GQStake",
        "label": "rewardMaxTxAmount",
        "offset": 0,
        "slot": "11",
        "type": "t_uint256"
      },
      {
        "astId": 3616,
        "contract": "contracts/GQStake.sol:GQStake",
        "label": "rewardTokenDecimals",
        "offset": 0,
        "slot": "12",
        "type": "t_uint8"
      },
      {
        "astId": 3618,
        "contract": "contracts/GQStake.sol:GQStake",
        "label": "totalStaked",
        "offset": 0,
        "slot": "13",
        "type": "t_uint256"
      },
      {
        "astId": 3620,
        "contract": "contracts/GQStake.sol:GQStake",
        "label": "PRECISION_FACTOR",
        "offset": 0,
        "slot": "14",
        "type": "t_uint256"
      },
      {
        "astId": 3622,
        "contract": "contracts/GQStake.sol:GQStake",
        "label": "PRECISION_FACTOR_STAKED",
        "offset": 0,
        "slot": "15",
        "type": "t_uint256"
      },
      {
        "astId": 3625,
        "contract": "contracts/GQStake.sol:GQStake",
        "label": "rewardToken",
        "offset": 0,
        "slot": "16",
        "type": "t_contract(IERC20)1192"
      },
      {
        "astId": 3628,
        "contract": "contracts/GQStake.sol:GQStake",
        "label": "stakedToken",
        "offset": 0,
        "slot": "17",
        "type": "t_contract(IERC20)1192"
      },
      {
        "astId": 3633,
        "contract": "contracts/GQStake.sol:GQStake",
        "label": "userInfo",
        "offset": 0,
        "slot": "18",
        "type": "t_mapping(t_address,t_struct(UserInfo)3638_storage)"
      }
    ],
    "types": {
      "t_address": {
        "encoding": "inplace",
        "label": "address",
        "numberOfBytes": "20"
      },
      "t_bool": {
        "encoding": "inplace",
        "label": "bool",
        "numberOfBytes": "1"
      },
      "t_contract(IERC20)1192": {
        "encoding": "inplace",
        "label": "contract IERC20",
        "numberOfBytes": "20"
      },
      "t_mapping(t_address,t_struct(UserInfo)3638_storage)": {
        "encoding": "mapping",
        "key": "t_address",
        "label": "mapping(address => struct GQStake.UserInfo)",
        "numberOfBytes": "32",
        "value": "t_struct(UserInfo)3638_storage"
      },
      "t_struct(UserInfo)3638_storage": {
        "encoding": "inplace",
        "label": "struct GQStake.UserInfo",
        "members": [
          {
            "astId": 3635,
            "contract": "contracts/GQStake.sol:GQStake",
            "label": "amount",
            "offset": 0,
            "slot": "0",
            "type": "t_uint256"
          },
          {
            "astId": 3637,
            "contract": "contracts/GQStake.sol:GQStake",
            "label": "rewardDebt",
            "offset": 0,
            "slot": "1",
            "type": "t_uint256"
          }
        ],
        "numberOfBytes": "64"
      },
      "t_uint256": {
        "encoding": "inplace",
        "label": "uint256",
        "numberOfBytes": "32"
      },
      "t_uint8": {
        "encoding": "inplace",
        "label": "uint8",
        "numberOfBytes": "1"
      }
    }
  }
}