{
  "address": "0x16eC38A13525145F4e132E0Ef247c7e36bA90776",
  "abi": [
    {
      "inputs": [
        {
          "internalType": "contract IERC20",
          "name": "_stakedToken",
          "type": "address"
        },
        {
          "internalType": "contract IERC20",
          "name": "_rewardToken",
          "type": "address"
        },
        {
          "internalType": "uint256",
          "name": "_startBlock",
          "type": "uint256"
        },
        {
          "internalType": "uint256",
          "name": "_endBlock",
          "type": "uint256"
        },
        {
          "internalType": "uint256",
          "name": "_lockUpDuration",
          "type": "uint256"
        },
        {
          "internalType": "uint256",
          "name": "_withdrawFee",
          "type": "uint256"
        },
        {
          "internalType": "address",
          "name": "_feeAddress",
          "type": "address"
        }
      ],
      "stateMutability": "nonpayable",
      "type": "constructor"
    },
    {
      "anonymous": false,
      "inputs": [
        {
          "indexed": false,
          "internalType": "address",
          "name": "tokenRecovered",
          "type": "address"
        },
        {
          "indexed": false,
          "internalType": "uint256",
          "name": "amount",
          "type": "uint256"
        }
      ],
      "name": "AdminTokenRecovery",
      "type": "event"
    },
    {
      "anonymous": false,
      "inputs": [
        {
          "indexed": true,
          "internalType": "address",
          "name": "user",
          "type": "address"
        },
        {
          "indexed": false,
          "internalType": "uint256",
          "name": "amount",
          "type": "uint256"
        }
      ],
      "name": "Claim",
      "type": "event"
    },
    {
      "anonymous": false,
      "inputs": [
        {
          "indexed": true,
          "internalType": "address",
          "name": "user",
          "type": "address"
        },
        {
          "indexed": false,
          "internalType": "uint256",
          "name": "amount",
          "type": "uint256"
        }
      ],
      "name": "Deposit",
      "type": "event"
    },
    {
      "anonymous": false,
      "inputs": [
        {
          "indexed": true,
          "internalType": "address",
          "name": "user",
          "type": "address"
        },
        {
          "indexed": false,
          "internalType": "uint256",
          "name": "amount",
          "type": "uint256"
        }
      ],
      "name": "EmergencyWithdraw",
      "type": "event"
    },
    {
      "anonymous": false,
      "inputs": [
        {
          "indexed": false,
          "internalType": "uint256",
          "name": "endBlock",
          "type": "uint256"
        }
      ],
      "name": "NewEndBlock",
      "type": "event"
    },
    {
      "anonymous": false,
      "inputs": [
        {
          "indexed": false,
          "internalType": "uint256",
          "name": "lockUpDuration",
          "type": "uint256"
        }
      ],
      "name": "NewLockUpDuration",
      "type": "event"
    },
    {
      "anonymous": false,
      "inputs": [
        {
          "indexed": false,
          "internalType": "uint256",
          "name": "rewardPerBlock",
          "type": "uint256"
        }
      ],
      "name": "NewRewardPerBlock",
      "type": "event"
    },
    {
      "anonymous": false,
      "inputs": [
        {
          "indexed": false,
          "internalType": "uint256",
          "name": "startBlock",
          "type": "uint256"
        },
        {
          "indexed": false,
          "internalType": "uint256",
          "name": "endBlock",
          "type": "uint256"
        }
      ],
      "name": "NewStartAndEndBlocks",
      "type": "event"
    },
    {
      "anonymous": false,
      "inputs": [
        {
          "indexed": true,
          "internalType": "address",
          "name": "previousOwner",
          "type": "address"
        },
        {
          "indexed": true,
          "internalType": "address",
          "name": "newOwner",
          "type": "address"
        }
      ],
      "name": "OwnershipTransferred",
      "type": "event"
    },
    {
      "anonymous": false,
      "inputs": [
        {
          "indexed": false,
          "internalType": "uint256",
          "name": "blockNumber",
          "type": "uint256"
        }
      ],
      "name": "RewardsStop",
      "type": "event"
    },
    {
      "anonymous": false,
      "inputs": [
        {
          "indexed": true,
          "internalType": "address",
          "name": "user",
          "type": "address"
        },
        {
          "indexed": false,
          "internalType": "uint256",
          "name": "amount",
          "type": "uint256"
        }
      ],
      "name": "Withdraw",
      "type": "event"
    },
    {
      "inputs": [],
      "name": "PRECISION_FACTOR",
      "outputs": [
        {
          "internalType": "uint256",
          "name": "",
          "type": "uint256"
        }
      ],
      "stateMutability": "view",
      "type": "function"
    },
    {
      "inputs": [],
      "name": "accTokenPerShare",
      "outputs": [
        {
          "internalType": "uint256",
          "name": "",
          "type": "uint256"
        }
      ],
      "stateMutability": "view",
      "type": "function"
    },
    {
      "inputs": [],
      "name": "claim",
      "outputs": [],
      "stateMutability": "nonpayable",
      "type": "function"
    },
    {
      "inputs": [
        {
          "internalType": "uint256",
          "name": "_amount",
          "type": "uint256"
        }
      ],
      "name": "deposit",
      "outputs": [],
      "stateMutability": "nonpayable",
      "type": "function"
    },
    {
      "inputs": [
        {
          "internalType": "uint256",
          "name": "_amount",
          "type": "uint256"
        }
      ],
      "name": "depositRewardFunds",
      "outputs": [],
      "stateMutability": "nonpayable",
      "type": "function"
    },
    {
      "inputs": [
        {
          "internalType": "uint256",
          "name": "_amount",
          "type": "uint256"
        }
      ],
      "name": "emergencyRewardWithdraw",
      "outputs": [],
      "stateMutability": "nonpayable",
      "type": "function"
    },
    {
      "inputs": [],
      "name": "emergencyWithdraw",
      "outputs": [],
      "stateMutability": "nonpayable",
      "type": "function"
    },
    {
      "inputs": [],
      "name": "endBlock",
      "outputs": [
        {
          "internalType": "uint256",
          "name": "",
          "type": "uint256"
        }
      ],
      "stateMutability": "view",
      "type": "function"
    },
    {
      "inputs": [],
      "name": "feeAddress",
      "outputs": [
        {
          "internalType": "address",
          "name": "",
          "type": "address"
        }
      ],
      "stateMutability": "view",
      "type": "function"
    },
    {
      "inputs": [],
      "name": "lastUpdateBlock",
      "outputs": [
        {
          "internalType": "uint256",
          "name": "",
          "type": "uint256"
        }
      ],
      "stateMutability": "view",
      "type": "function"
    },
    {
      "inputs": [],
      "name": "lockUpDuration",
      "outputs": [
        {
          "internalType": "uint256",
          "name": "",
          "type": "uint256"
        }
      ],
      "stateMutability": "view",
      "type": "function"
    },
    {
      "inputs": [],
      "name": "owner",
      "outputs": [
        {
          "internalType": "address",
          "name": "",
          "type": "address"
        }
      ],
      "stateMutability": "view",
      "type": "function"
    },
    {
      "inputs": [
        {
          "internalType": "address",
          "name": "_user",
          "type": "address"
        }
      ],
      "name": "pendingReward",
      "outputs": [
        {
          "internalType": "uint256",
          "name": "",
          "type": "uint256"
        }
      ],
      "stateMutability": "view",
      "type": "function"
    },
    {
      "inputs": [],
      "name": "poolCalcRewardPerBlock",
      "outputs": [],
      "stateMutability": "nonpayable",
      "type": "function"
    },
    {
      "inputs": [
        {
          "internalType": "uint256",
          "name": "_durationBlocks",
          "type": "uint256"
        }
      ],
      "name": "poolSetDuration",
      "outputs": [],
      "stateMutability": "nonpayable",
      "type": "function"
    },
    {
      "inputs": [
        {
          "internalType": "uint256",
          "name": "_startBlock",
          "type": "uint256"
        }
      ],
      "name": "poolSetStart",
      "outputs": [],
      "stateMutability": "nonpayable",
      "type": "function"
    },
    {
      "inputs": [
        {
          "internalType": "uint256",
          "name": "_startBlock",
          "type": "uint256"
        },
        {
          "internalType": "uint256",
          "name": "_durationBlocks",
          "type": "uint256"
        }
      ],
      "name": "poolSetStartAndDuration",
      "outputs": [],
      "stateMutability": "nonpayable",
      "type": "function"
    },
    {
      "inputs": [
        {
          "internalType": "uint256",
          "name": "_blocks",
          "type": "uint256"
        }
      ],
      "name": "poolStartIn",
      "outputs": [],
      "stateMutability": "nonpayable",
      "type": "function"
    },
    {
      "inputs": [
        {
          "internalType": "address",
          "name": "_tokenAddress",
          "type": "address"
        },
        {
          "internalType": "uint256",
          "name": "_tokenAmount",
          "type": "uint256"
        }
      ],
      "name": "recoverWrongTokens",
      "outputs": [],
      "stateMutability": "nonpayable",
      "type": "function"
    },
    {
      "inputs": [],
      "name": "renounceOwnership",
      "outputs": [],
      "stateMutability": "nonpayable",
      "type": "function"
    },
    {
      "inputs": [],
      "name": "rewardDuration",
      "outputs": [
        {
          "internalType": "uint256",
          "name": "",
          "type": "uint256"
        }
      ],
      "stateMutability": "view",
      "type": "function"
    },
    {
      "inputs": [],
      "name": "rewardPerBlock",
      "outputs": [
        {
          "internalType": "uint256",
          "name": "",
          "type": "uint256"
        }
      ],
      "stateMutability": "view",
      "type": "function"
    },
    {
      "inputs": [],
      "name": "rewardPerBlockUI",
      "outputs": [
        {
          "internalType": "uint256",
          "name": "",
          "type": "uint256"
        }
      ],
      "stateMutability": "view",
      "type": "function"
    },
    {
      "inputs": [],
      "name": "rewardToken",
      "outputs": [
        {
          "internalType": "contract IERC20",
          "name": "",
          "type": "address"
        }
      ],
      "stateMutability": "view",
      "type": "function"
    },
    {
      "inputs": [],
      "name": "rewardTokenDecimals",
      "outputs": [
        {
          "internalType": "uint8",
          "name": "",
          "type": "uint8"
        }
      ],
      "stateMutability": "view",
      "type": "function"
    },
    {
      "inputs": [
        {
          "internalType": "uint256",
          "name": "_lockUpDuration",
          "type": "uint256"
        }
      ],
      "name": "setLockUpDuration",
      "outputs": [],
      "stateMutability": "nonpayable",
      "type": "function"
    },
    {
      "inputs": [],
      "name": "stakedToken",
      "outputs": [
        {
          "internalType": "contract IERC20",
          "name": "",
          "type": "address"
        }
      ],
      "stateMutability": "view",
      "type": "function"
    },
    {
      "inputs": [],
      "name": "startBlock",
      "outputs": [
        {
          "internalType": "uint256",
          "name": "",
          "type": "uint256"
        }
      ],
      "stateMutability": "view",
      "type": "function"
    },
    {
      "inputs": [],
      "name": "stopReward",
      "outputs": [],
      "stateMutability": "nonpayable",
      "type": "function"
    },
    {
      "inputs": [
        {
          "internalType": "address",
          "name": "newOwner",
          "type": "address"
        }
      ],
      "name": "transferOwnership",
      "outputs": [],
      "stateMutability": "nonpayable",
      "type": "function"
    },
    {
      "inputs": [
        {
          "internalType": "uint256",
          "name": "_rewardPerBlock",
          "type": "uint256"
        }
      ],
      "name": "updateRewardPerBlock",
      "outputs": [],
      "stateMutability": "nonpayable",
      "type": "function"
    },
    {
      "inputs": [
        {
          "internalType": "uint256",
          "name": "_startBlock",
          "type": "uint256"
        },
        {
          "internalType": "uint256",
          "name": "_bonusEndBlock",
          "type": "uint256"
        }
      ],
      "name": "updateStartAndEndBlocks",
      "outputs": [],
      "stateMutability": "nonpayable",
      "type": "function"
    },
    {
      "inputs": [
        {
          "internalType": "address",
          "name": "",
          "type": "address"
        }
      ],
      "name": "userInfo",
      "outputs": [
        {
          "internalType": "uint256",
          "name": "amount",
          "type": "uint256"
        },
        {
          "internalType": "uint256",
          "name": "rewardDebt",
          "type": "uint256"
        },
        {
          "internalType": "uint256",
          "name": "firstDeposit",
          "type": "uint256"
        }
      ],
      "stateMutability": "view",
      "type": "function"
    },
    {
      "inputs": [
        {
          "internalType": "uint256",
          "name": "_amount",
          "type": "uint256"
        }
      ],
      "name": "withdraw",
      "outputs": [],
      "stateMutability": "nonpayable",
      "type": "function"
    },
    {
      "inputs": [],
      "name": "withdrawFee",
      "outputs": [
        {
          "internalType": "uint256",
          "name": "",
          "type": "uint256"
        }
      ],
      "stateMutability": "view",
      "type": "function"
    },
    {
      "inputs": [
        {
          "internalType": "address",
          "name": "_to",
          "type": "address"
        }
      ],
      "name": "withdrawRemains",
      "outputs": [],
      "stateMutability": "nonpayable",
      "type": "function"
    }
  ],
  "transactionHash": "0x38b0bc9e3fcff84db87e77083f0353e04c159b737e6f388379725a66a1648091",
  "args": [
    "0x7a2f20758dA3228294e05f606B5a1613368fc0b9",
    "0xAF517e25f6C80789ED841C4A79E5d7F8803Edf05",
    14537386,
    23811317,
    7776000,
    500,
    "0x225D87f62928160CE060Bb0c119FC0Eb550d41E9"
  ],
  "numDeployments": 8,
  "solcInputHash": "eb08bd55e20946a1a2d4133c8f37f442",
  "bytecode": "0x60806040523480156200001157600080fd5b506040516200411d3803806200411d8339818101604052810190620000379190620003de565b620000576200004b6200029e60201b60201c565b620002a660201b60201c565b6001808190555086600c60006101000a81548173ffffffffffffffffffffffffffffffffffffffff021916908373ffffffffffffffffffffffffffffffffffffffff16021790555085600b60006101000a81548173ffffffffffffffffffffffffffffffffffffffff021916908373ffffffffffffffffffffffffffffffffffffffff1602179055508460048190555083600381905550826007819055508160088190555080600a60016101000a81548173ffffffffffffffffffffffffffffffffffffffff021916908373ffffffffffffffffffffffffffffffffffffffff160217905550600b60009054906101000a900473ffffffffffffffffffffffffffffffffffffffff1673ffffffffffffffffffffffffffffffffffffffff1663313ce5676040518163ffffffff1660e01b815260040160206040518083038186803b158015620001a657600080fd5b505afa158015620001bb573d6000803e3d6000fd5b505050506040513d601f19601f82011682018060405250810190620001e191906200048b565b600a60006101000a81548160ff021916908360ff1602179055506000600a60009054906101000a900460ff1660ff169050601e811062000258576040517f08c379a00000000000000000000000000000000000000000000000000000000081526004016200024f90620004de565b60405180910390fd5b6200027381601e6200036a60201b6200227a1790919060201c565b600a6200028191906200056c565b600981905550600454600581905550505050505050505062000810565b600033905090565b60008060009054906101000a900473ffffffffffffffffffffffffffffffffffffffff169050816000806101000a81548173ffffffffffffffffffffffffffffffffffffffff021916908373ffffffffffffffffffffffffffffffffffffffff1602179055508173ffffffffffffffffffffffffffffffffffffffff168173ffffffffffffffffffffffffffffffffffffffff167f8be0079c531659141344cd1fd0a4f28419497f9722a3daafe3b4186f6b6457e060405160405180910390a35050565b600081836200037a9190620006a9565b905092915050565b6000815190506200039381620007a8565b92915050565b600081519050620003aa81620007c2565b92915050565b600081519050620003c181620007dc565b92915050565b600081519050620003d881620007f6565b92915050565b600080600080600080600060e0888a031215620003fa57600080fd5b60006200040a8a828b0162000399565b97505060206200041d8a828b0162000399565b9650506040620004308a828b01620003b0565b9550506060620004438a828b01620003b0565b9450506080620004568a828b01620003b0565b93505060a0620004698a828b01620003b0565b92505060c06200047c8a828b0162000382565b91505092959891949750929550565b6000602082840312156200049e57600080fd5b6000620004ae84828501620003c7565b91505092915050565b6000620004c660168362000500565b9150620004d3826200077f565b602082019050919050565b60006020820190508181036000830152620004f981620004b7565b9050919050565b600082825260208201905092915050565b6000808291508390505b600185111562000563578086048111156200053b576200053a62000743565b5b60018516156200054b5780820291505b80810290506200055b8562000772565b94506200051b565b94509492505050565b600062000579826200072c565b915062000586836200072c565b9250620005b57fffffffffffffffffffffffffffffffffffffffffffffffffffffffffffffffff8484620005bd565b905092915050565b600082620005cf5760019050620006a2565b81620005df5760009050620006a2565b8160018114620005f85760028114620006035762000639565b6001915050620006a2565b60ff84111562000618576200061762000743565b5b8360020a91508482111562000632576200063162000743565b5b50620006a2565b5060208310610133831016604e8410600b8410161715620006735782820a9050838111156200066d576200066c62000743565b5b620006a2565b62000682848484600162000511565b925090508184048111156200069c576200069b62000743565b5b81810290505b9392505050565b6000620006b6826200072c565b9150620006c3836200072c565b925082821015620006d957620006d862000743565b5b828203905092915050565b6000620006f1826200070c565b9050919050565b60006200070582620006e4565b9050919050565b600073ffffffffffffffffffffffffffffffffffffffff82169050919050565b6000819050919050565b600060ff82169050919050565b7f4e487b7100000000000000000000000000000000000000000000000000000000600052601160045260246000fd5b60008160011c9050919050565b7f4d75737420626520696e666572696f7220746f20333000000000000000000000600082015250565b620007b381620006e4565b8114620007bf57600080fd5b50565b620007cd81620006f8565b8114620007d957600080fd5b50565b620007e7816200072c565b8114620007f357600080fd5b50565b620008018162000736565b81146200080d57600080fd5b50565b6138fd80620008206000396000f3fe608060405234801561001057600080fd5b506004361061021c5760003560e01c80638f66291511610125578063d3a8615c116100ad578063ea9041e41161007c578063ea9041e41461055b578063f2fde38b14610577578063f40f0f5214610593578063f520e7e5146105c3578063f7c618c1146105e15761021c565b8063d3a8615c146104fb578063db2e21bc14610517578063e1b2addc14610521578063e941fa781461053d5761021c565b8063a2ba0bc7116100f4578063a2ba0bc71461047d578063b3f02d3814610487578063b6b55f25146104a3578063cc7a262e146104bf578063ccd34cd5146104dd5761021c565b80638f662915146104075780639513997f146104255780639bdcecd114610441578063a218141b1461045f5761021c565b80634e71d92d116101a8578063715018a611610177578063715018a61461039b5780637bfaa40c146103a557806380dc0672146103c15780638ae39cac146103cb5780638da5cb5b146103e95761021c565b80634e71d92d14610339578063576e093b146103435780635bb06ead1461035f5780636aa662b51461037d5761021c565b80632e1a7d4d116101ef5780632e1a7d4d146102a95780633279beab146102c55780633f138d4b146102e157806341275358146102fd57806348cd4cb11461031b5761021c565b806301f8a97614610221578063083c63231461023d57806310f8097b1461025b5780631959a00214610277575b600080fd5b61023b60048036038101906102369190612af7565b6105ff565b005b610245610700565b60405161025291906130e7565b60405180910390f35b61027560048036038101906102709190612af7565b610706565b005b610291600480360381019061028c9190612a69565b6107a0565b6040516102a09392919061312b565b60405180910390f35b6102c360048036038101906102be9190612af7565b6107ca565b005b6102df60048036038101906102da9190612af7565b610b2e565b005b6102fb60048036038101906102f69190612a92565b610bfa565b005b610305610e00565b6040516103129190612e4f565b60405180910390f35b610323610e26565b60405161033091906130e7565b60405180910390f35b610341610e2c565b005b61035d60048036038101906103589190612a69565b610fbc565b005b6103676111bf565b60405161037491906130e7565b60405180910390f35b6103856111f9565b60405161039291906130e7565b60405180910390f35b6103a36111ff565b005b6103bf60048036038101906103ba9190612af7565b611287565b005b6103c96113a6565b005b6103d361142b565b6040516103e091906130e7565b60405180910390f35b6103f1611431565b6040516103fe9190612e4f565b60405180910390f35b61040f61145a565b60405161041c91906130e7565b60405180910390f35b61043f600480360381019061043a9190612b49565b611460565b005b6104496115f8565b6040516104569190613162565b60405180910390f35b61046761160b565b60405161047491906130e7565b60405180910390f35b610485611611565b005b6104a1600480360381019061049c9190612af7565b61175f565b005b6104bd60048036038101906104b89190612af7565b611897565b005b6104c7611ac0565b6040516104d49190612eca565b60405180910390f35b6104e5611ae6565b6040516104f291906130e7565b60405180910390f35b61051560048036038101906105109190612b49565b611aec565b005b61051f611b7e565b005b61053b60048036038101906105369190612af7565b611da1565b005b610545611e60565b60405161055291906130e7565b60405180910390f35b61057560048036038101906105709190612af7565b611e66565b005b610591600480360381019061058c9190612a69565b611f32565b005b6105ad60048036038101906105a89190612a69565b61202a565b6040516105ba91906130e7565b60405180910390f35b6105cb612236565b6040516105d891906130e7565b60405180910390f35b6105e9612254565b6040516105f69190612eca565b60405180910390f35b610607612290565b73ffffffffffffffffffffffffffffffffffffffff16610625611431565b73ffffffffffffffffffffffffffffffffffffffff161461067b576040517f08c379a000000000000000000000000000000000000000000000000000000000815260040161067290613007565b60405180910390fd5b60045443106106bf576040517f08c379a00000000000000000000000000000000000000000000000000000000081526004016106b690612f47565b60405180910390fd5b806006819055507f0c4d677eef92893ac7ec52faf8140fc6c851ab4736302b4f3a89dfb20696a0df816040516106f591906130e7565b60405180910390a150565b60035481565b61070e612290565b73ffffffffffffffffffffffffffffffffffffffff1661072c611431565b73ffffffffffffffffffffffffffffffffffffffff1614610782576040517f08c379a000000000000000000000000000000000000000000000000000000000815260040161077990613007565b60405180910390fd5b61079d610798824361229890919063ffffffff16565b61175f565b50565b600d6020528060005260406000206000915090508060000154908060010154908060020154905083565b60026001541415610810576040517f08c379a0000000000000000000000000000000000000000000000000000000008152600401610807906130c7565b60405180910390fd5b60026001819055506000811161085b576040517f08c379a000000000000000000000000000000000000000000000000000000000815260040161085290612fc7565b60405180910390fd5b6000600d60003373ffffffffffffffffffffffffffffffffffffffff1673ffffffffffffffffffffffffffffffffffffffff168152602001908152602001600020905081816000015410156108e5576040517f08c379a00000000000000000000000000000000000000000000000000000000081526004016108dc90613047565b60405180910390fd5b6108ed6122ae565b6000610932826001015461092460095461091660025487600001546123f890919063ffffffff16565b61240e90919063ffffffff16565b61227a90919063ffffffff16565b905061094b83836000015461227a90919063ffffffff16565b82600001819055506000839050600754836002015461096a91906131af565b421015610a1d57600061099c61271061098e600854856123f890919063ffffffff16565b61240e90919063ffffffff16565b9050610a0d600a60019054906101000a900473ffffffffffffffffffffffffffffffffffffffff1682600c60009054906101000a900473ffffffffffffffffffffffffffffffffffffffff1673ffffffffffffffffffffffffffffffffffffffff166124249092919063ffffffff16565b8082610a199190613401565b9150505b610a6a3382600c60009054906101000a900473ffffffffffffffffffffffffffffffffffffffff1673ffffffffffffffffffffffffffffffffffffffff166124249092919063ffffffff16565b6000836002015414610a80578260020154610a82565b425b83600201819055506000821115610a9e57610a9d33836124aa565b5b610acb600954610abd60025486600001546123f890919063ffffffff16565b61240e90919063ffffffff16565b83600101819055503373ffffffffffffffffffffffffffffffffffffffff167f884edad9ce6fa2440d8a54cc123490eb96d2768479d49ff9c7366125a942436485604051610b1991906130e7565b60405180910390a25050506001808190555050565b610b36612290565b73ffffffffffffffffffffffffffffffffffffffff16610b54611431565b73ffffffffffffffffffffffffffffffffffffffff1614610baa576040517f08c379a0000000000000000000000000000000000000000000000000000000008152600401610ba190613007565b60405180910390fd5b610bf73382600b60009054906101000a900473ffffffffffffffffffffffffffffffffffffffff1673ffffffffffffffffffffffffffffffffffffffff166124249092919063ffffffff16565b50565b610c02612290565b73ffffffffffffffffffffffffffffffffffffffff16610c20611431565b73ffffffffffffffffffffffffffffffffffffffff1614610c76576040517f08c379a0000000000000000000000000000000000000000000000000000000008152600401610c6d90613007565b60405180910390fd5b600c60009054906101000a900473ffffffffffffffffffffffffffffffffffffffff1673ffffffffffffffffffffffffffffffffffffffff168273ffffffffffffffffffffffffffffffffffffffff161415610d07576040517f08c379a0000000000000000000000000000000000000000000000000000000008152600401610cfe90613087565b60405180910390fd5b600b60009054906101000a900473ffffffffffffffffffffffffffffffffffffffff1673ffffffffffffffffffffffffffffffffffffffff168273ffffffffffffffffffffffffffffffffffffffff161415610d98576040517f08c379a0000000000000000000000000000000000000000000000000000000008152600401610d8f90613027565b60405180910390fd5b610dc333828473ffffffffffffffffffffffffffffffffffffffff166124249092919063ffffffff16565b7f74545154aac348a3eac92596bd1971957ca94795f4e954ec5f613b55fab781298282604051610df4929190612ea1565b60405180910390a15050565b600a60019054906101000a900473ffffffffffffffffffffffffffffffffffffffff1681565b60045481565b60026001541415610e72576040517f08c379a0000000000000000000000000000000000000000000000000000000008152600401610e69906130c7565b60405180910390fd5b60026001819055506000600d60003373ffffffffffffffffffffffffffffffffffffffff1673ffffffffffffffffffffffffffffffffffffffff1681526020019081526020016000209050610ec56122ae565b600081600001541115610f7d576000610f178260010154610f09600954610efb60025487600001546123f890919063ffffffff16565b61240e90919063ffffffff16565b61227a90919063ffffffff16565b90506000811115610f7b57610f2c33826124aa565b3373ffffffffffffffffffffffffffffffffffffffff167f47cee97cb7acd717b3c0aa1435d004cd5b3c8c57d70dbceb4e4458bbd60e39d482604051610f7291906130e7565b60405180910390a25b505b610faa600954610f9c60025484600001546123f890919063ffffffff16565b61240e90919063ffffffff16565b81600101819055505060018081905550565b610fc4612290565b73ffffffffffffffffffffffffffffffffffffffff16610fe2611431565b73ffffffffffffffffffffffffffffffffffffffff1614611038576040517f08c379a000000000000000000000000000000000000000000000000000000000815260040161102f90613007565b60405180910390fd5b600354431161107c576040517f08c379a000000000000000000000000000000000000000000000000000000000815260040161107390612f27565b60405180910390fd5b6000600b60009054906101000a900473ffffffffffffffffffffffffffffffffffffffff1673ffffffffffffffffffffffffffffffffffffffff166370a08231306040518263ffffffff1660e01b81526004016110d99190612e4f565b60206040518083038186803b1580156110f157600080fd5b505afa158015611105573d6000803e3d6000fd5b505050506040513d601f19601f820116820180604052508101906111299190612b20565b90506000811161116e576040517f08c379a000000000000000000000000000000000000000000000000000000000815260040161116590612fa7565b60405180910390fd5b6111bb8282600b60009054906101000a900473ffffffffffffffffffffffffffffffffffffffff1673ffffffffffffffffffffffffffffffffffffffff166124249092919063ffffffff16565b5050565b60006111f4600a60009054906101000a900460ff1660ff16600a6111e39190613289565b60065461240e90919063ffffffff16565b905090565b60075481565b611207612290565b73ffffffffffffffffffffffffffffffffffffffff16611225611431565b73ffffffffffffffffffffffffffffffffffffffff161461127b576040517f08c379a000000000000000000000000000000000000000000000000000000000815260040161127290613007565b60405180910390fd5b6112856000612606565b565b61128f612290565b73ffffffffffffffffffffffffffffffffffffffff166112ad611431565b73ffffffffffffffffffffffffffffffffffffffff1614611303576040517f08c379a00000000000000000000000000000000000000000000000000000000081526004016112fa90613007565b60405180910390fd5b6004544310611347576040517f08c379a000000000000000000000000000000000000000000000000000000000815260040161133e90612f47565b60405180910390fd5b61135c8160045461229890919063ffffffff16565b60038190555061136a611611565b7f55baa248360bce74a89304071ca6e882f61d2226c15dde53a4ec1e05af523d9260035460405161139b91906130e7565b60405180910390a150565b6113ae612290565b73ffffffffffffffffffffffffffffffffffffffff166113cc611431565b73ffffffffffffffffffffffffffffffffffffffff1614611422576040517f08c379a000000000000000000000000000000000000000000000000000000000815260040161141990613007565b60405180910390fd5b43600381905550565b60065481565b60008060009054906101000a900473ffffffffffffffffffffffffffffffffffffffff16905090565b60025481565b611468612290565b73ffffffffffffffffffffffffffffffffffffffff16611486611431565b73ffffffffffffffffffffffffffffffffffffffff16146114dc576040517f08c379a00000000000000000000000000000000000000000000000000000000081526004016114d390613007565b60405180910390fd5b6004544310611520576040517f08c379a000000000000000000000000000000000000000000000000000000000815260040161151790612f47565b60405180910390fd5b808210611562576040517f08c379a000000000000000000000000000000000000000000000000000000000815260040161155990612f67565b60405180910390fd5b8143106115a4576040517f08c379a000000000000000000000000000000000000000000000000000000000815260040161159b90612fe7565b60405180910390fd5b81600481905550806003819055506004546005819055507f7cd0ab87d19036f3dfadadb232c78aa4879dda3f0c994a9d637532410ee2ce0682826040516115ec929190613102565b60405180910390a15050565b600a60009054906101000a900460ff1681565b60055481565b611619612290565b73ffffffffffffffffffffffffffffffffffffffff16611637611431565b73ffffffffffffffffffffffffffffffffffffffff161461168d576040517f08c379a000000000000000000000000000000000000000000000000000000000815260040161168490613007565b60405180910390fd5b6000600b60009054906101000a900473ffffffffffffffffffffffffffffffffffffffff1673ffffffffffffffffffffffffffffffffffffffff166370a08231306040518263ffffffff1660e01b81526004016116ea9190612e4f565b60206040518083038186803b15801561170257600080fd5b505afa158015611716573d6000803e3d6000fd5b505050506040513d601f19601f8201168201806040525081019061173a9190612b20565b9050611756611747612236565b8261240e90919063ffffffff16565b60068190555050565b611767612290565b73ffffffffffffffffffffffffffffffffffffffff16611785611431565b73ffffffffffffffffffffffffffffffffffffffff16146117db576040517f08c379a00000000000000000000000000000000000000000000000000000000081526004016117d290613007565b60405180910390fd5b600454431061181f576040517f08c379a000000000000000000000000000000000000000000000000000000000815260040161181690612f47565b60405180910390fd5b6000611829612236565b9050816004819055506118478160045461229890919063ffffffff16565b6003819055506004546005819055507f7cd0ab87d19036f3dfadadb232c78aa4879dda3f0c994a9d637532410ee2ce0660045460035460405161188b929190613102565b60405180910390a15050565b600260015414156118dd576040517f08c379a00000000000000000000000000000000000000000000000000000000081526004016118d4906130c7565b60405180910390fd5b60026001819055506000600d60003373ffffffffffffffffffffffffffffffffffffffff1673ffffffffffffffffffffffffffffffffffffffff16815260200190815260200160002090506119306122ae565b60008160000154111561199a576000611982826001015461197460095461196660025487600001546123f890919063ffffffff16565b61240e90919063ffffffff16565b61227a90919063ffffffff16565b905060008111156119985761199733826124aa565b5b505b6000821115611a32576119ba82826000015461229890919063ffffffff16565b8160000181905550611a11333084600c60009054906101000a900473ffffffffffffffffffffffffffffffffffffffff1673ffffffffffffffffffffffffffffffffffffffff166126ca909392919063ffffffff16565b6000816002015414611a27578060020154611a29565b425b81600201819055505b611a5f600954611a5160025484600001546123f890919063ffffffff16565b61240e90919063ffffffff16565b81600101819055503373ffffffffffffffffffffffffffffffffffffffff167fe1fffcc4923d04b559f4d29a8bfc6cda04eb5b0d3c460751c2402c5c5cc9109c83604051611aad91906130e7565b60405180910390a2506001808190555050565b600c60009054906101000a900473ffffffffffffffffffffffffffffffffffffffff1681565b60095481565b611af4612290565b73ffffffffffffffffffffffffffffffffffffffff16611b12611431565b73ffffffffffffffffffffffffffffffffffffffff1614611b68576040517f08c379a0000000000000000000000000000000000000000000000000000000008152600401611b5f90613007565b60405180910390fd5b611b718261175f565b611b7a81611287565b5050565b60026001541415611bc4576040517f08c379a0000000000000000000000000000000000000000000000000000000008152600401611bbb906130c7565b60405180910390fd5b60026001819055506000600d60003373ffffffffffffffffffffffffffffffffffffffff1673ffffffffffffffffffffffffffffffffffffffff168152602001908152602001600020905060008160000154905060008260000181905550600082600101819055506000811115611d48576007548260020154611c4791906131af565b421015611cfa576000611c79612710611c6b600854856123f890919063ffffffff16565b61240e90919063ffffffff16565b9050611cea600a60019054906101000a900473ffffffffffffffffffffffffffffffffffffffff1682600c60009054906101000a900473ffffffffffffffffffffffffffffffffffffffff1673ffffffffffffffffffffffffffffffffffffffff166124249092919063ffffffff16565b8082611cf69190613401565b9150505b611d473382600c60009054906101000a900473ffffffffffffffffffffffffffffffffffffffff1673ffffffffffffffffffffffffffffffffffffffff166124249092919063ffffffff16565b5b3373ffffffffffffffffffffffffffffffffffffffff167f5fafa99d0643513820be26656b45130b01e1c03062e1266bf36f88cbd3bd969582604051611d8e91906130e7565b60405180910390a2505060018081905550565b611da9612290565b73ffffffffffffffffffffffffffffffffffffffff16611dc7611431565b73ffffffffffffffffffffffffffffffffffffffff1614611e1d576040517f08c379a0000000000000000000000000000000000000000000000000000000008152600401611e1490613007565b60405180910390fd5b806007819055507fd2a4f919593bfa0565c404bb5e42080750d07eedb9dfa9907c22be9e29c02a98600754604051611e5591906130e7565b60405180910390a150565b60085481565b611e6e612290565b73ffffffffffffffffffffffffffffffffffffffff16611e8c611431565b73ffffffffffffffffffffffffffffffffffffffff1614611ee2576040517f08c379a0000000000000000000000000000000000000000000000000000000008152600401611ed990613007565b60405180910390fd5b611f2f3082600b60009054906101000a900473ffffffffffffffffffffffffffffffffffffffff1673ffffffffffffffffffffffffffffffffffffffff166124249092919063ffffffff16565b50565b611f3a612290565b73ffffffffffffffffffffffffffffffffffffffff16611f58611431565b73ffffffffffffffffffffffffffffffffffffffff1614611fae576040517f08c379a0000000000000000000000000000000000000000000000000000000008152600401611fa590613007565b60405180910390fd5b600073ffffffffffffffffffffffffffffffffffffffff168173ffffffffffffffffffffffffffffffffffffffff16141561201e576040517f08c379a000000000000000000000000000000000000000000000000000000000815260040161201590612f07565b60405180910390fd5b61202781612606565b50565b600080600d60008473ffffffffffffffffffffffffffffffffffffffff1673ffffffffffffffffffffffffffffffffffffffff16815260200190815260200160002090506000600c60009054906101000a900473ffffffffffffffffffffffffffffffffffffffff1673ffffffffffffffffffffffffffffffffffffffff166370a08231306040518263ffffffff1660e01b81526004016120cb9190612e4f565b60206040518083038186803b1580156120e357600080fd5b505afa1580156120f7573d6000803e3d6000fd5b505050506040513d601f19601f8201168201806040525081019061211b9190612b20565b90506005544311801561212f575060008114155b156121e957600061214260055443612753565b9050600061215b600654836123f890919063ffffffff16565b9050600061219a6121898561217b600954866123f890919063ffffffff16565b61240e90919063ffffffff16565b60025461229890919063ffffffff16565b90506121dd85600101546121cf6009546121c1858a600001546123f890919063ffffffff16565b61240e90919063ffffffff16565b61227a90919063ffffffff16565b95505050505050612231565b61222c826001015461221e60095461221060025487600001546123f890919063ffffffff16565b61240e90919063ffffffff16565b61227a90919063ffffffff16565b925050505b919050565b600061224f60045460035461227a90919063ffffffff16565b905090565b600b60009054906101000a900473ffffffffffffffffffffffffffffffffffffffff1681565b600081836122889190613401565b905092915050565b600033905090565b600081836122a691906131af565b905092915050565b60055443116122bc576123f6565b6000600c60009054906101000a900473ffffffffffffffffffffffffffffffffffffffff1673ffffffffffffffffffffffffffffffffffffffff166370a08231306040518263ffffffff1660e01b81526004016123199190612e4f565b60206040518083038186803b15801561233157600080fd5b505afa158015612345573d6000803e3d6000fd5b505050506040513d601f19601f820116820180604052508101906123699190612b20565b905060008114156123815743600581905550506123f6565b600061238f60055443612753565b905060006123a8600654836123f890919063ffffffff16565b90506123e56123d4846123c6600954856123f890919063ffffffff16565b61240e90919063ffffffff16565b60025461229890919063ffffffff16565b600281905550436005819055505050505b565b6000818361240691906133a7565b905092915050565b6000818361241c9190613205565b905092915050565b6124a58363a9059cbb60e01b8484604051602401612443929190612ea1565b604051602081830303815290604052907bffffffffffffffffffffffffffffffffffffffffffffffffffffffff19166020820180517bffffffffffffffffffffffffffffffffffffffffffffffffffffffff83818316178352505050506127a8565b505050565b6000600b60009054906101000a900473ffffffffffffffffffffffffffffffffffffffff1673ffffffffffffffffffffffffffffffffffffffff166370a08231306040518263ffffffff1660e01b81526004016125079190612e4f565b60206040518083038186803b15801561251f57600080fd5b505afa158015612533573d6000803e3d6000fd5b505050506040513d601f19601f820116820180604052508101906125579190612b20565b9050808211156125b3576125ae8382600b60009054906101000a900473ffffffffffffffffffffffffffffffffffffffff1673ffffffffffffffffffffffffffffffffffffffff166124249092919063ffffffff16565b612601565b6126008383600b60009054906101000a900473ffffffffffffffffffffffffffffffffffffffff1673ffffffffffffffffffffffffffffffffffffffff166124249092919063ffffffff16565b5b505050565b60008060009054906101000a900473ffffffffffffffffffffffffffffffffffffffff169050816000806101000a81548173ffffffffffffffffffffffffffffffffffffffff021916908373ffffffffffffffffffffffffffffffffffffffff1602179055508173ffffffffffffffffffffffffffffffffffffffff168173ffffffffffffffffffffffffffffffffffffffff167f8be0079c531659141344cd1fd0a4f28419497f9722a3daafe3b4186f6b6457e060405160405180910390a35050565b61274d846323b872dd60e01b8585856040516024016126eb93929190612e6a565b604051602081830303815290604052907bffffffffffffffffffffffffffffffffffffffffffffffffffffffff19166020820180517bffffffffffffffffffffffffffffffffffffffffffffffffffffffff83818316178352505050506127a8565b50505050565b6000600354821161277857612771838361227a90919063ffffffff16565b90506127a2565b600354831061278a57600090506127a2565b61279f8360035461227a90919063ffffffff16565b90505b92915050565b600061280a826040518060400160405280602081526020017f5361666545524332303a206c6f772d6c6576656c2063616c6c206661696c65648152508573ffffffffffffffffffffffffffffffffffffffff1661286f9092919063ffffffff16565b905060008151111561286a578080602001905181019061282a9190612ace565b612869576040517f08c379a0000000000000000000000000000000000000000000000000000000008152600401612860906130a7565b60405180910390fd5b5b505050565b606061287e8484600085612887565b90509392505050565b6060824710156128cc576040517f08c379a00000000000000000000000000000000000000000000000000000000081526004016128c390612f87565b60405180910390fd5b6128d58561299b565b612914576040517f08c379a000000000000000000000000000000000000000000000000000000000815260040161290b90613067565b60405180910390fd5b6000808673ffffffffffffffffffffffffffffffffffffffff16858760405161293d9190612e38565b60006040518083038185875af1925050503d806000811461297a576040519150601f19603f3d011682016040523d82523d6000602084013e61297f565b606091505b509150915061298f8282866129ae565b92505050949350505050565b600080823b905060008111915050919050565b606083156129be57829050612a0e565b6000835111156129d15782518084602001fd5b816040517f08c379a0000000000000000000000000000000000000000000000000000000008152600401612a059190612ee5565b60405180910390fd5b9392505050565b600081359050612a2481613882565b92915050565b600081519050612a3981613899565b92915050565b600081359050612a4e816138b0565b92915050565b600081519050612a63816138b0565b92915050565b600060208284031215612a7b57600080fd5b6000612a8984828501612a15565b91505092915050565b60008060408385031215612aa557600080fd5b6000612ab385828601612a15565b9250506020612ac485828601612a3f565b9150509250929050565b600060208284031215612ae057600080fd5b6000612aee84828501612a2a565b91505092915050565b600060208284031215612b0957600080fd5b6000612b1784828501612a3f565b91505092915050565b600060208284031215612b3257600080fd5b6000612b4084828501612a54565b91505092915050565b60008060408385031215612b5c57600080fd5b6000612b6a85828601612a3f565b9250506020612b7b85828601612a3f565b9150509250929050565b612b8e81613435565b82525050565b6000612b9f8261317d565b612ba98185613193565b9350612bb98185602086016134ae565b80840191505092915050565b612bce8161348a565b82525050565b6000612bdf82613188565b612be9818561319e565b9350612bf98185602086016134ae565b612c028161353f565b840191505092915050565b6000612c1a60268361319e565b9150612c258261355d565b604082019050919050565b6000612c3d601c8361319e565b9150612c48826135ac565b602082019050919050565b6000612c6060108361319e565b9150612c6b826135d5565b602082019050919050565b6000612c83602e8361319e565b9150612c8e826135fe565b604082019050919050565b6000612ca660268361319e565b9150612cb18261364d565b604082019050919050565b6000612cc960198361319e565b9150612cd48261369c565b602082019050919050565b6000612cec60158361319e565b9150612cf7826136c5565b602082019050919050565b6000612d0f60308361319e565b9150612d1a826136ee565b604082019050919050565b6000612d3260208361319e565b9150612d3d8261373d565b602082019050919050565b6000612d5560168361319e565b9150612d6082613766565b602082019050919050565b6000612d78601b8361319e565b9150612d838261378f565b602082019050919050565b6000612d9b601d8361319e565b9150612da6826137b8565b602082019050919050565b6000612dbe60168361319e565b9150612dc9826137e1565b602082019050919050565b6000612de1602a8361319e565b9150612dec8261380a565b604082019050919050565b6000612e04601f8361319e565b9150612e0f82613859565b602082019050919050565b612e2381613473565b82525050565b612e328161347d565b82525050565b6000612e448284612b94565b915081905092915050565b6000602082019050612e646000830184612b85565b92915050565b6000606082019050612e7f6000830186612b85565b612e8c6020830185612b85565b612e996040830184612e1a565b949350505050565b6000604082019050612eb66000830185612b85565b612ec36020830184612e1a565b9392505050565b6000602082019050612edf6000830184612bc5565b92915050565b60006020820190508181036000830152612eff8184612bd4565b905092915050565b60006020820190508181036000830152612f2081612c0d565b9050919050565b60006020820190508181036000830152612f4081612c30565b9050919050565b60006020820190508181036000830152612f6081612c53565b9050919050565b60006020820190508181036000830152612f8081612c76565b9050919050565b60006020820190508181036000830152612fa081612c99565b9050919050565b60006020820190508181036000830152612fc081612cbc565b9050919050565b60006020820190508181036000830152612fe081612cdf565b9050919050565b6000602082019050818103600083015261300081612d02565b9050919050565b6000602082019050818103600083015261302081612d25565b9050919050565b6000602082019050818103600083015261304081612d48565b9050919050565b6000602082019050818103600083015261306081612d6b565b9050919050565b6000602082019050818103600083015261308081612d8e565b9050919050565b600060208201905081810360008301526130a081612db1565b9050919050565b600060208201905081810360008301526130c081612dd4565b9050919050565b600060208201905081810360008301526130e081612df7565b9050919050565b60006020820190506130fc6000830184612e1a565b92915050565b60006040820190506131176000830185612e1a565b6131246020830184612e1a565b9392505050565b60006060820190506131406000830186612e1a565b61314d6020830185612e1a565b61315a6040830184612e1a565b949350505050565b60006020820190506131776000830184612e29565b92915050565b600081519050919050565b600081519050919050565b600081905092915050565b600082825260208201905092915050565b60006131ba82613473565b91506131c583613473565b9250827fffffffffffffffffffffffffffffffffffffffffffffffffffffffffffffffff038211156131fa576131f96134e1565b5b828201905092915050565b600061321082613473565b915061321b83613473565b92508261322b5761322a613510565b5b828204905092915050565b6000808291508390505b60018511156132805780860481111561325c5761325b6134e1565b5b600185161561326b5780820291505b808102905061327985613550565b9450613240565b94509492505050565b600061329482613473565b915061329f83613473565b92506132cc7fffffffffffffffffffffffffffffffffffffffffffffffffffffffffffffffff84846132d4565b905092915050565b6000826132e457600190506133a0565b816132f257600090506133a0565b8160018114613308576002811461331257613341565b60019150506133a0565b60ff841115613324576133236134e1565b5b8360020a91508482111561333b5761333a6134e1565b5b506133a0565b5060208310610133831016604e8410600b84101617156133765782820a905083811115613371576133706134e1565b5b6133a0565b6133838484846001613236565b9250905081840481111561339a576133996134e1565b5b81810290505b9392505050565b60006133b282613473565b91506133bd83613473565b9250817fffffffffffffffffffffffffffffffffffffffffffffffffffffffffffffffff04831182151516156133f6576133f56134e1565b5b828202905092915050565b600061340c82613473565b915061341783613473565b92508282101561342a576134296134e1565b5b828203905092915050565b600061344082613453565b9050919050565b60008115159050919050565b600073ffffffffffffffffffffffffffffffffffffffff82169050919050565b6000819050919050565b600060ff82169050919050565b60006134958261349c565b9050919050565b60006134a782613453565b9050919050565b60005b838110156134cc5780820151818401526020810190506134b1565b838111156134db576000848401525b50505050565b7f4e487b7100000000000000000000000000000000000000000000000000000000600052601160045260246000fd5b7f4e487b7100000000000000000000000000000000000000000000000000000000600052601260045260246000fd5b6000601f19601f8301169050919050565b60008160011c9050919050565b7f4f776e61626c653a206e6577206f776e657220697320746865207a65726f206160008201527f6464726573730000000000000000000000000000000000000000000000000000602082015250565b7f4572726f723a20506f6f6c206e6f742066696e69736865642079657400000000600082015250565b7f506f6f6c20686173207374617274656400000000000000000000000000000000600082015250565b7f4e6577207374617274426c6f636b206d757374206265206c6f7765722074686160008201527f6e206e657720656e64426c6f636b000000000000000000000000000000000000602082015250565b7f416464726573733a20696e73756666696369656e742062616c616e636520666f60008201527f722063616c6c0000000000000000000000000000000000000000000000000000602082015250565b7f4572726f723a204e6f2072656d61696e696e672066756e647300000000000000600082015250565b7f4572726f723a20496e76616c696420616d6f756e740000000000000000000000600082015250565b7f4e6577207374617274426c6f636b206d7573742062652068696768657220746860008201527f616e2063757272656e7420626c6f636b00000000000000000000000000000000602082015250565b7f4f776e61626c653a2063616c6c6572206973206e6f7420746865206f776e6572600082015250565b7f43616e6e6f742062652072657761726420746f6b656e00000000000000000000600082015250565b7f416d6f756e7420746f20776974686472617720746f6f20686967680000000000600082015250565b7f416464726573733a2063616c6c20746f206e6f6e2d636f6e7472616374000000600082015250565b7f43616e6e6f74206265207374616b656420746f6b656e00000000000000000000600082015250565b7f5361666545524332303a204552433230206f7065726174696f6e20646964206e60008201527f6f74207375636365656400000000000000000000000000000000000000000000602082015250565b7f5265656e7472616e637947756172643a207265656e7472616e742063616c6c00600082015250565b61388b81613435565b811461389657600080fd5b50565b6138a281613447565b81146138ad57600080fd5b50565b6138b981613473565b81146138c457600080fd5b5056fea26469706673582212202f05b05da66e7e98c92ffa6a459c61511c76cda8fe1cc0f62b51105b67b5712864736f6c63430008040033",
  "devdoc": {
    "kind": "dev",
    "methods": {
      "owner()": {
        "details": "Returns the address of the current owner."
      },
      "recoverWrongTokens(address,uint256)": {
        "details": "This function is only callable by admin.",
        "params": {
          "_tokenAddress": ": the address of the token to withdraw",
          "_tokenAmount": ": the number of tokens to withdraw"
        }
      },
      "renounceOwnership()": {
        "details": "Leaves the contract without owner. It will not be possible to call `onlyOwner` functions anymore. Can only be called by the current owner. NOTE: Renouncing ownership will leave the contract without an owner, thereby removing any functionality that is only available to the owner."
      },
      "transferOwnership(address)": {
        "details": "Transfers ownership of the contract to a new account (`newOwner`). Can only be called by the current owner."
      },
      "updateStartAndEndBlocks(uint256,uint256)": {
        "details": "This function is only callable by owner.",
        "params": {
          "_bonusEndBlock": ": the new end block",
          "_startBlock": ": the new start block"
        }
      }
    },
    "version": 1
  },
  "userdoc": {
    "kind": "user",
    "methods": {
      "recoverWrongTokens(address,uint256)": {
        "notice": "It allows the admin to recover wrong tokens sent to the contract"
      },
      "updateStartAndEndBlocks(uint256,uint256)": {
        "notice": "It allows the admin to update start and end blocks"
      }
    },
    "version": 1
  },
  "storageLayout": {
    "storage": [
      {
        "astId": 389,
        "contract": "contracts/Stake.sol:Stake",
        "label": "_owner",
        "offset": 0,
        "slot": "0",
        "type": "t_address"
      },
      {
        "astId": 497,
        "contract": "contracts/Stake.sol:Stake",
        "label": "_status",
        "offset": 0,
        "slot": "1",
        "type": "t_uint256"
      },
      {
        "astId": 2351,
        "contract": "contracts/Stake.sol:Stake",
        "label": "accTokenPerShare",
        "offset": 0,
        "slot": "2",
        "type": "t_uint256"
      },
      {
        "astId": 2353,
        "contract": "contracts/Stake.sol:Stake",
        "label": "endBlock",
        "offset": 0,
        "slot": "3",
        "type": "t_uint256"
      },
      {
        "astId": 2355,
        "contract": "contracts/Stake.sol:Stake",
        "label": "startBlock",
        "offset": 0,
        "slot": "4",
        "type": "t_uint256"
      },
      {
        "astId": 2357,
        "contract": "contracts/Stake.sol:Stake",
        "label": "lastUpdateBlock",
        "offset": 0,
        "slot": "5",
        "type": "t_uint256"
      },
      {
        "astId": 2359,
        "contract": "contracts/Stake.sol:Stake",
        "label": "rewardPerBlock",
        "offset": 0,
        "slot": "6",
        "type": "t_uint256"
      },
      {
        "astId": 2361,
        "contract": "contracts/Stake.sol:Stake",
        "label": "lockUpDuration",
        "offset": 0,
        "slot": "7",
        "type": "t_uint256"
      },
      {
        "astId": 2363,
        "contract": "contracts/Stake.sol:Stake",
        "label": "withdrawFee",
        "offset": 0,
        "slot": "8",
        "type": "t_uint256"
      },
      {
        "astId": 2365,
        "contract": "contracts/Stake.sol:Stake",
        "label": "PRECISION_FACTOR",
        "offset": 0,
        "slot": "9",
        "type": "t_uint256"
      },
      {
        "astId": 2367,
        "contract": "contracts/Stake.sol:Stake",
        "label": "rewardTokenDecimals",
        "offset": 0,
        "slot": "10",
        "type": "t_uint8"
      },
      {
        "astId": 2369,
        "contract": "contracts/Stake.sol:Stake",
        "label": "feeAddress",
        "offset": 1,
        "slot": "10",
        "type": "t_address"
      },
      {
        "astId": 2372,
        "contract": "contracts/Stake.sol:Stake",
        "label": "rewardToken",
        "offset": 0,
        "slot": "11",
        "type": "t_contract(IERC20)1150"
      },
      {
        "astId": 2375,
        "contract": "contracts/Stake.sol:Stake",
        "label": "stakedToken",
        "offset": 0,
        "slot": "12",
        "type": "t_contract(IERC20)1150"
      },
      {
        "astId": 2380,
        "contract": "contracts/Stake.sol:Stake",
        "label": "userInfo",
        "offset": 0,
        "slot": "13",
        "type": "t_mapping(t_address,t_struct(UserInfo)2387_storage)"
      }
    ],
    "types": {
      "t_address": {
        "encoding": "inplace",
        "label": "address",
        "numberOfBytes": "20"
      },
      "t_contract(IERC20)1150": {
        "encoding": "inplace",
        "label": "contract IERC20",
        "numberOfBytes": "20"
      },
      "t_mapping(t_address,t_struct(UserInfo)2387_storage)": {
        "encoding": "mapping",
        "key": "t_address",
        "label": "mapping(address => struct Stake.UserInfo)",
        "numberOfBytes": "32",
        "value": "t_struct(UserInfo)2387_storage"
      },
      "t_struct(UserInfo)2387_storage": {
        "encoding": "inplace",
        "label": "struct Stake.UserInfo",
        "members": [
          {
            "astId": 2382,
            "contract": "contracts/Stake.sol:Stake",
            "label": "amount",
            "offset": 0,
            "slot": "0",
            "type": "t_uint256"
          },
          {
            "astId": 2384,
            "contract": "contracts/Stake.sol:Stake",
            "label": "rewardDebt",
            "offset": 0,
            "slot": "1",
            "type": "t_uint256"
          },
          {
            "astId": 2386,
            "contract": "contracts/Stake.sol:Stake",
            "label": "firstDeposit",
            "offset": 0,
            "slot": "2",
            "type": "t_uint256"
          }
        ],
        "numberOfBytes": "96"
      },
      "t_uint256": {
        "encoding": "inplace",
        "label": "uint256",
        "numberOfBytes": "32"
      },
      "t_uint8": {
        "encoding": "inplace",
        "label": "uint8",
        "numberOfBytes": "1"
      }
    }
  }
}