{
  "address": "0x69111681229a46B2164fFec44D695fc601039eb4",
  "abi": [
    {
      "inputs": [],
      "stateMutability": "nonpayable",
      "type": "constructor"
    },
    {
      "anonymous": false,
      "inputs": [
        {
          "indexed": true,
          "internalType": "address",
          "name": "user",
          "type": "address"
        },
        {
          "indexed": true,
          "internalType": "uint256",
          "name": "pid",
          "type": "uint256"
        },
        {
          "indexed": false,
          "internalType": "uint256",
          "name": "amount",
          "type": "uint256"
        }
      ],
      "name": "Deposit",
      "type": "event"
    },
    {
      "anonymous": false,
      "inputs": [
        {
          "indexed": true,
          "internalType": "address",
          "name": "user",
          "type": "address"
        },
        {
          "indexed": true,
          "internalType": "uint256",
          "name": "pid",
          "type": "uint256"
        },
        {
          "indexed": false,
          "internalType": "uint256",
          "name": "amount",
          "type": "uint256"
        }
      ],
      "name": "EmergencyWithdraw",
      "type": "event"
    },
    {
      "anonymous": false,
      "inputs": [
        {
          "indexed": true,
          "internalType": "address",
          "name": "previousOwner",
          "type": "address"
        },
        {
          "indexed": true,
          "internalType": "address",
          "name": "newOwner",
          "type": "address"
        }
      ],
      "name": "OwnershipTransferred",
      "type": "event"
    },
    {
      "anonymous": false,
      "inputs": [
        {
          "indexed": true,
          "internalType": "address",
          "name": "user",
          "type": "address"
        },
        {
          "indexed": true,
          "internalType": "uint256",
          "name": "pid",
          "type": "uint256"
        },
        {
          "indexed": false,
          "internalType": "uint256",
          "name": "amount",
          "type": "uint256"
        }
      ],
      "name": "Withdraw",
      "type": "event"
    },
    {
      "inputs": [
        {
          "internalType": "address",
          "name": "",
          "type": "address"
        }
      ],
      "name": "addedPools",
      "outputs": [
        {
          "internalType": "bool",
          "name": "",
          "type": "bool"
        }
      ],
      "stateMutability": "view",
      "type": "function"
    },
    {
      "inputs": [
        {
          "internalType": "uint256",
          "name": "_pid",
          "type": "uint256"
        }
      ],
      "name": "emergencyWithdraw",
      "outputs": [],
      "stateMutability": "nonpayable",
      "type": "function"
    },
    {
      "inputs": [
        {
          "internalType": "contract IResource",
          "name": "_resource",
          "type": "address"
        },
        {
          "internalType": "uint256",
          "name": "_resourcePerBlock",
          "type": "uint256"
        },
        {
          "internalType": "uint256",
          "name": "_startBlock",
          "type": "uint256"
        }
      ],
      "name": "initialize",
      "outputs": [],
      "stateMutability": "nonpayable",
      "type": "function"
    },
    {
      "inputs": [],
      "name": "owner",
      "outputs": [
        {
          "internalType": "address",
          "name": "",
          "type": "address"
        }
      ],
      "stateMutability": "view",
      "type": "function"
    },
    {
      "inputs": [
        {
          "internalType": "uint256",
          "name": "",
          "type": "uint256"
        }
      ],
      "name": "poolInfo",
      "outputs": [
        {
          "internalType": "contract IERC20Upgradeable",
          "name": "lpToken",
          "type": "address"
        },
        {
          "internalType": "uint256",
          "name": "allocPoint",
          "type": "uint256"
        },
        {
          "internalType": "uint256",
          "name": "lastRewardBlock",
          "type": "uint256"
        },
        {
          "internalType": "uint256",
          "name": "accResourcePerShare",
          "type": "uint256"
        }
      ],
      "stateMutability": "view",
      "type": "function"
    },
    {
      "inputs": [
        {
          "internalType": "address",
          "name": "",
          "type": "address"
        }
      ],
      "name": "positionPoolsByLP",
      "outputs": [
        {
          "internalType": "uint256",
          "name": "",
          "type": "uint256"
        }
      ],
      "stateMutability": "view",
      "type": "function"
    },
    {
      "inputs": [],
      "name": "renounceOwnership",
      "outputs": [],
      "stateMutability": "nonpayable",
      "type": "function"
    },
    {
      "inputs": [],
      "name": "resource",
      "outputs": [
        {
          "internalType": "contract IResource",
          "name": "",
          "type": "address"
        }
      ],
      "stateMutability": "view",
      "type": "function"
    },
    {
      "inputs": [],
      "name": "resourcePerBlock",
      "outputs": [
        {
          "internalType": "uint256",
          "name": "",
          "type": "uint256"
        }
      ],
      "stateMutability": "view",
      "type": "function"
    },
    {
      "inputs": [],
      "name": "startBlock",
      "outputs": [
        {
          "internalType": "uint256",
          "name": "",
          "type": "uint256"
        }
      ],
      "stateMutability": "view",
      "type": "function"
    },
    {
      "inputs": [],
      "name": "totalAllocPoint",
      "outputs": [
        {
          "internalType": "uint256",
          "name": "",
          "type": "uint256"
        }
      ],
      "stateMutability": "view",
      "type": "function"
    },
    {
      "inputs": [
        {
          "internalType": "address",
          "name": "newOwner",
          "type": "address"
        }
      ],
      "name": "transferOwnership",
      "outputs": [],
      "stateMutability": "nonpayable",
      "type": "function"
    },
    {
      "inputs": [
        {
          "internalType": "uint256",
          "name": "",
          "type": "uint256"
        },
        {
          "internalType": "address",
          "name": "",
          "type": "address"
        }
      ],
      "name": "userInfo",
      "outputs": [
        {
          "internalType": "uint256",
          "name": "amount",
          "type": "uint256"
        },
        {
          "internalType": "uint256",
          "name": "rewardDebt",
          "type": "uint256"
        }
      ],
      "stateMutability": "view",
      "type": "function"
    }
  ],
  "transactionHash": "0x1d8cd47866e2c298c4fcdf380c3deec9ade4a8665bfba1b20675594de560edd3",
  "args": [],
  "numDeployments": 4,
  "solcInputHash": "0d2fc50c29c40c14d5d22e7eab971910",
  "bytecode": "0x608060405234801561001057600080fd5b50600054610100900460ff1661002c5760005460ff1615610034565b6100346100d5565b61009b5760405162461bcd60e51b815260206004820152602e60248201527f496e697469616c697a61626c653a20636f6e747261637420697320616c72656160448201526d191e481a5b9a5d1a585b1a5e995960921b606482015260840160405180910390fd5b600054610100900460ff161580156100bd576000805461ffff19166101011790555b80156100cf576000805461ff00191690555b506100ff565b60006100ea306100f060201b6105ce1760201c565b15905090565b6001600160a01b03163b151590565b610b028061010e6000396000f3fe608060405234801561001057600080fd5b50600436106100cf5760003560e01c806375ca3da41161008c57806393f1a40b1161006657806393f1a40b146101d5578063af2e0ada1461021c578063f2fde38b14610225578063fb51e4361461023857600080fd5b806375ca3da41461017e5780637a1ac61e146101b15780638da5cb5b146101c457600080fd5b80631526fe27146100d457806317caf6f1146101165780633a63d8861461012d57806348cd4cb1146101585780635312ea8e14610161578063715018a614610176575b600080fd5b6100e76100e23660046109aa565b610258565b604080516001600160a01b03909516855260208501939093529183015260608201526080015b60405180910390f35b61011f609e5481565b60405190815260200161010d565b609754610140906001600160a01b031681565b6040516001600160a01b03909116815260200161010d565b61011f609f5481565b61017461016f3660046109aa565b61029c565b005b6101746103af565b6101a161018c36600461093a565b609c6020526000908152604090205460ff1681565b604051901515815260200161010d565b6101746101bf366004610976565b610415565b6033546001600160a01b0316610140565b6102076101e33660046109c2565b609b6020908152600092835260408084209091529082529020805460019091015482565b6040805192835260208301919091520161010d565b61011f60985481565b61017461023336600461093a565b610503565b61011f61024636600461093a565b609d6020526000908152604090205481565b609a818154811061026857600080fd5b600091825260209091206004909102018054600182015460028301546003909301546001600160a01b039092169350919084565b600260655414156102f45760405162461bcd60e51b815260206004820152601f60248201527f5265656e7472616e637947756172643a207265656e7472616e742063616c6c0060448201526064015b60405180910390fd5b60026065819055506000609a828154811061031f57634e487b7160e01b600052603260045260246000fd5b60009182526020808320858452609b82526040808520338087529352909320805460049093029093018054909450610364926001600160a01b039190911691906105dd565b8054604051908152839033907fbb757047c2b5f3974fe26b7c10f732e7bce710b0952a71082702781e62ae05959060200160405180910390a360008082556001918201556065555050565b6033546001600160a01b031633146104095760405162461bcd60e51b815260206004820181905260248201527f4f776e61626c653a2063616c6c6572206973206e6f7420746865206f776e657260448201526064016102eb565b6104136000610634565b565b600054610100900460ff166104305760005460ff1615610434565b303b155b6104975760405162461bcd60e51b815260206004820152602e60248201527f496e697469616c697a61626c653a20636f6e747261637420697320616c72656160448201526d191e481a5b9a5d1a585b1a5e995960921b60648201526084016102eb565b600054610100900460ff161580156104b9576000805461ffff19166101011790555b6104c1610686565b609780546001600160a01b0319166001600160a01b0386161790556098839055609f829055600160995580156104fd576000805461ff00191690555b50505050565b6033546001600160a01b0316331461055d5760405162461bcd60e51b815260206004820181905260248201527f4f776e61626c653a2063616c6c6572206973206e6f7420746865206f776e657260448201526064016102eb565b6001600160a01b0381166105c25760405162461bcd60e51b815260206004820152602660248201527f4f776e61626c653a206e6577206f776e657220697320746865207a65726f206160448201526564647265737360d01b60648201526084016102eb565b6105cb81610634565b50565b6001600160a01b03163b151590565b604080516001600160a01b038416602482015260448082018490528251808303909101815260649091019091526020810180516001600160e01b031663a9059cbb60e01b17905261062f9084906106b5565b505050565b603380546001600160a01b038381166001600160a01b0319831681179093556040519116919082907f8be0079c531659141344cd1fd0a4f28419497f9722a3daafe3b4186f6b6457e090600090a35050565b600054610100900460ff166106ad5760405162461bcd60e51b81526004016102eb90610a40565b610413610787565b600061070a826040518060400160405280602081526020017f5361666545524332303a206c6f772d6c6576656c2063616c6c206661696c6564815250856001600160a01b03166107b79092919063ffffffff16565b80519091501561062f57808060200190518101906107289190610956565b61062f5760405162461bcd60e51b815260206004820152602a60248201527f5361666545524332303a204552433230206f7065726174696f6e20646964206e6044820152691bdd081cdd58d8d9595960b21b60648201526084016102eb565b600054610100900460ff166107ae5760405162461bcd60e51b81526004016102eb90610a40565b61041333610634565b60606107c684846000856107d0565b90505b9392505050565b6060824710156108315760405162461bcd60e51b815260206004820152602660248201527f416464726573733a20696e73756666696369656e742062616c616e636520666f6044820152651c8818d85b1b60d21b60648201526084016102eb565b6001600160a01b0385163b6108885760405162461bcd60e51b815260206004820152601d60248201527f416464726573733a2063616c6c20746f206e6f6e2d636f6e747261637400000060448201526064016102eb565b600080866001600160a01b031685876040516108a491906109f1565b60006040518083038185875af1925050503d80600081146108e1576040519150601f19603f3d011682016040523d82523d6000602084013e6108e6565b606091505b50915091506108f6828286610901565b979650505050505050565b606083156109105750816107c9565b8251156109205782518084602001fd5b8160405162461bcd60e51b81526004016102eb9190610a0d565b60006020828403121561094b578081fd5b81356107c981610ab7565b600060208284031215610967578081fd5b815180151581146107c9578182fd5b60008060006060848603121561098a578182fd5b833561099581610ab7565b95602085013595506040909401359392505050565b6000602082840312156109bb578081fd5b5035919050565b600080604083850312156109d4578182fd5b8235915060208301356109e681610ab7565b809150509250929050565b60008251610a03818460208701610a8b565b9190910192915050565b6020815260008251806020840152610a2c816040850160208701610a8b565b601f01601f19169190910160400192915050565b6020808252602b908201527f496e697469616c697a61626c653a20636f6e7472616374206973206e6f74206960408201526a6e697469616c697a696e6760a81b606082015260800190565b60005b83811015610aa6578181015183820152602001610a8e565b838111156104fd5750506000910152565b6001600160a01b03811681146105cb57600080fdfea2646970667358221220bc89d77c1cc4a9b1a9ddc1de032bc7229eaa9bb7d75f5fd6263b174093e7448c64736f6c63430008040033",
  "devdoc": {
    "kind": "dev",
    "methods": {
      "emergencyWithdraw(uint256)": {
        "params": {
          "_pid": "The pool identifier where user withdraws"
        }
      },
      "initialize(address,uint256,uint256)": {
        "params": {
          "_resource": "Token to reward users",
          "_resourcePerBlock": "Number of tokens to reward per block",
          "_startBlock": "Block number to start reward"
        }
      },
      "owner()": {
        "details": "Returns the address of the current owner."
      },
      "renounceOwnership()": {
        "details": "Leaves the contract without owner. It will not be possible to call `onlyOwner` functions anymore. Can only be called by the current owner. NOTE: Renouncing ownership will leave the contract without an owner, thereby removing any functionality that is only available to the owner."
      },
      "transferOwnership(address)": {
        "details": "Transfers ownership of the contract to a new account (`newOwner`). Can only be called by the current owner."
      }
    },
    "version": 1
  },
  "userdoc": {
    "kind": "user",
    "methods": {
      "constructor": {
        "notice": "Constructor of the contract"
      },
      "emergencyWithdraw(uint256)": {
        "notice": "Withdraw without caring about rewards. EMERGENCY ONLY."
      },
      "initialize(address,uint256,uint256)": {
        "notice": "Initialize function for the proxy contract"
      }
    },
    "version": 1
  },
  "storageLayout": {
    "storage": [
      {
        "astId": 130,
        "contract": "contracts/GalacticFarming.sol:GalacticFarming",
        "label": "_initialized",
        "offset": 0,
        "slot": "0",
        "type": "t_bool"
      },
      {
        "astId": 133,
        "contract": "contracts/GalacticFarming.sol:GalacticFarming",
        "label": "_initializing",
        "offset": 1,
        "slot": "0",
        "type": "t_bool"
      },
      {
        "astId": 867,
        "contract": "contracts/GalacticFarming.sol:GalacticFarming",
        "label": "__gap",
        "offset": 0,
        "slot": "1",
        "type": "t_array(t_uint256)50_storage"
      },
      {
        "astId": 10,
        "contract": "contracts/GalacticFarming.sol:GalacticFarming",
        "label": "_owner",
        "offset": 0,
        "slot": "51",
        "type": "t_address"
      },
      {
        "astId": 122,
        "contract": "contracts/GalacticFarming.sol:GalacticFarming",
        "label": "__gap",
        "offset": 0,
        "slot": "52",
        "type": "t_array(t_uint256)49_storage"
      },
      {
        "astId": 211,
        "contract": "contracts/GalacticFarming.sol:GalacticFarming",
        "label": "_status",
        "offset": 0,
        "slot": "101",
        "type": "t_uint256"
      },
      {
        "astId": 255,
        "contract": "contracts/GalacticFarming.sol:GalacticFarming",
        "label": "__gap",
        "offset": 0,
        "slot": "102",
        "type": "t_array(t_uint256)49_storage"
      },
      {
        "astId": 2835,
        "contract": "contracts/GalacticFarming.sol:GalacticFarming",
        "label": "resource",
        "offset": 0,
        "slot": "151",
        "type": "t_contract(IResource)3908"
      },
      {
        "astId": 2837,
        "contract": "contracts/GalacticFarming.sol:GalacticFarming",
        "label": "resourcePerBlock",
        "offset": 0,
        "slot": "152",
        "type": "t_uint256"
      },
      {
        "astId": 2839,
        "contract": "contracts/GalacticFarming.sol:GalacticFarming",
        "label": "BONUS_MULTIPLIER",
        "offset": 0,
        "slot": "153",
        "type": "t_uint256"
      },
      {
        "astId": 2843,
        "contract": "contracts/GalacticFarming.sol:GalacticFarming",
        "label": "poolInfo",
        "offset": 0,
        "slot": "154",
        "type": "t_array(t_struct(PoolInfo)2832_storage)dyn_storage"
      },
      {
        "astId": 2850,
        "contract": "contracts/GalacticFarming.sol:GalacticFarming",
        "label": "userInfo",
        "offset": 0,
        "slot": "155",
        "type": "t_mapping(t_uint256,t_mapping(t_address,t_struct(UserInfo)2822_storage))"
      },
      {
        "astId": 2854,
        "contract": "contracts/GalacticFarming.sol:GalacticFarming",
        "label": "addedPools",
        "offset": 0,
        "slot": "156",
        "type": "t_mapping(t_address,t_bool)"
      },
      {
        "astId": 2858,
        "contract": "contracts/GalacticFarming.sol:GalacticFarming",
        "label": "positionPoolsByLP",
        "offset": 0,
        "slot": "157",
        "type": "t_mapping(t_address,t_uint256)"
      },
      {
        "astId": 2860,
        "contract": "contracts/GalacticFarming.sol:GalacticFarming",
        "label": "totalAllocPoint",
        "offset": 0,
        "slot": "158",
        "type": "t_uint256"
      },
      {
        "astId": 2862,
        "contract": "contracts/GalacticFarming.sol:GalacticFarming",
        "label": "startBlock",
        "offset": 0,
        "slot": "159",
        "type": "t_uint256"
      }
    ],
    "types": {
      "t_address": {
        "encoding": "inplace",
        "label": "address",
        "numberOfBytes": "20"
      },
      "t_array(t_struct(PoolInfo)2832_storage)dyn_storage": {
        "base": "t_struct(PoolInfo)2832_storage",
        "encoding": "dynamic_array",
        "label": "struct GalacticFarming.PoolInfo[]",
        "numberOfBytes": "32"
      },
      "t_array(t_uint256)49_storage": {
        "base": "t_uint256",
        "encoding": "inplace",
        "label": "uint256[49]",
        "numberOfBytes": "1568"
      },
      "t_array(t_uint256)50_storage": {
        "base": "t_uint256",
        "encoding": "inplace",
        "label": "uint256[50]",
        "numberOfBytes": "1600"
      },
      "t_bool": {
        "encoding": "inplace",
        "label": "bool",
        "numberOfBytes": "1"
      },
      "t_contract(IERC20Upgradeable)334": {
        "encoding": "inplace",
        "label": "contract IERC20Upgradeable",
        "numberOfBytes": "20"
      },
      "t_contract(IResource)3908": {
        "encoding": "inplace",
        "label": "contract IResource",
        "numberOfBytes": "20"
      },
      "t_mapping(t_address,t_bool)": {
        "encoding": "mapping",
        "key": "t_address",
        "label": "mapping(address => bool)",
        "numberOfBytes": "32",
        "value": "t_bool"
      },
      "t_mapping(t_address,t_struct(UserInfo)2822_storage)": {
        "encoding": "mapping",
        "key": "t_address",
        "label": "mapping(address => struct GalacticFarming.UserInfo)",
        "numberOfBytes": "32",
        "value": "t_struct(UserInfo)2822_storage"
      },
      "t_mapping(t_address,t_uint256)": {
        "encoding": "mapping",
        "key": "t_address",
        "label": "mapping(address => uint256)",
        "numberOfBytes": "32",
        "value": "t_uint256"
      },
      "t_mapping(t_uint256,t_mapping(t_address,t_struct(UserInfo)2822_storage))": {
        "encoding": "mapping",
        "key": "t_uint256",
        "label": "mapping(uint256 => mapping(address => struct GalacticFarming.UserInfo))",
        "numberOfBytes": "32",
        "value": "t_mapping(t_address,t_struct(UserInfo)2822_storage)"
      },
      "t_struct(PoolInfo)2832_storage": {
        "encoding": "inplace",
        "label": "struct GalacticFarming.PoolInfo",
        "members": [
          {
            "astId": 2825,
            "contract": "contracts/GalacticFarming.sol:GalacticFarming",
            "label": "lpToken",
            "offset": 0,
            "slot": "0",
            "type": "t_contract(IERC20Upgradeable)334"
          },
          {
            "astId": 2827,
            "contract": "contracts/GalacticFarming.sol:GalacticFarming",
            "label": "allocPoint",
            "offset": 0,
            "slot": "1",
            "type": "t_uint256"
          },
          {
            "astId": 2829,
            "contract": "contracts/GalacticFarming.sol:GalacticFarming",
            "label": "lastRewardBlock",
            "offset": 0,
            "slot": "2",
            "type": "t_uint256"
          },
          {
            "astId": 2831,
            "contract": "contracts/GalacticFarming.sol:GalacticFarming",
            "label": "accResourcePerShare",
            "offset": 0,
            "slot": "3",
            "type": "t_uint256"
          }
        ],
        "numberOfBytes": "128"
      },
      "t_struct(UserInfo)2822_storage": {
        "encoding": "inplace",
        "label": "struct GalacticFarming.UserInfo",
        "members": [
          {
            "astId": 2819,
            "contract": "contracts/GalacticFarming.sol:GalacticFarming",
            "label": "amount",
            "offset": 0,
            "slot": "0",
            "type": "t_uint256"
          },
          {
            "astId": 2821,
            "contract": "contracts/GalacticFarming.sol:GalacticFarming",
            "label": "rewardDebt",
            "offset": 0,
            "slot": "1",
            "type": "t_uint256"
          }
        ],
        "numberOfBytes": "64"
      },
      "t_uint256": {
        "encoding": "inplace",
        "label": "uint256",
        "numberOfBytes": "32"
      }
    }
  }
}