{
  "address": "0xe7f1725E7734CE288F8367e1Bb143E90bb3F0512",
  "abi": [
    {
      "inputs": [],
      "stateMutability": "nonpayable",
      "type": "constructor"
    },
    {
      "anonymous": false,
      "inputs": [
        {
          "indexed": false,
          "internalType": "address",
          "name": "tokenRecovered",
          "type": "address"
        },
        {
          "indexed": false,
          "internalType": "uint256",
          "name": "amount",
          "type": "uint256"
        }
      ],
      "name": "AdminTokenRecovery",
      "type": "event"
    },
    {
      "anonymous": false,
      "inputs": [
        {
          "indexed": true,
          "internalType": "address",
          "name": "user",
          "type": "address"
        },
        {
          "indexed": false,
          "internalType": "uint256",
          "name": "amount",
          "type": "uint256"
        }
      ],
      "name": "Claim",
      "type": "event"
    },
    {
      "anonymous": false,
      "inputs": [
        {
          "indexed": true,
          "internalType": "address",
          "name": "user",
          "type": "address"
        },
        {
          "indexed": false,
          "internalType": "uint256",
          "name": "amount",
          "type": "uint256"
        }
      ],
      "name": "Deposit",
      "type": "event"
    },
    {
      "anonymous": false,
      "inputs": [
        {
          "indexed": true,
          "internalType": "address",
          "name": "user",
          "type": "address"
        },
        {
          "indexed": false,
          "internalType": "uint256",
          "name": "amount",
          "type": "uint256"
        }
      ],
      "name": "EmergencyWithdraw",
      "type": "event"
    },
    {
      "anonymous": false,
      "inputs": [
        {
          "indexed": false,
          "internalType": "uint256",
          "name": "endBlock",
          "type": "uint256"
        }
      ],
      "name": "NewEndBlock",
      "type": "event"
    },
    {
      "anonymous": false,
      "inputs": [
        {
          "indexed": false,
          "internalType": "uint256",
          "name": "lockUpDuration",
          "type": "uint256"
        }
      ],
      "name": "NewLockUpDuration",
      "type": "event"
    },
    {
      "anonymous": false,
      "inputs": [
        {
          "indexed": false,
          "internalType": "uint256",
          "name": "rewardPerBlock",
          "type": "uint256"
        }
      ],
      "name": "NewRewardPerBlock",
      "type": "event"
    },
    {
      "anonymous": false,
      "inputs": [
        {
          "indexed": false,
          "internalType": "uint256",
          "name": "startBlock",
          "type": "uint256"
        },
        {
          "indexed": false,
          "internalType": "uint256",
          "name": "endBlock",
          "type": "uint256"
        }
      ],
      "name": "NewStartAndEndBlocks",
      "type": "event"
    },
    {
      "anonymous": false,
      "inputs": [
        {
          "indexed": true,
          "internalType": "address",
          "name": "previousOwner",
          "type": "address"
        },
        {
          "indexed": true,
          "internalType": "address",
          "name": "newOwner",
          "type": "address"
        }
      ],
      "name": "OwnershipTransferred",
      "type": "event"
    },
    {
      "anonymous": false,
      "inputs": [
        {
          "indexed": false,
          "internalType": "uint256",
          "name": "blockNumber",
          "type": "uint256"
        }
      ],
      "name": "RewardsStop",
      "type": "event"
    },
    {
      "anonymous": false,
      "inputs": [
        {
          "indexed": true,
          "internalType": "address",
          "name": "user",
          "type": "address"
        },
        {
          "indexed": false,
          "internalType": "uint256",
          "name": "amount",
          "type": "uint256"
        }
      ],
      "name": "Withdraw",
      "type": "event"
    },
    {
      "inputs": [],
      "name": "claim",
      "outputs": [],
      "stateMutability": "nonpayable",
      "type": "function"
    },
    {
      "inputs": [
        {
          "internalType": "uint256",
          "name": "_amount",
          "type": "uint256"
        }
      ],
      "name": "deposit",
      "outputs": [],
      "stateMutability": "nonpayable",
      "type": "function"
    },
    {
      "inputs": [
        {
          "internalType": "uint8",
          "name": "_rewardTokenId",
          "type": "uint8"
        },
        {
          "internalType": "uint256",
          "name": "_amount",
          "type": "uint256"
        }
      ],
      "name": "depositRewardTokenFunds",
      "outputs": [],
      "stateMutability": "nonpayable",
      "type": "function"
    },
    {
      "inputs": [],
      "name": "emergencyWithdraw",
      "outputs": [],
      "stateMutability": "nonpayable",
      "type": "function"
    },
    {
      "inputs": [],
      "name": "endBlock",
      "outputs": [
        {
          "internalType": "uint256",
          "name": "",
          "type": "uint256"
        }
      ],
      "stateMutability": "view",
      "type": "function"
    },
    {
      "inputs": [],
      "name": "feeAddress",
      "outputs": [
        {
          "internalType": "address",
          "name": "",
          "type": "address"
        }
      ],
      "stateMutability": "view",
      "type": "function"
    },
    {
      "inputs": [
        {
          "internalType": "contract IERC20Upgradeable",
          "name": "_stakedToken",
          "type": "address"
        },
        {
          "internalType": "address",
          "name": "_rewardToken1",
          "type": "address"
        },
        {
          "internalType": "address",
          "name": "_rewardToken2",
          "type": "address"
        },
        {
          "internalType": "uint256",
          "name": "_startBlock",
          "type": "uint256"
        },
        {
          "internalType": "uint256",
          "name": "_endBlock",
          "type": "uint256"
        },
        {
          "internalType": "uint256",
          "name": "_lockUpDuration",
          "type": "uint256"
        },
        {
          "internalType": "uint256",
          "name": "_withdrawFee",
          "type": "uint256"
        },
        {
          "internalType": "address",
          "name": "_feeAddress",
          "type": "address"
        }
      ],
      "name": "initialize",
      "outputs": [],
      "stateMutability": "nonpayable",
      "type": "function"
    },
    {
      "inputs": [],
      "name": "isInitialized",
      "outputs": [
        {
          "internalType": "bool",
          "name": "",
          "type": "bool"
        }
      ],
      "stateMutability": "view",
      "type": "function"
    },
    {
      "inputs": [],
      "name": "lastUpdateBlock",
      "outputs": [
        {
          "internalType": "uint256",
          "name": "",
          "type": "uint256"
        }
      ],
      "stateMutability": "view",
      "type": "function"
    },
    {
      "inputs": [],
      "name": "lockUpDuration",
      "outputs": [
        {
          "internalType": "uint256",
          "name": "",
          "type": "uint256"
        }
      ],
      "stateMutability": "view",
      "type": "function"
    },
    {
      "inputs": [
        {
          "internalType": "uint8",
          "name": "",
          "type": "uint8"
        }
      ],
      "name": "mapOfAccTokenPerShare",
      "outputs": [
        {
          "internalType": "uint256",
          "name": "",
          "type": "uint256"
        }
      ],
      "stateMutability": "view",
      "type": "function"
    },
    {
      "inputs": [
        {
          "internalType": "uint8",
          "name": "",
          "type": "uint8"
        }
      ],
      "name": "mapOfPrecisionFactor",
      "outputs": [
        {
          "internalType": "uint256",
          "name": "",
          "type": "uint256"
        }
      ],
      "stateMutability": "view",
      "type": "function"
    },
    {
      "inputs": [
        {
          "internalType": "uint8",
          "name": "",
          "type": "uint8"
        }
      ],
      "name": "mapOfRewardPerBlock",
      "outputs": [
        {
          "internalType": "uint256",
          "name": "",
          "type": "uint256"
        }
      ],
      "stateMutability": "view",
      "type": "function"
    },
    {
      "inputs": [
        {
          "internalType": "uint8",
          "name": "",
          "type": "uint8"
        }
      ],
      "name": "mapOfRewardTokenDecimals",
      "outputs": [
        {
          "internalType": "uint8",
          "name": "",
          "type": "uint8"
        }
      ],
      "stateMutability": "view",
      "type": "function"
    },
    {
      "inputs": [
        {
          "internalType": "uint8",
          "name": "",
          "type": "uint8"
        }
      ],
      "name": "mapOfRewardTokens",
      "outputs": [
        {
          "internalType": "address",
          "name": "",
          "type": "address"
        }
      ],
      "stateMutability": "view",
      "type": "function"
    },
    {
      "inputs": [],
      "name": "owner",
      "outputs": [
        {
          "internalType": "address",
          "name": "",
          "type": "address"
        }
      ],
      "stateMutability": "view",
      "type": "function"
    },
    {
      "inputs": [
        {
          "internalType": "uint8",
          "name": "_rewardTokenId",
          "type": "uint8"
        },
        {
          "internalType": "address",
          "name": "_user",
          "type": "address"
        }
      ],
      "name": "pendingReward",
      "outputs": [
        {
          "internalType": "uint256",
          "name": "",
          "type": "uint256"
        }
      ],
      "stateMutability": "view",
      "type": "function"
    },
    {
      "inputs": [
        {
          "internalType": "uint8",
          "name": "_rewardTokenId",
          "type": "uint8"
        }
      ],
      "name": "poolCalcRewardPerBlock",
      "outputs": [],
      "stateMutability": "nonpayable",
      "type": "function"
    },
    {
      "inputs": [
        {
          "internalType": "uint256",
          "name": "_durationBlocks",
          "type": "uint256"
        }
      ],
      "name": "poolSetDuration",
      "outputs": [],
      "stateMutability": "nonpayable",
      "type": "function"
    },
    {
      "inputs": [
        {
          "internalType": "uint256",
          "name": "_startBlock",
          "type": "uint256"
        }
      ],
      "name": "poolSetStart",
      "outputs": [],
      "stateMutability": "nonpayable",
      "type": "function"
    },
    {
      "inputs": [
        {
          "internalType": "uint256",
          "name": "_startBlock",
          "type": "uint256"
        },
        {
          "internalType": "uint256",
          "name": "_durationBlocks",
          "type": "uint256"
        }
      ],
      "name": "poolSetStartAndDuration",
      "outputs": [],
      "stateMutability": "nonpayable",
      "type": "function"
    },
    {
      "inputs": [
        {
          "internalType": "uint256",
          "name": "_blocks",
          "type": "uint256"
        }
      ],
      "name": "poolStartIn",
      "outputs": [],
      "stateMutability": "nonpayable",
      "type": "function"
    },
    {
      "inputs": [
        {
          "internalType": "address",
          "name": "_tokenAddress",
          "type": "address"
        },
        {
          "internalType": "uint256",
          "name": "_tokenAmount",
          "type": "uint256"
        }
      ],
      "name": "recoverWrongTokens",
      "outputs": [],
      "stateMutability": "nonpayable",
      "type": "function"
    },
    {
      "inputs": [],
      "name": "renounceOwnership",
      "outputs": [],
      "stateMutability": "nonpayable",
      "type": "function"
    },
    {
      "inputs": [
        {
          "internalType": "uint8",
          "name": "_rewardTokenId",
          "type": "uint8"
        }
      ],
      "name": "rewarPerBlockUI",
      "outputs": [
        {
          "internalType": "uint256",
          "name": "",
          "type": "uint256"
        }
      ],
      "stateMutability": "view",
      "type": "function"
    },
    {
      "inputs": [],
      "name": "rewardDuration",
      "outputs": [
        {
          "internalType": "uint256",
          "name": "",
          "type": "uint256"
        }
      ],
      "stateMutability": "view",
      "type": "function"
    },
    {
      "inputs": [
        {
          "internalType": "uint256",
          "name": "_lockUpDuration",
          "type": "uint256"
        }
      ],
      "name": "setLockUpDuration",
      "outputs": [],
      "stateMutability": "nonpayable",
      "type": "function"
    },
    {
      "inputs": [],
      "name": "stakedToken",
      "outputs": [
        {
          "internalType": "contract IERC20Upgradeable",
          "name": "",
          "type": "address"
        }
      ],
      "stateMutability": "view",
      "type": "function"
    },
    {
      "inputs": [],
      "name": "startBlock",
      "outputs": [
        {
          "internalType": "uint256",
          "name": "",
          "type": "uint256"
        }
      ],
      "stateMutability": "view",
      "type": "function"
    },
    {
      "inputs": [],
      "name": "stopReward",
      "outputs": [],
      "stateMutability": "nonpayable",
      "type": "function"
    },
    {
      "inputs": [
        {
          "internalType": "address",
          "name": "newOwner",
          "type": "address"
        }
      ],
      "name": "transferOwnership",
      "outputs": [],
      "stateMutability": "nonpayable",
      "type": "function"
    },
    {
      "inputs": [
        {
          "internalType": "uint8",
          "name": "_rewardTokenId",
          "type": "uint8"
        },
        {
          "internalType": "uint256",
          "name": "_rewardPerBlock",
          "type": "uint256"
        }
      ],
      "name": "updateRewardPerBlock",
      "outputs": [],
      "stateMutability": "nonpayable",
      "type": "function"
    },
    {
      "inputs": [
        {
          "internalType": "uint256",
          "name": "_startBlock",
          "type": "uint256"
        },
        {
          "internalType": "uint256",
          "name": "_bonusEndBlock",
          "type": "uint256"
        }
      ],
      "name": "updateStartAndEndBlocks",
      "outputs": [],
      "stateMutability": "nonpayable",
      "type": "function"
    },
    {
      "inputs": [
        {
          "internalType": "address",
          "name": "",
          "type": "address"
        }
      ],
      "name": "userInfo",
      "outputs": [
        {
          "internalType": "uint256",
          "name": "amount",
          "type": "uint256"
        },
        {
          "internalType": "uint256",
          "name": "rewardDebt1",
          "type": "uint256"
        },
        {
          "internalType": "uint256",
          "name": "rewardDebt2",
          "type": "uint256"
        },
        {
          "internalType": "uint256",
          "name": "firstDeposit",
          "type": "uint256"
        }
      ],
      "stateMutability": "view",
      "type": "function"
    },
    {
      "inputs": [
        {
          "internalType": "uint256",
          "name": "_amount",
          "type": "uint256"
        }
      ],
      "name": "withdraw",
      "outputs": [],
      "stateMutability": "nonpayable",
      "type": "function"
    },
    {
      "inputs": [],
      "name": "withdrawFee",
      "outputs": [
        {
          "internalType": "uint256",
          "name": "",
          "type": "uint256"
        }
      ],
      "stateMutability": "view",
      "type": "function"
    },
    {
      "inputs": [
        {
          "internalType": "uint8",
          "name": "_rewardTokenId",
          "type": "uint8"
        },
        {
          "internalType": "address",
          "name": "_to",
          "type": "address"
        }
      ],
      "name": "withdrawRemains",
      "outputs": [],
      "stateMutability": "nonpayable",
      "type": "function"
    }
  ],
  "transactionHash": "0xa1fc7e410d41253fac0c9916576de95a97ede3f04de5e5d320b7910efc9e657e",
  "args": [],
  "numDeployments": 1,
  "solcInputHash": "4a843e41a0e0c8892f663cb894dd654b",
  "bytecode": "0x60806040523480156200001157600080fd5b506001606581905550600060019054906101000a900460ff16620000445760008054906101000a900460ff161562000055565b620000546200011160201b60201c565b5b62000097576040517f08c379a00000000000000000000000000000000000000000000000000000000081526004016200008e9062000179565b60405180910390fd5b60008060019054906101000a900460ff161590508015620000e8576001600060016101000a81548160ff02191690831515021790555060016000806101000a81548160ff0219169083151502179055505b80156200010a5760008060016101000a81548160ff0219169083151502179055505b50620001fb565b600062000129306200012f60201b6200301b1760201c565b15905090565b6000808273ffffffffffffffffffffffffffffffffffffffff163b119050919050565b600062000161602e836200019b565b91506200016e82620001ac565b604082019050919050565b60006020820190508181036000830152620001948162000152565b9050919050565b600082825260208201905092915050565b7f496e697469616c697a61626c653a20636f6e747261637420697320616c72656160008201527f647920696e697469616c697a6564000000000000000000000000000000000000602082015250565b614bf4806200020b6000396000f3fe608060405234801561001057600080fd5b50600436106102275760003560e01c806380dc067211610130578063be615335116100b8578063db2e21bc1161007c578063db2e21bc14610629578063e1b2addc14610633578063e941fa781461064f578063f2fde38b1461066d578063f520e7e51461068957610227565b8063be61533514610573578063bfe5f541146105a3578063c9b5b29d146105bf578063cc7a262e146105ef578063d3a8615c1461060d57610227565b80639b4f9193116100ff5780639b4f9193146104d1578063a218141b146104ed578063af1664d11461050b578063b3f02d381461053b578063b6b55f251461055757610227565b806380dc06721461047157806383d1c65b1461047b5780638da5cb5b146104975780639513997f146104b557610227565b806341275358116101b35780635fed9b13116101825780635fed9b13146103cd57806363664dc7146103fd5780636aa662b51461042d578063715018a61461044b5780637bfaa40c1461045557610227565b8063412753581461035757806348cd4cb1146103755780634e71d92d14610393578063522b34011461039d57610227565b806327e644fe116101fa57806327e644fe146102b55780632bf033ad146102e55780632e1a7d4d14610301578063392e53cd1461031d5780633f138d4b1461033b57610227565b8063083c63231461022c5780630f7064eb1461024a57806310f8097b146102665780631959a00214610282575b600080fd5b6102346106a7565b60405161024191906142c9565b60405180910390f35b610264600480360381019061025f9190613c38565b6106ad565b005b610280600480360381019061027b9190613b1c565b610791565b005b61029c600480360381019061029791906139dc565b61082b565b6040516102ac949392919061430d565b60405180910390f35b6102cf60048036038101906102ca9190613baa565b61085b565b6040516102dc9190613fb6565b60405180910390f35b6102ff60048036038101906102fa9190613a6a565b61088e565b005b61031b60048036038101906103169190613b1c565b610e3d565b005b610325611369565b6040516103329190614031565b60405180910390f35b61035560048036038101906103509190613a05565b61137c565b005b61035f61160c565b60405161036c9190613fb6565b60405180910390f35b61037d611632565b60405161038a91906142c9565b60405180910390f35b61039b611638565b005b6103b760048036038101906103b29190613baa565b6119de565b6040516103c491906142c9565b60405180910390f35b6103e760048036038101906103e29190613baa565b6119f6565b6040516103f49190614352565b60405180910390f35b61041760048036038101906104129190613baa565b611a16565b60405161042491906142c9565b60405180910390f35b610435611a2e565b60405161044291906142c9565b60405180910390f35b610453611a34565b005b61046f600480360381019061046a9190613b1c565b611abc565b005b610479611be7565b005b61049560048036038101906104909190613baa565b611c6c565b005b61049f611de9565b6040516104ac9190613fb6565b60405180910390f35b6104cf60048036038101906104ca9190613b6e565b611e13565b005b6104eb60048036038101906104e69190613c38565b611fab565b005b6104f56120c4565b60405161050291906142c9565b60405180910390f35b61052560048036038101906105209190613baa565b6120ca565b60405161053291906142c9565b60405180910390f35b61055560048036038101906105509190613b1c565b6120e2565b005b610571600480360381019061056c9190613b1c565b61221a565b005b61058d60048036038101906105889190613bfc565b61260b565b60405161059a91906142c9565b60405180910390f35b6105bd60048036038101906105b89190613bfc565b6128be565b005b6105d960048036038101906105d49190613baa565b612af0565b6040516105e691906142c9565b60405180910390f35b6105f7612b5a565b604051610604919061404c565b60405180910390f35b61062760048036038101906106229190613b6e565b612b80565b005b610631612c12565b005b61064d60048036038101906106489190613b1c565b612e40565b005b610657612eff565b60405161066491906142c9565b60405180910390f35b610687600480360381019061068291906139dc565b612f05565b005b610691612ffd565b60405161069e91906142c9565b60405180910390f35b60675481565b6106b561303e565b73ffffffffffffffffffffffffffffffffffffffff166106d3611de9565b73ffffffffffffffffffffffffffffffffffffffff1614610729576040517f08c379a0000000000000000000000000000000000000000000000000000000008152600401610720906141a9565b60405180910390fd5b61078d3082607260008660ff1660ff16815260200190815260200160002060009054906101000a900473ffffffffffffffffffffffffffffffffffffffff1673ffffffffffffffffffffffffffffffffffffffff166130469092919063ffffffff16565b5050565b61079961303e565b73ffffffffffffffffffffffffffffffffffffffff166107b7611de9565b73ffffffffffffffffffffffffffffffffffffffff161461080d576040517f08c379a0000000000000000000000000000000000000000000000000000000008152600401610804906141a9565b60405180910390fd5b61082861082382436130cc90919063ffffffff16565b6120e2565b50565b60736020528060005260406000206000915090508060000154908060010154908060020154908060030154905084565b60726020528060005260406000206000915054906101000a900473ffffffffffffffffffffffffffffffffffffffff1681565b600060019054906101000a900460ff166108b65760008054906101000a900460ff16156108bf565b6108be6130e2565b5b6108fe576040517f08c379a00000000000000000000000000000000000000000000000000000000081526004016108f590614169565b60405180910390fd5b60008060019054906101000a900460ff16159050801561094e576001600060016101000a81548160ff02191690831515021790555060016000806101000a81548160ff0219169083151502179055505b6109566130f3565b88606d60006101000a81548173ffffffffffffffffffffffffffffffffffffffff021916908373ffffffffffffffffffffffffffffffffffffffff1602179055508760726000600160ff1660ff16815260200190815260200160002060006101000a81548173ffffffffffffffffffffffffffffffffffffffff021916908373ffffffffffffffffffffffffffffffffffffffff1602179055508660726000600260ff1660ff16815260200190815260200160002060006101000a81548173ffffffffffffffffffffffffffffffffffffffff021916908373ffffffffffffffffffffffffffffffffffffffff160217905550856068819055508460678190555083606a8190555082606b8190555081606c60006101000a81548173ffffffffffffffffffffffffffffffffffffffff021916908373ffffffffffffffffffffffffffffffffffffffff16021790555060726000600160ff1660ff16815260200190815260200160002060009054906101000a900473ffffffffffffffffffffffffffffffffffffffff1673ffffffffffffffffffffffffffffffffffffffff1663313ce5676040518163ffffffff1660e01b815260040160206040518083038186803b158015610b2657600080fd5b505afa158015610b3a573d6000803e3d6000fd5b505050506040513d601f19601f82011682018060405250810190610b5e9190613bd3565b60716000600160ff1660ff16815260200190815260200160002060006101000a81548160ff021916908360ff16021790555060726000600260ff1660ff16815260200190815260200160002060009054906101000a900473ffffffffffffffffffffffffffffffffffffffff1673ffffffffffffffffffffffffffffffffffffffff1663313ce5676040518163ffffffff1660e01b815260040160206040518083038186803b158015610c1057600080fd5b505afa158015610c24573d6000803e3d6000fd5b505050506040513d601f19601f82011682018060405250810190610c489190613bd3565b60716000600260ff1660ff16815260200190815260200160002060006101000a81548160ff021916908360ff160217905550601e60716000600160ff1660ff16815260200190815260200160002060009054906101000a900460ff1660ff16108015610cde5750601e60716000600260ff1660ff16815260200190815260200160002060009054906101000a900460ff1660ff16105b610d1d576040517f08c379a0000000000000000000000000000000000000000000000000000000008152600401610d14906142a9565b60405180910390fd5b610d5b60716000600160ff1660ff16815260200190815260200160002060009054906101000a900460ff1660ff16601e61314c90919063ffffffff16565b600a610d679190614479565b60706000600160ff1660ff16815260200190815260200160002081905550610dc360716000600260ff1660ff16815260200190815260200160002060009054906101000a900460ff1660ff16601e61314c90919063ffffffff16565b600a610dcf9190614479565b60706000600260ff1660ff168152602001908152602001600020819055506068546069819055506001606660006101000a81548160ff0219169083151502179055508015610e325760008060016101000a81548160ff0219169083151502179055505b505050505050505050565b60026065541415610e83576040517f08c379a0000000000000000000000000000000000000000000000000000000008152600401610e7a90614289565b60405180910390fd5b600260658190555060008111610ece576040517f08c379a0000000000000000000000000000000000000000000000000000000008152600401610ec590614149565b60405180910390fd5b6000607360003373ffffffffffffffffffffffffffffffffffffffff1673ffffffffffffffffffffffffffffffffffffffff16815260200190815260200160002090508181600001541015610f58576040517f08c379a0000000000000000000000000000000000000000000000000000000008152600401610f4f906141e9565b60405180910390fd5b610f60613162565b6000610fd58260010154610fc760706000600160ff1660ff16815260200190815260200160002054610fb9606e6000600160ff1660ff1681526020019081526020016000205487600001546133c790919063ffffffff16565b6133dd90919063ffffffff16565b61314c90919063ffffffff16565b9050600061104c836002015461103e60706000600260ff1660ff16815260200190815260200160002054611030606e6000600260ff1660ff1681526020019081526020016000205488600001546133c790919063ffffffff16565b6133dd90919063ffffffff16565b61314c90919063ffffffff16565b905061106584846000015461314c90919063ffffffff16565b83600001819055506000849050606a548460030154611084919061439f565b4210156111375760006110b66127106110a8606b54856133c790919063ffffffff16565b6133dd90919063ffffffff16565b9050611127606c60009054906101000a900473ffffffffffffffffffffffffffffffffffffffff1682606d60009054906101000a900473ffffffffffffffffffffffffffffffffffffffff1673ffffffffffffffffffffffffffffffffffffffff166130469092919063ffffffff16565b808261113391906145f1565b9150505b6111843382606d60009054906101000a900473ffffffffffffffffffffffffffffffffffffffff1673ffffffffffffffffffffffffffffffffffffffff166130469092919063ffffffff16565b600084600301541461119a57836003015461119c565b425b846003018190555060008311156111f3576111f260726000600160ff1660ff16815260200190815260200160002060009054906101000a900473ffffffffffffffffffffffffffffffffffffffff1633856133f3565b5b60008211156112425761124160726000600260ff1660ff16815260200190815260200160002060009054906101000a900473ffffffffffffffffffffffffffffffffffffffff1633846133f3565b5b61129f60706000600160ff1660ff16815260200190815260200160002054611291606e6000600160ff1660ff1681526020019081526020016000205487600001546133c790919063ffffffff16565b6133dd90919063ffffffff16565b846001018190555061130460706000600260ff1660ff168152602001908152602001600020546112f6606e6000600260ff1660ff1681526020019081526020016000205487600001546133c790919063ffffffff16565b6133dd90919063ffffffff16565b84600201819055503373ffffffffffffffffffffffffffffffffffffffff167f884edad9ce6fa2440d8a54cc123490eb96d2768479d49ff9c7366125a94243648660405161135291906142c9565b60405180910390a250505050600160658190555050565b606660009054906101000a900460ff1681565b61138461303e565b73ffffffffffffffffffffffffffffffffffffffff166113a2611de9565b73ffffffffffffffffffffffffffffffffffffffff16146113f8576040517f08c379a00000000000000000000000000000000000000000000000000000000081526004016113ef906141a9565b60405180910390fd5b606d60009054906101000a900473ffffffffffffffffffffffffffffffffffffffff1673ffffffffffffffffffffffffffffffffffffffff168273ffffffffffffffffffffffffffffffffffffffff161415611489576040517f08c379a000000000000000000000000000000000000000000000000000000000815260040161148090614229565b60405180910390fd5b60726000600160ff1660ff16815260200190815260200160002060009054906101000a900473ffffffffffffffffffffffffffffffffffffffff1673ffffffffffffffffffffffffffffffffffffffff168273ffffffffffffffffffffffffffffffffffffffff1614158015611565575060726000600260ff1660ff16815260200190815260200160002060009054906101000a900473ffffffffffffffffffffffffffffffffffffffff1673ffffffffffffffffffffffffffffffffffffffff168273ffffffffffffffffffffffffffffffffffffffff1614155b6115a4576040517f08c379a000000000000000000000000000000000000000000000000000000000815260040161159b906141c9565b60405180910390fd5b6115cf33828473ffffffffffffffffffffffffffffffffffffffff166130469092919063ffffffff16565b7f74545154aac348a3eac92596bd1971957ca94795f4e954ec5f613b55fab781298282604051611600929190614008565b60405180910390a15050565b606c60009054906101000a900473ffffffffffffffffffffffffffffffffffffffff1681565b60685481565b6002606554141561167e576040517f08c379a000000000000000000000000000000000000000000000000000000000815260040161167590614289565b60405180910390fd5b60026065819055506000607360003373ffffffffffffffffffffffffffffffffffffffff1673ffffffffffffffffffffffffffffffffffffffff16815260200190815260200160002090506116d1613162565b600081600001541115611909576000611753826001015461174560706000600160ff1660ff16815260200190815260200160002054611737606e6000600160ff1660ff1681526020019081526020016000205487600001546133c790919063ffffffff16565b6133dd90919063ffffffff16565b61314c90919063ffffffff16565b905060008111156117f2576117a360726000600160ff1660ff16815260200190815260200160002060009054906101000a900473ffffffffffffffffffffffffffffffffffffffff1633836133f3565b3373ffffffffffffffffffffffffffffffffffffffff167f47cee97cb7acd717b3c0aa1435d004cd5b3c8c57d70dbceb4e4458bbd60e39d4826040516117e991906142c9565b60405180910390a25b6000611867836002015461185960706000600260ff1660ff1681526020019081526020016000205461184b606e6000600260ff1660ff1681526020019081526020016000205488600001546133c790919063ffffffff16565b6133dd90919063ffffffff16565b61314c90919063ffffffff16565b90506000811115611906576118b760726000600260ff1660ff16815260200190815260200160002060009054906101000a900473ffffffffffffffffffffffffffffffffffffffff1633836133f3565b3373ffffffffffffffffffffffffffffffffffffffff167f47cee97cb7acd717b3c0aa1435d004cd5b3c8c57d70dbceb4e4458bbd60e39d4826040516118fd91906142c9565b60405180910390a25b50505b61196660706000600160ff1660ff16815260200190815260200160002054611958606e6000600160ff1660ff1681526020019081526020016000205484600001546133c790919063ffffffff16565b6133dd90919063ffffffff16565b81600101819055506119cb60706000600260ff1660ff168152602001908152602001600020546119bd606e6000600260ff1660ff1681526020019081526020016000205484600001546133c790919063ffffffff16565b6133dd90919063ffffffff16565b8160020181905550506001606581905550565b606f6020528060005260406000206000915090505481565b60716020528060005260406000206000915054906101000a900460ff1681565b606e6020528060005260406000206000915090505481565b606a5481565b611a3c61303e565b73ffffffffffffffffffffffffffffffffffffffff16611a5a611de9565b73ffffffffffffffffffffffffffffffffffffffff1614611ab0576040517f08c379a0000000000000000000000000000000000000000000000000000000008152600401611aa7906141a9565b60405180910390fd5b611aba60006134ea565b565b611ac461303e565b73ffffffffffffffffffffffffffffffffffffffff16611ae2611de9565b73ffffffffffffffffffffffffffffffffffffffff1614611b38576040517f08c379a0000000000000000000000000000000000000000000000000000000008152600401611b2f906141a9565b60405180910390fd5b6068544310611b7c576040517f08c379a0000000000000000000000000000000000000000000000000000000008152600401611b73906140c9565b60405180910390fd5b611b91816068546130cc90919063ffffffff16565b606781905550611ba16001611c6c565b611bab6002611c6c565b7f55baa248360bce74a89304071ca6e882f61d2226c15dde53a4ec1e05af523d92606754604051611bdc91906142c9565b60405180910390a150565b611bef61303e565b73ffffffffffffffffffffffffffffffffffffffff16611c0d611de9565b73ffffffffffffffffffffffffffffffffffffffff1614611c63576040517f08c379a0000000000000000000000000000000000000000000000000000000008152600401611c5a906141a9565b60405180910390fd5b43606781905550565b611c7461303e565b73ffffffffffffffffffffffffffffffffffffffff16611c92611de9565b73ffffffffffffffffffffffffffffffffffffffff1614611ce8576040517f08c379a0000000000000000000000000000000000000000000000000000000008152600401611cdf906141a9565b60405180910390fd5b6000607260008360ff1660ff16815260200190815260200160002060009054906101000a900473ffffffffffffffffffffffffffffffffffffffff1673ffffffffffffffffffffffffffffffffffffffff166370a08231306040518263ffffffff1660e01b8152600401611d5c9190613fb6565b60206040518083038186803b158015611d7457600080fd5b505afa158015611d88573d6000803e3d6000fd5b505050506040513d601f19601f82011682018060405250810190611dac9190613b45565b9050611dc8611db9612ffd565b826133dd90919063ffffffff16565b606f60008460ff1660ff168152602001908152602001600020819055505050565b6000603360009054906101000a900473ffffffffffffffffffffffffffffffffffffffff16905090565b611e1b61303e565b73ffffffffffffffffffffffffffffffffffffffff16611e39611de9565b73ffffffffffffffffffffffffffffffffffffffff1614611e8f576040517f08c379a0000000000000000000000000000000000000000000000000000000008152600401611e86906141a9565b60405180910390fd5b6068544310611ed3576040517f08c379a0000000000000000000000000000000000000000000000000000000008152600401611eca906140c9565b60405180910390fd5b808210611f15576040517f08c379a0000000000000000000000000000000000000000000000000000000008152600401611f0c906140e9565b60405180910390fd5b814310611f57576040517f08c379a0000000000000000000000000000000000000000000000000000000008152600401611f4e90614189565b60405180910390fd5b81606881905550806067819055506068546069819055507f7cd0ab87d19036f3dfadadb232c78aa4879dda3f0c994a9d637532410ee2ce068282604051611f9f9291906142e4565b60405180910390a15050565b611fb361303e565b73ffffffffffffffffffffffffffffffffffffffff16611fd1611de9565b73ffffffffffffffffffffffffffffffffffffffff1614612027576040517f08c379a000000000000000000000000000000000000000000000000000000000815260040161201e906141a9565b60405180910390fd5b606854431061206b576040517f08c379a0000000000000000000000000000000000000000000000000000000008152600401612062906140c9565b60405180910390fd5b80606f60008460ff1660ff168152602001908152602001600020819055507f0c4d677eef92893ac7ec52faf8140fc6c851ab4736302b4f3a89dfb20696a0df816040516120b891906142c9565b60405180910390a15050565b60695481565b60706020528060005260406000206000915090505481565b6120ea61303e565b73ffffffffffffffffffffffffffffffffffffffff16612108611de9565b73ffffffffffffffffffffffffffffffffffffffff161461215e576040517f08c379a0000000000000000000000000000000000000000000000000000000008152600401612155906141a9565b60405180910390fd5b60685443106121a2576040517f08c379a0000000000000000000000000000000000000000000000000000000008152600401612199906140c9565b60405180910390fd5b60006121ac612ffd565b9050816068819055506121ca816068546130cc90919063ffffffff16565b6067819055506068546069819055507f7cd0ab87d19036f3dfadadb232c78aa4879dda3f0c994a9d637532410ee2ce0660685460675460405161220e9291906142e4565b60405180910390a15050565b60026065541415612260576040517f08c379a000000000000000000000000000000000000000000000000000000000815260040161225790614289565b60405180910390fd5b60026065819055506000607360003373ffffffffffffffffffffffffffffffffffffffff1673ffffffffffffffffffffffffffffffffffffffff16815260200190815260200160002090506122b3613162565b60008160000154111561244f576000612335826001015461232760706000600160ff1660ff16815260200190815260200160002054612319606e6000600160ff1660ff1681526020019081526020016000205487600001546133c790919063ffffffff16565b6133dd90919063ffffffff16565b61314c90919063ffffffff16565b905060008111156123865761238560726000600160ff1660ff16815260200190815260200160002060009054906101000a900473ffffffffffffffffffffffffffffffffffffffff1633836133f3565b5b60006123fb83600201546123ed60706000600160ff1660ff168152602001908152602001600020546123df606e6000600260ff1660ff1681526020019081526020016000205488600001546133c790919063ffffffff16565b6133dd90919063ffffffff16565b61314c90919063ffffffff16565b9050600081111561244c5761244b60726000600260ff1660ff16815260200190815260200160002060009054906101000a900473ffffffffffffffffffffffffffffffffffffffff1633836133f3565b5b50505b60008211156124e75761246f8282600001546130cc90919063ffffffff16565b81600001819055506124c6333084606d60009054906101000a900473ffffffffffffffffffffffffffffffffffffffff1673ffffffffffffffffffffffffffffffffffffffff166135b0909392919063ffffffff16565b60008160030154146124dc5780600301546124de565b425b81600301819055505b61254460706000600160ff1660ff16815260200190815260200160002054612536606e6000600160ff1660ff1681526020019081526020016000205484600001546133c790919063ffffffff16565b6133dd90919063ffffffff16565b81600101819055506125a960706000600260ff1660ff1681526020019081526020016000205461259b606e6000600260ff1660ff1681526020019081526020016000205484600001546133c790919063ffffffff16565b6133dd90919063ffffffff16565b81600201819055503373ffffffffffffffffffffffffffffffffffffffff167fe1fffcc4923d04b559f4d29a8bfc6cda04eb5b0d3c460751c2402c5c5cc9109c836040516125f791906142c9565b60405180910390a250600160658190555050565b600080607360008473ffffffffffffffffffffffffffffffffffffffff1673ffffffffffffffffffffffffffffffffffffffff16815260200190815260200160002090506000600160ff168560ff161461266957816002015461266f565b81600101545b90506000606d60009054906101000a900473ffffffffffffffffffffffffffffffffffffffff1673ffffffffffffffffffffffffffffffffffffffff166370a08231306040518263ffffffff1660e01b81526004016126ce9190613fb6565b60206040518083038186803b1580156126e657600080fd5b505afa1580156126fa573d6000803e3d6000fd5b505050506040513d601f19601f8201168201806040525081019061271e9190613b45565b905060695443118015612732575060008114155b1561284557600061274560695443613639565b90506000612775606f60008a60ff1660ff16815260200190815260200160002054836133c790919063ffffffff16565b905060006127e26127ba856127ac607060008e60ff1660ff16815260200190815260200160002054866133c790919063ffffffff16565b6133dd90919063ffffffff16565b606e60008c60ff1660ff168152602001908152602001600020546130cc90919063ffffffff16565b90506128388561282a607060008d60ff1660ff1681526020019081526020016000205461281c858b600001546133c790919063ffffffff16565b6133dd90919063ffffffff16565b61314c90919063ffffffff16565b96505050505050506128b8565b6128b2826128a4607060008a60ff1660ff16815260200190815260200160002054612896606e60008c60ff1660ff1681526020019081526020016000205488600001546133c790919063ffffffff16565b6133dd90919063ffffffff16565b61314c90919063ffffffff16565b93505050505b92915050565b6128c661303e565b73ffffffffffffffffffffffffffffffffffffffff166128e4611de9565b73ffffffffffffffffffffffffffffffffffffffff161461293a576040517f08c379a0000000000000000000000000000000000000000000000000000000008152600401612931906141a9565b60405180910390fd5b606754431161297e576040517f08c379a0000000000000000000000000000000000000000000000000000000008152600401612975906140a9565b60405180910390fd5b6000607260008460ff1660ff16815260200190815260200160002060009054906101000a900473ffffffffffffffffffffffffffffffffffffffff1673ffffffffffffffffffffffffffffffffffffffff166370a08231306040518263ffffffff1660e01b81526004016129f29190613fb6565b60206040518083038186803b158015612a0a57600080fd5b505afa158015612a1e573d6000803e3d6000fd5b505050506040513d601f19601f82011682018060405250810190612a429190613b45565b905060008111612a87576040517f08c379a0000000000000000000000000000000000000000000000000000000008152600401612a7e90614129565b60405180910390fd5b612aeb8282607260008760ff1660ff16815260200190815260200160002060009054906101000a900473ffffffffffffffffffffffffffffffffffffffff1673ffffffffffffffffffffffffffffffffffffffff166130469092919063ffffffff16565b505050565b6000612b53607160008460ff1660ff16815260200190815260200160002060009054906101000a900460ff1660ff16600a612b2b9190614479565b606f60008560ff1660ff168152602001908152602001600020546133dd90919063ffffffff16565b9050919050565b606d60009054906101000a900473ffffffffffffffffffffffffffffffffffffffff1681565b612b8861303e565b73ffffffffffffffffffffffffffffffffffffffff16612ba6611de9565b73ffffffffffffffffffffffffffffffffffffffff1614612bfc576040517f08c379a0000000000000000000000000000000000000000000000000000000008152600401612bf3906141a9565b60405180910390fd5b612c05826120e2565b612c0e81611abc565b5050565b60026065541415612c58576040517f08c379a0000000000000000000000000000000000000000000000000000000008152600401612c4f90614289565b60405180910390fd5b60026065819055506000607360003373ffffffffffffffffffffffffffffffffffffffff1673ffffffffffffffffffffffffffffffffffffffff16815260200190815260200160002090506000816000015490506000826000018190555060008260010181905550600082600201819055506000811115612de657606a548260030154612ce5919061439f565b421015612d98576000612d17612710612d09606b54856133c790919063ffffffff16565b6133dd90919063ffffffff16565b9050612d88606c60009054906101000a900473ffffffffffffffffffffffffffffffffffffffff1682606d60009054906101000a900473ffffffffffffffffffffffffffffffffffffffff1673ffffffffffffffffffffffffffffffffffffffff166130469092919063ffffffff16565b8082612d9491906145f1565b9150505b612de53382606d60009054906101000a900473ffffffffffffffffffffffffffffffffffffffff1673ffffffffffffffffffffffffffffffffffffffff166130469092919063ffffffff16565b5b3373ffffffffffffffffffffffffffffffffffffffff167f5fafa99d0643513820be26656b45130b01e1c03062e1266bf36f88cbd3bd969582604051612e2c91906142c9565b60405180910390a250506001606581905550565b612e4861303e565b73ffffffffffffffffffffffffffffffffffffffff16612e66611de9565b73ffffffffffffffffffffffffffffffffffffffff1614612ebc576040517f08c379a0000000000000000000000000000000000000000000000000000000008152600401612eb3906141a9565b60405180910390fd5b80606a819055507fd2a4f919593bfa0565c404bb5e42080750d07eedb9dfa9907c22be9e29c02a98606a54604051612ef491906142c9565b60405180910390a150565b606b5481565b612f0d61303e565b73ffffffffffffffffffffffffffffffffffffffff16612f2b611de9565b73ffffffffffffffffffffffffffffffffffffffff1614612f81576040517f08c379a0000000000000000000000000000000000000000000000000000000008152600401612f78906141a9565b60405180910390fd5b600073ffffffffffffffffffffffffffffffffffffffff168173ffffffffffffffffffffffffffffffffffffffff161415612ff1576040517f08c379a0000000000000000000000000000000000000000000000000000000008152600401612fe890614089565b60405180910390fd5b612ffa816134ea565b50565b600061301660685460675461314c90919063ffffffff16565b905090565b6000808273ffffffffffffffffffffffffffffffffffffffff163b119050919050565b600033905090565b6130c78363a9059cbb60e01b8484604051602401613065929190614008565b604051602081830303815290604052907bffffffffffffffffffffffffffffffffffffffffffffffffffffffff19166020820180517bffffffffffffffffffffffffffffffffffffffffffffffffffffffff838183161783525050505061368e565b505050565b600081836130da919061439f565b905092915050565b60006130ed3061301b565b15905090565b600060019054906101000a900460ff16613142576040517f08c379a000000000000000000000000000000000000000000000000000000000815260040161313990614249565b60405180910390fd5b61314a613755565b565b6000818361315a91906145f1565b905092915050565b6069544311613170576133c5565b6000606d60009054906101000a900473ffffffffffffffffffffffffffffffffffffffff1673ffffffffffffffffffffffffffffffffffffffff166370a08231306040518263ffffffff1660e01b81526004016131cd9190613fb6565b60206040518083038186803b1580156131e557600080fd5b505afa1580156131f9573d6000803e3d6000fd5b505050506040513d601f19601f8201168201806040525081019061321d9190613b45565b905060008114156132355743606981905550506133c5565b600061324360695443613639565b90506000613274606f6000600160ff1660ff16815260200190815260200160002054836133c790919063ffffffff16565b905060006132a5606f6000600260ff1660ff16815260200190815260200160002054846133c790919063ffffffff16565b90506133126132e9856132db60706000600160ff1660ff16815260200190815260200160002054866133c790919063ffffffff16565b6133dd90919063ffffffff16565b606e6000600160ff1660ff168152602001908152602001600020546130cc90919063ffffffff16565b606e6000600160ff1660ff1681526020019081526020016000208190555061339b6133728561336460706000600260ff1660ff16815260200190815260200160002054856133c790919063ffffffff16565b6133dd90919063ffffffff16565b606e6000600260ff1660ff168152602001908152602001600020546130cc90919063ffffffff16565b606e6000600260ff1660ff1681526020019081526020016000208190555043606981905550505050505b565b600081836133d59190614597565b905092915050565b600081836133eb91906143f5565b905092915050565b60008373ffffffffffffffffffffffffffffffffffffffff166370a08231306040518263ffffffff1660e01b815260040161342e9190613fb6565b60206040518083038186803b15801561344657600080fd5b505afa15801561345a573d6000803e3d6000fd5b505050506040513d601f19601f8201168201806040525081019061347e9190613b45565b9050808211156134b8576134b383828673ffffffffffffffffffffffffffffffffffffffff166130469092919063ffffffff16565b6134e4565b6134e383838673ffffffffffffffffffffffffffffffffffffffff166130469092919063ffffffff16565b5b50505050565b6000603360009054906101000a900473ffffffffffffffffffffffffffffffffffffffff16905081603360006101000a81548173ffffffffffffffffffffffffffffffffffffffff021916908373ffffffffffffffffffffffffffffffffffffffff1602179055508173ffffffffffffffffffffffffffffffffffffffff168173ffffffffffffffffffffffffffffffffffffffff167f8be0079c531659141344cd1fd0a4f28419497f9722a3daafe3b4186f6b6457e060405160405180910390a35050565b613633846323b872dd60e01b8585856040516024016135d193929190613fd1565b604051602081830303815290604052907bffffffffffffffffffffffffffffffffffffffffffffffffffffffff19166020820180517bffffffffffffffffffffffffffffffffffffffffffffffffffffffff838183161783525050505061368e565b50505050565b6000606754821161365e57613657838361314c90919063ffffffff16565b9050613688565b60675483106136705760009050613688565b6136858360675461314c90919063ffffffff16565b90505b92915050565b60006136f0826040518060400160405280602081526020017f5361666545524332303a206c6f772d6c6576656c2063616c6c206661696c65648152508573ffffffffffffffffffffffffffffffffffffffff166137b69092919063ffffffff16565b905060008151111561375057808060200190518101906137109190613a41565b61374f576040517f08c379a000000000000000000000000000000000000000000000000000000000815260040161374690614269565b60405180910390fd5b5b505050565b600060019054906101000a900460ff166137a4576040517f08c379a000000000000000000000000000000000000000000000000000000000815260040161379b90614249565b60405180910390fd5b6137b46137af61303e565b6134ea565b565b60606137c584846000856137ce565b90509392505050565b606082471015613813576040517f08c379a000000000000000000000000000000000000000000000000000000000815260040161380a90614109565b60405180910390fd5b61381c8561301b565b61385b576040517f08c379a000000000000000000000000000000000000000000000000000000000815260040161385290614209565b60405180910390fd5b6000808673ffffffffffffffffffffffffffffffffffffffff1685876040516138849190613f9f565b60006040518083038185875af1925050503d80600081146138c1576040519150601f19603f3d011682016040523d82523d6000602084013e6138c6565b606091505b50915091506138d68282866138e2565b92505050949350505050565b606083156138f257829050613942565b6000835111156139055782518084602001fd5b816040517f08c379a00000000000000000000000000000000000000000000000000000000081526004016139399190614067565b60405180910390fd5b9392505050565b60008135905061395881614b4b565b92915050565b60008151905061396d81614b62565b92915050565b60008135905061398281614b79565b92915050565b60008135905061399781614b90565b92915050565b6000815190506139ac81614b90565b92915050565b6000813590506139c181614ba7565b92915050565b6000815190506139d681614ba7565b92915050565b6000602082840312156139ee57600080fd5b60006139fc84828501613949565b91505092915050565b60008060408385031215613a1857600080fd5b6000613a2685828601613949565b9250506020613a3785828601613988565b9150509250929050565b600060208284031215613a5357600080fd5b6000613a618482850161395e565b91505092915050565b600080600080600080600080610100898b031215613a8757600080fd5b6000613a958b828c01613973565b9850506020613aa68b828c01613949565b9750506040613ab78b828c01613949565b9650506060613ac88b828c01613988565b9550506080613ad98b828c01613988565b94505060a0613aea8b828c01613988565b93505060c0613afb8b828c01613988565b92505060e0613b0c8b828c01613949565b9150509295985092959890939650565b600060208284031215613b2e57600080fd5b6000613b3c84828501613988565b91505092915050565b600060208284031215613b5757600080fd5b6000613b658482850161399d565b91505092915050565b60008060408385031215613b8157600080fd5b6000613b8f85828601613988565b9250506020613ba085828601613988565b9150509250929050565b600060208284031215613bbc57600080fd5b6000613bca848285016139b2565b91505092915050565b600060208284031215613be557600080fd5b6000613bf3848285016139c7565b91505092915050565b60008060408385031215613c0f57600080fd5b6000613c1d858286016139b2565b9250506020613c2e85828601613949565b9150509250929050565b60008060408385031215613c4b57600080fd5b6000613c59858286016139b2565b9250506020613c6a85828601613988565b9150509250929050565b613c7d81614625565b82525050565b613c8c81614637565b82525050565b6000613c9d8261436d565b613ca78185614383565b9350613cb78185602086016146b0565b80840191505092915050565b613ccc8161468c565b82525050565b6000613cdd82614378565b613ce7818561438e565b9350613cf78185602086016146b0565b613d0081614741565b840191505092915050565b6000613d1860268361438e565b9150613d238261475f565b604082019050919050565b6000613d3b601c8361438e565b9150613d46826147ae565b602082019050919050565b6000613d5e60108361438e565b9150613d69826147d7565b602082019050919050565b6000613d81602e8361438e565b9150613d8c82614800565b604082019050919050565b6000613da460268361438e565b9150613daf8261484f565b604082019050919050565b6000613dc760198361438e565b9150613dd28261489e565b602082019050919050565b6000613dea60158361438e565b9150613df5826148c7565b602082019050919050565b6000613e0d602e8361438e565b9150613e18826148f0565b604082019050919050565b6000613e3060308361438e565b9150613e3b8261493f565b604082019050919050565b6000613e5360208361438e565b9150613e5e8261498e565b602082019050919050565b6000613e7660168361438e565b9150613e81826149b7565b602082019050919050565b6000613e99601b8361438e565b9150613ea4826149e0565b602082019050919050565b6000613ebc601d8361438e565b9150613ec782614a09565b602082019050919050565b6000613edf60168361438e565b9150613eea82614a32565b602082019050919050565b6000613f02602b8361438e565b9150613f0d82614a5b565b604082019050919050565b6000613f25602a8361438e565b9150613f3082614aaa565b604082019050919050565b6000613f48601f8361438e565b9150613f5382614af9565b602082019050919050565b6000613f6b60168361438e565b9150613f7682614b22565b602082019050919050565b613f8a81614675565b82525050565b613f998161467f565b82525050565b6000613fab8284613c92565b915081905092915050565b6000602082019050613fcb6000830184613c74565b92915050565b6000606082019050613fe66000830186613c74565b613ff36020830185613c74565b6140006040830184613f81565b949350505050565b600060408201905061401d6000830185613c74565b61402a6020830184613f81565b9392505050565b60006020820190506140466000830184613c83565b92915050565b60006020820190506140616000830184613cc3565b92915050565b600060208201905081810360008301526140818184613cd2565b905092915050565b600060208201905081810360008301526140a281613d0b565b9050919050565b600060208201905081810360008301526140c281613d2e565b9050919050565b600060208201905081810360008301526140e281613d51565b9050919050565b6000602082019050818103600083015261410281613d74565b9050919050565b6000602082019050818103600083015261412281613d97565b9050919050565b6000602082019050818103600083015261414281613dba565b9050919050565b6000602082019050818103600083015261416281613ddd565b9050919050565b6000602082019050818103600083015261418281613e00565b9050919050565b600060208201905081810360008301526141a281613e23565b9050919050565b600060208201905081810360008301526141c281613e46565b9050919050565b600060208201905081810360008301526141e281613e69565b9050919050565b6000602082019050818103600083015261420281613e8c565b9050919050565b6000602082019050818103600083015261422281613eaf565b9050919050565b6000602082019050818103600083015261424281613ed2565b9050919050565b6000602082019050818103600083015261426281613ef5565b9050919050565b6000602082019050818103600083015261428281613f18565b9050919050565b600060208201905081810360008301526142a281613f3b565b9050919050565b600060208201905081810360008301526142c281613f5e565b9050919050565b60006020820190506142de6000830184613f81565b92915050565b60006040820190506142f96000830185613f81565b6143066020830184613f81565b9392505050565b60006080820190506143226000830187613f81565b61432f6020830186613f81565b61433c6040830185613f81565b6143496060830184613f81565b95945050505050565b60006020820190506143676000830184613f90565b92915050565b600081519050919050565b600081519050919050565b600081905092915050565b600082825260208201905092915050565b60006143aa82614675565b91506143b583614675565b9250827fffffffffffffffffffffffffffffffffffffffffffffffffffffffffffffffff038211156143ea576143e96146e3565b5b828201905092915050565b600061440082614675565b915061440b83614675565b92508261441b5761441a614712565b5b828204905092915050565b6000808291508390505b60018511156144705780860481111561444c5761444b6146e3565b5b600185161561445b5780820291505b808102905061446985614752565b9450614430565b94509492505050565b600061448482614675565b915061448f83614675565b92506144bc7fffffffffffffffffffffffffffffffffffffffffffffffffffffffffffffffff84846144c4565b905092915050565b6000826144d45760019050614590565b816144e25760009050614590565b81600181146144f8576002811461450257614531565b6001915050614590565b60ff841115614514576145136146e3565b5b8360020a91508482111561452b5761452a6146e3565b5b50614590565b5060208310610133831016604e8410600b84101617156145665782820a905083811115614561576145606146e3565b5b614590565b6145738484846001614426565b9250905081840481111561458a576145896146e3565b5b81810290505b9392505050565b60006145a282614675565b91506145ad83614675565b9250817fffffffffffffffffffffffffffffffffffffffffffffffffffffffffffffffff04831182151516156145e6576145e56146e3565b5b828202905092915050565b60006145fc82614675565b915061460783614675565b92508282101561461a576146196146e3565b5b828203905092915050565b600061463082614655565b9050919050565b60008115159050919050565b600061464e82614625565b9050919050565b600073ffffffffffffffffffffffffffffffffffffffff82169050919050565b6000819050919050565b600060ff82169050919050565b60006146978261469e565b9050919050565b60006146a982614655565b9050919050565b60005b838110156146ce5780820151818401526020810190506146b3565b838111156146dd576000848401525b50505050565b7f4e487b7100000000000000000000000000000000000000000000000000000000600052601160045260246000fd5b7f4e487b7100000000000000000000000000000000000000000000000000000000600052601260045260246000fd5b6000601f19601f8301169050919050565b60008160011c9050919050565b7f4f776e61626c653a206e6577206f776e657220697320746865207a65726f206160008201527f6464726573730000000000000000000000000000000000000000000000000000602082015250565b7f4572726f723a20506f6f6c206e6f742066696e69736865642079657400000000600082015250565b7f506f6f6c20686173207374617274656400000000000000000000000000000000600082015250565b7f4e6577207374617274426c6f636b206d757374206265206c6f7765722074686160008201527f6e206e657720656e64426c6f636b000000000000000000000000000000000000602082015250565b7f416464726573733a20696e73756666696369656e742062616c616e636520666f60008201527f722063616c6c0000000000000000000000000000000000000000000000000000602082015250565b7f4572726f723a204e6f2072656d61696e696e672066756e647300000000000000600082015250565b7f4572726f723a20496e76616c696420616d6f756e740000000000000000000000600082015250565b7f496e697469616c697a61626c653a20636f6e747261637420697320616c72656160008201527f647920696e697469616c697a6564000000000000000000000000000000000000602082015250565b7f4e6577207374617274426c6f636b206d7573742062652068696768657220746860008201527f616e2063757272656e7420626c6f636b00000000000000000000000000000000602082015250565b7f4f776e61626c653a2063616c6c6572206973206e6f7420746865206f776e6572600082015250565b7f43616e6e6f742062652072657761726420746f6b656e00000000000000000000600082015250565b7f416d6f756e7420746f20776974686472617720746f6f20686967680000000000600082015250565b7f416464726573733a2063616c6c20746f206e6f6e2d636f6e7472616374000000600082015250565b7f43616e6e6f74206265207374616b656420746f6b656e00000000000000000000600082015250565b7f496e697469616c697a61626c653a20636f6e7472616374206973206e6f74206960008201527f6e697469616c697a696e67000000000000000000000000000000000000000000602082015250565b7f5361666545524332303a204552433230206f7065726174696f6e20646964206e60008201527f6f74207375636365656400000000000000000000000000000000000000000000602082015250565b7f5265656e7472616e637947756172643a207265656e7472616e742063616c6c00600082015250565b7f4d75737420626520696e666572696f7220746f20333000000000000000000000600082015250565b614b5481614625565b8114614b5f57600080fd5b50565b614b6b81614637565b8114614b7657600080fd5b50565b614b8281614643565b8114614b8d57600080fd5b50565b614b9981614675565b8114614ba457600080fd5b50565b614bb08161467f565b8114614bbb57600080fd5b5056fea2646970667358221220b17206b345cd5a36a31153489e6e9f85886a1fb6316c508e35f0be5f6a85856564736f6c63430008040033",
  "devdoc": {
    "kind": "dev",
    "methods": {
      "owner()": {
        "details": "Returns the address of the current owner."
      },
      "recoverWrongTokens(address,uint256)": {
        "details": "This function is only callable by admin.",
        "params": {
          "_tokenAddress": ": the address of the token to withdraw",
          "_tokenAmount": ": the number of tokens to withdraw"
        }
      },
      "renounceOwnership()": {
        "details": "Leaves the contract without owner. It will not be possible to call `onlyOwner` functions anymore. Can only be called by the current owner. NOTE: Renouncing ownership will leave the contract without an owner, thereby removing any functionality that is only available to the owner."
      },
      "transferOwnership(address)": {
        "details": "Transfers ownership of the contract to a new account (`newOwner`). Can only be called by the current owner."
      },
      "updateStartAndEndBlocks(uint256,uint256)": {
        "details": "This function is only callable by owner.",
        "params": {
          "_bonusEndBlock": ": the new end block",
          "_startBlock": ": the new start block"
        }
      }
    },
    "version": 1
  },
  "userdoc": {
    "kind": "user",
    "methods": {
      "recoverWrongTokens(address,uint256)": {
        "notice": "It allows the admin to recover wrong tokens sent to the contract"
      },
      "updateStartAndEndBlocks(uint256,uint256)": {
        "notice": "It allows the admin to update start and end blocks"
      }
    },
    "version": 1
  },
  "storageLayout": {
    "storage": [
      {
        "astId": 130,
        "contract": "contracts/GQGalacticAlliance.sol:GQGalacticAlliance",
        "label": "_initialized",
        "offset": 0,
        "slot": "0",
        "type": "t_bool"
      },
      {
        "astId": 133,
        "contract": "contracts/GQGalacticAlliance.sol:GQGalacticAlliance",
        "label": "_initializing",
        "offset": 1,
        "slot": "0",
        "type": "t_bool"
      },
      {
        "astId": 808,
        "contract": "contracts/GQGalacticAlliance.sol:GQGalacticAlliance",
        "label": "__gap",
        "offset": 0,
        "slot": "1",
        "type": "t_array(t_uint256)50_storage"
      },
      {
        "astId": 10,
        "contract": "contracts/GQGalacticAlliance.sol:GQGalacticAlliance",
        "label": "_owner",
        "offset": 0,
        "slot": "51",
        "type": "t_address"
      },
      {
        "astId": 122,
        "contract": "contracts/GQGalacticAlliance.sol:GQGalacticAlliance",
        "label": "__gap",
        "offset": 0,
        "slot": "52",
        "type": "t_array(t_uint256)49_storage"
      },
      {
        "astId": 1619,
        "contract": "contracts/GQGalacticAlliance.sol:GQGalacticAlliance",
        "label": "_status",
        "offset": 0,
        "slot": "101",
        "type": "t_uint256"
      },
      {
        "astId": 3505,
        "contract": "contracts/GQGalacticAlliance.sol:GQGalacticAlliance",
        "label": "isInitialized",
        "offset": 0,
        "slot": "102",
        "type": "t_bool"
      },
      {
        "astId": 3507,
        "contract": "contracts/GQGalacticAlliance.sol:GQGalacticAlliance",
        "label": "endBlock",
        "offset": 0,
        "slot": "103",
        "type": "t_uint256"
      },
      {
        "astId": 3509,
        "contract": "contracts/GQGalacticAlliance.sol:GQGalacticAlliance",
        "label": "startBlock",
        "offset": 0,
        "slot": "104",
        "type": "t_uint256"
      },
      {
        "astId": 3511,
        "contract": "contracts/GQGalacticAlliance.sol:GQGalacticAlliance",
        "label": "lastUpdateBlock",
        "offset": 0,
        "slot": "105",
        "type": "t_uint256"
      },
      {
        "astId": 3513,
        "contract": "contracts/GQGalacticAlliance.sol:GQGalacticAlliance",
        "label": "lockUpDuration",
        "offset": 0,
        "slot": "106",
        "type": "t_uint256"
      },
      {
        "astId": 3515,
        "contract": "contracts/GQGalacticAlliance.sol:GQGalacticAlliance",
        "label": "withdrawFee",
        "offset": 0,
        "slot": "107",
        "type": "t_uint256"
      },
      {
        "astId": 3517,
        "contract": "contracts/GQGalacticAlliance.sol:GQGalacticAlliance",
        "label": "feeAddress",
        "offset": 0,
        "slot": "108",
        "type": "t_address"
      },
      {
        "astId": 3520,
        "contract": "contracts/GQGalacticAlliance.sol:GQGalacticAlliance",
        "label": "stakedToken",
        "offset": 0,
        "slot": "109",
        "type": "t_contract(IERC20Upgradeable)275"
      },
      {
        "astId": 3524,
        "contract": "contracts/GQGalacticAlliance.sol:GQGalacticAlliance",
        "label": "mapOfAccTokenPerShare",
        "offset": 0,
        "slot": "110",
        "type": "t_mapping(t_uint8,t_uint256)"
      },
      {
        "astId": 3528,
        "contract": "contracts/GQGalacticAlliance.sol:GQGalacticAlliance",
        "label": "mapOfRewardPerBlock",
        "offset": 0,
        "slot": "111",
        "type": "t_mapping(t_uint8,t_uint256)"
      },
      {
        "astId": 3532,
        "contract": "contracts/GQGalacticAlliance.sol:GQGalacticAlliance",
        "label": "mapOfPrecisionFactor",
        "offset": 0,
        "slot": "112",
        "type": "t_mapping(t_uint8,t_uint256)"
      },
      {
        "astId": 3536,
        "contract": "contracts/GQGalacticAlliance.sol:GQGalacticAlliance",
        "label": "mapOfRewardTokenDecimals",
        "offset": 0,
        "slot": "113",
        "type": "t_mapping(t_uint8,t_uint8)"
      },
      {
        "astId": 3540,
        "contract": "contracts/GQGalacticAlliance.sol:GQGalacticAlliance",
        "label": "mapOfRewardTokens",
        "offset": 0,
        "slot": "114",
        "type": "t_mapping(t_uint8,t_address)"
      },
      {
        "astId": 3545,
        "contract": "contracts/GQGalacticAlliance.sol:GQGalacticAlliance",
        "label": "userInfo",
        "offset": 0,
        "slot": "115",
        "type": "t_mapping(t_address,t_struct(UserInfo)3554_storage)"
      }
    ],
    "types": {
      "t_address": {
        "encoding": "inplace",
        "label": "address",
        "numberOfBytes": "20"
      },
      "t_array(t_uint256)49_storage": {
        "base": "t_uint256",
        "encoding": "inplace",
        "label": "uint256[49]",
        "numberOfBytes": "1568"
      },
      "t_array(t_uint256)50_storage": {
        "base": "t_uint256",
        "encoding": "inplace",
        "label": "uint256[50]",
        "numberOfBytes": "1600"
      },
      "t_bool": {
        "encoding": "inplace",
        "label": "bool",
        "numberOfBytes": "1"
      },
      "t_contract(IERC20Upgradeable)275": {
        "encoding": "inplace",
        "label": "contract IERC20Upgradeable",
        "numberOfBytes": "20"
      },
      "t_mapping(t_address,t_struct(UserInfo)3554_storage)": {
        "encoding": "mapping",
        "key": "t_address",
        "label": "mapping(address => struct GQGalacticAlliance.UserInfo)",
        "numberOfBytes": "32",
        "value": "t_struct(UserInfo)3554_storage"
      },
      "t_mapping(t_uint8,t_address)": {
        "encoding": "mapping",
        "key": "t_uint8",
        "label": "mapping(uint8 => address)",
        "numberOfBytes": "32",
        "value": "t_address"
      },
      "t_mapping(t_uint8,t_uint256)": {
        "encoding": "mapping",
        "key": "t_uint8",
        "label": "mapping(uint8 => uint256)",
        "numberOfBytes": "32",
        "value": "t_uint256"
      },
      "t_mapping(t_uint8,t_uint8)": {
        "encoding": "mapping",
        "key": "t_uint8",
        "label": "mapping(uint8 => uint8)",
        "numberOfBytes": "32",
        "value": "t_uint8"
      },
      "t_struct(UserInfo)3554_storage": {
        "encoding": "inplace",
        "label": "struct GQGalacticAlliance.UserInfo",
        "members": [
          {
            "astId": 3547,
            "contract": "contracts/GQGalacticAlliance.sol:GQGalacticAlliance",
            "label": "amount",
            "offset": 0,
            "slot": "0",
            "type": "t_uint256"
          },
          {
            "astId": 3549,
            "contract": "contracts/GQGalacticAlliance.sol:GQGalacticAlliance",
            "label": "rewardDebt1",
            "offset": 0,
            "slot": "1",
            "type": "t_uint256"
          },
          {
            "astId": 3551,
            "contract": "contracts/GQGalacticAlliance.sol:GQGalacticAlliance",
            "label": "rewardDebt2",
            "offset": 0,
            "slot": "2",
            "type": "t_uint256"
          },
          {
            "astId": 3553,
            "contract": "contracts/GQGalacticAlliance.sol:GQGalacticAlliance",
            "label": "firstDeposit",
            "offset": 0,
            "slot": "3",
            "type": "t_uint256"
          }
        ],
        "numberOfBytes": "128"
      },
      "t_uint256": {
        "encoding": "inplace",
        "label": "uint256",
        "numberOfBytes": "32"
      },
      "t_uint8": {
        "encoding": "inplace",
        "label": "uint8",
        "numberOfBytes": "1"
      }
    }
  }
}