{
  "address": "0xe7f1725E7734CE288F8367e1Bb143E90bb3F0512",
  "abi": [
    {
      "inputs": [],
      "stateMutability": "nonpayable",
      "type": "constructor"
    },
    {
      "anonymous": false,
      "inputs": [
        {
          "indexed": false,
          "internalType": "address",
          "name": "tokenRecovered",
          "type": "address"
        },
        {
          "indexed": false,
          "internalType": "uint256",
          "name": "amount",
          "type": "uint256"
        }
      ],
      "name": "AdminTokenRecovery",
      "type": "event"
    },
    {
      "anonymous": false,
      "inputs": [
        {
          "indexed": true,
          "internalType": "address",
          "name": "user",
          "type": "address"
        },
        {
          "indexed": false,
          "internalType": "uint256",
          "name": "amount",
          "type": "uint256"
        }
      ],
      "name": "Claim",
      "type": "event"
    },
    {
      "anonymous": false,
      "inputs": [
        {
          "indexed": true,
          "internalType": "address",
          "name": "user",
          "type": "address"
        },
        {
          "indexed": false,
          "internalType": "uint256",
          "name": "amount",
          "type": "uint256"
        }
      ],
      "name": "Deposit",
      "type": "event"
    },
    {
      "anonymous": false,
      "inputs": [
        {
          "indexed": true,
          "internalType": "address",
          "name": "user",
          "type": "address"
        },
        {
          "indexed": false,
          "internalType": "uint256",
          "name": "amount",
          "type": "uint256"
        }
      ],
      "name": "EmergencyWithdraw",
      "type": "event"
    },
    {
      "anonymous": false,
      "inputs": [
        {
          "indexed": false,
          "internalType": "uint256",
          "name": "endBlock",
          "type": "uint256"
        }
      ],
      "name": "NewEndBlock",
      "type": "event"
    },
    {
      "anonymous": false,
      "inputs": [
        {
          "indexed": false,
          "internalType": "uint256",
          "name": "lockUpDuration",
          "type": "uint256"
        }
      ],
      "name": "NewLockUpDuration",
      "type": "event"
    },
    {
      "anonymous": false,
      "inputs": [
        {
          "indexed": false,
          "internalType": "uint256",
          "name": "rewardPerBlock",
          "type": "uint256"
        }
      ],
      "name": "NewRewardPerBlock",
      "type": "event"
    },
    {
      "anonymous": false,
      "inputs": [
        {
          "indexed": false,
          "internalType": "uint256",
          "name": "startBlock",
          "type": "uint256"
        },
        {
          "indexed": false,
          "internalType": "uint256",
          "name": "endBlock",
          "type": "uint256"
        }
      ],
      "name": "NewStartAndEndBlocks",
      "type": "event"
    },
    {
      "anonymous": false,
      "inputs": [
        {
          "indexed": true,
          "internalType": "address",
          "name": "previousOwner",
          "type": "address"
        },
        {
          "indexed": true,
          "internalType": "address",
          "name": "newOwner",
          "type": "address"
        }
      ],
      "name": "OwnershipTransferred",
      "type": "event"
    },
    {
      "anonymous": false,
      "inputs": [
        {
          "indexed": false,
          "internalType": "uint256",
          "name": "blockNumber",
          "type": "uint256"
        }
      ],
      "name": "RewardsStop",
      "type": "event"
    },
    {
      "anonymous": false,
      "inputs": [
        {
          "indexed": true,
          "internalType": "address",
          "name": "user",
          "type": "address"
        },
        {
          "indexed": false,
          "internalType": "uint256",
          "name": "amount",
          "type": "uint256"
        }
      ],
      "name": "Withdraw",
      "type": "event"
    },
    {
      "inputs": [],
      "name": "claim",
      "outputs": [],
      "stateMutability": "nonpayable",
      "type": "function"
    },
    {
      "inputs": [
        {
          "internalType": "uint256",
          "name": "_amount",
          "type": "uint256"
        }
      ],
      "name": "deposit",
      "outputs": [],
      "stateMutability": "nonpayable",
      "type": "function"
    },
    {
      "inputs": [
        {
          "internalType": "uint8",
          "name": "_rewardTokenId",
          "type": "uint8"
        },
        {
          "internalType": "uint256",
          "name": "_amount",
          "type": "uint256"
        }
      ],
      "name": "depositRewardTokenFunds",
      "outputs": [],
      "stateMutability": "nonpayable",
      "type": "function"
    },
    {
      "inputs": [],
      "name": "emergencyWithdraw",
      "outputs": [],
      "stateMutability": "nonpayable",
      "type": "function"
    },
    {
      "inputs": [],
      "name": "endBlock",
      "outputs": [
        {
          "internalType": "uint256",
          "name": "",
          "type": "uint256"
        }
      ],
      "stateMutability": "view",
      "type": "function"
    },
    {
      "inputs": [],
      "name": "feeAddress",
      "outputs": [
        {
          "internalType": "address",
          "name": "",
          "type": "address"
        }
      ],
      "stateMutability": "view",
      "type": "function"
    },
    {
      "inputs": [
        {
          "internalType": "contract IERC20Upgradeable",
          "name": "_stakedToken",
          "type": "address"
        },
        {
          "internalType": "address",
          "name": "_rewardToken1",
          "type": "address"
        },
        {
          "internalType": "address",
          "name": "_rewardToken2",
          "type": "address"
        },
        {
          "internalType": "uint256",
          "name": "_startBlock",
          "type": "uint256"
        },
        {
          "internalType": "uint256",
          "name": "_endBlock",
          "type": "uint256"
        },
        {
          "internalType": "uint256",
          "name": "_lockUpDuration",
          "type": "uint256"
        },
        {
          "internalType": "uint256",
          "name": "_withdrawFee",
          "type": "uint256"
        },
        {
          "internalType": "address",
          "name": "_feeAddress",
          "type": "address"
        }
      ],
      "name": "initialize",
      "outputs": [],
      "stateMutability": "nonpayable",
      "type": "function"
    },
    {
      "inputs": [],
      "name": "isInitialized",
      "outputs": [
        {
          "internalType": "bool",
          "name": "",
          "type": "bool"
        }
      ],
      "stateMutability": "view",
      "type": "function"
    },
    {
      "inputs": [],
      "name": "lastUpdateBlock",
      "outputs": [
        {
          "internalType": "uint256",
          "name": "",
          "type": "uint256"
        }
      ],
      "stateMutability": "view",
      "type": "function"
    },
    {
      "inputs": [],
      "name": "lockUpDuration",
      "outputs": [
        {
          "internalType": "uint256",
          "name": "",
          "type": "uint256"
        }
      ],
      "stateMutability": "view",
      "type": "function"
    },
    {
      "inputs": [
        {
          "internalType": "uint8",
          "name": "",
          "type": "uint8"
        }
      ],
      "name": "mapOfAccTokenPerShare",
      "outputs": [
        {
          "internalType": "uint256",
          "name": "",
          "type": "uint256"
        }
      ],
      "stateMutability": "view",
      "type": "function"
    },
    {
      "inputs": [
        {
          "internalType": "uint8",
          "name": "",
          "type": "uint8"
        }
      ],
      "name": "mapOfPrecisionFactor",
      "outputs": [
        {
          "internalType": "uint256",
          "name": "",
          "type": "uint256"
        }
      ],
      "stateMutability": "view",
      "type": "function"
    },
    {
      "inputs": [
        {
          "internalType": "uint8",
          "name": "",
          "type": "uint8"
        }
      ],
      "name": "mapOfRewardTokenDecimals",
      "outputs": [
        {
          "internalType": "uint8",
          "name": "",
          "type": "uint8"
        }
      ],
      "stateMutability": "view",
      "type": "function"
    },
    {
      "inputs": [
        {
          "internalType": "uint8",
          "name": "",
          "type": "uint8"
        }
      ],
      "name": "mapOfRewardTokens",
      "outputs": [
        {
          "internalType": "address",
          "name": "",
          "type": "address"
        }
      ],
      "stateMutability": "view",
      "type": "function"
    },
    {
      "inputs": [],
      "name": "owner",
      "outputs": [
        {
          "internalType": "address",
          "name": "",
          "type": "address"
        }
      ],
      "stateMutability": "view",
      "type": "function"
    },
    {
      "inputs": [
        {
          "internalType": "uint8",
          "name": "_rewardTokenId",
          "type": "uint8"
        },
        {
          "internalType": "address",
          "name": "_user",
          "type": "address"
        }
      ],
      "name": "pendingReward",
      "outputs": [
        {
          "internalType": "uint256",
          "name": "",
          "type": "uint256"
        }
      ],
      "stateMutability": "view",
      "type": "function"
    },
    {
      "inputs": [
        {
          "internalType": "uint8",
          "name": "_rewardTokenId",
          "type": "uint8"
        }
      ],
      "name": "poolCalcRewardPerBlock",
      "outputs": [],
      "stateMutability": "nonpayable",
      "type": "function"
    },
    {
      "inputs": [
        {
          "internalType": "uint256",
          "name": "_durationBlocks",
          "type": "uint256"
        }
      ],
      "name": "poolSetDuration",
      "outputs": [],
      "stateMutability": "nonpayable",
      "type": "function"
    },
    {
      "inputs": [
        {
          "internalType": "uint256",
          "name": "_startBlock",
          "type": "uint256"
        }
      ],
      "name": "poolSetStart",
      "outputs": [],
      "stateMutability": "nonpayable",
      "type": "function"
    },
    {
      "inputs": [
        {
          "internalType": "uint256",
          "name": "_startBlock",
          "type": "uint256"
        },
        {
          "internalType": "uint256",
          "name": "_durationBlocks",
          "type": "uint256"
        }
      ],
      "name": "poolSetStartAndDuration",
      "outputs": [],
      "stateMutability": "nonpayable",
      "type": "function"
    },
    {
      "inputs": [
        {
          "internalType": "uint256",
          "name": "_blocks",
          "type": "uint256"
        }
      ],
      "name": "poolStartIn",
      "outputs": [],
      "stateMutability": "nonpayable",
      "type": "function"
    },
    {
      "inputs": [
        {
          "internalType": "address",
          "name": "_tokenAddress",
          "type": "address"
        },
        {
          "internalType": "uint256",
          "name": "_tokenAmount",
          "type": "uint256"
        }
      ],
      "name": "recoverWrongTokens",
      "outputs": [],
      "stateMutability": "nonpayable",
      "type": "function"
    },
    {
      "inputs": [],
      "name": "renounceOwnership",
      "outputs": [],
      "stateMutability": "nonpayable",
      "type": "function"
    },
    {
      "inputs": [
        {
          "internalType": "uint8",
          "name": "_rewardTokenId",
          "type": "uint8"
        }
      ],
      "name": "rewarPerBlockUI",
      "outputs": [
        {
          "internalType": "uint256",
          "name": "",
          "type": "uint256"
        }
      ],
      "stateMutability": "view",
      "type": "function"
    },
    {
      "inputs": [],
      "name": "rewardDuration",
      "outputs": [
        {
          "internalType": "uint256",
          "name": "",
          "type": "uint256"
        }
      ],
      "stateMutability": "view",
      "type": "function"
    },
    {
      "inputs": [
        {
          "internalType": "uint256",
          "name": "_lockUpDuration",
          "type": "uint256"
        }
      ],
      "name": "setLockUpDuration",
      "outputs": [],
      "stateMutability": "nonpayable",
      "type": "function"
    },
    {
      "inputs": [],
      "name": "stakedToken",
      "outputs": [
        {
          "internalType": "contract IERC20Upgradeable",
          "name": "",
          "type": "address"
        }
      ],
      "stateMutability": "view",
      "type": "function"
    },
    {
      "inputs": [],
      "name": "startBlock",
      "outputs": [
        {
          "internalType": "uint256",
          "name": "",
          "type": "uint256"
        }
      ],
      "stateMutability": "view",
      "type": "function"
    },
    {
      "inputs": [],
      "name": "stopReward",
      "outputs": [],
      "stateMutability": "nonpayable",
      "type": "function"
    },
    {
      "inputs": [
        {
          "internalType": "address",
          "name": "newOwner",
          "type": "address"
        }
      ],
      "name": "transferOwnership",
      "outputs": [],
      "stateMutability": "nonpayable",
      "type": "function"
    },
    {
      "inputs": [
        {
          "internalType": "uint8",
          "name": "_rewardTokenId",
          "type": "uint8"
        },
        {
          "internalType": "uint256",
          "name": "_rewardPerBlock",
          "type": "uint256"
        }
      ],
      "name": "updateRewardPerBlock",
      "outputs": [],
      "stateMutability": "nonpayable",
      "type": "function"
    },
    {
      "inputs": [
        {
          "internalType": "uint256",
          "name": "_startBlock",
          "type": "uint256"
        },
        {
          "internalType": "uint256",
          "name": "_bonusEndBlock",
          "type": "uint256"
        }
      ],
      "name": "updateStartAndEndBlocks",
      "outputs": [],
      "stateMutability": "nonpayable",
      "type": "function"
    },
    {
      "inputs": [
        {
          "internalType": "address",
          "name": "",
          "type": "address"
        }
      ],
      "name": "userInfo",
      "outputs": [
        {
          "internalType": "uint256",
          "name": "amount",
          "type": "uint256"
        },
        {
          "internalType": "uint256",
          "name": "rewardDebt1",
          "type": "uint256"
        },
        {
          "internalType": "uint256",
          "name": "rewardDebt2",
          "type": "uint256"
        },
        {
          "internalType": "uint256",
          "name": "firstDeposit",
          "type": "uint256"
        }
      ],
      "stateMutability": "view",
      "type": "function"
    },
    {
      "inputs": [
        {
          "internalType": "uint256",
          "name": "_amount",
          "type": "uint256"
        }
      ],
      "name": "withdraw",
      "outputs": [],
      "stateMutability": "nonpayable",
      "type": "function"
    },
    {
      "inputs": [],
      "name": "withdrawFee",
      "outputs": [
        {
          "internalType": "uint256",
          "name": "",
          "type": "uint256"
        }
      ],
      "stateMutability": "view",
      "type": "function"
    },
    {
      "inputs": [
        {
          "internalType": "uint8",
          "name": "_rewardTokenId",
          "type": "uint8"
        },
        {
          "internalType": "address",
          "name": "_to",
          "type": "address"
        }
      ],
      "name": "withdrawRemains",
      "outputs": [],
      "stateMutability": "nonpayable",
      "type": "function"
    }
  ],
  "transactionHash": "0x94e055979a4c907cf085ce1e91d0a78e1204c62e545567be1b31c99949f6e57d",
  "args": [],
  "numDeployments": 1,
  "solcInputHash": "4467954991cf1c01e215823ec8078781",
  "bytecode": "0x60806040523480156200001157600080fd5b506001606581905550600060019054906101000a900460ff16620000445760008054906101000a900460ff161562000055565b620000546200011160201b60201c565b5b62000097576040517f08c379a00000000000000000000000000000000000000000000000000000000081526004016200008e9062000179565b60405180910390fd5b60008060019054906101000a900460ff161590508015620000e8576001600060016101000a81548160ff02191690831515021790555060016000806101000a81548160ff0219169083151502179055505b80156200010a5760008060016101000a81548160ff0219169083151502179055505b50620001fb565b600062000129306200012f60201b62002fc81760201c565b15905090565b6000808273ffffffffffffffffffffffffffffffffffffffff163b119050919050565b600062000161602e836200019b565b91506200016e82620001ac565b604082019050919050565b60006020820190508181036000830152620001948162000152565b9050919050565b600082825260208201905092915050565b7f496e697469616c697a61626c653a20636f6e747261637420697320616c72656160008201527f647920696e697469616c697a6564000000000000000000000000000000000000602082015250565b614ba1806200020b6000396000f3fe608060405234801561001057600080fd5b506004361061021c5760003560e01c806383d1c65b11610125578063bfe5f541116100ad578063db2e21bc1161007c578063db2e21bc146105ee578063e1b2addc146105f8578063e941fa7814610614578063f2fde38b14610632578063f520e7e51461064e5761021c565b8063bfe5f54114610568578063c9b5b29d14610584578063cc7a262e146105b4578063d3a8615c146105d25761021c565b8063a218141b116100f4578063a218141b146104b2578063af1664d1146104d0578063b3f02d3814610500578063b6b55f251461051c578063be615335146105385761021c565b806383d1c65b146104405780638da5cb5b1461045c5780639513997f1461047a5780639b4f9193146104965761021c565b806341275358116101a857806363664dc71161017757806363664dc7146103c25780636aa662b5146103f2578063715018a6146104105780637bfaa40c1461041a57806380dc0672146104365761021c565b8063412753581461034c57806348cd4cb11461036a5780634e71d92d146103885780635fed9b13146103925761021c565b806327e644fe116101ef57806327e644fe146102aa5780632bf033ad146102da5780632e1a7d4d146102f6578063392e53cd146103125780633f138d4b146103305761021c565b8063083c6323146102215780630f7064eb1461023f57806310f8097b1461025b5780631959a00214610277575b600080fd5b61022961066c565b6040516102369190614276565b60405180910390f35b61025960048036038101906102549190613be5565b610672565b005b61027560048036038101906102709190613ac9565b610756565b005b610291600480360381019061028c9190613989565b6107f0565b6040516102a194939291906142ba565b60405180910390f35b6102c460048036038101906102bf9190613b57565b610820565b6040516102d19190613f63565b60405180910390f35b6102f460048036038101906102ef9190613a17565b610853565b005b610310600480360381019061030b9190613ac9565b610e02565b005b61031a61132e565b6040516103279190613fde565b60405180910390f35b61034a600480360381019061034591906139b2565b611341565b005b6103546115d1565b6040516103619190613f63565b60405180910390f35b6103726115f7565b60405161037f9190614276565b60405180910390f35b6103906115fd565b005b6103ac60048036038101906103a79190613b57565b6119a3565b6040516103b991906142ff565b60405180910390f35b6103dc60048036038101906103d79190613b57565b6119c3565b6040516103e99190614276565b60405180910390f35b6103fa6119db565b6040516104079190614276565b60405180910390f35b6104186119e1565b005b610434600480360381019061042f9190613ac9565b611a69565b005b61043e611b94565b005b61045a60048036038101906104559190613b57565b611c19565b005b610464611d96565b6040516104719190613f63565b60405180910390f35b610494600480360381019061048f9190613b1b565b611dc0565b005b6104b060048036038101906104ab9190613be5565b611f58565b005b6104ba612071565b6040516104c79190614276565b60405180910390f35b6104ea60048036038101906104e59190613b57565b612077565b6040516104f79190614276565b60405180910390f35b61051a60048036038101906105159190613ac9565b61208f565b005b61053660048036038101906105319190613ac9565b6121c7565b005b610552600480360381019061054d9190613ba9565b6125b8565b60405161055f9190614276565b60405180910390f35b610582600480360381019061057d9190613ba9565b61286b565b005b61059e60048036038101906105999190613b57565b612a9d565b6040516105ab9190614276565b60405180910390f35b6105bc612b07565b6040516105c99190613ff9565b60405180910390f35b6105ec60048036038101906105e79190613b1b565b612b2d565b005b6105f6612bbf565b005b610612600480360381019061060d9190613ac9565b612ded565b005b61061c612eac565b6040516106299190614276565b60405180910390f35b61064c60048036038101906106479190613989565b612eb2565b005b610656612faa565b6040516106639190614276565b60405180910390f35b60675481565b61067a612feb565b73ffffffffffffffffffffffffffffffffffffffff16610698611d96565b73ffffffffffffffffffffffffffffffffffffffff16146106ee576040517f08c379a00000000000000000000000000000000000000000000000000000000081526004016106e590614156565b60405180910390fd5b6107523082607260008660ff1660ff16815260200190815260200160002060009054906101000a900473ffffffffffffffffffffffffffffffffffffffff1673ffffffffffffffffffffffffffffffffffffffff16612ff39092919063ffffffff16565b5050565b61075e612feb565b73ffffffffffffffffffffffffffffffffffffffff1661077c611d96565b73ffffffffffffffffffffffffffffffffffffffff16146107d2576040517f08c379a00000000000000000000000000000000000000000000000000000000081526004016107c990614156565b60405180910390fd5b6107ed6107e8824361307990919063ffffffff16565b61208f565b50565b60736020528060005260406000206000915090508060000154908060010154908060020154908060030154905084565b60726020528060005260406000206000915054906101000a900473ffffffffffffffffffffffffffffffffffffffff1681565b600060019054906101000a900460ff1661087b5760008054906101000a900460ff1615610884565b61088361308f565b5b6108c3576040517f08c379a00000000000000000000000000000000000000000000000000000000081526004016108ba90614116565b60405180910390fd5b60008060019054906101000a900460ff161590508015610913576001600060016101000a81548160ff02191690831515021790555060016000806101000a81548160ff0219169083151502179055505b61091b6130a0565b88606d60006101000a81548173ffffffffffffffffffffffffffffffffffffffff021916908373ffffffffffffffffffffffffffffffffffffffff1602179055508760726000600160ff1660ff16815260200190815260200160002060006101000a81548173ffffffffffffffffffffffffffffffffffffffff021916908373ffffffffffffffffffffffffffffffffffffffff1602179055508660726000600260ff1660ff16815260200190815260200160002060006101000a81548173ffffffffffffffffffffffffffffffffffffffff021916908373ffffffffffffffffffffffffffffffffffffffff160217905550856068819055508460678190555083606a8190555082606b8190555081606c60006101000a81548173ffffffffffffffffffffffffffffffffffffffff021916908373ffffffffffffffffffffffffffffffffffffffff16021790555060726000600160ff1660ff16815260200190815260200160002060009054906101000a900473ffffffffffffffffffffffffffffffffffffffff1673ffffffffffffffffffffffffffffffffffffffff1663313ce5676040518163ffffffff1660e01b815260040160206040518083038186803b158015610aeb57600080fd5b505afa158015610aff573d6000803e3d6000fd5b505050506040513d601f19601f82011682018060405250810190610b239190613b80565b60716000600160ff1660ff16815260200190815260200160002060006101000a81548160ff021916908360ff16021790555060726000600260ff1660ff16815260200190815260200160002060009054906101000a900473ffffffffffffffffffffffffffffffffffffffff1673ffffffffffffffffffffffffffffffffffffffff1663313ce5676040518163ffffffff1660e01b815260040160206040518083038186803b158015610bd557600080fd5b505afa158015610be9573d6000803e3d6000fd5b505050506040513d601f19601f82011682018060405250810190610c0d9190613b80565b60716000600260ff1660ff16815260200190815260200160002060006101000a81548160ff021916908360ff160217905550601e60716000600160ff1660ff16815260200190815260200160002060009054906101000a900460ff1660ff16108015610ca35750601e60716000600260ff1660ff16815260200190815260200160002060009054906101000a900460ff1660ff16105b610ce2576040517f08c379a0000000000000000000000000000000000000000000000000000000008152600401610cd990614256565b60405180910390fd5b610d2060716000600160ff1660ff16815260200190815260200160002060009054906101000a900460ff1660ff16601e6130f990919063ffffffff16565b600a610d2c9190614426565b60706000600160ff1660ff16815260200190815260200160002081905550610d8860716000600260ff1660ff16815260200190815260200160002060009054906101000a900460ff1660ff16601e6130f990919063ffffffff16565b600a610d949190614426565b60706000600260ff1660ff168152602001908152602001600020819055506068546069819055506001606660006101000a81548160ff0219169083151502179055508015610df75760008060016101000a81548160ff0219169083151502179055505b505050505050505050565b60026065541415610e48576040517f08c379a0000000000000000000000000000000000000000000000000000000008152600401610e3f90614236565b60405180910390fd5b600260658190555060008111610e93576040517f08c379a0000000000000000000000000000000000000000000000000000000008152600401610e8a906140f6565b60405180910390fd5b6000607360003373ffffffffffffffffffffffffffffffffffffffff1673ffffffffffffffffffffffffffffffffffffffff16815260200190815260200160002090508181600001541015610f1d576040517f08c379a0000000000000000000000000000000000000000000000000000000008152600401610f1490614196565b60405180910390fd5b610f2561310f565b6000610f9a8260010154610f8c60706000600160ff1660ff16815260200190815260200160002054610f7e606e6000600160ff1660ff16815260200190815260200160002054876000015461337490919063ffffffff16565b61338a90919063ffffffff16565b6130f990919063ffffffff16565b90506000611011836002015461100360706000600260ff1660ff16815260200190815260200160002054610ff5606e6000600260ff1660ff16815260200190815260200160002054886000015461337490919063ffffffff16565b61338a90919063ffffffff16565b6130f990919063ffffffff16565b905061102a8484600001546130f990919063ffffffff16565b83600001819055506000849050606a548460030154611049919061434c565b4210156110fc57600061107b61271061106d606b548561337490919063ffffffff16565b61338a90919063ffffffff16565b90506110ec606c60009054906101000a900473ffffffffffffffffffffffffffffffffffffffff1682606d60009054906101000a900473ffffffffffffffffffffffffffffffffffffffff1673ffffffffffffffffffffffffffffffffffffffff16612ff39092919063ffffffff16565b80826110f8919061459e565b9150505b6111493382606d60009054906101000a900473ffffffffffffffffffffffffffffffffffffffff1673ffffffffffffffffffffffffffffffffffffffff16612ff39092919063ffffffff16565b600084600301541461115f578360030154611161565b425b846003018190555060008311156111b8576111b760726000600160ff1660ff16815260200190815260200160002060009054906101000a900473ffffffffffffffffffffffffffffffffffffffff1633856133a0565b5b60008211156112075761120660726000600260ff1660ff16815260200190815260200160002060009054906101000a900473ffffffffffffffffffffffffffffffffffffffff1633846133a0565b5b61126460706000600160ff1660ff16815260200190815260200160002054611256606e6000600160ff1660ff16815260200190815260200160002054876000015461337490919063ffffffff16565b61338a90919063ffffffff16565b84600101819055506112c960706000600260ff1660ff168152602001908152602001600020546112bb606e6000600260ff1660ff16815260200190815260200160002054876000015461337490919063ffffffff16565b61338a90919063ffffffff16565b84600201819055503373ffffffffffffffffffffffffffffffffffffffff167f884edad9ce6fa2440d8a54cc123490eb96d2768479d49ff9c7366125a9424364866040516113179190614276565b60405180910390a250505050600160658190555050565b606660009054906101000a900460ff1681565b611349612feb565b73ffffffffffffffffffffffffffffffffffffffff16611367611d96565b73ffffffffffffffffffffffffffffffffffffffff16146113bd576040517f08c379a00000000000000000000000000000000000000000000000000000000081526004016113b490614156565b60405180910390fd5b606d60009054906101000a900473ffffffffffffffffffffffffffffffffffffffff1673ffffffffffffffffffffffffffffffffffffffff168273ffffffffffffffffffffffffffffffffffffffff16141561144e576040517f08c379a0000000000000000000000000000000000000000000000000000000008152600401611445906141d6565b60405180910390fd5b60726000600160ff1660ff16815260200190815260200160002060009054906101000a900473ffffffffffffffffffffffffffffffffffffffff1673ffffffffffffffffffffffffffffffffffffffff168273ffffffffffffffffffffffffffffffffffffffff161415801561152a575060726000600260ff1660ff16815260200190815260200160002060009054906101000a900473ffffffffffffffffffffffffffffffffffffffff1673ffffffffffffffffffffffffffffffffffffffff168273ffffffffffffffffffffffffffffffffffffffff1614155b611569576040517f08c379a000000000000000000000000000000000000000000000000000000000815260040161156090614176565b60405180910390fd5b61159433828473ffffffffffffffffffffffffffffffffffffffff16612ff39092919063ffffffff16565b7f74545154aac348a3eac92596bd1971957ca94795f4e954ec5f613b55fab7812982826040516115c5929190613fb5565b60405180910390a15050565b606c60009054906101000a900473ffffffffffffffffffffffffffffffffffffffff1681565b60685481565b60026065541415611643576040517f08c379a000000000000000000000000000000000000000000000000000000000815260040161163a90614236565b60405180910390fd5b60026065819055506000607360003373ffffffffffffffffffffffffffffffffffffffff1673ffffffffffffffffffffffffffffffffffffffff168152602001908152602001600020905061169661310f565b6000816000015411156118ce576000611718826001015461170a60706000600160ff1660ff168152602001908152602001600020546116fc606e6000600160ff1660ff16815260200190815260200160002054876000015461337490919063ffffffff16565b61338a90919063ffffffff16565b6130f990919063ffffffff16565b905060008111156117b75761176860726000600160ff1660ff16815260200190815260200160002060009054906101000a900473ffffffffffffffffffffffffffffffffffffffff1633836133a0565b3373ffffffffffffffffffffffffffffffffffffffff167f47cee97cb7acd717b3c0aa1435d004cd5b3c8c57d70dbceb4e4458bbd60e39d4826040516117ae9190614276565b60405180910390a25b600061182c836002015461181e60706000600260ff1660ff16815260200190815260200160002054611810606e6000600260ff1660ff16815260200190815260200160002054886000015461337490919063ffffffff16565b61338a90919063ffffffff16565b6130f990919063ffffffff16565b905060008111156118cb5761187c60726000600260ff1660ff16815260200190815260200160002060009054906101000a900473ffffffffffffffffffffffffffffffffffffffff1633836133a0565b3373ffffffffffffffffffffffffffffffffffffffff167f47cee97cb7acd717b3c0aa1435d004cd5b3c8c57d70dbceb4e4458bbd60e39d4826040516118c29190614276565b60405180910390a25b50505b61192b60706000600160ff1660ff1681526020019081526020016000205461191d606e6000600160ff1660ff16815260200190815260200160002054846000015461337490919063ffffffff16565b61338a90919063ffffffff16565b816001018190555061199060706000600260ff1660ff16815260200190815260200160002054611982606e6000600260ff1660ff16815260200190815260200160002054846000015461337490919063ffffffff16565b61338a90919063ffffffff16565b8160020181905550506001606581905550565b60716020528060005260406000206000915054906101000a900460ff1681565b606e6020528060005260406000206000915090505481565b606a5481565b6119e9612feb565b73ffffffffffffffffffffffffffffffffffffffff16611a07611d96565b73ffffffffffffffffffffffffffffffffffffffff1614611a5d576040517f08c379a0000000000000000000000000000000000000000000000000000000008152600401611a5490614156565b60405180910390fd5b611a676000613497565b565b611a71612feb565b73ffffffffffffffffffffffffffffffffffffffff16611a8f611d96565b73ffffffffffffffffffffffffffffffffffffffff1614611ae5576040517f08c379a0000000000000000000000000000000000000000000000000000000008152600401611adc90614156565b60405180910390fd5b6068544310611b29576040517f08c379a0000000000000000000000000000000000000000000000000000000008152600401611b2090614076565b60405180910390fd5b611b3e8160685461307990919063ffffffff16565b606781905550611b4e6001611c19565b611b586002611c19565b7f55baa248360bce74a89304071ca6e882f61d2226c15dde53a4ec1e05af523d92606754604051611b899190614276565b60405180910390a150565b611b9c612feb565b73ffffffffffffffffffffffffffffffffffffffff16611bba611d96565b73ffffffffffffffffffffffffffffffffffffffff1614611c10576040517f08c379a0000000000000000000000000000000000000000000000000000000008152600401611c0790614156565b60405180910390fd5b43606781905550565b611c21612feb565b73ffffffffffffffffffffffffffffffffffffffff16611c3f611d96565b73ffffffffffffffffffffffffffffffffffffffff1614611c95576040517f08c379a0000000000000000000000000000000000000000000000000000000008152600401611c8c90614156565b60405180910390fd5b6000607260008360ff1660ff16815260200190815260200160002060009054906101000a900473ffffffffffffffffffffffffffffffffffffffff1673ffffffffffffffffffffffffffffffffffffffff166370a08231306040518263ffffffff1660e01b8152600401611d099190613f63565b60206040518083038186803b158015611d2157600080fd5b505afa158015611d35573d6000803e3d6000fd5b505050506040513d601f19601f82011682018060405250810190611d599190613af2565b9050611d75611d66612faa565b8261338a90919063ffffffff16565b606f60008460ff1660ff168152602001908152602001600020819055505050565b6000603360009054906101000a900473ffffffffffffffffffffffffffffffffffffffff16905090565b611dc8612feb565b73ffffffffffffffffffffffffffffffffffffffff16611de6611d96565b73ffffffffffffffffffffffffffffffffffffffff1614611e3c576040517f08c379a0000000000000000000000000000000000000000000000000000000008152600401611e3390614156565b60405180910390fd5b6068544310611e80576040517f08c379a0000000000000000000000000000000000000000000000000000000008152600401611e7790614076565b60405180910390fd5b808210611ec2576040517f08c379a0000000000000000000000000000000000000000000000000000000008152600401611eb990614096565b60405180910390fd5b814310611f04576040517f08c379a0000000000000000000000000000000000000000000000000000000008152600401611efb90614136565b60405180910390fd5b81606881905550806067819055506068546069819055507f7cd0ab87d19036f3dfadadb232c78aa4879dda3f0c994a9d637532410ee2ce068282604051611f4c929190614291565b60405180910390a15050565b611f60612feb565b73ffffffffffffffffffffffffffffffffffffffff16611f7e611d96565b73ffffffffffffffffffffffffffffffffffffffff1614611fd4576040517f08c379a0000000000000000000000000000000000000000000000000000000008152600401611fcb90614156565b60405180910390fd5b6068544310612018576040517f08c379a000000000000000000000000000000000000000000000000000000000815260040161200f90614076565b60405180910390fd5b80606f60008460ff1660ff168152602001908152602001600020819055507f0c4d677eef92893ac7ec52faf8140fc6c851ab4736302b4f3a89dfb20696a0df816040516120659190614276565b60405180910390a15050565b60695481565b60706020528060005260406000206000915090505481565b612097612feb565b73ffffffffffffffffffffffffffffffffffffffff166120b5611d96565b73ffffffffffffffffffffffffffffffffffffffff161461210b576040517f08c379a000000000000000000000000000000000000000000000000000000000815260040161210290614156565b60405180910390fd5b606854431061214f576040517f08c379a000000000000000000000000000000000000000000000000000000000815260040161214690614076565b60405180910390fd5b6000612159612faa565b9050816068819055506121778160685461307990919063ffffffff16565b6067819055506068546069819055507f7cd0ab87d19036f3dfadadb232c78aa4879dda3f0c994a9d637532410ee2ce066068546067546040516121bb929190614291565b60405180910390a15050565b6002606554141561220d576040517f08c379a000000000000000000000000000000000000000000000000000000000815260040161220490614236565b60405180910390fd5b60026065819055506000607360003373ffffffffffffffffffffffffffffffffffffffff1673ffffffffffffffffffffffffffffffffffffffff168152602001908152602001600020905061226061310f565b6000816000015411156123fc5760006122e282600101546122d460706000600160ff1660ff168152602001908152602001600020546122c6606e6000600160ff1660ff16815260200190815260200160002054876000015461337490919063ffffffff16565b61338a90919063ffffffff16565b6130f990919063ffffffff16565b905060008111156123335761233260726000600160ff1660ff16815260200190815260200160002060009054906101000a900473ffffffffffffffffffffffffffffffffffffffff1633836133a0565b5b60006123a8836002015461239a60706000600160ff1660ff1681526020019081526020016000205461238c606e6000600260ff1660ff16815260200190815260200160002054886000015461337490919063ffffffff16565b61338a90919063ffffffff16565b6130f990919063ffffffff16565b905060008111156123f9576123f860726000600260ff1660ff16815260200190815260200160002060009054906101000a900473ffffffffffffffffffffffffffffffffffffffff1633836133a0565b5b50505b60008211156124945761241c82826000015461307990919063ffffffff16565b8160000181905550612473333084606d60009054906101000a900473ffffffffffffffffffffffffffffffffffffffff1673ffffffffffffffffffffffffffffffffffffffff1661355d909392919063ffffffff16565b600081600301541461248957806003015461248b565b425b81600301819055505b6124f160706000600160ff1660ff168152602001908152602001600020546124e3606e6000600160ff1660ff16815260200190815260200160002054846000015461337490919063ffffffff16565b61338a90919063ffffffff16565b816001018190555061255660706000600260ff1660ff16815260200190815260200160002054612548606e6000600260ff1660ff16815260200190815260200160002054846000015461337490919063ffffffff16565b61338a90919063ffffffff16565b81600201819055503373ffffffffffffffffffffffffffffffffffffffff167fe1fffcc4923d04b559f4d29a8bfc6cda04eb5b0d3c460751c2402c5c5cc9109c836040516125a49190614276565b60405180910390a250600160658190555050565b600080607360008473ffffffffffffffffffffffffffffffffffffffff1673ffffffffffffffffffffffffffffffffffffffff16815260200190815260200160002090506000600160ff168560ff161461261657816002015461261c565b81600101545b90506000606d60009054906101000a900473ffffffffffffffffffffffffffffffffffffffff1673ffffffffffffffffffffffffffffffffffffffff166370a08231306040518263ffffffff1660e01b815260040161267b9190613f63565b60206040518083038186803b15801561269357600080fd5b505afa1580156126a7573d6000803e3d6000fd5b505050506040513d601f19601f820116820180604052508101906126cb9190613af2565b9050606954431180156126df575060008114155b156127f25760006126f2606954436135e6565b90506000612722606f60008a60ff1660ff168152602001908152602001600020548361337490919063ffffffff16565b9050600061278f61276785612759607060008e60ff1660ff168152602001908152602001600020548661337490919063ffffffff16565b61338a90919063ffffffff16565b606e60008c60ff1660ff1681526020019081526020016000205461307990919063ffffffff16565b90506127e5856127d7607060008d60ff1660ff168152602001908152602001600020546127c9858b6000015461337490919063ffffffff16565b61338a90919063ffffffff16565b6130f990919063ffffffff16565b9650505050505050612865565b61285f82612851607060008a60ff1660ff16815260200190815260200160002054612843606e60008c60ff1660ff16815260200190815260200160002054886000015461337490919063ffffffff16565b61338a90919063ffffffff16565b6130f990919063ffffffff16565b93505050505b92915050565b612873612feb565b73ffffffffffffffffffffffffffffffffffffffff16612891611d96565b73ffffffffffffffffffffffffffffffffffffffff16146128e7576040517f08c379a00000000000000000000000000000000000000000000000000000000081526004016128de90614156565b60405180910390fd5b606754431161292b576040517f08c379a000000000000000000000000000000000000000000000000000000000815260040161292290614056565b60405180910390fd5b6000607260008460ff1660ff16815260200190815260200160002060009054906101000a900473ffffffffffffffffffffffffffffffffffffffff1673ffffffffffffffffffffffffffffffffffffffff166370a08231306040518263ffffffff1660e01b815260040161299f9190613f63565b60206040518083038186803b1580156129b757600080fd5b505afa1580156129cb573d6000803e3d6000fd5b505050506040513d601f19601f820116820180604052508101906129ef9190613af2565b905060008111612a34576040517f08c379a0000000000000000000000000000000000000000000000000000000008152600401612a2b906140d6565b60405180910390fd5b612a988282607260008760ff1660ff16815260200190815260200160002060009054906101000a900473ffffffffffffffffffffffffffffffffffffffff1673ffffffffffffffffffffffffffffffffffffffff16612ff39092919063ffffffff16565b505050565b6000612b00607160008460ff1660ff16815260200190815260200160002060009054906101000a900460ff1660ff16600a612ad89190614426565b606f60008560ff1660ff1681526020019081526020016000205461338a90919063ffffffff16565b9050919050565b606d60009054906101000a900473ffffffffffffffffffffffffffffffffffffffff1681565b612b35612feb565b73ffffffffffffffffffffffffffffffffffffffff16612b53611d96565b73ffffffffffffffffffffffffffffffffffffffff1614612ba9576040517f08c379a0000000000000000000000000000000000000000000000000000000008152600401612ba090614156565b60405180910390fd5b612bb28261208f565b612bbb81611a69565b5050565b60026065541415612c05576040517f08c379a0000000000000000000000000000000000000000000000000000000008152600401612bfc90614236565b60405180910390fd5b60026065819055506000607360003373ffffffffffffffffffffffffffffffffffffffff1673ffffffffffffffffffffffffffffffffffffffff16815260200190815260200160002090506000816000015490506000826000018190555060008260010181905550600082600201819055506000811115612d9357606a548260030154612c92919061434c565b421015612d45576000612cc4612710612cb6606b548561337490919063ffffffff16565b61338a90919063ffffffff16565b9050612d35606c60009054906101000a900473ffffffffffffffffffffffffffffffffffffffff1682606d60009054906101000a900473ffffffffffffffffffffffffffffffffffffffff1673ffffffffffffffffffffffffffffffffffffffff16612ff39092919063ffffffff16565b8082612d41919061459e565b9150505b612d923382606d60009054906101000a900473ffffffffffffffffffffffffffffffffffffffff1673ffffffffffffffffffffffffffffffffffffffff16612ff39092919063ffffffff16565b5b3373ffffffffffffffffffffffffffffffffffffffff167f5fafa99d0643513820be26656b45130b01e1c03062e1266bf36f88cbd3bd969582604051612dd99190614276565b60405180910390a250506001606581905550565b612df5612feb565b73ffffffffffffffffffffffffffffffffffffffff16612e13611d96565b73ffffffffffffffffffffffffffffffffffffffff1614612e69576040517f08c379a0000000000000000000000000000000000000000000000000000000008152600401612e6090614156565b60405180910390fd5b80606a819055507fd2a4f919593bfa0565c404bb5e42080750d07eedb9dfa9907c22be9e29c02a98606a54604051612ea19190614276565b60405180910390a150565b606b5481565b612eba612feb565b73ffffffffffffffffffffffffffffffffffffffff16612ed8611d96565b73ffffffffffffffffffffffffffffffffffffffff1614612f2e576040517f08c379a0000000000000000000000000000000000000000000000000000000008152600401612f2590614156565b60405180910390fd5b600073ffffffffffffffffffffffffffffffffffffffff168173ffffffffffffffffffffffffffffffffffffffff161415612f9e576040517f08c379a0000000000000000000000000000000000000000000000000000000008152600401612f9590614036565b60405180910390fd5b612fa781613497565b50565b6000612fc36068546067546130f990919063ffffffff16565b905090565b6000808273ffffffffffffffffffffffffffffffffffffffff163b119050919050565b600033905090565b6130748363a9059cbb60e01b8484604051602401613012929190613fb5565b604051602081830303815290604052907bffffffffffffffffffffffffffffffffffffffffffffffffffffffff19166020820180517bffffffffffffffffffffffffffffffffffffffffffffffffffffffff838183161783525050505061363b565b505050565b60008183613087919061434c565b905092915050565b600061309a30612fc8565b15905090565b600060019054906101000a900460ff166130ef576040517f08c379a00000000000000000000000000000000000000000000000000000000081526004016130e6906141f6565b60405180910390fd5b6130f7613702565b565b60008183613107919061459e565b905092915050565b606954431161311d57613372565b6000606d60009054906101000a900473ffffffffffffffffffffffffffffffffffffffff1673ffffffffffffffffffffffffffffffffffffffff166370a08231306040518263ffffffff1660e01b815260040161317a9190613f63565b60206040518083038186803b15801561319257600080fd5b505afa1580156131a6573d6000803e3d6000fd5b505050506040513d601f19601f820116820180604052508101906131ca9190613af2565b905060008114156131e2574360698190555050613372565b60006131f0606954436135e6565b90506000613221606f6000600160ff1660ff168152602001908152602001600020548361337490919063ffffffff16565b90506000613252606f6000600260ff1660ff168152602001908152602001600020548461337490919063ffffffff16565b90506132bf6132968561328860706000600160ff1660ff168152602001908152602001600020548661337490919063ffffffff16565b61338a90919063ffffffff16565b606e6000600160ff1660ff1681526020019081526020016000205461307990919063ffffffff16565b606e6000600160ff1660ff1681526020019081526020016000208190555061334861331f8561331160706000600260ff1660ff168152602001908152602001600020548561337490919063ffffffff16565b61338a90919063ffffffff16565b606e6000600260ff1660ff1681526020019081526020016000205461307990919063ffffffff16565b606e6000600260ff1660ff1681526020019081526020016000208190555043606981905550505050505b565b600081836133829190614544565b905092915050565b6000818361339891906143a2565b905092915050565b60008373ffffffffffffffffffffffffffffffffffffffff166370a08231306040518263ffffffff1660e01b81526004016133db9190613f63565b60206040518083038186803b1580156133f357600080fd5b505afa158015613407573d6000803e3d6000fd5b505050506040513d601f19601f8201168201806040525081019061342b9190613af2565b9050808211156134655761346083828673ffffffffffffffffffffffffffffffffffffffff16612ff39092919063ffffffff16565b613491565b61349083838673ffffffffffffffffffffffffffffffffffffffff16612ff39092919063ffffffff16565b5b50505050565b6000603360009054906101000a900473ffffffffffffffffffffffffffffffffffffffff16905081603360006101000a81548173ffffffffffffffffffffffffffffffffffffffff021916908373ffffffffffffffffffffffffffffffffffffffff1602179055508173ffffffffffffffffffffffffffffffffffffffff168173ffffffffffffffffffffffffffffffffffffffff167f8be0079c531659141344cd1fd0a4f28419497f9722a3daafe3b4186f6b6457e060405160405180910390a35050565b6135e0846323b872dd60e01b85858560405160240161357e93929190613f7e565b604051602081830303815290604052907bffffffffffffffffffffffffffffffffffffffffffffffffffffffff19166020820180517bffffffffffffffffffffffffffffffffffffffffffffffffffffffff838183161783525050505061363b565b50505050565b6000606754821161360b5761360483836130f990919063ffffffff16565b9050613635565b606754831061361d5760009050613635565b613632836067546130f990919063ffffffff16565b90505b92915050565b600061369d826040518060400160405280602081526020017f5361666545524332303a206c6f772d6c6576656c2063616c6c206661696c65648152508573ffffffffffffffffffffffffffffffffffffffff166137639092919063ffffffff16565b90506000815111156136fd57808060200190518101906136bd91906139ee565b6136fc576040517f08c379a00000000000000000000000000000000000000000000000000000000081526004016136f390614216565b60405180910390fd5b5b505050565b600060019054906101000a900460ff16613751576040517f08c379a0000000000000000000000000000000000000000000000000000000008152600401613748906141f6565b60405180910390fd5b61376161375c612feb565b613497565b565b6060613772848460008561377b565b90509392505050565b6060824710156137c0576040517f08c379a00000000000000000000000000000000000000000000000000000000081526004016137b7906140b6565b60405180910390fd5b6137c985612fc8565b613808576040517f08c379a00000000000000000000000000000000000000000000000000000000081526004016137ff906141b6565b60405180910390fd5b6000808673ffffffffffffffffffffffffffffffffffffffff1685876040516138319190613f4c565b60006040518083038185875af1925050503d806000811461386e576040519150601f19603f3d011682016040523d82523d6000602084013e613873565b606091505b509150915061388382828661388f565b92505050949350505050565b6060831561389f578290506138ef565b6000835111156138b25782518084602001fd5b816040517f08c379a00000000000000000000000000000000000000000000000000000000081526004016138e69190614014565b60405180910390fd5b9392505050565b60008135905061390581614af8565b92915050565b60008151905061391a81614b0f565b92915050565b60008135905061392f81614b26565b92915050565b60008135905061394481614b3d565b92915050565b60008151905061395981614b3d565b92915050565b60008135905061396e81614b54565b92915050565b60008151905061398381614b54565b92915050565b60006020828403121561399b57600080fd5b60006139a9848285016138f6565b91505092915050565b600080604083850312156139c557600080fd5b60006139d3858286016138f6565b92505060206139e485828601613935565b9150509250929050565b600060208284031215613a0057600080fd5b6000613a0e8482850161390b565b91505092915050565b600080600080600080600080610100898b031215613a3457600080fd5b6000613a428b828c01613920565b9850506020613a538b828c016138f6565b9750506040613a648b828c016138f6565b9650506060613a758b828c01613935565b9550506080613a868b828c01613935565b94505060a0613a978b828c01613935565b93505060c0613aa88b828c01613935565b92505060e0613ab98b828c016138f6565b9150509295985092959890939650565b600060208284031215613adb57600080fd5b6000613ae984828501613935565b91505092915050565b600060208284031215613b0457600080fd5b6000613b128482850161394a565b91505092915050565b60008060408385031215613b2e57600080fd5b6000613b3c85828601613935565b9250506020613b4d85828601613935565b9150509250929050565b600060208284031215613b6957600080fd5b6000613b778482850161395f565b91505092915050565b600060208284031215613b9257600080fd5b6000613ba084828501613974565b91505092915050565b60008060408385031215613bbc57600080fd5b6000613bca8582860161395f565b9250506020613bdb858286016138f6565b9150509250929050565b60008060408385031215613bf857600080fd5b6000613c068582860161395f565b9250506020613c1785828601613935565b9150509250929050565b613c2a816145d2565b82525050565b613c39816145e4565b82525050565b6000613c4a8261431a565b613c548185614330565b9350613c6481856020860161465d565b80840191505092915050565b613c7981614639565b82525050565b6000613c8a82614325565b613c94818561433b565b9350613ca481856020860161465d565b613cad816146ee565b840191505092915050565b6000613cc560268361433b565b9150613cd08261470c565b604082019050919050565b6000613ce8601c8361433b565b9150613cf38261475b565b602082019050919050565b6000613d0b60108361433b565b9150613d1682614784565b602082019050919050565b6000613d2e602e8361433b565b9150613d39826147ad565b604082019050919050565b6000613d5160268361433b565b9150613d5c826147fc565b604082019050919050565b6000613d7460198361433b565b9150613d7f8261484b565b602082019050919050565b6000613d9760158361433b565b9150613da282614874565b602082019050919050565b6000613dba602e8361433b565b9150613dc58261489d565b604082019050919050565b6000613ddd60308361433b565b9150613de8826148ec565b604082019050919050565b6000613e0060208361433b565b9150613e0b8261493b565b602082019050919050565b6000613e2360168361433b565b9150613e2e82614964565b602082019050919050565b6000613e46601b8361433b565b9150613e518261498d565b602082019050919050565b6000613e69601d8361433b565b9150613e74826149b6565b602082019050919050565b6000613e8c60168361433b565b9150613e97826149df565b602082019050919050565b6000613eaf602b8361433b565b9150613eba82614a08565b604082019050919050565b6000613ed2602a8361433b565b9150613edd82614a57565b604082019050919050565b6000613ef5601f8361433b565b9150613f0082614aa6565b602082019050919050565b6000613f1860168361433b565b9150613f2382614acf565b602082019050919050565b613f3781614622565b82525050565b613f468161462c565b82525050565b6000613f588284613c3f565b915081905092915050565b6000602082019050613f786000830184613c21565b92915050565b6000606082019050613f936000830186613c21565b613fa06020830185613c21565b613fad6040830184613f2e565b949350505050565b6000604082019050613fca6000830185613c21565b613fd76020830184613f2e565b9392505050565b6000602082019050613ff36000830184613c30565b92915050565b600060208201905061400e6000830184613c70565b92915050565b6000602082019050818103600083015261402e8184613c7f565b905092915050565b6000602082019050818103600083015261404f81613cb8565b9050919050565b6000602082019050818103600083015261406f81613cdb565b9050919050565b6000602082019050818103600083015261408f81613cfe565b9050919050565b600060208201905081810360008301526140af81613d21565b9050919050565b600060208201905081810360008301526140cf81613d44565b9050919050565b600060208201905081810360008301526140ef81613d67565b9050919050565b6000602082019050818103600083015261410f81613d8a565b9050919050565b6000602082019050818103600083015261412f81613dad565b9050919050565b6000602082019050818103600083015261414f81613dd0565b9050919050565b6000602082019050818103600083015261416f81613df3565b9050919050565b6000602082019050818103600083015261418f81613e16565b9050919050565b600060208201905081810360008301526141af81613e39565b9050919050565b600060208201905081810360008301526141cf81613e5c565b9050919050565b600060208201905081810360008301526141ef81613e7f565b9050919050565b6000602082019050818103600083015261420f81613ea2565b9050919050565b6000602082019050818103600083015261422f81613ec5565b9050919050565b6000602082019050818103600083015261424f81613ee8565b9050919050565b6000602082019050818103600083015261426f81613f0b565b9050919050565b600060208201905061428b6000830184613f2e565b92915050565b60006040820190506142a66000830185613f2e565b6142b36020830184613f2e565b9392505050565b60006080820190506142cf6000830187613f2e565b6142dc6020830186613f2e565b6142e96040830185613f2e565b6142f66060830184613f2e565b95945050505050565b60006020820190506143146000830184613f3d565b92915050565b600081519050919050565b600081519050919050565b600081905092915050565b600082825260208201905092915050565b600061435782614622565b915061436283614622565b9250827fffffffffffffffffffffffffffffffffffffffffffffffffffffffffffffffff0382111561439757614396614690565b5b828201905092915050565b60006143ad82614622565b91506143b883614622565b9250826143c8576143c76146bf565b5b828204905092915050565b6000808291508390505b600185111561441d578086048111156143f9576143f8614690565b5b60018516156144085780820291505b8081029050614416856146ff565b94506143dd565b94509492505050565b600061443182614622565b915061443c83614622565b92506144697fffffffffffffffffffffffffffffffffffffffffffffffffffffffffffffffff8484614471565b905092915050565b600082614481576001905061453d565b8161448f576000905061453d565b81600181146144a557600281146144af576144de565b600191505061453d565b60ff8411156144c1576144c0614690565b5b8360020a9150848211156144d8576144d7614690565b5b5061453d565b5060208310610133831016604e8410600b84101617156145135782820a90508381111561450e5761450d614690565b5b61453d565b61452084848460016143d3565b9250905081840481111561453757614536614690565b5b81810290505b9392505050565b600061454f82614622565b915061455a83614622565b9250817fffffffffffffffffffffffffffffffffffffffffffffffffffffffffffffffff048311821515161561459357614592614690565b5b828202905092915050565b60006145a982614622565b91506145b483614622565b9250828210156145c7576145c6614690565b5b828203905092915050565b60006145dd82614602565b9050919050565b60008115159050919050565b60006145fb826145d2565b9050919050565b600073ffffffffffffffffffffffffffffffffffffffff82169050919050565b6000819050919050565b600060ff82169050919050565b60006146448261464b565b9050919050565b600061465682614602565b9050919050565b60005b8381101561467b578082015181840152602081019050614660565b8381111561468a576000848401525b50505050565b7f4e487b7100000000000000000000000000000000000000000000000000000000600052601160045260246000fd5b7f4e487b7100000000000000000000000000000000000000000000000000000000600052601260045260246000fd5b6000601f19601f8301169050919050565b60008160011c9050919050565b7f4f776e61626c653a206e6577206f776e657220697320746865207a65726f206160008201527f6464726573730000000000000000000000000000000000000000000000000000602082015250565b7f4572726f723a20506f6f6c206e6f742066696e69736865642079657400000000600082015250565b7f506f6f6c20686173207374617274656400000000000000000000000000000000600082015250565b7f4e6577207374617274426c6f636b206d757374206265206c6f7765722074686160008201527f6e206e657720656e64426c6f636b000000000000000000000000000000000000602082015250565b7f416464726573733a20696e73756666696369656e742062616c616e636520666f60008201527f722063616c6c0000000000000000000000000000000000000000000000000000602082015250565b7f4572726f723a204e6f2072656d61696e696e672066756e647300000000000000600082015250565b7f4572726f723a20496e76616c696420616d6f756e740000000000000000000000600082015250565b7f496e697469616c697a61626c653a20636f6e747261637420697320616c72656160008201527f647920696e697469616c697a6564000000000000000000000000000000000000602082015250565b7f4e6577207374617274426c6f636b206d7573742062652068696768657220746860008201527f616e2063757272656e7420626c6f636b00000000000000000000000000000000602082015250565b7f4f776e61626c653a2063616c6c6572206973206e6f7420746865206f776e6572600082015250565b7f43616e6e6f742062652072657761726420746f6b656e00000000000000000000600082015250565b7f416d6f756e7420746f20776974686472617720746f6f20686967680000000000600082015250565b7f416464726573733a2063616c6c20746f206e6f6e2d636f6e7472616374000000600082015250565b7f43616e6e6f74206265207374616b656420746f6b656e00000000000000000000600082015250565b7f496e697469616c697a61626c653a20636f6e7472616374206973206e6f74206960008201527f6e697469616c697a696e67000000000000000000000000000000000000000000602082015250565b7f5361666545524332303a204552433230206f7065726174696f6e20646964206e60008201527f6f74207375636365656400000000000000000000000000000000000000000000602082015250565b7f5265656e7472616e637947756172643a207265656e7472616e742063616c6c00600082015250565b7f4d75737420626520696e666572696f7220746f20333000000000000000000000600082015250565b614b01816145d2565b8114614b0c57600080fd5b50565b614b18816145e4565b8114614b2357600080fd5b50565b614b2f816145f0565b8114614b3a57600080fd5b50565b614b4681614622565b8114614b5157600080fd5b50565b614b5d8161462c565b8114614b6857600080fd5b5056fea264697066735822122094de4cd8d662b6cf1c4df67f26d239a30763b9995ec12ca0b21646898c4dc2f364736f6c63430008040033",
  "devdoc": {
    "kind": "dev",
    "methods": {
      "owner()": {
        "details": "Returns the address of the current owner."
      },
      "recoverWrongTokens(address,uint256)": {
        "details": "This function is only callable by admin.",
        "params": {
          "_tokenAddress": ": the address of the token to withdraw",
          "_tokenAmount": ": the number of tokens to withdraw"
        }
      },
      "renounceOwnership()": {
        "details": "Leaves the contract without owner. It will not be possible to call `onlyOwner` functions anymore. Can only be called by the current owner. NOTE: Renouncing ownership will leave the contract without an owner, thereby removing any functionality that is only available to the owner."
      },
      "transferOwnership(address)": {
        "details": "Transfers ownership of the contract to a new account (`newOwner`). Can only be called by the current owner."
      },
      "updateStartAndEndBlocks(uint256,uint256)": {
        "details": "This function is only callable by owner.",
        "params": {
          "_bonusEndBlock": ": the new end block",
          "_startBlock": ": the new start block"
        }
      }
    },
    "version": 1
  },
  "userdoc": {
    "kind": "user",
    "methods": {
      "recoverWrongTokens(address,uint256)": {
        "notice": "It allows the admin to recover wrong tokens sent to the contract"
      },
      "updateStartAndEndBlocks(uint256,uint256)": {
        "notice": "It allows the admin to update start and end blocks"
      }
    },
    "version": 1
  },
  "storageLayout": {
    "storage": [
      {
        "astId": 130,
        "contract": "contracts/GQGalacticAlliance.sol:GQGalacticAlliance",
        "label": "_initialized",
        "offset": 0,
        "slot": "0",
        "type": "t_bool"
      },
      {
        "astId": 133,
        "contract": "contracts/GQGalacticAlliance.sol:GQGalacticAlliance",
        "label": "_initializing",
        "offset": 1,
        "slot": "0",
        "type": "t_bool"
      },
      {
        "astId": 808,
        "contract": "contracts/GQGalacticAlliance.sol:GQGalacticAlliance",
        "label": "__gap",
        "offset": 0,
        "slot": "1",
        "type": "t_array(t_uint256)50_storage"
      },
      {
        "astId": 10,
        "contract": "contracts/GQGalacticAlliance.sol:GQGalacticAlliance",
        "label": "_owner",
        "offset": 0,
        "slot": "51",
        "type": "t_address"
      },
      {
        "astId": 122,
        "contract": "contracts/GQGalacticAlliance.sol:GQGalacticAlliance",
        "label": "__gap",
        "offset": 0,
        "slot": "52",
        "type": "t_array(t_uint256)49_storage"
      },
      {
        "astId": 1619,
        "contract": "contracts/GQGalacticAlliance.sol:GQGalacticAlliance",
        "label": "_status",
        "offset": 0,
        "slot": "101",
        "type": "t_uint256"
      },
      {
        "astId": 3505,
        "contract": "contracts/GQGalacticAlliance.sol:GQGalacticAlliance",
        "label": "isInitialized",
        "offset": 0,
        "slot": "102",
        "type": "t_bool"
      },
      {
        "astId": 3507,
        "contract": "contracts/GQGalacticAlliance.sol:GQGalacticAlliance",
        "label": "endBlock",
        "offset": 0,
        "slot": "103",
        "type": "t_uint256"
      },
      {
        "astId": 3509,
        "contract": "contracts/GQGalacticAlliance.sol:GQGalacticAlliance",
        "label": "startBlock",
        "offset": 0,
        "slot": "104",
        "type": "t_uint256"
      },
      {
        "astId": 3511,
        "contract": "contracts/GQGalacticAlliance.sol:GQGalacticAlliance",
        "label": "lastUpdateBlock",
        "offset": 0,
        "slot": "105",
        "type": "t_uint256"
      },
      {
        "astId": 3513,
        "contract": "contracts/GQGalacticAlliance.sol:GQGalacticAlliance",
        "label": "lockUpDuration",
        "offset": 0,
        "slot": "106",
        "type": "t_uint256"
      },
      {
        "astId": 3515,
        "contract": "contracts/GQGalacticAlliance.sol:GQGalacticAlliance",
        "label": "withdrawFee",
        "offset": 0,
        "slot": "107",
        "type": "t_uint256"
      },
      {
        "astId": 3517,
        "contract": "contracts/GQGalacticAlliance.sol:GQGalacticAlliance",
        "label": "feeAddress",
        "offset": 0,
        "slot": "108",
        "type": "t_address"
      },
      {
        "astId": 3520,
        "contract": "contracts/GQGalacticAlliance.sol:GQGalacticAlliance",
        "label": "stakedToken",
        "offset": 0,
        "slot": "109",
        "type": "t_contract(IERC20Upgradeable)275"
      },
      {
        "astId": 3524,
        "contract": "contracts/GQGalacticAlliance.sol:GQGalacticAlliance",
        "label": "mapOfAccTokenPerShare",
        "offset": 0,
        "slot": "110",
        "type": "t_mapping(t_uint8,t_uint256)"
      },
      {
        "astId": 3528,
        "contract": "contracts/GQGalacticAlliance.sol:GQGalacticAlliance",
        "label": "mapOfRewardPerBlock",
        "offset": 0,
        "slot": "111",
        "type": "t_mapping(t_uint8,t_uint256)"
      },
      {
        "astId": 3532,
        "contract": "contracts/GQGalacticAlliance.sol:GQGalacticAlliance",
        "label": "mapOfPrecisionFactor",
        "offset": 0,
        "slot": "112",
        "type": "t_mapping(t_uint8,t_uint256)"
      },
      {
        "astId": 3536,
        "contract": "contracts/GQGalacticAlliance.sol:GQGalacticAlliance",
        "label": "mapOfRewardTokenDecimals",
        "offset": 0,
        "slot": "113",
        "type": "t_mapping(t_uint8,t_uint8)"
      },
      {
        "astId": 3540,
        "contract": "contracts/GQGalacticAlliance.sol:GQGalacticAlliance",
        "label": "mapOfRewardTokens",
        "offset": 0,
        "slot": "114",
        "type": "t_mapping(t_uint8,t_address)"
      },
      {
        "astId": 3545,
        "contract": "contracts/GQGalacticAlliance.sol:GQGalacticAlliance",
        "label": "userInfo",
        "offset": 0,
        "slot": "115",
        "type": "t_mapping(t_address,t_struct(UserInfo)3554_storage)"
      }
    ],
    "types": {
      "t_address": {
        "encoding": "inplace",
        "label": "address",
        "numberOfBytes": "20"
      },
      "t_array(t_uint256)49_storage": {
        "base": "t_uint256",
        "encoding": "inplace",
        "label": "uint256[49]",
        "numberOfBytes": "1568"
      },
      "t_array(t_uint256)50_storage": {
        "base": "t_uint256",
        "encoding": "inplace",
        "label": "uint256[50]",
        "numberOfBytes": "1600"
      },
      "t_bool": {
        "encoding": "inplace",
        "label": "bool",
        "numberOfBytes": "1"
      },
      "t_contract(IERC20Upgradeable)275": {
        "encoding": "inplace",
        "label": "contract IERC20Upgradeable",
        "numberOfBytes": "20"
      },
      "t_mapping(t_address,t_struct(UserInfo)3554_storage)": {
        "encoding": "mapping",
        "key": "t_address",
        "label": "mapping(address => struct GQGalacticAlliance.UserInfo)",
        "numberOfBytes": "32",
        "value": "t_struct(UserInfo)3554_storage"
      },
      "t_mapping(t_uint8,t_address)": {
        "encoding": "mapping",
        "key": "t_uint8",
        "label": "mapping(uint8 => address)",
        "numberOfBytes": "32",
        "value": "t_address"
      },
      "t_mapping(t_uint8,t_uint256)": {
        "encoding": "mapping",
        "key": "t_uint8",
        "label": "mapping(uint8 => uint256)",
        "numberOfBytes": "32",
        "value": "t_uint256"
      },
      "t_mapping(t_uint8,t_uint8)": {
        "encoding": "mapping",
        "key": "t_uint8",
        "label": "mapping(uint8 => uint8)",
        "numberOfBytes": "32",
        "value": "t_uint8"
      },
      "t_struct(UserInfo)3554_storage": {
        "encoding": "inplace",
        "label": "struct GQGalacticAlliance.UserInfo",
        "members": [
          {
            "astId": 3547,
            "contract": "contracts/GQGalacticAlliance.sol:GQGalacticAlliance",
            "label": "amount",
            "offset": 0,
            "slot": "0",
            "type": "t_uint256"
          },
          {
            "astId": 3549,
            "contract": "contracts/GQGalacticAlliance.sol:GQGalacticAlliance",
            "label": "rewardDebt1",
            "offset": 0,
            "slot": "1",
            "type": "t_uint256"
          },
          {
            "astId": 3551,
            "contract": "contracts/GQGalacticAlliance.sol:GQGalacticAlliance",
            "label": "rewardDebt2",
            "offset": 0,
            "slot": "2",
            "type": "t_uint256"
          },
          {
            "astId": 3553,
            "contract": "contracts/GQGalacticAlliance.sol:GQGalacticAlliance",
            "label": "firstDeposit",
            "offset": 0,
            "slot": "3",
            "type": "t_uint256"
          }
        ],
        "numberOfBytes": "128"
      },
      "t_uint256": {
        "encoding": "inplace",
        "label": "uint256",
        "numberOfBytes": "32"
      },
      "t_uint8": {
        "encoding": "inplace",
        "label": "uint8",
        "numberOfBytes": "1"
      }
    }
  }
}